:020000040000FA
:060000000201070229992C
:03002B00022DF6AD
:03004300022D9DEE
:03005300022A0F6F
:100083000227EFE5C754F84401F5C77901220000C0
:100093000080FB120086B900030200F1E4792178A5
:1000A30008B800028004F709D8FCE479297802B87B
:1000B30000028004F709D8FCE490028178C5791521
:1000C3008002F0A3D8FCD9FA7A457B1790013778E0
:1000D3006479048015E493A3AD82AE838A828B8313
:1000E300F0A3AA82AB838D828E83D8E9D9E7758288
:1000F300407583D874031201197582917583007456
:100103000012011975D00075813F751881751902A8
:10011300759F00020096C09FF59FE473D09F22D085
:1001230083D082C09FE493C0E0740193C0E0740263
:1001330093F59F22FF0000B4000028002800283018
:1001430075A000A000A000A00000080008E001F0D6
:10015300001000100010001000100010005000509C
:1001630000500010001000D0070000000000000F36
:100173000001000500307507001000010081FF0039
:10018300000000FFFFFFBC06DA06C206FE06FF0200
:10019300020208025000A0000000E803028A820164
:1001A30000004B82025682010000A017025C82010C
:1001B3000000BF02025682010000A117025E820105
:1001C3000000D502025682010000A21702608201DC
:1001D3000000D702025682010000A31702628208C0
:1001E3000000D802025682010000A41702648201B3
:1001F3000000A517FF0100FF20028A8201000051C1
:100203008202568201000009180266820000000083
:1002130000025A8203000006031700700D700D7070
:100223000D700D700D700D700D700D700D700D70E3
:100233000D700D700D16102810101002020202022C
:1002430002020202010D0000001001028A82010075
:1002530000A5810256820100004C18027882010039
:100263000040070256820100004D18027682010009
:10027300008C810256820100004E18027482010034
:100283000062810256820100004F1802728201004F
:1002930000FD800256820100005018026C820100AA
:1002A300000F81025682010000511802888201006A
:1002B30000EB80025682010000521802688201009E
:1002C30000D9800256820100005318028C8201007B
:1002D300007E8102568201000054180270820100E0
:1002E30000551801E8030577100AFFFFFF000130EE
:1002F300750302010600000000000000000000007A
:1003030000000000000000000000000000000000EA
:1003130000FFFF0600800CE8030E09424C455065C0
:10032300726970686572616C051250002003020ADD
:10033300000201060302F0FF424C4520506572693A
:1003430070686572616C00000000000000761300A5
:10035300007C130A576F726B696E67206D6F64655B
:10036300000A50574D2064757479206379636C6576
:10037300000A56205468726573686F6C64001242F9
:10038300696B652062617474657279206C6576654A
:100393006C0012456C6563747269632063757272D5
:1003A300656E74206C6576656C00028A82010000BC
:1003B3004E820256820300006419027E820300000B
:1003C30020170258820300006519025682030000B9
:1003D3007219028082030000211702588203000071
:1003E30073190256820300008219028282030000FD
:1003F300221702588203000083190256820100006B
:100403008F1902848201000026170258820100001E
:100413009019025A820300002A1702568201000033
:10042300A3190286820100002C17025882010000E2
:10043300A419025A820300003017000000000000D4
:100443000000303132333435363738394142434492
:10045300454600286E756C6C20706F696E7465720A
:1004630029003031323334353637383961626364C9
:100473006566003F3F3F000000807F0000803F0033
:10048300000000F9021550B743BA510000204100A3
:10049300E7DB2E0000A04012012225B40312012243
:1004A30038B40312012269B403120122A3B4031264
:1004B3000122FCB40312012243B5031201228BB5BE
:1004C30003120122BAB503120122E9B50312012274
:1004D30020B60312012267B60312012280B603126B
:1004E3000122D5B603120122EEB6031201223CB754
:1004F3000312012276B7031201220CDE021201223B
:100503000FDF0212012248DF021201226BDF021207
:1005130001227DDF02120122BBDF0212012237E03A
:1005230002120122FFE00212012221E10212012242
:10053300B8E1021201220AE2021201223BE2021294
:10054300012248E202120122B2E20212012209E36D
:10055300021201220CE30212012245E302120122DC
:1005630048E30212012252E302120122A6E302121D
:100573000122E7E3021201221AE40212012257E4E4
:100583000212012259E502120122FDE502120122A3
:1005930066E602120122A4E60212012244AC03120F
:1005A30001226CAC0312012299AC03120122D1ACDB
:1005B300031201222FAD031201227BAD031201228C
:1005C300E2AD0312012222AE031201225FAE031237
:1005D30001228DAE0312012237AF0312012241AF74
:1005E300031201224EAF0312012281AF0312012233
:1005F3008DAF03120122A5AF03120122AFAF031285
:100603000122C1D503120122CFD503120122E7D55E
:1006130003120122FED50312012245A70112012272
:10062300EFA70112012202A9011201227EA90112E0
:1006330001229CAA01120122D8AA0112012273AB42
:100643000112012257AC0112012223AD0112012232
:10065300B1AE0112012222AF01120122DCAF01125D
:100663000122CEB0011201220EB101120122C2B148
:1006730001120122F4B101120122EAB30112012293
:100683002CB4011201224AB401120122B0B40112A6
:1006930001227FB50112012243B60112012262B881
:1006A3000112012296F80112012280F9011201229E
:1006B3002BFA011201227CFA011201222CFB0112F6
:1006C30001229DFB0112012282FC01120122B6FCD0
:1006D30001120122AFFD01120122ECFD01120122E0
:1006E300C8FE0112012207FF0112012223FF01129A
:1006F300012259C803120122DDC80312012208C9CD
:100703000312012222CA031201223DB00312012265
:1007130053B00312012271B00312012282B10312FA
:1007230001228CB103120122B7B203120122AEB32C
:10073300031201221BB403120122B3790012012216
:10074300E97A00120122207B00120122777B00123A
:1007530001228C7D001201228F82011201221B8350
:10076300011201227F84011201228B8401120122D2
:10077300C684011201223585011201223E8601122F
:1007830001224787011201220E88011201226B897F
:1007930001120122898901120122A6890112012273
:1007A300538A01120122D08A01120122F88A01120E
:1007B3000122C28D01120122C78D01120122E08F95
:1007C300011201222E90011201229E900112012298
:1007D300DC9001120122B8910112012278920112D8
:1007E3000122C49201120122C792011201220B932A
:1007F3000112012253930112012292930112012249
:10080300B49301120122E893011201224B940112C5
:1008130001220080031201220E8003120122618053
:1008230003120122808003120122C58003120122D8
:10083300098203120122A48203120122E882031215
:100843000122128303120122818303120122C7832F
:10085300031201223E8403120122EF8403120122B8
:10086300202E00120122302E00120122D12E00125E
:1008730001222D2F00120122EA2F0012012206313C
:1008830000120122383100120122673100120122C5
:100893001433001201228B3500120122FB370012A0
:1008A3000122ED3800120122E63900120122ED3B4C
:1008B30000120122E13E0012012210400012012227
:1008C300144200120122244300120122B3440012F5
:1008D3000122A44500120122F245001201226146C1
:1008E30000120122854600120122D646001201227F
:1008F300774B00120122784C00120122D94C0012CE
:100903000122044D00120122CA4D001201221D8E44
:1009130003120122278E031201226C8E031201227D
:10092300808E03120122108F03120122498F0312BA
:100933000122848F03120122AD8F03120122019041
:10094300031201221690031201223890031201228E
:100953004D9003120122619003120122769003123B
:100963000122B09003120122DC900312012225918F
:1009730003120122979103120122C2910312012251
:100983000592031201222F92031201225A9203129B
:100993000122B0D10312012270C00212012253C1FD
:1009A30002120122CEC10212012209C20212012245
:1009B3005AC302120122E8C3021201227AC60212AA
:1009C30001222CC70212012238C802120122ABC92C
:1009D3000212012204CA02120122DE96031201222C
:1009E300219703120122A597031201227C9A031275
:1009F3000122A4C30312012256C40312012252C5C9
:100A03000312012291C503120122EBC50312012235
:100A130051CA03120122B4CA0312012251CB031299
:100A2300012286CB03120122B6CB03120122F1CBA2
:100A33000312012211CC03120122018503120122A8
:100A43008D85031201224C8603120122648703124F
:100A530001227E8903120122DCA90212012201AACA
:100A630002120122CEAA02120122A2AB0212012219
:100A73000FAC021201224FAC02120122EBAC0212A4
:100A830001221FAE02120122FAAE0212012259AF55
:100A930002120122E5AF0212012253B00212012217
:100AA300DFB00212012225B10212012297B1021214
:100AB300012229B202120122CAB202120122EAB2AF
:100AC3000212012232B3021201227BB3021201226B
:100AD30097B302120122BDB30212012237B40212EC
:100AE300012245B402120122D4B4021201223DB5FF
:100AF300021201222E9B03120122B39B0312012235
:100B0300F59B03120122D99C03120122469D031275
:100B130001228A9D03120122CE9D03120122FB9D15
:100B230003120122239E031201225B9E0312012260
:100B3300999E03120122C09E031201223A9F0312BF
:100B430001226FB8011201220EBA0112012246BC22
:100B5300011201229ABC01120122C5BC0112012219
:100B6300A1BD01120122D1BD0112012200BE011259
:100B7300012213BE0112012254BE0112012281BEC1
:100B830001120122CFBE011201220BBF0112012269
:100B930050BF011201229DBF0112012217C0011291
:100BA300012258C20112012242C4011201227EC451
:100BB300011201220DC60112012252C601120122A5
:100BC300C5C6011201221AC7011201221FC7011251
:100BD3000122A9C701120122CBC701120122EAC8CF
:100BE30001120122FBC8011201226DD4021201225B
:100BF300E6D402120122A0DA02120122ABDB0212B6
:100C0300012254DD02120122E2DD02120122A0655B
:100C1300001201222166001201224E6600120122F7
:100C2300976600120122986700120122F1670012F1
:100C330001226D6900120122EF69001201220A6A82
:100C4300001201227B6A00120122386B001201227A
:100C5300FB6B00120122896C00120122406D00120D
:100C63000122536D00120122EC6D00120122836EEA
:100C730000120122AA6E00120122136F0012012238
:100C83005D6F00120122AB6F00120122507000123F
:100C93000122EE70001201227B7100120122EC711D
:100CA300001201223372001201228B720012012200
:100CB300BD72001201227773001201227E740012AA
:100CC3000122C77400120122E47400120122037589
:100CD30000120122367600120122ED760012012263
:100CE3001277001201222777001201229777001250
:100CF3000122D87700120122FC78001201227D79AB
:100D030000120122ADCA02120122F8CA0212012204
:100D130004CB02120122D8CB02120122EFCB021222
:100D230001222CCC021201225DCC0212012295CCAD
:100D330002120122EBCC0212012201CD0212012286
:100D43003DCD0212012250CD0212012277CD0212B3
:100D53000122ABCD02120122D1CE021201221BD0FD
:100D63000212012217D10212012234D202120122ED
:100D7300F8FF02120122B4E901120122EFE9011284
:100D8300012241ED011201229DEE011201225CEFCD
:100D930001120122C3F201120122ADF30112012259
:100DA300F9F30112012213F40112012250F401128A
:100DB30001225BF4011201229AF401120122A3F42D
:100DC300011201224DF50112012224F60112012222
:100DD30078F601120122D5F60112012247F701121A
:100DE300012223950112012282980112012288987F
:100DF30001120122B99F01120122C0A30112012293
:100E030014BB03120122F1BB0312012235BC0312EE
:100E130001226FBC0312012207BD0312012276BD1A
:100E2300031201227FBD031201228BBD0312012293
:100E3300A5BD03120122CFBD03120122FFBD031280
:100E4300012202A8031201220FA80312012229A8DA
:100E5300031201225CA8031201229AA803120122A1
:100E6300FFA80312012214A9031201221FA90312CE
:100E730001222CA90312012243A90312012251A921
:100E8300031201225CA90312012268A903120122A1
:100E930077A90312012282A903120122A5A9031231
:100EA300012249AA0312012259AA0312012273AA99
:100EB3000312012290AA03120122ABAA03120122F8
:100EC300D0AA03120122DBAA03120122F0AA031201
:100ED300012204AB0312012265AB031201226BABA7
:100EE3000312012271AB0312012277AB0312012219
:100EF3008FAB03120122C2AB03120122599C0212CF
:100F03000122F09C02120122889D02120122789E86
:100F130002120122AF9E02120122C29E021201227C
:100F2300309F02120122CBA002120122F2A0021270
:100F3300012294A102120122C9A102120122DAA103
:100F43000212012253A20212012274A202120122EE
:100F53008CA202120122E4A302120122EDA50212C5
:100F630001223DA80212012240A9021201228FA9E7
:100F730002120122008002120122FD8002120122CC
:100F8300E88102120122F28102120122148202126A
:100F93000122208202120122728302120122A18302
:100FA30002120122D18402120122138502120122AC
:100FB3003F8602120122158702120122678702125D
:100FC3000122C68702120122FD87021201223888FC
:100FD30002120122D38B02120122EC8B0212012294
:100FE3006E8C021201227C8C02120122D18C02121D
:100FF3000122DF8C021201224C8D02120122BE8DCE
:1010030002120122048E0212012260B50212012291
:1010130082B5021201226CB70212012211BB021225
:10102300012254BC021201222EBD021201221FCC46
:101033000312012244CC03120122B5CC0312012274
:10104300CAE602120122D3E602120122DCE60212F0
:1010530001220DE8021201222CEA0212012262EAA5
:10106300021201229CEA02120122D2EA0212012296
:101073000CEB0212012240EB021201226CEB021272
:101083000122B5EB02120122EFEB0212012237EC2F
:10109300021201228DEC02120122C2EC0212012281
:1010A3001DED0212012257ED02120122A8ED0212D8
:1010B3000122DEED0212012218EE0212012246EE97
:1010C3000212012269EE02120122537F0012012251
:1010D3007F7F00120122DA7F00120122E47F0012D7
:1010E3000122F47F00120122DEB70312012205B8A8
:1010F3000312012230B80312012268D9031201221C
:10110300364E00120122C050001201228B520012EF
:101113000122F752001201225154001201221156EA
:10112300001201223A5600120122DD590012012257
:101133003A5B00120122785B001201222F5E00123B
:1011430001220E5F00120122456000120122556048
:10115300001201222464001201221DFA021201224C
:10116300A4FA021201229EFD0212012201FF0212C1
:10117300012247FF0212012258FF021201227DDAE7
:1011830003120122CAD703120122DAD70312012262
:10119300E9D70312012237D803120122CDD3031258
:1011A300012253D403120122BBD403120122FCFFF8
:1011B3000112012292DA031201227A9F0312012201
:1011C30026A00312012230A10312012286A10312D9
:1011D3000122CDA10312012274A2031201227EA2D5
:1011E30003120122FDA20312012215A303120122FD
:1011F3007BA3031201228A920312012284FF0112AC
:101203000122ECFF011201228ED603120122B7D66E
:1012130003120122E5D603120122F7EE0212012284
:1012230001EF0212012247EF0212012291EF021293
:101233000122E8EF0212012242F00212012261F0C0
:10124300021201226BF002120122BCF002120122EF
:10125300EAF002120122D1F102120122F6F2021285
:10126300012233F30212012276F30212012288F3E0
:1012730002120122A7F302120122B0F30212012289
:1012830062F402120122D5CD031201222BCE0312E6
:101293000122B8CE0312012217C10312012241C158
:1012A3000312012233C20312012219C303120122C2
:1012B3003DCF031201222DBE0312012263BE03128E
:1012C300012284BF03120122DDC00312012254D77D
:1012D300031201226AD70312012274D703120122D7
:1012E300ADD8031201228D8E0212012255920212F1
:1012F3000122EE92021201220A960212012273992E
:10130300021201228A9902120122229B0212012255
:101313006D9B02120122B58903120122C7890312B0
:101323000122B68A03120122E78A03120122348BB7
:1013330003120122948B03120122008C0312012257
:101343001EC9011201223DCE01120122D2CF011288
:10135300012222D001120122A0D00112012291D434
:10136300011201229FD5011201228CF402120122E3
:10137300ACF60212012200F80212012285F90212D0
:101383000122C0A3031201225BA40312012278A449
:101393000312012292A5031201220BA603120122BA
:1013A300D0A603120122C4D203120122DCD20312FB
:1013B3000122AAD303120122D4D4031201227CD026
:1013C30003120122C1D00312012216C60312012205
:1013D300CBD901120122DADE01120122F8D903125C
:1013E3000122B2D90312012233DA0312012211D9E5
:1013F3000312012221D9031201225FDA0300002222
:10140300E066701008A3E066700A08A3E066700443
:1014130008A3E06622C008C3E096F50808A3E09697
:10142300420808A3E096420808A3E0964208A2D225
:1014330065D033E5087001D3D00822C3E7960809C5
:10144300E7960809E7960809E79622C3E09608A3FA
:10145300E09608A3E09608A3E09622C008C3E096AE
:10146300F50808A3E096420808A3E096420808A3FB
:10147300E09645087001D3D00822080808E630E753
:1014830011121D37121495080808C64480C618188F
:101493001822181818E9799EC608CAC608CBC608C8
:1014A300CCC6C370207996CACBCC7019798ECBCCBD
:1014B30070137986CC700EF9802ACA33CACB33CB2A
:1014C300CC33CC331930E7F2CCCBCA33501470048D
:1014D300EA30E00DE4CA3ACACB3BCBCC3CCC500259
:1014E30009C3E913C6CC182313C6CB18C6CA18C63A
:1014F300F92212153520F01430E72B74FFFCFBFAA8
:10150300747F8022E4FCFBFA7480801AB48008BCE8
:1015130000F2BB00EF800F50EBF9E4C39AFAE49BAF
:10152300FBE49CFCE499C6CC18C6CB18C6CA18C603
:10153300F922E4C9C608CAC608CBC6D3330308CC0C
:10154300C63392F0C3947F402E94184019C9B9074B
:1015530004CACBCC225025C309CA33CACB33CBCC64
:1015630033CC33D9F422F4600DC9CCC313CB13CBE2
:10157300CA13CAD9F6CC22E4FCFBFA2214FCFBFA08
:1015830022E62618461846184622E7271947194720
:10159300194722181818E60846087009E626087045
:1015A30005E633F4220822191919E70947097009D6
:1015B300E727097005E733F4220922E6084608C342
:1015C300134608336002E633F422E7094709C313DD
:1015D3004709336002E733F4221215BE6025121562
:1015E300CD6020121584700302158D080808E76684
:1015F30070101819E766700A1819E766700418194D
:10160300E76622F4221215BE601C1215CD60171274
:101613001584700712158D7001D322C0D012158D59
:101623007006D0D0B322C32233D0D0501430E0F6AA
:10163300C3E7960809E7960809E7960809E796B30A
:101643002220E0D5E6970809E6970809E6970809F6
:10165300E697B3221215BE601B1215CD6016121544
:1016630084700712158D600CB322C0D012158D70D3
:1016730005D0D022C32233D0D0501330E0EBC3E7E0
:10168300960809E7960809E7960809E7962220E0F5
:10169300E4E6970809E6970809E6970809E697221A
:1016A300001215BE604F1215CD6012E7548066F626
:1016B300121596701112158D703B090909F4F6186D
:1016C300F618F618F6221215AA70151215840808D2
:1016D3000860EAE6447FF618768018E4F618F622E6
:1016E300121584601612158D7012E4F608F608F6CA
:1016F30008E65480F609090918181822EAC0E0EB35
:10170300C0E0ECC0E0EDC0E0E687F0A4FBACF0087D
:10171300E687F0A42CFCE435F0FA1809E687F0A478
:101723002C4B60027401CA35F0FCE433FB09E687F5
:10173300F0D2F7A42CCB35F0FC1908E687F0A42BE4
:10174300CC35F0FBE433FD0819E687F0D2E7A42C8F
:101753004ACB35F0CD3400FC09E687F0D2E7A42D5F
:10176300CC35F0FDE433FA0918E687F0D2F7A42C60
:10177300CD35F0CA3400FC08E687F0D2E7D2F7A4EF
:101783002ACC35F07A7E20E70B0ACB33CBCD33CD91
:10179300CC33CC33CB3350147004ED30E00ED2F1A4
:1017A300E4CD3DCDCC3CCC3B5005DA05C2F1EB5446
:1017B3007FC63308E63392F0FBE73309E733C39A76
:1017C300502D2B70190C0D4C4D70151806E608C3DF
:1017D30033700D20F10AA2F013F6E418800B4024B5
:1017E300E4F630F002768018F618F618F68024D363
:1017F3003B14501074FFA2F013F6187680E418F629
:1018030018F6800FA2F013F618E63303F618ECF679
:1018130018EDF6D0E0FDD0E0FCD0E0FBD0E0FA22FA
:101823001215CD60461215BE603DE9687008F618C2
:10183300F618F618F622748067F712185709090983
:10184300748067F7221215BE601D1215CD7005193D
:101853001919801A121596701F1215AAC37003E680
:10186300673319191940071818182208080874FF54
:10187300F618F618F618F6221215AA601712158D27
:10188300702192F01215847019501720F014080873
:1018930008090909E7F61819E7F61819E7F61819F8
:1018A300E7F62212158460E6E869701F0808E6244B
:1018B30080F608E436F618547FB47F0CE654806053
:1018C30007F6E418F618F622181822E9C6CC08C65B
:1018D300CD08C6CE08C6CFC0E0E8C0E0EAC0E0EB62
:1018E300C0E009E9F809E7FA09E7FBE6F918E6F8C1
:1018F300C3EC98ED99EE9AEBC2E7F5F0EFC2E795EA
:10190300F0500E600CEBCFFBEACEFAE9CDF9E8CC50
:10191300F8EAA2E7D2E7FAEB33FB13F5F0EEA2E71E
:10192300D2E7FEEF33FFC5F013A2E730E601B313AE
:10193300C5F0C3C0E0C0F07F00C39BFB605E94189A
:10194300600F401D14601AD0E023F9D0E0F8021AAA
:10195300298AF0E9486003D2F0E4AFF0FAF9F8809D
:101963003BEB30E40D89F0EA6003D2F0E4AFF0F929
:10197300CAF8EB30E30D88F0EF6002D2F0AFF0E489
:10198300CAC9F8EB54076014FBC3EA13FAE913F965
:10199300E813F8EF135002D2E0FFDBEDD0E0C0E034
:1019A30030E739C3E49FFFF5F0EC98FC42F0ED9982
:1019B300FD42F0EE9AFE42F0D0E0F9D0E0F8E5F017
:1019C300607AE923F9EE20E742D8028067C3EF3358
:1019D300FFEC33FCED33FDEE33FE80EAEC28FCED47
:1019E30039FDEE3AFED0E023F9D0E0F84002801B47
:1019F300C3EE13FEED13FDEC13FCEF135002D2E024
:101A0300FF08B800067F7F74FF802EEF3350178CDA
:101A1300F020F00260100CBC000C0DBD00080EBEDF
:101A2300000408E860DFE933E813FFEE2313FE4FF9
:101A33004D4C8008E95480FFE4FEFDFCEE33EF33A8
:101A4300F47004FCFD7E80D0E0FBD0E0FAD0E0F837
:101A5300D0E0CFC618CEC618CDC618CCC6F9221210
:101A630015BE7004181818221215CD700D74FFF6E8
:101A73001819F61819F61819F622E7548066F612A3
:101A83001584700F12158D70F014F608F608F60819
:101A9300F680D112158D700CF608F608768008E6EC
:101AA300447F80EC1215AD700C12159960BFE6549B
:101AB30080F6E480BB121599700519191980A5E801
:101AC30069700C763F18768018F618F6E8F922E666
:101AD300CDC0E018ECC0E0E633CD33CDD313F6E749
:101AE30019FCE7191933CC33C3947F400ECD9D50B5
:101AF3002408E65480F6E418F6800FF4043D1450ED
:101B03001408E6447FF6187680E418F618F6D0E059
:101B1300FCD0E0FD22CCD313CCFD18E4C6CBC0E04F
:101B230018E4C6CAC0E00808ED08C633E613F61881
:101B3300E433C675F003C3CA97CA09CB97CB199C84
:101B430040047D08802EBD0003021C0B16B6FF0562
:101B53000606081618C3CA33CACB33CB33CA27CAFF
:101B630009CB37CB193CC37D08803E187D0820E79D
:101B73005CC633C6CA33CACB33CB33DDF1D5F0EB06
:101B830030E77BCA97CA09CB974ACB199C406F4B66
:101B93007025E620E0218066187D08C3CA97CA092C
:101BA300CB97CB199CD3C633C6CA33CACB33CB33FB
:101BB30050C9DDE7D5F0E1D3E4C636C608C636C65C
:101BC30008C636C608C636C61818188031C3CA9761
:101BD300CA09CB97CB199CB34097C633C6CA33CA3D
:101BE300CB33CB33DD34D5F02EC6A2E0C640C8CA12
:101BF30027CA09CB37194A70BECB3CB480B9080851
:101C0300E63308E633601F181818D0E0FAD0E0FB7B
:101C1300D0E0FCD0E0FD22187D08CA27CA09CB37E3
:101C2300CB193CD3808013F618E4B67F11F618B6AF
:101C3300FF0EF618C60470D20808768080CAF6181C
:101C4300F618F680C5080808EAC0E0EBC0E086F0A5
:101C5300E7A4FA180986F0E7A42AFA180986F0E738
:101C6300A42AFA180986F0E7A42AFA1986F0E7A449
:101C7300FBE5F02AFA190886F0E7A42BFBE5F03A16
:101C8300FA190886F0E7A42BFBE5F03AFA181809CD
:101C930086F0E7A4C5F02BFBE43AFA1908E7C5F090
:101CA300C6A426F6E5F03BFBE43AFA1886F0E7A46F
:101CB300F6E5F00826F6E43B08F6E43A08F6D0E049
:101CC300FBD0E0FA22E4CFC0E0E4CEC0E0E4CDC034
:101CD300E0E4CCC0E075F020E626F608E633F6082B
:101CE300E633F608E633F6181818EC33FCED33FD4B
:101CF300EE33FEEF33FFC3EC9709ED9709EE970937
:101D0300EF97191919400FFFEC97FC09ED97FD099F
:101D1300EE97FE191906D5F0BFECF709EDF709EEBA
:101D2300F709EFF7191919D0E0FCD0E0FDD0E0FE78
:101D3300D0E0FF22181818E4C396F608E496F608D4
:101D4300E496F608E496F6226016080808C6C3135C
:101D5300C618C613C618C613C618C613C6D5E0EAF6
:101D6300227009080808226016181818C6C333C65B
:101D730008C633C608C633C608C633C6D5E0EA224A
:101D8300E627F60809E637F60809E637F60809E60E
:101D930037F622E026F608A3E036F608A3E036F687
:101DA30008A3E036F622E026F008A3E036F008A305
:101DB300E036F008A3E036F022C3E697F60809E61A
:101DC30097F60809E697F60809E697F622C3E09620
:101DD300F008A3E096F008A3E096F008A3E096F0DD
:101DE30022E056F608A3E056F608A3E056F608A349
:101DF300E056F622E056F008A3E056F008A3E056BA
:101E0300F008A3E056F022E0F608A3E0F608A3E00A
:101E1300F608A3E0F622E6F008A3E6F008A3E6F04E
:101E230008A3E6F022E0FAA3E0FBA3E0FCA3E0FDB5
:101E330022E0FCA3E0FDA3E0FEA3E0FF22ECF0A37D
:101E4300EDF0A3EEF0A3EFF022E0F8A3E0F9A3E0B6
:101E5300FAA3E0FB22E8F0A3E9F0A3EAF0A3EBF096
:101E630022CAC0E0E6F0A308DAFAD0E0FA22CAC038
:101E7300E0E0A3C582CCC582C583CDC583F0A3C5ED
:101E830082CCC582C583CDC583DAE6D0E0CA22C33E
:101E9300E498F8E499F9121ED38026C3E49AFAE48D
:101EA3009BFBE920E7E9121ED3E498F8E499F922B1
:101EB300C3E498F8E499F9121ED3E498F8E499F985
:101EC300C3E49AFAE49BFB22EB20E7CFE920E7E0A7
:101ED300B90010BB0008E88AF084F8AAF022E4FBFA
:101EE300C8FA22EB70227B10C833C8C933C93350F8
:101EF30007C39AC3DBF280069A50012ADBEAC83390
:101F0300F4C8C933F4C9FA2275F008E4C833C8C960
:101F130033C933C99AC99B5004C92AC93BD5F0ECCC
:101F2300FBC833F4C8E4C9FA22600D08C6A2E7135C
:101F3300C618C613C6D5E0F322600C08C6C313C681
:101F430018C613C6D5E0F422700422600D18C6C368
:101F530033C608C633C6D5E0F41822251810AF08D7
:101F6300F518400C15198008F51840021519D2AF61
:101F73002200C0D0251810AF08F518500C051980A1
:101F830008F51850020519D2AFD0D0222518F582D2
:101F930010AF08F518400C15198008F51840021504
:101FA30019D2AF851983222518F582E43519F583F3
:101FB300222518F8E43519F9222518FAE43519FB16
:101FC300222518FCE43519FD22E4732518C582C0C7
:101FD300E0E51934FFC583C0E0E518C3958224F812
:101FE30010AF088583198582188008858319858237
:101FF30018D2AFCEF0A3E520F0A37808E608F0A34B
:10200300DEFAEFF0A3E58124FAF8E608F0A3E60888
:10201300F0A3E608F0A30808E608F0A3E608F0A397
:1020230015811581D0E0FED0E0F815811581158169
:10203300E8C0E0EEC0E0222518C582C0E0E519340F
:10204300FFC583C0E0E518C3958224F910AF088566
:1020530083198582188008858319858218D2AFCEAB
:10206300F0A3E520F0A37808E608F0A3DEFAEFF08A
:10207300A3E58124FBF8E608F0A3E608F0A308082B
:10208300E608F0A3E608F0A315811581D0E0FED0A1
:10209300E0F815811581E8C0E0EEC0E022851983E0
:1020A300851882E0A3FEE0A3F5207808E0A3F608F4
:1020B300DFFAE0A3FFE0A3C0E0E0A3C0E0E0A3C039
:1020C300E0E0A3C0E0E0A3C0E010AF08858218857C
:1020D30083198008858218858319D2AFD083D08273
:1020E30002011F851983851882E0A3FEE0A3F52072
:1020F3007808E0A3F608DFFAE0A3FFE0A3C0E0E07E
:10210300A3C0E0E0A3C0E0E0A3C0E010AF08858275
:10211300188583198008858218858319D2AFD083E7
:10212300D08222C0D02518C582C0E0E51934FFC58E
:1021330083C0E0E518C3958224F310AF08858319A3
:102143008582188008858319858218D2AFC8F0A3C9
:10215300E9F0A3EAF0A3EBF0A37908E709F0A3D829
:10216300FAECF0A3EDF0A3EEF0A3EFF0A3D0E0F0D0
:10217300A3D0E0F0A3D0E0F0A3E520F0A3E5F0F0D6
:10218300A322851983851882E0C0E0A3E0F9A3E0C8
:10219300FAA3E0FBA37808E0F608A3DFFAE0FCA3C8
:1021A300E0FDA3E0FEA3E0FFA3E0C0E0A3E0C0E006
:1021B300A3E0F5D0A3E0F520A3E0A3F5F010AF086A
:1021C3008583198582188008858319858218D2AF83
:1021D300D082D083D0E0F8D0E03274048006740259
:1021E30080027401C0E0F404121F8FD0E0121E6459
:1021F300227404800474028000CCC0E0EDC0E0E5EA
:1022030018C39CCCAD1950011D10AF068C188D1945
:1022130080068C188D19D2AF121E71D0E0FDD0E06C
:10222300FC22D083D082E9C0E0E493A3C386F0C547
:10223300F095F0F908E493A386F0C5F095F0700BE0
:10224300E493A3C3994005E9048002A3E475F00273
:10225300A42582F582E5F03583F583D0E0F9E49394
:10226300A3C0E0E493C0E022D083D082ECC0E0EDD1
:10227300C0E0E493A3FCE493A3FDED4C600D1222B4
:10228300B7EC24FFFCED34FFFD80EFE493A3FCE403
:1022930093A3FDED4C600D1222F6EC24FFFCED340C
:1022A300FFFD80EFD0E0FDD0E0FCE493A3C0E0E4C9
:1022B30093C0E022C0E0C3E4939608740193961898
:1022C300400FE493667008087401936618700070F9
:1022D30019A3A3C3E49396087401939618A3A34088
:1022E3000DD0E0D0E0D0E00222A7A3A3A3A3A3A331
:1022F300D0E022C0E0C0F088F0E493667008087470
:10230300019366187000A8F0A3A3700BD0F0D0E07F
:0E231300D0E0D0E00222A7A3A3D0F0D0E022B9
:1023240074F612203AEAFEEBFF8C088D09EE243491
:10233400F8E43FF9E8FCE9FDEE2435122637FAEE1D
:102344002437122637F88508F0A4C885F00A8509D1
:10235400F0A4250AF9EA28F8E439F97A257B001271
:102364001ED3EA8C828D83F0FA131313541FF8EEF4
:1023740028F8E43FF9E8245DF582E439F583E0C008
:10238400E074075AF8D0E0B800028004C313D8FC04
:10239400A2E0EE50082434F582E43F80182436127B
:1023A4002637F5F0EA84A8F0EE28F8E43FF9E824AB
:1023B40038F582E439F583E0F97F030220E674F707
:1023C40012203AEAFEEBFFEE2434122637C0E0EE88
:1023D4002435F582E43FF583D0E0F08E828F83A329
:1023E400A3A3A3A3A3A3C082C0838E828F83A3A32A
:1023F400A3A3A3E0F8A3E0F9D083D082E0C398F5C7
:1024040008A3E099F509EE247F1226376401703E93
:10241400EE2480F582E43FF583C082C0838E828FF0
:1024240083A3A3A3A3A3E0240108A3E03400F9D069
:1024340083D082E0687003A3E06970127CB17D04EC
:10244400120CB0EE247FF582E43FF583E4F0AC088F
:10245400AD09EEFAEFFB122324E9F9122D8F7F0266
:102464000220E6C082C083851882851983E0F8A320
:10247400E0F9C3EA9CEB9D5010C3EC98ED99401B26
:10248400C3EA98EB995014800EC3EA98EB9940077D
:10249400C3EC98ED994004790180027900D083D08F
:1024A4008222EAC39CFAEB9DFB2274EF12203A903D
:1024B4000376E064086005E06407702A9061C8E070
:1024C40060249003A4E0F4601DE0F875F00BA4C848
:1024D400AAF02AF974A628FE740339FF8E828F832A
:1024E400A3A3A3E070030225BC906060E0C0E0EE0B
:1024F4002468F582E43FF583D0E0F0750C21750D76
:1025040005750800750900E5D914F50AE5D95403E1
:10251400F50E60127403650E6043E50A600AEE244A
:10252400671226377002807590051CE06401601FF5
:1025340012263460047A0480027A00E50AC39AFA07
:1025440095E0FB120B548A088B09EA4509700512C1
:102554000EDE806412263470048A0C8B0DE50A604A
:1025640012850C82850D83F50BE5D9F0A3150BE5D7
:102574000B70F6122634604474FC250AF50A780CB4
:102584001221E1AC0AA90EEEFAEFFB120D6A7402F5
:10259400121F74E97026AA08AB0912128C793D8EB9
:1025A400828F83A3A3A3A3E0FA7B001209BCEEFAF3
:1025B400EFFB120CD4120D7C7900806F7403650E4E
:1025C4006051850A1075110078101221E1AC0CAD30
:1025D4000DAA08AB09120D2E7402121F74EE2468A2
:1025E40012263764807004747F8001E0F50C780C47
:1025F4001221E5E50EF50C780C1221E5A90AAC08C8
:10260400AD099003A4E0FA7B001209927402121F30
:10261400748013900376E06408600BAC0CAD0DEE8F
:10262400FAEFFB120DF4120EEA79017F0A0220E69A
:10263400EE2483F582E43FF583E02274F212203A1B
:1026440074FC121F5EEAFEEBFF8909A2AFE433F5C6
:1026540008C2AF022709E0601B780C1221E1AC0B21
:10266400A90EEEFAEFFB120D647402121F747404C7
:10267400250BF50B7401250BF5D9850ED9E50B60F7
:1026840018F50A850C82850D83E0F5D9A385820CA3
:1026940085830D150AE50A70EA75E195EE2463F861
:1026A400E43FF97A007B00A2AFE433F50BC2AF88B4
:1026B400828983E0FCA3E0FDEC4D603A8882898343
:1026C400E0FAA3E0FB8A828B83E0FCA3E0FD88822E
:1026D4008983ECF0A3EDF08A828B83E4F0A3F08885
:1026E400828983E0FCA3E0FDEC4D700A8882898333
:1026F400A3A3E4F0A3F0E50BA2E092AF12128C9036
:1027040004B8E004F0EE2463122637F8A3E0F9E8F5
:10271400496064EE24631226372402F8A3E03400EF
:10272400F988828983E5822402F50CE43583F50D6A
:10273400E0F50BA3E0F50EEE246212263764017077
:10274400369061D0E0F812263460047C0480027C68
:10275400007480C398FA95E0FBE50B2CF8E4340090
:10276400F9E82402F8500109C3EA98EB99A2D2656A
:10277400D033400302265A9004B8E0604D9004B967
:10278400E0F89004B8E0C398500C74026509703AFC
:102794009004BAE060348E828F83A3A3A3A3E08560
:1027A40018828519831227DE7402121FAAE81227E1
:1027B400DE9004B7E028F07402121FC4AA18AB1903
:1027C40079011209E69004B8E4F0E508A2E092AFBA
:1027D4007404121F747F070220E6F0A3E4F090044F
:1027E400B8E0F8228521878522C622C0E074EB1266
:1027F4002126A2AFE433F508C2AF759B0090618235
:10280400E0A2E05030E591A2E0502A7591FE7401F7
:1028140065217021122982120E361229701221F4B8
:10282400122B397404121F74E964017005790112C2
:102834000E721224AE906182E0A2E5505DE591A291
:10284400E550577591DF900376E064076005E06416
:1028540008702F12298274016521703E120E3612FF
:1028640029701221F4122B397404121F74E96401C3
:1028740070057901120E727901EEFAEFFB12263F10
:102884008018E0640D7013900398E004F0642870DD
:1028940002E4F07A00E0F9120EF0906182E0A2E620
:1028A4004003022945E591A2E640030229457591BA
:1028B400BF900376E064057008120E1E120E2A8083
:1028C40003120E24752100120E7EE9900377F0792D
:1028D40000120E72120C207A017B00900375E0F94D
:1028E40012125C907803E064427056900520E01464
:1028F400F0704EC2AF1228FC00782AD0E0F618D04F
:10290400E0F6E59F5407F87005750DFF8003750D1B
:102914007FC4C0E07829E6F50A08E6550DF50B7486
:102924000B780A121F3CD0E0250AF8906270E0A2EE
:10293400E740F8E8C333906272F0906270E0D2E04E
:10294400F0906181E0A2E35009E5E9A2E350037548
:10295400E9F7A3E0A2E75009E591A2E750037591D6
:102964007FE508A2E092AF7F080221858E828F83E3
:10297400E0F8A3E0C82416F582E438F58322900336
:10298400A4E0F875F00BA4C8AAF02AF974A628FEEE
:10299400740339FF22C0E0C0D0C082C08390618339
:1029A400E0A2E05009E5BFA2E0500375BFFEE0A23B
:1029B400E15009E5BFA2E1500375BFFDE0A2E2507A
:1029C40009E5BFA2E2500375BFFBE0A2E35009E5AD
:1029D400BFA2E3500375BFF7E0A2E45009E5BFA22C
:1029E400E4500375BFEFE0A2E55009E5BFA2E5504E
:1029F4000375BFDFE0A2E65009E5BFA2E650037508
:102A0400BFBFD083D082D0D0D0E032C0E074F21205
:102A14002126E5A7A2E6500FE5A1A2E6500953A797
:102A2400BF75A1BF122A63E5A7A2E5500CE5A1A2D8
:102A3400E5500653A7DF75A1DFE5A7A2E15009E53C
:102A4400A1A2E1500375A1FDE5A7A2E2500CE5A106
:102A5400A2E2500653A7FB75A1FB7F0102218574F6
:102A6400F712203A752101900376E064067015127E
:102A74000DA08A828B83A3A3A3A3A3A3E0FAA3E05C
:102A8400FB120E0CA2AFE433FED2AF90037CE064E1
:102A94000170187A207B00900375E0F912132E7AE6
:102AA400207B00900375E0F9121262906182E0D2FB
:102AB400E6F090051DE0602185C622801690037B18
:102AC400E064017008E5C654F84405F5C653BEFC3D
:102AD4001227E87401652160E4EEA2E092AF7F0260
:102AE4000220E6008E238F2485822885832785187B
:102AF40082851983E0CEA3E0CF852882852783EBE6
:102B0400C9EAC8EDCBECCA75F010C3E833C8E933A1
:102B1400C9EA33CAEB33CBC3EA9EF526EB9FF5250E
:102B2400B35004AB25AA26EC33CCED33CDD5F0DA83
:102B3400AE23AF242274F112203A8A088B098C0A3E
:102B44008D0B90823C7808121DE4740F121FAA7832
:102B54000C121E0A90823C780C121DE47808790C41
:102B640012143E9081E850107808790C121DBC783C
:102B74000812145E4014800E780C7908121DBC787B
:102B84000C12145E50047901800279007F0802203F
:102B9400E674ED12203A8A088B098C0A8D0B908218
:102BA4003C7808121DE47413121FAA780C121E0A32
:102BB40090823C780C121DE4780C790812143E4083
:102BC400117808790C121DBCAA08AB09AC0AAD0B2C
:102BD40080227510007511007512007513017810AC
:102BE400790C121DBC78107908121D83AA10AB1140
:102BF400AC12AD137F0C0220E690823C7808121EC2
:102C04000A8A828B837808121DF77F040220E674F7
:102C1400F512203A8C828D837808121E0A8A828BE0
:102C2400837808121DD0122C6BC3E09CF0A3E09DA6
:102C3400122C5D402290822C7808121E0A8A828B04
:102C4400837808121DA98A828B83A3A3A3A3E024FB
:102C540020F0A3E0344EF080A0F088828983C3E0A2
:102C64009420A3E0944E22EA2404F8E43BF98C82F5
:102C74008D83A3A3A3A3E0FCA3E0FD888289832220
:102C840074F512203AE9FE9004D3E0FAA3E0FBEED7
:102C940029F8E433F9745228F582748139F583E014
:102CA4002AF508A3E03BF50978081221E19082088F
:102CB400121E28122AE87402121F748A088B098CC7
:102CC4000A8D0B74107808121D4BAA08AB097F04F7
:102CD4000220E674F112203A8A0C8B0D8C0E8D0FB3
:102CE4007411121FAA1221F87411121FAAE02401F0
:102CF400F508A3E03400F509E4F50AF50B780C793E
:102D040008121C489081F47808121E0A780C79087D
:102D1400121C48AA0CAB0DAC0EAD0F122AE87402BB
:102D2400121F748B09EA450960047A0180027A0053
:102D3400EC2AFCE43DFD7413121FAAE0F8A3E0F9A9
:102D4400E8FEE9FFECF8EDF97A717B02121ED388F4
:102D5400088909E4F50AF50B8E828F837808121E20
:102D640019ECF8EDF97A717B02121ED38A088B09EB
:102D740074057808121F4B8E828F83A3A3A3A3E547
:102D840008F0A3E509F07F080220E6C082C083E9C9
:102D9400906000F0D083D08222C0E0C0D0E8C0E0D0
:102DA400E9C0E0EAC0E0EBC0E0ECC0E0EDC0E0EE7A
:102DB400C0E0C082C083C0F0A2AFE433FED2AFC291
:102DC400C0E5D1A2E4500675D10F1211F0EEA2E0D5
:102DD40092AFD0F0D083D082D0E0FED0E0FDD0E03E
:102DE400FCD0E0FBD0E0FAD0E0F9D0E0F8D0D0D0CD
:102DF400E032C0E0C0D0E8C0E0A8A8D2AFC2C7E8C3
:102E0400A2E792AFD0E0F8D0D0D0E032C2AF020057
:022E140000229A
:102E1800FFFFFFFFFFFFFFFFC082C083E990180894
:102E2800F0D083D08202011F74F6121FCEE99002FF
:102E3800E8F0900348E0F508750900740278081274
:102E48001F4BAA08AB091212C29002E91237E3908D
:102E580002E9123BD0606F900348E075F003A4FAD2
:102E6800ABF01212C29003061237E3900306123B2E
:102E7800D0700B9002E9123BA11212C8804890034F
:102E880006124B357AFF7BFF12115A7A0080198A95
:102E98000875090074027808121F4B1245DD74FF8B
:102EA800122FE3E4F0A3F00A900348E0F8EAC3988D
:102EB80040DD79051208789002E8E0F91207647A93
:102EC800027B09120AFA02468074F4121FCE8A089D
:102ED8008B09EB548060479002E8E0F91212568A99
:102EE8000A8B0BAE0AAF0BEE4F602A8E828F83E0FF
:102EF80064B0701A12088AE960148E828F83A3A3C3
:102F0800A3A3E0F9EE2405FAE43FFB12085AEEFA0F
:102F1800EFFB12124AAA08E5096480FB80047A00D4
:102F28007B0002313374F2121FCE74FB121F5EEA6B
:102F3800FEEBFFEE4F60457403121FAAEEF0A3EFFD
:102F4800F0851882851983ECF0A3EDF07402121F46
:102F5800AAE9F0AA18AB1912075EE9F508707574AA
:102F680013121FAAE0F50AA3E0F50BE50A450B606A
:102F7800638E828F8312356CEE4F70057508028060
:102F8800537A067B001212C28A0C8B0DA80CA90D6D
:102F9800E8497005750813803B88828983E4122FFD
:102FA800E3EEF0A3EF1230FFE50AF0A3E50BF09093
:102FB80002EC1230F89002EC6017E0FCA3E080030A
:102FC800EAFCEBFD8C828D831230F870F38C828DD5
:102FD800831241F8A9087405024DB5F0A3124B17E6
:102FE800A32274F2121FCE8908890C750D00740390
:102FF800780C121F4B850C0A850D0B9002EBF09094
:1030080002E91240031230F6602E1212C8790080CD
:103018001D890C750D007402780C121F4B9002E983
:1030280012449C8882F583A3A3E4F0A3F0099003DB
:1030380048E0F8E9C39840D9900348E0FA850AF0D7
:10304800A4CAA8F0850BF0A428FB1212C28A0C8B24
:103058000DAE0CAF0DEE4F70030230EC900348E05C
:10306800FC850AF0A4CCA8F0850BF0A428FD790013
:103078001212387C0080318D0C750D007403780CA9
:10308800121F4B8A828B831230F188828983E4F085
:103098001230FEA3A3F0A3F00DEDC3950840D8EEBF
:1030A800250AFEEF350BFF0C900348E0F8ECC398B7
:1030B80050288C0C750D007402780C121F4B90026E
:1030C800E91230F1E82402500109FAE9FB8A828BFF
:1030D80083EEF0A3EFF07D0080BFE5089002EBF0EF
:1030E800790080027913024DB81244A0F922A3A3F3
:1030F800123BA5EA4B22A3124B17A3A3A32274F4F5
:10310800121FCE7900EAA2E0501F7508DE7509810A
:1031180078081221E179107C047D007A0A7B181264
:1031280008727402121F74E9F980007F040220A05B
:10313800C082C0839002EC123BD0601C88828983D5
:10314800A3A3E06A7003A3E06B8882898370E8A375
:10315800A3A3A3123BA180047A007B00022E29744A
:10316800F2121FCE74FD121F5EEAFEEBFF85188275
:10317800851983E4F0A3F07402121FAA7401F012F7
:103188003BCD7014120A341212C29002EF1237E3C8
:10319800123BCD70030232F91238E3EE2404F50A2B
:1031A800E43FF50B850A82F583E024FE603C24FCAD
:1031B800607424FE607E24FE700302324924FE708F
:1031C8000302325624FE700302326324FE700302A7
:1031D800327024FE700302327D24FC700302329E9A
:1031E80024FE70030232B60232F2120A349002F15F
:1031F800EAF0A3EB1233051204A6E960030232F2E7
:103208009002F11221F88E828F83A3A3A3A3A312A5
:103218004B35850882850983123BA1120842740246
:10322800121F740232F2AC18AD19EEFAEFFB120855
:10323800900232C1AC18AD19EEFAEFFB1208968075
:1032480078AC18AD19EEFAEFFB12089C806BAC183D
:10325800AD19EEFAEFFB1208A2805EAC18AD19EEBC
:10326800FAEFFB1208A88051AC18AD19EEFAEFFB83
:103278001208AE80447402121FB4880C890D780CB1
:103288001221E17402121FC4EEFAEFFB1208B474A3
:1032980002121F748023AC18AD19EEFAEFFB120866
:1032A800BAE9F870167402121FAAE4F0803CAC1850
:1032B800AD19EEFAEFFB1208C0E9F8E8602C8E822F
:1032C8008F83A3E064146022850A82850B83E090D3
:1032D80002F1F0851882851983123BA19002F2123F
:1032E80037E3E8A31233051204A0EEFAEFFB120845
:1032F800187402121FAAE0F97403024DB5F07CF1AC
:103308007D02850882850983123BA52274E8121F75
:10331800CE74FA121F5E7404121FAAECF0A3EDF02B
:103328008A128B13EA2405F50EE43513F50FEA2407
:1033380002F510E43513F511851082F583123BA1CF
:103348001205968A0A8B0B7508007C037D007900AC
:103358007AF17B02121238E50E2402F516E4350FD5
:10336800F5177402121FB4880C890D780C1221E12C
:10337800850E82850F83A3A3A3A3E0F50C750D002A
:10338800780C1221E1E50E2405F50CE4350FF50D56
:10339800780C1221E1851682851783123EA8120740
:1033A8007C7406121F748A0C8B0DE50C450D700396
:1033B8000235358020851882851983E088828983C3
:1033C800F00508851882851983A3E0C0E0123576D8
:1033D800D0E0F00508E50A24FBFAE50B34FFFBC34F
:1033E800E5089AE49B40030235357E007F0085128C
:1033F80082851383A3A3A3A3E0F50978091221E525
:10340800E4F514F51578141221E17514EE7515021A
:1034180078141221E19002EF1221F87409121FAA00
:103428001221F8E50A24F9F9AC0CAD0D8510828556
:103438001183123BA11208EA7409121F74E9600390
:103448000234D6850E82850F83A3A3A3A3A3A3A3C7
:10345800E0F89002EEE0687075E0F5148E157814C7
:103468001221E1124B32850E82850F83A3A3A3A3F9
:10347800A3A3A3A3123BA11212327402121F74E970
:10348800604C9002F2123BD0703BE4F514781412B1
:1034980021E17CFF7DFF7907851082851183123B2E
:1034A800A11208547402121F74123BD67017850EAD
:1034B80082850F83124CCF7404121FAA12459012F2
:1034C8003ED9023569850C82850D8312356CA818A2
:1034D800A9198814891578141221E17404121FAAF5
:1034E8001221F88516828517831237D91207887436
:1034F80004121F748A0C8B0DEE4F70030233B21244
:103508003576EE123581123E8FEF123581F8A3E041
:103518003400F9E50C450D60030233BD88828983C8
:1035280074FFF0050812357674FFF00508E50860A9
:103538001A1313543F1237E91204B2E960099002D2
:10354800F2123BA112128C79008016850E82850F2B
:1035580083124CCF7404121FAA1245901241F879B5
:103568000A023E62A3A3A3A3E0FEA3E0FF22A808E9
:103578009002F2E028123E8F22F00508089002F22D
:10358800E0282274E8121FCE74FA121F5E74021229
:103598001FAA1237E37404121FAAECF0A3EDF0740B
:1035A80002121FAAE02405123E78E0F50CA3E0F50C
:1035B8000D7402121FAAE02402F510A3E03400F5EE
:1035C80011851082F583123BA112059675080075C6
:1035D8000900EA24FCFEEB34FFFF8008050CE50C2B
:1035E8007002050DA808C3EE98EF94005003023747
:1035F80095A818A919880E890F780E1221E185144B
:1036080082851583A3A3A3A3124B391221E1E514E4
:103618002405F50EE43515F50F780E1221E1851411
:10362800828515831237D712077C7406121F748A95
:103638000E8B0FEA450F7003023795EA2404F5163E
:10364800E4350FF517851682F583E0F50CA3E0F550
:103658000D851882851983124B358A828B83A3A323
:10366800A3E0F9851082851183123BA112076AE94C
:10367800F50960030237957402121FAA123E9FF5DE
:103688000978091221E5E4F512F51378121221E1FF
:103698007512EE75130278121221E19002EF1221D1
:1036A800F87407121FAA1221F8EEF9AC0EAD0F85B7
:1036B8001082851183123BA11208EA7409121F7443
:1036C800E9F5096003023795E508703FE4F50EF562
:1036D8000F780E1221E17CFF7DFF79098510828524
:1036E8001183123BA11208547402121F74123EC5B2
:1036F800700D7404121FAA1237CC79110237C990C1
:1037080002EEE024029002F2F080149002F2E0FA55
:103718009002EEE0790024025001096A497072A80B
:10372800089002EEE0FAE82AFAE43400FBEE9AEF99
:103738009B405A851682851783E0C0E09002F312F9
:10374800357BD0E0F00508851682851783A3E0C095
:10375800E0089002F312357BD0E0F005089002EE05
:10376800124B391221E1124B32A808123E6C121288
:10377800207402121F749002EEE02508F50874FF09
:10378800650C700474FF650D60030235E4E508609C
:103798001F9002F2E0F5F0E508841237E91204B848
:1037A800E960099002F3123BA112128C7900801192
:1037B800E509700375090A7404121FAA1237CCA907
:1037C80009023E62124007E50CF0A3E50DF022A3C2
:1037D800A3124DC4AA0CAB0D22A3A3EAF0A3EBF0ED
:1037E800229002F1F07CF17D02851082851183120E
:1037F8003BA52274EC121FCE74FC121F5E12430804
:103808007402121FC4123B9B1207828A0C8B0DEAAA
:10381800450D70030238D31238E3A818A919881087
:10382800891178101221E17CFF7DFF790B850882D0
:10383800850983123BA11208547402121F741239AD
:10384800D9700C850A82850B83123ED60238E08E29
:10385800828F83A3A3A3A3E0F51278121221E5E4D3
:10386800F512F51378121221E17512F17513027829
:10387800121221E178101221E17409121FAA1221F3
:10388800F87409121FAAE0F9AC0CAD0D8508828501
:103898000983123BA11208EA7409121F74E9FE7029
:1038A800157CF17D02850882850983123BA11204EB
:1038B800BEE97009802074166E70027E009002F2D4
:1038C800123BA112128CEE7004800B7E01850A82D5
:1038D800850B831241F5EEF902420AEE2402F5083F
:1038E800E43FF5092274EC121FCE74FC121F5EEA45
:1038F800FEEBFF8C0E8D0FEE2405F508E43FF5096D
:103908007402121FC4850882850983123BA112071D
:10391800828A0C8B0DEA450D70030239C9EE240228
:10392800F50AE43FF50BA818A91988108911781031
:103938001221E17CFF7DFF790D123B9B1208547424
:1039480002121F741239D9700B85088285098312F7
:103958003ED6807A8E828F83A3A3A3A3E0F5127844
:10396800121221E5850882850983A3A31221F8751F
:1039780012F175130278121221E178101221E17404
:1039880009121FAA1221F87409121FAAE0F9123BA2
:10399800971208EA7409121F74E9FE700F7CF17D12
:1039A80002123B9B1204C4E97009802074166E70E1
:1039B800027E009002F2123BA112128CEE7004807B
:1039C8000B7E018508828509831241F5EEF90242D2
:1039D8000A123BE0F510A3E0F511EA45112274E85C
:1039E800121FCE74FE121F5E8A168B178C148D154B
:1039F800EA2405F50CE43517F50DEA2402F50EE482
:103A08003517F50F850E82F583123BA11205968AAC
:103A1800088B09750B007C037D0079007AF17B0225
:103A2800121238750A00E50814F5100424FFF50889
:103A3800E50934FFF50980549002F1E0FA9002EEAE
:103A4800E0F8EA28F8E43400F9E50898E50999501F
:103A58000D9002F1E0F8E510C3989002EEF0E0F561
:103A68001275130078121221E1124B329002F2E023
:103A78002AFAA3E03400FB1212207402121F749079
:103A880002EEE0F89002F1E028F0050A850C828544
:103A98000D83A3A31244AC4003023B7C9002F1E0E7
:103AA800C39508E495094003023B7CAE0AEE2EFE5E
:103AB800E433FF123BBBAC18AD19124B4DE439FB94
:103AC8001207828A128B13AC12AD13EC4D701B7562
:103AD8000B01123BAB1241F99002F21230F860036D
:103AE80012128CA90B7402023E6485168285178314
:103AF800A3A3A3A3E0F50B780B1221E5E4F512F5D7
:103B08001378121221E17512EE7513027812122140
:103B1800E19002EF1221F87407121FAA1221F8A9E6
:103B280010850E82850F83123BA11208EA740912D0
:103B38001F74E9F50B709B9002F2123BD0600302F0
:103B48003A40E4F512F51378121221E17CFF7DFF6B
:103B5800790F850E82850F83123BA11208547402D7
:103B6800121F74123BD66003023A40123BAB123E5E
:103B7800DA023AED7CF17D02850E82850F83123BD5
:103B8800A11204CAE96003023AE07900023AEDACF6
:103B98000CAD0D850A82850B83123BA522E0FAA3A2
:103BA800E0FB22123BBBE0FAA3E0F9EA8514828528
:103BB800158322850C82850D83E02EF8A3E03FF95A
:103BC80088828983229002EF124CD3E84922123B63
:103BD800E0F8A3E0F9E849229002F2EAF0A3EBF05A
:103BE8009002F2E02274E8121FCE74FA121F5E747B
:103BF80004121FAA1237E38C168D177404121FAA19
:103C0800E02405F50EA3E03400F50F7404121FAA92
:103C1800E02402123E78123BA11205968A0A8B0B09
:103C28007F007E00A818A919880889097808122138
:103C3800E1850E82850F83A3A3A3A3E0F5088E096F
:103C480078081221E1E50E2405F508E4350FF50999
:103C580078081221E1850E82850F83A3A3123EA85E
:103C680012077C7406121F748A0C8B0D8029123E71
:103C780099F00F123E99F00F9002EE1241E41221D2
:103C8800E1124B32EFF8123E6C1212207402121F2E
:103C9800749002EEE02FFFE50C450D7003023D28FD
:103CA80085188285198312431AA3A3A3E0F9851402
:103CB80082851583123BA112076AE9FEE50C2404EC
:103CC800F510E4350DF511EE70507404121FAA12A8
:103CD8003E9FF50878081221E5E4F508F50978080B
:103CE8001221E17508EE75090278081221E19002A7
:103CF800EF1221F87407121FAA1221F8E50A24FA14
:103D0800F9AC0CAD0D851482851583123BA1120800
:103D1800EA7409121F74E9FE6039123EB51241F8BF
:103D2800EF7003023E4F9002F2E0F5F0EF8490024C
:103D3800F1F07CF17D02851482851583123BA11276
:103D480004D0E960099002F3123BA112128C7900A9
:103D5800023E628F08EF703BE4F512F513781212F9
:103D680021E17CFF7DFF7911851482851583123B43
:103D7800A11208547402121F74123EC57009123E33
:103D8800B5123ED9023E629002EEE024049002F29F
:103D9800F080359002EEE0F89002F2E0FAE82404B0
:103DA800FCE43400FDEC6A4D6003023D2EE50A2474
:103DB800FAFAE50B34FFFBE50828F8E43400F9EAE1
:103DC80098EB995003023D2E851082851183E0C03F
:103DD800E09002F3E02FF8A3E034008882F583D066
:103DE800E0F00F851082851183A3E0C0E0123E86C3
:103DF800D0E0F00F7402121FB488088909780812FD
:103E080021E17402121FAA1221F8850E82850F8300
:103E18001237D71207887404121F748A0C8B0DEAA4
:103E2800450D7003023C767402121FAAE0C0E0122E
:103E38003E86D0E0F00F7402121FAAA3E0C0E01281
:103E48003E86D0E0023C7EEE70027E0A850E8285B8
:103E58000F83123EBB1241F8EEF97406121F747FED
:103E6800100220A09002F3E028FAA3E03400FB221D
:103E7800F514A3E03400F515851482F58322123E6B
:103E88008A229002F3E02FFAA3E034008A82F583B5
:103E980022123E8A74FF22124007A3A3A3A3E022A2
:103EA800124DC4850E82850F83123BA52285108290
:103EB800851183124CD3851682851783229002F3CD
:103EC800EAF0A3EBF09002F3124CD3E84922124136
:103ED800FEE8F0A3E9F079112274EA121FCE74FE0D
:103EE800121F5E8A088B098C128D13EA2405FEE4E2
:103EF8003509FFAC18AD198E828F83123BA11207CA
:103F0800828A0C8B0DEE2406F50EE43FF50FEA4588
:103F18000D7003023FD9E5082402F50AE43509F5D6
:103F28000B8A828B83A3A3A3E0A2E550288518827D
:103F3800851983123BA11208DE8A108B11EA4511FC
:103F480060207912123B97851082851183121FCC4D
:103F5800E9F50C707F850E82850F83E06009795240
:103F68008011750C0E806D850882850983A3A3A333
:103F7800A3E0F9E4F508F50978081221E18E828FAB
:103F880083A3A3E0F50878081221E18E828F83A32A
:103F9800A3A31221F88E828F83124B35123B9B12FA
:103FA80008F07406121F74E9F50C7011850E8285ED
:103FB8000F83E0702D123B9B1204D6802574166582
:103FC8000C7011750C007418121FAA124003E480BB
:103FD80010750C01124CCB851282851383E8F0A36F
:103FE800E9F0850E82850F83E0600479008002A9DC
:103FF8000C7402121F747F0E0220A012400722E0E8
:10400800F8A3E0F58388822274EC121FCE74F712AD
:104018001F5E8A0A8B0B8C108D11EA2405FEE4358D
:104028000BFF750C00AC18AD198E828F83123BA163
:104038001207828A088B09EA450970030241CFE515
:104048000A2402F50A5002050B8A828B83A3A3A3D4
:10405800E0A2E5502F851882851983123BA112082A
:10406800DE8A0C8B0DEA450D604F7912AC08AD095C
:10407800123B9B850C82850D83121FCCE9F50C60E1
:10408800030241D2850A82850B83E0F508A3E0F597
:1040980009AA08FB1208D2EA4B70197AFF7BFF12B3
:1040A80008D2EA4B70030241C58A828B83E508F087
:1040B800A3E509F07508008008750C0E0241D205C9
:1040C800089002EBE0F8E508C39840030241C58573
:1040D800080E750F007403780E121F4B8A828B83AB
:1040E800A3A3E0250EF8A3E0350F12459970D08EF2
:1040F800828F831241ED1237E38E828F83A3A3123E
:1041080041ED1237E1EE2404F508E43FF50985088E
:1041180082F583E088828983A3A3A3A3F0A3E4F0B4
:10412800EE2405F50EE43FF50F850E82F583124166
:10413800EDA3A3A3A31237E1751207751300781234
:104148001221E1EEFCEFFD7404121FBC1212207460
:1041580002121F74E4F51278121221E18508828593
:104168000983E0FC7D007917123B9B120854740206
:10417800121F747407121FAA1237E37407121FAABA
:10418800E0FA4B603D8508828509831241E41221DB
:10419800E1850E82850F83124B35121220740212AC
:1041A8001F747402121FC4123B9B1204DCE96026C0
:1041B8007407121FAA123BA112128C8019750C09E0
:1041C8008008750C118003750C01124CCB85108288
:1041D8008511831241F8A90C74098028E0F5087547
:1041E8000900780822123BA588828983221241FEA1
:1041F800E8F0A3E9F022E0F8A3E0F9850E82850F44
:1042080083227404121F747F0C0220A074EC121F06
:10421800CE124308751000EE2402F50CE43FF50DAC
:10422800850C82F583123BA11208D28A088B09EA11
:10423800450970030242EC850A82850B83E064011C
:1042480060030242E1AC08AD09AA0AAB0B1208C62A
:10425800E9606E85088285098312356EEE2406F5BD
:104268000AE43FF50B8E828F83A3A31221F88E8276
:104278008F83A3A3A3A31221F8850A82850B831237
:1042880021F879188E828F8312431A123BA11208E3
:10429800F07406121F74E9F8741668700B850A82A8
:1042A800850B83E4F0A38014E860128E828F83125A
:1042B8003BA1850E82850F83EAF0A3EBF08810807E
:1042C80018780E1221E1AC08AD09EEFAEFFB1208DE
:1042D800CC7402121F74E9F510AA08AB091208D8A9
:1042E800E510700E850C82850D83123BA11204E245
:1042F8008009741665107003751000A91002420F2A
:10430800EAFEEBFF8C0E8D0FEE2405F50AE43FF56F
:104318000B22124DC4850C82850D832274EA121F6C
:10432800CE7508007509007E007F00750A00EC2430
:1043380002F510E43DF5118035EC65087003ED6574
:104348000960030243D988828983A3A3E06A7003C2
:10435800A3E06B707C88828983A3A3A3A3124CCFAC
:10436800EE28FEEF39FFEA28FAEB39FB050A12447A
:10437800A9503A850A0C750D007403780C121F4B6E
:1043880085108285118312449C124599601FE508A7
:10439800450970A58C088D098882898312356C8837
:1043A800828983A3A3E02EFAA3E03F80BEE50AC377
:1043B80094025003024497750800750900EE4F6097
:1043C80010EEFAEFFB1212868A0E8B0FEA450F7079
:1043D800057900024499750B0002446C850B0C7535
:1043E8000D007403780C121F4B851082851183E031
:1043F800250CF50CA3E0350DF50DE50C2406F51498
:10440800E4350DF515851482F58312459E6042E565
:104418000C2404F512E4350DF513851282F5831288
:1044280021F8E50E2508FAE50F3509FB121220746C
:1044380002121F74851282851383E02508F508A3EC
:10444800E03509F509851482851583123BA11212FE
:104458008CE50B600D7C087D007900AA0CAB0D1271
:104468001238050BE50BC3950A50030243E4851087
:1044780082851183124CCF88828983A3A3A3A3A327
:10448800A3E50EF0A3E50F1230FFEEF0A3EFF079ED
:1044980001023FFE1244A022E0250CF8A3E0350DEE
:1044A800229002EBE0F8E50AC3982274F0121FCEBE
:1044B8008A0E8B0F8C0A8D0B750D00750C008050C1
:1044C8007916EE2406F508E43FF5098E828F83A35A
:1044D800A31221F88E828F83A3A3A3A31221F885A8
:1044E80008828509831221F8850E82850F83A3A38C
:1044F800123BA11208F07406121F74E9F50D741628
:10450800650D706C850882850983E4F0A3F0050CBD
:104518009002EBE0F8E50CC3985066AA0C8A08757F
:10452800090074037808121F4B850A82850B83A340
:10453800A31245E8E8FEE9FF8E828F8312459E604C
:1045480040EA2401F508E43400F5099002EBE0653F
:10455800087002E509601488828983A3A3A3A3A332
:10456800A3A3A3123BD060030244C879180244CA2B
:10457800E9609B124CCB7410121FAA12459012418D
:10458800F8A90D7F080220A0E0FAA3E0F5838A824B
:1045980022F988828983124DC4EC4D2274F6121FC9
:1045A800CE7C0080010C900348E0F8ECC398501EC4
:1045B8008C0875090074027808121F4B1245DDE05B
:1045C8006A7003A3E06B70DDE8FAE9FB80047A0007
:1045D8007B000246809002E91245E888828983229E
:1045E800E02508F8A3E03509F92274F2121FCE8AF3
:1045F800088B09750A0080278E828F83A3A3A3A343
:104608001230F6600312128C7C087D007900EEFAF5
:10461800EFFB1212388E828F83E4F0A3F0050A12A2
:1046280044A95027850A0C750D007403780C121FD5
:104638004B850882850983A3A3E0250CFEA3E035FA
:104648000DFF8E828F83123BD070AD85088285095D
:104658008374FFF0A3F0024DB874F6121FCE12084F
:10466800848A828B83E582458370067A007B00808A
:1046780007A3A3A3A3123BA17F020220A074F412F4
:104688001FCE89088C828D83E06402703C124C6EC8
:10469800FEA3E0F9EEF874026870037429697029C2
:1046A800750A02750B00780A1221E17410121FAA0C
:1046B8001221F87410121FAA1221F8A90812116603
:1046C8007406121F74E9F98002790102313374E823
:1046D800121FCE74FB121F5EE9851882851983F0BC
:1046E8008A168B17ECFEEDFF7510008E828F83A360
:1046F800A3A3E0A2E4502D741D121FAA123BA1121D
:1047080008DE8A828B83E58245837003024B0D792C
:104718000AEEFCEFFDAA16AB17121FCCE9F51060E4
:1047280003024B10741F121FAAE0F508A3E0F50955
:104738007421121FAAE0F50AA3E0F50B7423121FD7
:10474800AAE0F50EA3E0F50F8E828F83E064026085
:1047580003024AAEA3124CCF850882850983A3853C
:104768008212858313EE2406F50CE43FF50D88824A
:104778008983124B4DF514E439F515781412226B20
:10478800010000280128B0470700022875480328BF
:10479800E3470029A4490129CF490229704903297F
:1047A800A4490429484AAE4AE50E450F6003024A67
:1047B800A9850C82850D83124CCFE8FAE9FB8A8221
:1047C8008B83E0850A82850B83124B581221E18A7C
:1047D800828B83A3E0FCA3E0024A32E50E450F601A
:1047E80003024AA9850A82850B837401F0124B42A1
:1047F800850882850983F07C007D008E828F83A3E3
:10480800A3A3A3E02401FAA3E03400FB120782EA81
:104818004B60408A828B83E02402F8850A82850BEC
:1048280083E028F0EA2404F8E43BF988828983E0ED
:10483800851282851383124B66124B581221E18A26
:10484800828B83A3124B35E5082403FAE43509FB70
:10485800024A37850A82850B83E02404F07C047DB4
:10486800007900AA12AB13121238024B10E50E455C
:104878000F6003024AA9124B42FEA3E0FF850A8299
:10488800850B837404F0EE850882850983F0EF8533
:104898001282851383F07403121FC4EEFAEFFB1221
:1048A80007828A0C8B0DEA450D70030249538A82F0
:1048B8008B83A3A312356C7401121FB4880E890F61
:1048C800780E1221E17405121FAA1221F87CFF7DCF
:1048D800FF1207887404121F748B0FEA450F703398
:1048E800850C82850D83124B391221E1850C828556
:1048F8000D83A31221F87C027D007A547B82120575
:10490800847404121F74E9700A7401121FAA74FFD8
:10491800F0A3F08E828F83E064027039750C027503
:104928000D00780C1221E18E828F83A3124B35E59E
:10493800082404FAE43509FB1212207402121F74C9
:10494800850A82850B83E0240280097401121FAA5C
:10495800EEF0A3EFF07401121FAA124B2774011294
:104968001FAA124B1E024AA3E50E450F6003024A16
:10497800A9850C82850D83124DBDAA16AB1712119D
:104988006C850A82850B837402F085088285098309
:10499800EAF0851282851383EB024AA6E50E450FDD
:1049A8006003024AA9124B42F8A3E0F9850A8285FE
:1049B8000B837402F0E8850882850983F0E9851283
:1049C80082851383024AA6850C82850D83123BA13A
:1049D80012121AEAFAF8C3950EE4950F405CE865DE
:1049E8000E450F70047A008021851882851983E0AE
:1049F800FCE50E2CFCE4350FFDC3EC98ED9400505B
:104A080003E08005E50ECAC39AFAEA850A82850B97
:104A180083F08A0A750B00780A1221E1850C8285D9
:104A28000D83E0250EFCA3E0350FFDAA08AB0912A3
:104A380012207402121F74024B10751007024B10DB
:104A4800E50E450F705B850C82850D83124CCF8572
:104A58000A82850B837407F088828983124B1F12A0
:104A68004B17E0851282851383F0E82402FAE439B3
:104A7800FB8A828B83124B278A828B83124B1EA35D
:104A8800A31230FE124B2CF0E82405F850010988D7
:104A9800828983124B2CA3124B66A3A3A3A3F08095
:104AA8006775100B8062741D121FAA123BA11208B1
:104AB800848A828B83E5824583604A124CCF880CB6
:104AC800890DE8450D603E7425121FAAE0F510789F
:104AD800101221E5780E1221E1780A1221E17808F6
:104AE8001221E17407121FAAE0F9EEFCEFFDAA16E5
:104AF800AB17850C82850D83121FCC7407121F74A7
:104B0800E9F510800375100EA9107405023E64F0D3
:104B180088828983A322A3E08508828509832212DB
:104B28004B6DF022124B6DA3A3229002EF124DC4DD
:104B380022E0F50E750F00780E22850C82850D8314
:104B4800124007E022E0FAA3E0F8E4C8F9EA2822D4
:104B5800F08A828B83E0F50A750B00780A22124BE3
:104B680017124B6D22E0850882850983A3A322745E
:104B7800EE121FCE74FE121F5E8A088B09ECFEED42
:104B8800FF890AAC18AD19EEFAEFFB1207828A0CFE
:104B98008B0DEA450D7003024C5F851882851983D9
:104BA800123BA11208848A828B83E58245837003B5
:104BB800024C5AA3A3124CCF880E890FE8450F70F8
:104BC80003024C5A7414121FAAE0F510A3E0F51161
:104BD800E50AF50B780B1221E57419121FAA1221A8
:104BE800F878101221E1741B121FAAE0F9AC0CAD81
:104BF8000DAA08AB09850E82850F83121FCC740598
:104C0800121F74E9F50B705274FE650A604C850C2E
:104C180082850D83E064027041124C6EFAA3E0F9BC
:104C2800EAF87402687003742969702E8510828509
:104C38001183124B4DF50CE439F50D780C1221E176
:104C4800EEFCEFFDAA08AB091209087402121F74E2
:104C58008008750B0E8003750B01A90B7402121FD7
:104C6800747F0A0220A0A3124CD388828983E02291
:104C780074F6121FCE74FE121F5E740C121FAA1255
:104C88004CCFE8851882851983F07401121FAAE9B0
:104C9800F0E4F508F50978081221E17508027808AA
:104CA8001221E17404121FB48808890978081221B6
:104CB800E179FE1208F07406121F747402121F7450
:104CC8000246808E828F83124CD322E0F8A3E0F94B
:104CD8002274F7121FCEEAFEEBFF89089003061232
:104CE8004B3512116CEA5402600BA908EEFAEFFB7F
:104CF800120776800279017F010220A074F2121F48
:104D0800CE74FE121F5EEAFEEBFF890A7401650A83
:104D180060147402650A6003024DB37901120B181E
:104D2800E96003024DB3EEFAEFFB1208D2EA4B60DA
:104D3800031208D8A818A91988088909780812211F
:104D4800E175080275090078081221E175085A759D
:104D5800098278081221E17CFF7DFF7A017B00122D
:104D6800077C7406121F748038850882850983A31E
:104D7800A3A3A3A3A3124DBDEEFAEFFB12115AE4AD
:104D8800F50CF50D780C1221E17402121FAA1221FC
:104D9800F87CFF7DFFAA08AB091207887404121F6C
:104DA800748A088B09E508450970BE7402121F74DD
:104DB8007F060220A0124007124DC422E0FCA3E0A7
:104DC800FD2274F4121FCE8A088B09ECFEEDFF90C9
:104DD8001808E0F4604B7A097B00121244EA4B6031
:104DE800408A828B8374B1F0A3E4124E2CF08A823D
:104DF8008B83A3A3E508F0A3E509124E2CA3EEF0DC
:104E0800A3EFF0740C121FAA124CCF8A828B83A3D3
:104E1800A3A3A3A3A3A31241F8901808E0F91212C0
:104E280050023133F08A828B83A3A3A3A32274ECAC
:104E3800121FCE74FA121F5E8909ECFEEDFF750889
:104E4800008A0A8B0B780A122225000410915079E7
:104E58004E974EB34ED14EEF4E0D4F304F4E4F62E0
:104E68004F974F2250395050506B5091509150BD30
:104E78004F74016509600302508C8E828F83E0F8BD
:104E8800C39403400302508CE89018F402506874ED
:104E9800026509600302508C8E828F83E0F8A3E0DC
:104EA800F99018F5E8F0A3E9025068740165096003
:104EB8000302508C8E828F83E0F8C3940240030271
:104EC800508CE89007490250687401650960030234
:104ED800508C8E828F83E0F8C39405400302508C77
:104EE800E890074A02506874016509600302508C13
:104EF8008E828F83E0F8C39402400302508CE890BE
:104F0800074B02506874106509600302508C750ADB
:104F180010750B00780A1221E17A4C7B07121220D7
:104F28007402121F740250B47401650960030250C0
:104F38008C8E828F83E0F8C39402400302508CE881
:104F480090075C02506874016509600302508C8EFA
:104F5800828F83E09018F802506874046509600332
:104F680002508C8E828F83780C121E0A7510407541
:104F7800114275120F7513007810790C12143E4007
:104F88000302508C90075E780C121E190250B4E987
:104F9800600302508C12071CE970157E00EEF912AE
:104FA8001142E9F80EEEC3940A505AE860EF8055B2
:104FB8009007F1806174076509600302508C750AD7
:104FC80006750B00780A1221E18E828F83A3AC82CA
:104FD800AD837402121FBC1212267402121F747C55
:104FE800007D00AA18AB198E828F83E0F912111286
:104FF800E9FEC3940A40030250B112071CE9700C81
:10500800EEF91211427950121310807374F22EF5D2
:1050180082E43407F583740180467401650970647D
:105028008E828F83E0F8C394025059E890075D8020
:105038002F74016509704D8E828F83E0F8C3940A3E
:105048005042E89018F780187401650970368E820E
:105058008F83E0F874F928C3940A5028E89018F967
:10506800F0804974016509701B9007F0E0F88E82A2
:105078008F83E09007F0F0E87032E06401702D1241
:10508800113C80287508188023C3EA9427EB940004
:1050980050177402650970118E828F83E0FCA3E0BB
:1050A800FD12059CE9F5088003750802A908740635
:1050B800121F747F0C0220A074EE121FCE74B1125E
:1050C8001F5E8C0C8D0D9081C67420121FC474064F
:1050D800121E717420121FC4121112E9FF7461129A
:1050E8001FAAE0F509EFC3940A400302525175F074
:1050F80006EFA4F5087441121FC47A0E742025081F
:10510800F912130AE97009744D121FAAE0FE800211
:105118007E009018F4E064027005750B0180037539
:105128000B00740865097004742280027421250834
:10513800F50A7C1B7D0079007426121FBC121238F8
:105148007426121FC47A1BA90A12130AE9702D7457
:1051580040121FAAE024F9C3940A5020E50BF50A6F
:10516800780A1221E57427121FC4EEA2E0E433F98D
:10517800AA0CAB0D12063E7401121F747C147D003C
:105188007900740C121FBC121238740C121FC47AE6
:105198001074242508F912130AE970347C1079FF79
:1051A800740C121FBC121280E97025741C121FAAFD
:1051B800AC82AD837A0474252508F912130A740C9D
:1051C800121FC4EEA2E0E433F9AA0CAB0D120626B6
:1051D800AC18AD197A0C74702FF912130AE97058CB
:1051E800AA18AB19121130A818A919880A890B85B1
:1051F8000A82850B83E0FCA3E0FDEC4D601F850A65
:1052080082850B83A3A3E0F5107511007810122195
:10521800E1AA0CAB0D1208F67402121F74E50A24F9
:1052280003F50A5002050B740C121FAAE582650AE1
:105238007004E583650B70B7EEA2E1500C90074847
:10524800E0F9AA0CAB0D1208FC74046509702890EB
:1052580018F4E0640270207A0090075CE060027A3B
:1052680001900749E06004780480027800E84AF970
:10527800AA0CAB0D1206F27900744F121F747F0A44
:105288000220A074F7121FCE12071CE9705E900767
:10529800F1E0640170257E00EEF9121142E9F80E82
:1052A800EEC3940A5003E860EF9007F1E4F07C0A3B
:1052B800FDF97AF27B0712123880297508007EF210
:1052C8007F078E828F83E06401700BA90812114258
:1052D8008E828F83E4F00508A3AE82AF83E508C30E
:1052E800940A40DE795012131012113C025F0974BF
:1052F800EE121FCE74E2121F5E8A0A8B0BECFEEDD3
:10530800FF75080AE9600F14600C14606E147003CE
:105318000253C702544A750E00750C64750D077563
:10532800100675110078101221E1AC0AAD0BAA0C19
:10533800AB0D1212327402121F74E97018050EE5D3
:105348000C240EF50C5002050DE50EC3940A40031B
:1053580002544A80CA850E08E508C3940A4003022D
:10536800544AEE4F700302544A750C06750D0078C6
:105378000C1221E1AC0AAD0B02543E750E00750CFF
:105388006A750D0775100675110078101221E1ACC9
:105398000AAD0BAA0CAB0D1212327402121F74E97B
:1053A8007018050EE50C240EF50C5002050DE50EDF
:1053B800C3940A400302544A80CA850E0880477580
:1053C8000C00750D23740E121FC47A10A90D121348
:1053D8000AE9701E7C1079FF740E121FBC1212802D
:1053E800E9700FAC0AAD0B740E121FBC120602E96D
:1053F8006011050C7406250DF50DE50CC3940A50D3
:105408004180C2850C08E508C3940A5035EE4F6008
:1054180031AC18AD197A0E75F006E508A42420F908
:1054280012130AE9701C750A06750B00780A122116
:10543800E17402121FC4EEFAEFFB1212207402127A
:105448001F74A908741E02528374F0121FCE74E6EA
:10545800121F5E8C0C8D0D750815742A121FAAE098
:10546800FEA3E0FF74FF6A700374FF6B60030255CC
:10547800C8750900750A20740C121FC47A0EA90A8F
:1054880012130AE960030255847C0679FF740C1232
:105498001FBC121280E9600302558474702509F557
:1054A8000BAC18AD197A0CF912130AE9600302550E
:1054B80081AA18AB19121130E50C450D70217C0C2E
:1054C8007900AA18AB19121280E960030255817C91
:1054D8000C7D007900AA18AB1912123802556F7AA0
:1054E80000A818A91988828983E0650C7004A3E0D4
:1054F800650D70030255960AE82403F8500109EA7D
:10550800C3940440E078007900E849703BEE4F60AE
:105518006B7C00A818A91988828983E0FAA3E0FBAC
:10552800EA4B70030255AF0CE82403F8500109EC6C
:10553800C3940440E278007900E849603F88828992
:1055480083E50CF0A3E50DF0E82402F582E439F5D3
:1055580083E0FAEE6A7001EF601FEEF04F70088882
:10556800828983E4F0A3F0AA18AB19121130AC18A1
:10557800AD197A0CA90B12130475080005097406F5
:10558800250AF50AE509C3940A507202547FEA75A0
:10559800F003A4F8A9F0851882851983E58228F814
:1055A800E58339F9025511EC75F003A4F8A9F085E3
:1055B8001882851983E58228F8E58339F90255416F
:1055C800120B0C8A828B83E5824583602D7C007DDB
:1055D80000E5822405FAE43583FBA3A3A3A3E0F93D
:1055E800121112E9F9C3940A5013EEFCEFFDAA0C4C
:1055F800AB0D12112A7508008003750814A90874E8
:105608001A121F747F080220A0C082C0839007620C
:10561800EAF0A3EBF0900748E0FC7D007A267B00D7
:1056280012059C900748E0F9120860D083D08202E6
:10563800011F74F0121FCE74EC121F5EEAFEEBFF1E
:105648008E828F83A3A3E024FA70030259C724FD36
:1056580070030258A114700302570A14601024FD45
:10566800700302585F1470030258D90259D6900784
:1056780062E0F8A3E0F9E8496059E0F5838882E040
:10568800F8A3E0F988088909E845096046EE240C82
:10569800F582E43FF583E0F50A780A1221E5EE2465
:1056A8000BF582E43FF583E0F98E828F83A3A3A3F1
:1056B800A3A3A3A3A3A3E0FCA3E0FDEE2403FAE4C1
:1056C8003FFB850882850983121FCC7401121F7461
:1056D8000259D6EE2409F8E43FF9E8FEE9FF8E8284
:1056E8008F831221F890075E121E28120638740262
:1056F800121F74E970030259D679018E828F8302D2
:105708005968750C008E828F83A385820A85830B66
:10571800E060030257E7EE2405F508E43FF5098544
:105728000882F583E0A2E040030257E79007FCE017
:10573800F8A3E0F9E84960030257E77C0E7D007999
:1057480000AA18AB19121238EE240CF582E43FF5C2
:1057580083E0FAA3E0FBEA4B6010750C06750D00B8
:10576800780C1221E1EA241080248E828F83A3A36F
:10577800A3E0FAA3E0FB120B0CEA4B70030259D624
:10578800750C06750D00780C1221E1EA2405FCE47D
:105798003BFD7402121FBC1212207402121F748582
:1057A8000882850983E0A2E25004D2F08002C2F0A8
:1057B800A2F0E433F8740C121FAAE048F0EEFCEFF4
:1057C800FDAA18AB19121136E970117A027B009004
:1057D8000748E0F912125C79000259D8750C159047
:1057E8000762E0F8A3E0F9E84970030259D6E0F54A
:1057F800838882A3A3E0F8A3E0F9890FE8450F7036
:10580800030259D6EE2403F508E43FF509850A8218
:10581800850B83E0FC7901850882850983E0FAA37A
:10582800E0FB8882850F83121FCCE50C70030259B8
:10583800D6FC7903850882850983E0FAA3E0FB900A
:105848000762E0F8A3E0F5838882A3A3E0F8A3E069
:10585800F58388820259C2900762E0F8A3E0F9E86C
:105868004970030259D6E0F5838882A3A3E0F8A320
:10587800E0F98909E8450970030259D68E828F83B9
:10588800A3E0FC79028E828F83A3A3A3E0FAA3E0AE
:10589800FB88828509830259C27C007D00EE2404BE
:1058A800FAE43FFB8E828F83A3A3A3E0F9121112BF
:1058B800E9F8C3940A40030259D6EE240AFCE43FEF
:1058C800FD7A0475F006E8A42425F9121304025998
:1058D800D6EE2403F508E43FF509850882F583E050
:1058E800FAA3E0FB90075DE060079018F7E0F98005
:1058F800749018F4E070047905806A120B0C8A0A17
:105908008B0BA80AA90BE84970030259D6E82404AE
:10591800F50AE439F50B8E828F83A3A3A3A3A3A36F
:10592800A3E0A2E05044850A82850B83E0F50C6071
:10593800398E828F83A3A3A3A3A3A3A3A3A3A3E0C6
:1059480054027026740E121FC4E82405FAE439FBC9
:10595800A90C121112E9701279038508828509834E
:10596800E0FAA3E0FB1206328064EE2405FCE43F73
:10597800FD850A82850B83E0F9850882850983E025
:10598800FAA3E0FB121154900762E0F8A3E0F9E8EB
:1059980049603BE0F5838882A3A3E0F8A3E0F9E837
:1059A800FEE9FFEE4F60277C0079008508828509B3
:1059B80083E0FAA3E0FB8E828F83121FCC800F8EC8
:1059C800828F83A3A3A3E0FAA3E0FB12110C790151
:1059D800741402560974F2121FCE74E6121F5E89FF
:1059E8000A8A088B09ECFEEDFF740C121FC47A0EAC
:1059F80075F006E9A42420F912130AE96003025B92
:105A08002E7C0679FF740C121FBC121280E9600309
:105A1800025B2E7470250AF50BAC18AD197A0CF9D7
:105A280012130AE96003025AF9AA18AB19121130C5
:105A3800E508450970217C0C7900AA18AB191212E7
:105A480080E96003025AF97C0C7D007900AA18AB42
:105A580019121238025AE77A00A818A919888289F7
:105A680083E065087004A3E065097003025AFD0A23
:105A7800E82403F8500109EAC3940440E078007967
:105A880000E849703BEE4F7003025B2E7C00A818BB
:105A9800A91988828983E0FAA3E0FBEA4B606F0CBE
:105AA800E82403F8500109ECC3940440E578007930
:105AB80000E849607188828983E508F0A3E509F068
:105AC800E82402F582E439F583E0FAEE6A7001EF22
:105AD800601FEEF04F700888828983E4F0A3F0AA73
:105AE80018AB19121130AC18AD197A0CA90B121396
:105AF8000479018033EA75F003A4F8A9F0851882C7
:105B0800851983E58228F8E58339F9025A89EC7505
:105B1800F003A4F8A9F0851882851983E58228F88E
:105B2800E58339F9808B7900741A121F747F060295
:105B380020A074F7121FCEEA240CF8E43BF98A82FD
