:020000040000FA
:06000000020107022A695B
:03002B00022E930F
:03004300022E6D1D
:03005300022ADF9F
:100083000228BFE5C754F84401F5C77901220000EF
:100093000080FB120086B900030200F1E4792178A5
:1000A30008B800028004F709D8FCE479297802B87B
:1000B30000028004F709D8FCE490028178427916A3
:1000C3008002F0A3D8FCD9FA7AC27B179001377863
:1000D3006479048015E493A3AD82AE838A828B8313
:1000E300F0A3AA82AB838D828E83D8E9D9E7758288
:1000F300997583C474031201197582917583007411
:100103000012011975D00075813F751881751902A8
:10011300759F00020096C09FF59FE473D09F22D085
:1001230083D082C09FE493C0E0740193C0E0740263
:1001330093F59F22FF0000B4000028002800283018
:1001430075A000A000A000A00000080008E001F0D6
:10015300001000100010001000100010005000509C
:1001630000500010001000D0070000000000000F36
:100173000001000500307507001000010081FF0039
:10018300000000FFFFFFBC06DA06C206FE06FF0200
:10019300020208025000A0000000E803026E820180
:1001A30000005D820278820100001D180272820144
:1001B3000000BF020278820100001E18026A820159
:1001C3000000D5020278820100001F18026082013C
:1001D3000000D70202788201000020180262820820
:1001E3000000D80202788201000021180264820113
:1001F30000002218FF0100FF20026E820100005A56
:1002030082027882010000861802668200000000E4
:100213000002748203000006031700760D760D7644
:100223000D760D760D760D760D760D760D760D76B3
:100233000D760D760D1C102E10161002020202020E
:1002430002020202010D0000001001026E82010091
:10025300005782027882010000C9180296820100C9
:10026300004007027882010000CA1802868201005A
:10027300008C81027882010000CB18028482010085
:10028300006281027882010000CC180282820100A0
:10029300000F81027882010000CD180280820100E4
:1002A30000FD80027882010000CE18027E820100E8
:1002B30000EB80027882010000CF18027C820100EB
:1002C30000D980027882010000D018027A820100EE
:1002D300007081027882010000D11802948201002B
:1002E30000D21801E8030577100AFFFFFF00013071
:1002F300750302010600000000000000000000007A
:1003030000000000000000000000000000000000EA
:1003130000FFFF0600800CE8030E09424C455065C0
:10032300726970686572616C051250002003020ADD
:10033300000201060302F0FF424C4520506572693A
:1003430070686572616C00000000000000721400A8
:100353000078140A576F726B696E67206D6F64655E
:10036300000A50574D2064757479206379636C6576
:10037300000A56205468726573686F6C64001242F9
:10038300696B652062617474657279206C6576654A
:100393006C0012456C6563747269632063757272D5
:1003A300656E74206C6576656C00026E82010000D8
:1003B3005482027882030000E119028A820300005A
:1003C3001D17027682030000E219027882030000FF
:1003D300EF19028C820300001E17027682030000CD
:1003E300F019027882030000FF19028E82030000D5
:1003F3001F17027682030000001A027882010000B0
:100403000C1A029082010000231702768201000079
:100413000D1A02748203000027170278820100007C
:10042300201A02928201000029170276820100003D
:10043300211A0274820300002D170000000000003F
:100443000000303132333435363738394142434492
:10045300454600286E756C6C20706F696E7465720A
:1004630029003031323334353637383961626364C9
:100473006566003F3F3F000000807F0000803F0033
:10048300000000F9021550B743BA510000204100A3
:10049300E7DB2E0000A04012012225A60312012251
:1004A30038A60312012269A603120122A3A603128E
:1004B3000122FCA60312012243A7031201228BA7E8
:1004C30003120122BAA703120122E9A70312012290
:1004D30020A80312012267A80312012280A8031295
:1004E3000122D5A803120122EEA8031201223CA97E
:1004F3000312012276A90312012282F601120122BC
:1005030085F701120122BEF701120122E1F7011260
:100513000122F3F70112012231F801120122ADF891
:100523000112012275F90112012297F90112012228
:100533002EFA0112012280FA01120122B1FA0112EC
:100543000122BEFA0112012228FB011201227FFBC4
:100553000112012282FB01120122BBFB01120122C3
:10056300BEFB01120122C8FB011201221CFC011275
:1005730001225DFC0112012290FC01120122CDFC3B
:1005830001120122CFFD0112012273FE0112012289
:10059300DCFE011201221AFF011201224C9A0312FE
:1005A3000122749A03120122A19A03120122D99AF9
:1005B30003120122379B03120122839B03120122A0
:1005C300EA9B031201222A9C03120122679C031255
:1005D3000122959C031201223F9D03120122499D92
:1005E30003120122569D03120122899D0312012247
:1005F300959D03120122AD9D03120122B79D0312A3
:10060300012284C10312012292C103120122AAC151
:1006130003120122C1C10312012251A701120122B7
:10062300FBA7011201220EA9011201228AA90112BC
:100633000122A8AA01120122E4AA011201227FAB1E
:100643000112012263AC011201222FAD011201221A
:10065300BDAE011201222EAF01120122E8AF011239
:100663000122DAB0011201221AB101120122CEB124
:100673000112012200B201120122F6B3011201227A
:1006830038B40112012256B401120122BCB4011282
:1006930001228BB5011201224FB6011201226EB85D
:1006A30001120122D7D702120122C1D8021201225C
:1006B3006CD902120122BDD9021201226DDA021293
:1006C3000122DEDA02120122C3DB02120122F7DB6E
:1006D30002120122F0DC021201222DDD021201229C
:1006E30009DE0212012248DE0212012264DE021236
:1006F30001228AB4031201220EB50312012239B575
:100703000312012253B6031201223DA20312012256
:1007130053A20312012271A20312012282A3031224
:1007230001228CA303120122B7A403120122AEA556
:10073300031201221BA603120122C5DE02120122AB
:10074300FBDF0212012232E00212012289E00212CF
:1007530001229EE2021201229B82011201222783BF
:10076300011201228B8401120122978401120122BA
:10077300D284011201224185011201224A8601120B
:1007830001225387011201221A880112012277895B
:1007930001120122958901120122B289011201225B
:1007A3005F8A01120122DC8A01120122048B0112E9
:1007B3000122CE8D01120122D38D01120122EC8F71
:1007C300011201223A9001120122AA900112012280
:1007D300E89001120122C4910112012284920112B4
:1007E3000122D09201120122D39201120122179306
:1007F300011201225F93011201229E930112012231
:10080300C09301120122F4930112012257940112A1
:100813000122F4EE0212012202EF0212012255EF2D
:100823000212012274EF02120122B9EF0212012215
:10083300FDF00212012298F102120122DCF10212F0
:10084300012206F20212012275F202120122BBF208
:100853000212012232F302120122E3F302120122F5
:10086300BC2E00120122CC2E001201226D2F001289
:100873000122C92F00120122863000120122A23167
:1008830000120122D431001201220332001201228C
:10089300B0330012012227360012012297380012CA
:1008A3000122893900120122823A00120122893C75
:1008B300001201227D3F00120122AC4000120122EE
:1008C300B04200120122C043001201224F45001220
:1008D30001224046001201228E4600120122FD46EB
:1008E3000012012221470012012272470012012245
:1008F300134C00120122144D00120122754D0012F7
:100903000122A04D00120122664E00120122178916
:100913000312012221890312012266890312012293
:100923007A89031201220A8A03120122438A0312DB
:1009330001227E8A03120122A78A03120122FB8A63
:1009430003120122108B03120122328B03120122A4
:10095300478B031201225B8B03120122708B03125C
:100963000122AA8B03120122D68B031201221F8CB0
:1009730003120122918C03120122BC8C0312012267
:10098300FF8C03120122298D03120122548D0312BD
:1009930001229BBD0312012257B2021201223AB374
:1009A30002120122B5B302120122F0B30212012294
:1009B30041B502120122CFB50212012261B802121F
:1009C300012213B9021201221FBA0212012292BBA1
:1009D30002120122EBBB021201227C8D03120122BF
:1009E300BF8D03120122438E031201221A910312B7
:1009F300012276FD0212012228FE0212012224FFA7
:100A03000212012263FF02120122BDFF0212012220
:100A130079B803120122DCB80312012279B9031257
:100A23000122AEB903120122DEB90312012219BA5F
:100A33000312012239BA03120122C2F8021201225F
:100A43004EF9021201220DFA0212012225FB0212B3
:100A530001223FFD02120122C39B02120122E89BE5
:100A630002120122B59C02120122899D0212012267
:100A7300F69D02120122369E02120122D29E02121A
:100A8300012206A002120122E1A00212012240A1CA
:100A930002120122CCA1021201223AA20212012265
:100AA300C6A2021201220CA3021201227EA3021289
:100AB300012210A402120122B1A402120122D1A424
:100AC3000212012219A50212012262A502120122B9
:100AD3007EA502120122A4A5021201221EA6021261
:100AE30001222CA602120122BBA60212012224A774
:100AF30002120122008003120122858003120122C7
:100B0300C78003120122AB81031201221882031250
:100B130001225C8203120122A08203120122CD82F0
:100B230003120122F582031201222D8303120122F3
:100B33006B83031201229283031201220C8403129A
:100B430001225684031201227BB8011201221ABA30
:100B53000112012252BC01120122A6BC0112012280
:100B6300D1BC01120122ADBD01120122DDBD011272
:100B730001220CBE011201221FBE0112012260BE1E
:100B8300011201228DBE01120122DBBE01120122DC
:100B930017BF011201225CBF01120122A9BF01127A
:100BA300012223C00112012264C2011201224EC498
:100BB300011201228AC40112012219C60112012263
:100BC3005EC601120122D1C60112012226C70112FB
:100BD30001222BC701120122B5C701120122D7C777
:100BE30001120122F6C80112012207C901120122D2
:100BF30054C602120122CDC60212012287CC021270
:100C0300012292CD021201223BCF02120122C9CF4F
:100C1300021201226C6300120122ED630012012211
:100C23001A64001201226364001201226465001237
:100C33000122BD6500120122396700120122BB6740
:100C430000120122D6670012012247680012012216
:100C5300046900120122C76900120122556A0012B9
:100C630001220C6B001201221F6B00120122B86BD0
:100C7300001201224F6C00120122766C0012012235
:100C8300DF6C00120122296D00120122776D001220
:100C930001221C6E00120122BA6E00120122476F5C
:100CA30000120122B86F00120122FF6F001201220D
:100CB3005770001201228970001201224371001241
:100CC30001224A7200120122937200120122B072B1
:100CD30000120122CF7200120122027400120122BB
:100CE300B97400120122DE7400120122F37400129F
:100CF3000122637500120122A47500120122C87635
:100D03000012012249770012012294BC021201222F
:100D1300DFBC02120122EBBC02120122BFBD021290
:100D23000122D6BD0212012213BE0212012244BEC9
:100D3300021201227CBE02120122D2BE0212012241
:100D4300E8BE0212012224BF0212012237BF02129F
:100D530001225EBF0212012292BF02120122B8C019
:100D63000212012202C202120122FEC20212012257
:100D73001BC402120122F97F0012012213D90112AE
:100D830001224ED901120122A0DC01120122FCDD55
:100D930001120122BBDE0112012222E20112012211
:100DA3000CE30112012258E30112012272E3011242
:100DB3000122AFE301120122BAE301120122F9E396
:100DC3000112012202E401120122ACE40112012208
:100DD30083E501120122D7E50112012234E6011253
:100DE3000122A6E6011201222F95011201228E98FB
:100DF30001120122949801120122C59F01120122BE
:100E0300CCA301120122DEA903120122BBAA031201
:100E13000122FFAA0312012239AB03120122D1AB33
:100E23000312012240AC0312012249AC0312012236
:100E330055AC031201226FAC0312012299AC0312C9
:100E43000122C9AC03120122CC9103120122D991D0
:100E530003120122F39103120122269203120122AB
:100E6300649203120122C99203120122DE92031239
:100E73000122E99203120122F692031201220D9339
:100E8300031201221B930312012226930312012250
:100E93003293031201224193031201224C93031252
:100EA30001226F930312012213940312012223944C
:100EB300031201223D94031201225A9403120122C8
:100EC3007594031201229A9403120122A59403122A
:100ED3000122BA9403120122CE94031201222F9508
:100EE300031201223595031201223B9503120122BD
:100EF3004195031201225995031201228C95031285
:100F03000122408E02120122D78E021201226F8F1C
:100F1300021201225F900212012296900212012214
:100F2300A99002120122179102120122B292021217
:100F33000122D992021201227B9302120122B09361
:100F430002120122C193021201223A9402120122D7
:100F53005B9402120122739402120122CB950212B6
:100F63000122D49702120122249A02120122279B02
:100F730002120122769B02120122F5E701120122DD
:100F8300F2E801120122DDE901120122E7E901126F
:100F9300012209EA0112012215EA0112012267EB7B
:100FA3000112012296EB01120122C6EC0112012269
:100FB30008ED0112012234EE011201220AEF01129F
:100FC30001225CEF01120122BBEF01120122F2EFB9
:100FD300011201222DF001120122C8F30112012294
:100FE300E1F30112012263F40112012271F40112EF
:100FF3000122C6F401120122D4F40112012241F5A7
:1010030001120122B3F501120122F9F501120122A5
:1010130047A70212012269A70212012253A9021251
:101023000122F8AC021201223BAE0212012215AFDB
:101033000212012247BA031201226CBA03120122DF
:10104300DDBA031201227F77001201228877001292
:101053000122917700120122C27800120122E17A63
:1010630000120122177B00120122517B0012012280
:10107300877B00120122C17B00120122F57B001243
:101083000122217C001201226A7C00120122A47C2D
:1010930000120122EC7C00120122427D0012012287
:1010A300777D00120122D27D001201220C7E0012F4
:1010B30001225D7E00120122937E00120122CD7E69
:1010C30000120122FB7E001201221E7F0012012268
:1010D30051C2031201227DC203120122D8C203129C
:1010E3000122E2C203120122F2C203120122F7AC6F
:1010F300031201221EAD0312012249AD0312012284
:10110300AC7F00120122D24E00120122385100128C
:101113000122EF52001201224C53001201224E54BD
:1011230000120122D654001201225D550012012241
:10113300825500120122775800120122E85800124A
:101143000122D75900120122115A00120122515AC9
:1011530000120122F25B00120122455C00120122FF
:101163008E5C00120122FC5C001201222E5D001233
:101173000122485D001201225E5E001201226E5EB2
:1011830000120122F45F00120122146000120122F6
:101193004A6000120122CA61001201220962001290
:1011A3000122476300120122968403120122EE8476
:1011B30003120122368603120122A586031201229D
:1011C300548703120122738703120122C787031274
:1011D300012205880312012240FF0112012251FF5F
:1011E30001120122E8FF0212012206C503120122A5
:1011F30016C50312012225C50312012269C5031274
:101203000122AFBE0312012233BF031201229BBF8F
:1012130003120122F67F00120122F8C603120122F3
:10122300F5F302120122A1F40212012219F50212AE
:101233000122AAF502120122B4F60212012208F7D2
:101243000212012243F702120122A4F70212012221
:10125300EDF702120122F6F70212012209F8021237
:10126300012223F8021201223AF802120122A0F805
:1012730002120122B8F80212012295C303120122BD
:10128300FDC30312012208C40312012218C403126E
:101293000122ABC003120122D4C003120122FDC0FC
:1012A300031201223FC10312012265E4021201224B
:1012B3006FE402120122AFE402120122F8E40212E7
:1012C300012232E50212012288E502120122A7E57A
:1012D30002120122B0E50212012201E602120122EA
:1012E3002AE6021201223FE602120122AFE60212AF
:1012F30001223DE70212012281E702120122AAE73D
:101303000212012229E80212012266E802120122D6
:101313009DE802120122AFE802120122CEE8021276
:101323000122D7E80212012289E902120122FDBB40
:10133300031201224EBC03120122D7BC0312012265
:101343003DBD03120122CDAF03120122F7AF0312F9
:101353000122ECB0031201221BB103120122A2B13C
:1013630003120122B4BF031201228EB2031201221F
:10137300C4B203120122F7B20312012250B40312C2
:10138300012223C40312012239C40312012243C4DC
:101393000312012272C503120122F3CF02120122AA
:1013A300B0D002120122EBD0021201221CD1021290
:1013B30001227ED102120122CAD10212012235D2A8
:1013C30002120122AFD202120122AED30212012273
:1013D30035D502120122B8D5021201221ED60212FD
:1013E300012231D6021201222CD70212012279D70F
:1013F30002120122459E031201225B9E0312012267
:10140300FF9E031201223E9F031201225B9F0312E0
:1014130001228C9F03120122D99F031201220DA0E6
:101423000312012248A003120122008002120122AA
:10143300B78302120122498502120122A0850212FA
:101443000122BF85021201223D8602120122CF87AB
:1014530002120122B38802120122C48C0212012259
:10146300988D02120122B5E902120122C8EB021281
:10147300012269EC02120122E6ED021201220E960C
:10148300031201229B9603120122B8960312012232
:10149300CE970312012247980312012223990312C4
:1014A300012282B6031201229AB60312012259B70E
:1014B300031201222AC90112012239CE011201228B
:1014C30073C6031201222DC603120122FCC20312AA
:1014D3000122AEC603120122D6C503120122E6C5BC
:1014E30003120122DAC603000022E066701008A38B
:1014F300E066700A08A3E066700408A3E06622C0F1
:1015030008C3E096F50808A3E096420808A3E0960E
:10151300420808A3E0964208A2D265D033E50870DA
:1015230001D3D00822C3E7960809E7960809E7968E
:101533000809E79622C3E09608A3E09608A3E0967D
:1015430008A3E09622C008C3E096F50808A3E09636
:10155300420808A3E096420808A3E09645087001F4
:10156300D3D00822080808E630E711121E2112150D
:101573007F080808C64480C618181822181818E9E6
:10158300799EC608CAC608CBC608CCC6C3702079E4
:1015930096CACBCC7019798ECBCC70137986CC706C
:1015A3000EF9802ACA33CACB33CBCC33CC331930B0
:1015B300E7F2CCCBCA3350147004EA30E00DE4CA2E
:1015C3003ACACB3BCBCC3CCC500209C3E913C6CCC3
:1015D300182313C6CB18C6CA18C6F92212161F2021
:1015E300F01430E72B74FFFCFBFA747F8022E4FCD9
:1015F300FBFA7480801AB48008BC00F2BB00EF8051
:101603000F50EBF9E4C39AFAE49BFBE49CFCE499E6
:10161300C6CC18C6CB18C6CA18C6F922E4C9C60870
:10162300CAC608CBC6D3330308CCC63392F0C394DF
:101633007F402E94184019C9B90704CACBCC225055
:1016430025C309CA33CACB33CBCC33CC33D9F42229
:10165300F4600DC9CCC313CB13CBCA13CAD9F6CCD0
:1016630022E4FCFBFA2214FCFBFA22E626184618B5
:1016730046184622E7271947194719472218181809
:10168300E60846087009E626087005E633F42208E2
:1016930022191919E70947097009E727097005E7AE
:1016A30033F4220922E6084608C3134608336002CE
:1016B300E633F422E7094709C3134709336002E716
:1016C30033F4221216A860251216B7602012166E84
:1016D3007003021677080808E76670101819E766A2
:1016E300700A1819E76670041819E76622F42212C3
:1016F30016A8601C1216B7601712166E7007121622
:10170300777001D322C0D01216777006D0D0B322DF
:10171300C32233D0D0501430E0F6C3E7960809E76C
:10172300960809E7960809E796B32220E0D5E697DD
:101733000809E6970809E6970809E697B3221216FF
:10174300A8601B1216B7601612166E700712167772
:10175300600CB322C0D01216777005D0D022C322FA
:1017630033D0D0501330E0EBC3E7960809E796086F
:1017730009E7960809E7962220E0E4E6970809E6D8
:10178300970809E6970809E69722001216A8604F02
:101793001216B76012E7548066F6121680701112A3
:1017A3001677703B090909F4F618F618F618F622AD
:1017B300121694701512166E08080860EAE6447F44
:1017C300F618768018E4F618F62212166E601612D2
:1017D30016777012E4F608F608F608E65480F60960
:1017E300090918181822EAC0E0EBC0E0ECC0E0EDEC
:1017F300C0E0E687F0A4FBACF008E687F0A42CFC7D
:10180300E435F0FA1809E687F0A42C4B6002740162
:10181300CA35F0FCE433FB09E687F0D2F7A42CCBFE
:1018230035F0FC1908E687F0A42BCC35F0FBE43344
:10183300FD0819E687F0D2E7A42C4ACB35F0CD3466
:1018430000FC09E687F0D2E7A42DCC35F0FDE433A4
:10185300FA0918E687F0D2F7A42CCD35F0CA340084
:10186300FC08E687F0D2E7D2F7A42ACC35F07A7EDB
:1018730020E70B0ACB33CBCD33CDCC33CC33CB33B7
:1018830050147004ED30E00ED2F1E4CD3DCDCC3CEC
:10189300CC3B5005DA05C2F1EB547FC63308E6337F
:1018A30092F0FBE73309E733C39A502D2B70190CE1
:1018B3000D4C4D70151806E608C333700D20F10A60
:1018C300A2F013F6E418800B4024E4F630F002761D
:1018D3008018F618F618F68024D33B14501074FFC2
:1018E300A2F013F6187680E418F618F6800FA2F02B
:1018F30013F618E63303F618ECF618EDF6D0E0FD10
:10190300D0E0FCD0E0FBD0E0FA221216B76046121A
:1019130016A8603DE9687008F618F618F618F6225E
:10192300748067F7121941090909748067F7221255
:1019330016A8601D1216B77005191919801A121608
:1019430080701F121694C37003E667331919194088
:10195300071818182208080874FFF618F618F6185E
:10196300F6221216946017121677702192F012164F
:101973006E7019501720F014080808090909E7F6D2
:101983001819E7F61819E7F61819E7F62212166E72
:1019930060E6E869701F0808E62480F608E436F676
:1019A30018547FB47F0CE654806007F6E418F618E9
:1019B300F622181822E9C6CC08C6CD08C6CE08C63A
:1019C300CFC0E0E8C0E0EAC0E0EBC0E009E9F80915
:1019D300E7FA09E7FBE6F918E6F8C3EC98ED99EEA8
:1019E3009AEBC2E7F5F0EFC2E795F0500E600CEB0F
:1019F300CFFBEACEFAE9CDF9E8CCF8EAA2E7D2E7E1
:101A0300FAEB33FB13F5F0EEA2E7D2E7FEEF33FF79
:101A1300C5F013A2E730E601B313C5F0C3C0E0C0BD
:101A2300F07F00C39BFB605E9418600F401D146041
:101A33001AD0E023F9D0E0F8021B138AF0E94860DA
:101A430003D2F0E4AFF0FAF9F8803BEB30E40D8910
:101A5300F0EA6003D2F0E4AFF0F9CAF8EB30E30D3B
:101A630088F0EF6002D2F0AFF0E4CAC9F8EB540794
:101A73006014FBC3EA13FAE913F9E813F8EF135000
:101A830002D2E0FFDBEDD0E0C0E030E739C3E49FF2
:101A9300FFF5F0EC98FC42F0ED99FD42F0EE9AFE72
:101AA30042F0D0E0F9D0E0F8E5F0607AE923F9EE0E
:101AB30020E742D8028067C3EF33FFEC33FCED33FA
:101AC300FDEE33FE80EAEC28FCED39FDEE3AFED064
:101AD300E023F9D0E0F84002801BC3EE13FEED13C0
:101AE300FDEC13FCEF135002D2E0FF08B800067FB1
:101AF3007F74FF802EEF3350178CF020F0026010BC
:101B03000CBC000C0DBD00080EBE000408E860DF2D
:101B1300E933E813FFEE2313FE4F4D4C8008E954DD
:101B230080FFE4FEFDFCEE33EF33F47004FCFD7E36
:101B330080D0E0FBD0E0FAD0E0F8D0E0CFC618CEFA
:101B4300C618CDC618CCC6F9221216A870041818E8
:101B530018221216B7700D74FFF61819F61819F635
:101B63001819F622E7548066F612166E700F1216D5
:101B73007770F014F608F608F608F680D112167797
:101B8300700CF608F608768008E6447F80EC12169F
:101B930097700C12168360BFE65480F6E480BB1284
:101BA3001683700519191980A5E869700C763F181A
:101BB300768018F618F6E8F922E6CDC0E018ECC0F6
:101BC300E0E633CD33CDD313F6E719FCE719193328
:101BD300CC33C3947F400ECD9D502408E65480F649
:101BE300E418F6800FF4043D14501408E6447FF61D
:101BF300187680E418F618F6D0E0FCD0E0FD22CC8D
:101C0300D313CCFD18E4C6CBC0E018E4C6CAC0E0C9
:101C13000808ED08C633E613F618E433C675F00377
:101C2300C3CA97CA09CB97CB199C40047D08802E61
:101C3300BD0003021CF516B6FF050606081618C3F9
:101C4300CA33CACB33CB33CA27CA09CB37CB193CE8
:101C5300C37D08803E187D0820E75CC633C6CA33BF
:101C6300CACB33CB33DDF1D5F0EB30E77BCA97CA70
:101C730009CB974ACB199C406F4B7025E620E02196
:101C83008066187D08C3CA97CA09CB97CB199CD322
:101C9300C633C6CA33CACB33CB3350C9DDE7D5F01D
:101CA300E1D3E4C636C608C636C608C636C608C675
:101CB30036C61818188031C3CA97CA09CB97CB19EF
:101CC3009CB34097C633C6CA33CACB33CB33DD3458
:101CD300D5F02EC6A2E0C640C8CA27CA09CB371919
:101CE3004A70BECB3CB480B90808E63308E63360DB
:101CF3001F181818D0E0FAD0E0FBD0E0FCD0E0FDCC
:101D030022187D08CA27CA09CB37CB193CD3808058
:101D130013F618E4B67F11F618B6FF0EF618C604CC
:101D230070D20808768080CAF618F618F680C508BF
:101D33000808EAC0E0EBC0E086F0E7A4FA180986D9
:101D4300F0E7A42AFA180986F0E7A42AFA18098604
:101D5300F0E7A42AFA1986F0E7A4FBE5F02AFA19BA
:101D63000886F0E7A42BFBE5F03AFA190886F0E7BA
:101D7300A42BFBE5F03AFA18180986F0E7A4C5F09E
:101D83002BFBE43AFA1908E7C5F0C6A426F6E5F0FA
:101D93003BFBE43AFA1886F0E7A4F6E5F00826F6EA
:101DA300E43B08F6E43A08F6D0E0FBD0E0FA22E49C
:101DB300CFC0E0E4CEC0E0E4CDC0E0E4CCC0E07549
:101DC300F020E626F608E633F608E633F608E633AF
:101DD300F6181818EC33FCED33FDEE33FEEF33FF4A
:101DE300C3EC9709ED9709EE9709EF971919194075
:101DF3000FFFEC97FC09ED97FD09EE97FE19190605
:101E0300D5F0BFECF709EDF709EEF709EFF719196C
:101E130019D0E0FCD0E0FDD0E0FED0E0FF2218189E
:101E230018E4C396F608E496F608E496F608E496F2
:101E3300F6226016080808C6C313C618C613C618C8
:101E4300C613C618C613C6D5E0EA227009080808E7
:101E5300226016181818C6C333C608C633C608C688
:101E630033C608C633C6D5E0EA22E627F60809E6F4
:101E730037F60809E637F60809E637F622E026F6CC
:101E830008A3E036F608A3E036F608A3E036F62208
:101E9300E026F008A3E036F008A3E036F008A3E05C
:101EA30036F022C3E697F60809E697F60809E6979F
:101EB300F60809E697F622C3E096F008A3E096F049
:101EC30008A3E096F008A3E096F022E056F608A3F4
:101ED300E056F608A3E056F608A3E056F622E056CD
:101EE300F008A3E056F008A3E056F008A3E056F08C
:101EF30022E0F608A3E0F608A3E0F608A3E0F62242
:101F0300E6F008A3E6F008A3E6F008A3E6F022E073
:101F1300FAA3E0FBA3E0FCA3E0FD22E0F8A3E0F9D1
:101F2300A3E0FAA3E0FB22E8F0A3E9F0A3EAF0A31D
:101F3300EBF022CAC0E0E6F0A308DAFAD0E0FA2216
:101F4300CAC0E0E0A3C582CCC582C583CDC583F0FA
:101F5300A3C582CCC582C583CDC583DAE6D0E0CAEA
:101F630022C3E498F8E499F9121FA58026C3E49AE2
:101F7300FAE49BFBE920E7E9121FA5E498F8E4994A
:101F8300F922C3E498F8E499F9121FA5E498F8E458
:101F930099F9C3E49AFAE49BFB22EB20E7CFE9200B
:101FA300E7E0B90010BB0008E88AF084F8AAF02241
:101FB300E4FBC8FA22EB70227B10C833C8C933C9CB
:101FC300335007C39AC3DBF280069A50012ADBEA37
:101FD300C833F4C8C933F4C9FA2275F008E4C83326
:101FE300C8C933C933C99AC99B5004C92AC93BD547
:101FF300F0ECFBC833F4C8E4C9FA22600D08C6A2AA
:10200300E713C618C613C6D5E0F322600C08C6C38F
:1020130013C618C613C6D5E0F422700422600D1847
:10202300C6C333C608C633C6D5E0F4182225181034
:10203300AF08F518400C15198008F518400215195A
:10204300D2AF2200C0D0251810AF08F518500C05E8
:10205300198008F51850020519D2AFD0D0222518DF
:10206300F58210AF08F518400C15198008F51840D3
:10207300021519D2AF851983222518F582E4351983
:10208300F583222518F8E43519F9222518FAE435E1
:1020930019FB222518FCE43519FD22E4732518C524
:1020A30082C0E0E51934FFC583C0E0E518C395821B
:1020B30024F810AF08858319858218800885831951
:1020C300858218D2AFCEF0A3E520F0A37808E60806
:1020D300F0A3DEFAEFF0A3E58124FAF8E608F0A313
:1020E300E608F0A3E608F0A30808E608F0A3E6086C
:1020F300F0A315811581D0E0FED0E0F8158115819C
:102103001581E8C0E0EEC0E0222518C582C0E0E5F5
:102113001934FFC583C0E0E518C3958224F910AFD5
:10212300088583198582188008858319858218D2CA
:10213300AFCEF0A3E520F0A37808E608F0A3DEFA1B
:10214300EFF0A3E58124FBF8E608F0A3E608F0A38B
:102153000808E608F0A3E608F0A315811581D0E08E
:10216300FED0E0F815811581E8C0E0EEC0E02285DD
:102173001983851882E0A3FEE0A3F5207808E0A385
:10218300F608DFFAE0A3FFE0A3C0E0E0A3C0E0E0CD
:10219300A3C0E0E0A3C0E0E0A3C0E010AF088582E5
:1021A300188583198008858218858319D2AFD08357
:1021B300D08202011F851983851882E0A3FEE0A364
:1021C300F5207808E0A3F608DFFAE0A3FFE0A3C058
:1021D300E0E0A3C0E0E0A3C0E0E0A3C0E010AF08EC
:1021E3008582188583198008858218858319D2AF63
:1021F300D083D08222C0D02518C582C0E0E519342F
:10220300FFC583C0E0E518C3958224F310AF0885AA
:1022130083198582188008858319858218D2AFC8EF
:10222300F0A3E9F0A3EAF0A3EBF0A37908E709F040
:10223300A3D8FAECF0A3EDF0A3EEF0A3EFF0A3D054
:10224300E0F0A3D0E0F0A3D0E0F0A3E520F0A3E515
:10225300F0F0A322851983851882E0C0E0A3E0F99A
:10226300A3E0FAA3E0FBA37808E0F608A3DFFAE013
:10227300FCA3E0FDA3E0FEA3E0FFA3E0C0E0A3E036
:10228300C0E0A3E0F5D0A3E0F520A3E0A3F5F010B0
:10229300AF0885831985821880088583198582187C
:1022A300D2AFD082D083D0E0F8D0E032740480067D
:1022B300740280027401C0E0F404122061D0E012C1
:1022C3001F36227404800474028000CCC0E0EDC089
:1022D300E0E518C39CCCAD1950011D10AF068C1856
:1022E3008D1980068C188D19D2AF121F43D0E0FDD3
:1022F300D0E0FC22D083D082E9C0E0E493A3C3867C
:10230300F0C5F095F0F908E493A386F0C5F095F0D5
:10231300700BE493A3C3994005E9048002A3E47519
:10232300F002A42582F582E5F03583F583D0E0F948
:10233300E493A3C0E0E493C0E022D083D082ECC056
:10234300E0EDC0E0E493A3FCE493A3FDED4C600D4A
:10235300122389EC24FFFCED34FFFD80EFE493A30B
:10236300FCE493A3FDED4C600D1223C8EC24FFFCA9
:10237300ED34FFFD80EFD0E0FDD0E0FCE493A3C09B
:10238300E0E493C0E022C0E0C3E4939608740193B1
:102393009618400FE49366700808740193661870EA
:1023A300007019A3A3C3E49396087401939618A32A
:1023B300A3400DD0E0D0E0D0E0022379A3A3A3A3F0
:1023C300A3A3D0E022C0E0C0F088F0E493667008D5
:1023D3000874019366187000A8F0A3A3700BD0F0E3
:1023E300D0E0D0E0D0E0022379A3A3D0F0D0E02264
:1023F40074F612210CEAFEEBFF8C088D09EE2434EE
:10240400F8E43FF9E8FCE9FDEE2435122707FAEE7B
:102414002437122707F88508F0A4C885F00A85092F
:10242400F0A4250AF9EA28F8E439F97A257B0012A0
:102434001FA5EA8C828D83F0FA131313541FF8EE50
:1024440028F8E43FF9E8245DF582E439F583E0C037
:10245400E074075AF8D0E0B800028004C313D8FC33
:10246400A2E0EE50082434F582E43F8018243612AA
:102474002707F5F0EA84A8F0EE28F8E43FF9E82409
:1024840038F582E439F583E0F97F030221B874F763
:1024940012210CEAFEEBFFEE2434122707C0E0EE13
:1024A4002435F582E43FF583D0E0F08E828F83A358
:1024B400A3A3A3A3A3A3C082C0838E828F83A3A359
:1024C400A3A3A3E0F8A3E0F9D083D082E0C398F5F6
:1024D40008A3E099F509EE247F1227076401703EF2
:1024E400EE2480F582E43FF583C082C0838E828F20
:1024F40083A3A3A3A3A3E0240108A3E03400F9D099
:1025040083D082E0687003A3E06970127CB17D041B
:10251400120CB6EE247FF582E43FF583E4F0AC08B8
:10252400AD09EEFAEFFB1223F4E9F9122E5F7F02F4
:102534000221B8C082C083851882851983E0F8A37C
:10254400E0F9C3EA9CEB9D5010C3EC98ED99401B55
:10255400C3EA98EB995014800EC3EA98EB994007AC
:10256400C3EC98ED994004790180027900D083D0BE
:102574008222EAC39CFAEB9DFB2274EF12210C9099
:102584000376E064086005E06407702A9061C8E09F
:1025940060249003A4E0F4601DE0F875F00BA4C877
:1025A400AAF02AF974A628FE740339FF8E828F8359
:1025B400A3A3A3E0700302268C906060E0C0E0EE69
:1025C4002468F582E43FF583D0E0F0750C21750DA5
:1025D40005750800750900E5D914F50AE5D9540311
:1025E400F50E60127403650E6043E50A600AEE247A
:1025F400671227077002807590051CE06401601F54
:1026040012270460047A0480027A00E50AC39AFA65
:1026140095E0FB120B5A8A088B09EA4509700512EA
:102624000EE4806412270470048A0C8B0DE50A60A2
:1026340012850C82850D83F50BE5D9F0A3150BE506
:102644000B70F6122704604474FC250AF50A780C12
:102654001222B3AC0AA90EEEFAEFFB120D7074024B
:10266400122046E97026AA08AB09121334793D8E6C
:10267400828F83A3A3A3A3E0FA7B001209BCEEFA22
:10268400EFFB120CDA120D827900806F7403650E71
:102694006051850A1075110078101222B3AC0CAD8C
:1026A4000DAA08AB09120D347402122046EE2468F8
:1026B40012270764807004747F8001E0F50C780CA5
:1026C4001222B7E50EF50C780C1222B7A90AAC0851
:1026D400AD099003A4E0FA7B00120992740212205F
:1026E400468013900376E06408600BAC0CAD0DEEED
:1026F400FAEFFB120DFA120EF079017F0A0221B8EB
:10270400EE2483F582E43FF583E02274F212210C77
:1027140074FC122030EAFEEBFF8909A2AFE433F522
:1027240008C2AF0227D9E0601B780C1222B3AC0BAD
:10273400A90EEEFAEFFB120D6A740212204674041D
:10274400250BF50B7401250BF5D9850ED9E50B6026
:1027540018F50A850C82850D83E0F5D9A385820CD2
:1027640085830D150AE50A70EA75E195EE2463F890
:10277400E43FF97A007B00A2AFE433F50BC2AF88E3
:10278400828983E0FCA3E0FDEC4D603A8882898372
:10279400E0FAA3E0FB8A828B83E0FCA3E0FD88825D
:1027A4008983ECF0A3EDF08A828B83E4F0A3F088B4
:1027B400828983E0FCA3E0FDEC4D700A8882898362
:1027C400A3A3E4F0A3F0E50BA2E092AF12133490BC
:1027D40004B8E004F0EE2463122707F8A3E0F9E854
:1027E400496064EE24631227072402F8A3E034004E
:1027F400F988828983E5822402F50CE43583F50D9A
:10280400E0F50BA3E0F50EEE2462122707640170D5
:10281400369061D0E0F812270460047C0480027CC6
:10282400007480C398FA95E0FBE50B2CF8E43400BF
:10283400F9E82402F8500109C3EA98EB99A2D26599
:10284400D033400302272A9004B8E0604D9004B9C5
:10285400E0F89004B8E0C398500C74026509703A2B
:102864009004BAE060348E828F83A3A3A3A3E0858F
:1028740018828519831228AE740212207CE812286B
:10288400AE9004B7E028F07402122096AA18AB198F
:1028940079011209E69004B8E4F0E508A2E092AFE9
:1028A40074041220467F070221B8F0A3E4F09004D8
:1028B400B8E0F8228521878522C622C0E074EB1295
:1028C40021F8A2AFE433F508C2AF759B0090618292
:1028D400E0A2E05030E591A2E0502A7591FE740127
:1028E40065217021122A52120E3C122A401222C66D
:1028F400122C097404122046E9640170057901124E
:102904000E7812257E906182E0A2E5505DE591A2E9
:10291400E550577591DF900376E064076005E06445
:1029240008702F122A5274016521703E120E3C1257
:102934002A401222C6122C097404122046E96401AA
:1029440070057901120E787901EEFAEFFB12270F68
:102954008018E0640D7013900398E004F06428700C
:1029640002E4F07A00E0F9120EF6906182E0A2E649
:102974004003022A15E591A2E64003022A15759147
:10298400BF900376E064057008120E24120E3080A6
:1029940003120E2A752100120E84E9900377F07950
:1029A40000120E78120C267A017B00900375E0F970
:1029B400121304907803E064427056900520E014EA
:1029C400F0704EC2AF1229CC00782AD0E0F618D0AD
:1029D400E0F6E59F5407F87005750DFF8003750D4B
:1029E4007FC4C0E07829E6F50A08E6550DF50B74B6
:1029F4000B780A12200ED0E0250AF8906270E0A24B
:102A0400E740F8E8C333906272F0906270E0D2E07D
:102A1400F0906181E0A2E35009E5E9A2E350037577
:102A2400E9F7A3E0A2E75009E591A2E75003759105
:102A34007FE508A2E092AF7F080222578E828F833F
:102A4400E0F8A3E0C82416F582E438F58322900365
:102A5400A4E0F875F00BA4C8AAF02AF974A628FE1D
:102A6400740339FF22C0E0C0D0C082C08390618368
:102A7400E0A2E05009E5BFA2E0500375BFFEE0A26A
:102A8400E15009E5BFA2E1500375BFFDE0A2E250A9
:102A940009E5BFA2E2500375BFFBE0A2E35009E5DC
:102AA400BFA2E3500375BFF7E0A2E45009E5BFA25B
:102AB400E4500375BFEFE0A2E55009E5BFA2E5507D
:102AC4000375BFDFE0A2E65009E5BFA2E650037537
:102AD400BFBFD083D082D0D0D0E032C0E074F21235
:102AE40021F8E5A7A2E6500FE5A1A2E6500953A7F5
:102AF400BF75A1BF122B33E5A7A2E5500CE5A1A237
:102B0400E5500653A7DF75A1DFE5A7A2E15009E56B
:102B1400A1A2E1500375A1FDE5A7A2E2500CE5A135
:102B2400A2E2500653A7FB75A1FB7F010222577452
:102B3400F712210C752101900376E06406701512DA
:102B44000DA68A828B83A3A3A3A3A3A3E0FAA3E085
:102B5400FB120E12A2AFE433FED2AF90037CE0640A
:102B64000170187A207B00900375E0F91214187A2A
:102B7400207B00900375E0F912130A906182E0D281
:102B8400E6F090051DE0602185C622801690037B47
:102B9400E064017008E5C654F84405F5C653BEFC6C
:102BA4001228B87401652160E4EEA2E092AF7F02BE
:102BB4000221B8008E238F248582288583278518D7
:102BC40082851983E0CEA3E0CF852882852783EB15
:102BD400C9EAC8EDCBECCA75F010C3E833C8E933D1
:102BE400C9EA33CAEB33CBC3EA9EF526EB9FF5253E
:102BF400B35004AB25AA26EC33CCED33CDD5F0DAB3
:102C0400AE23AF242274F112210C8A088B098C0A9A
:102C14008D0B9081EC7808121ECE740F12207C78F4
:102C24000C121EF49081EC780C121ECE7808790CEC
:102C340012152890823C50107808790C121EA67840
:102C4400081215484014800E780C7908121EA678D4
:102C54000C12154850047901800279007F08022182
:102C6400B874ED12210C8A088B098C0A8D0B9081A3
:102C7400EC7808121ECE741312207C780C121EF409
:102C84009081EC780C121ECE780C7908121528402D
:102C9400117808790C121EA6AA08AB09AC0AAD0B70
:102CA40080227510007511007512007513017810DB
:102CB400790C121EA678107908121E6DAA10AB1199
:102CC400AC12AD137F0C0221B89081EC7808121E6F
:102CD400F48A828B837808121EE17F040221B8747F
:102CE400F512210C8C828D837808121EF48A828B53
:102CF400837808121EBA122D3BC3E09CF0A3E09D1A
:102D0400122D2D40229082487808121EF48A828B5C
:102D1400837808121E938A828B83A3A3A3A3E0243F
:102D240020F0A3E0344EF080A0F088828983C3E0D1
:102D34009420A3E0944E22EA2404F8E43BF98C8224
:102D44008D83A3A3A3A3E0FCA3E0FD88828983224F
:102D540074F512210CE9FE9004D3E0FAA3E0FBEE33
:102D640029F8E433F9743228F582748139F583E063
:102D74002AF508A3E03BF50978081222B3908240B3
:102D8400121F12122BB874021220468A088B098C67
:102D94000A8D0B74107808121E35AA08AB097F043B
:102DA4000221B874F112210C8A0C8B0D8C0E8D0F3C
:102DB400741112207C1222CA741112207CE02401A6
:102DC400F508A3E03400F509E4F50AF50B780C796D
:102DD40008121D329081E47808121EF4780C7908E8
:102DE400121D32AA0CAB0DAC0EAD0F122BB874022F
:102DF4001220468B09EA450960047A0180027A00B0
:102E0400EC2AFCE43DFD741312207CE0F8A3E0F905
:102E1400E8FEE9FFECF8EDF97A717B02121FA58850
:102E2400088909E4F50AF50B8E828F837808121F4E
:102E340003ECF8EDF97A717B02121FA58A088B095D
:102E44007405780812201D8E828F83A3A3A3A3E5A3
:102E540008F0A3E509F07F080221B8C082C083E925
:102E6400906000F0D083D08222C0E074F21221F886
:102E7400A2AFE433FED2AFC2C0E5D1A2E4500675DE
:102E8400D10F121274EEA2E092AF7F01022257C05A
:102E9400E0C0D0E8C0E0A8A8D2AFC2C7E8A2E792D9
:0F2EA400AFD0E0F8D0D0D0E032C2AF02000022B1
:102EB400FFFFFFFFFFFFFFFFC082C083E99018857B
:102EC400F0D083D08202011F74F61220A0E9900290
:102ED400E8F0900348E0F5087509007402780812D8
:102EE400201DAA08AB091213769002E912387F90CC
:102EF40002E9123C6C606F900348E075F003A4FA99
:102F0400ABF012137690030612387F900306123C3E
:102F14006C700B9002E9123C3D12137C80489003C4
:102F240006124BD17AFF7BFF1211A87A0080198A0E
:102F3400087509007402780812201D12467974FF7E
:102F440012307FE4F0A3F00A900348E0F8EAC39853
:102F540040DD79051208789002E8E0F91207647AF6
:102F6400027B09120AFA02471C74F41220A08A0890
:102F74008B09EB548060479002E8E0F91212EC8A66
:102F84000A8B0BAE0AAF0BEE4F602A8E828F83E062
:102F940064B0701A12088AE960148E828F83A3A326
:102FA400A3A3E0F9EE2405FAE43FFB12085AEEFA73
:102FB400EFFB1212DAAA08E5096480FB80047A00A8
:102FC4007B000231CF74F21220A074FB122030EA8D
:102FD400FEEBFFEE4F6045740312207CEEF0A3EF8E
:102FE400F0851882851983ECF0A3EDF074021220A9
:102FF4007CE9F0AA18AB1912075EE9F5087075743C
:103004001312207CE0F50AA3E0F50BE50A450B60FA
:10301400638E828F83123608EE4F70057508028026
:10302400537A067B001213768A0C8B0DA80CA90D1B
:10303400E8497005750813803B88828983E412305F
:103044007FEEF0A3EF12319BE50AF0A3E50BF090BD
:1030540002EC1231949002EC6017E0FCA3E08003D0
:10306400EAFCEBFD8C828D8312319470F38C828D9B
:1030740083124294A9087405024E51F0A3124BB373
:10308400A32274F21220A08908890C750D00740320
:10309400780C12201D850C0A850D0B9002EBF09024
:1030A40002E912409F123192602E12137C79008043
:1030B4001D890C750D007402780C12201D9002E914
:1030C4001245388882F583A3A3E4F0A3F0099003A2
:1030D40048E0F8E9C39840D9900348E0FA850AF03B
:1030E400A4CAA8F0850BF0A428FB1213768A0C8BD3
:1030F4000DAE0CAF0DEE4F7003023188900348E023
:10310400FC850AF0A4CCA8F0850BF0A428FD790076
:103114001212C87C0080318D0C750D007403780C7C
:1031240012201D8A828B8312318D88828983E4F078
:1031340012319AA3A3F0A3F00DEDC3950840D8EE85
:10314400250AFEEF350BFF0C900348E0F8ECC3981A
:1031540050288C0C750D007402780C12201D9002FE
:10316400E912318DE82402500109FAE9FB8A828BC5
:1031740083EEF0A3EFF07D0080BFE5089002EBF052
:10318400790080027913024E5412453CF922A3A31C
:10319400123C41EA4B22A3124BB3A3A3A32274F41F
:1031A4001220A07900EAA2E0501F7508D0750981A9
:1031B40078081222B379107C047D007A877B181278
:1031C40008727402122046E9F980007F0402217219
:1031D400C082C0839002EC123C6C601C888289839C
:1031E400A3A3E06A7003A3E06B8882898370E8A3D9
:1031F400A3A3A3123C3D80047A007B00022EC57475
:10320400F21220A074FD122030EAFEEBFF85188232
:10321400851983E4F0A3F0740212207C7401F01287
:103224003C697014120A341213769002EF12387F3C
:10323400123C69700302339512397FEE2404F50AB7
:10324400E43FF50B850A82F583E024FE603C24FC10
:10325400607424FE607E24FE70030232E524FE7056
:10326400030232F224FE70030232FF24FE700302D2
:10327400330C24FE700302331924FC700302333A26
:1032840024FE700302335202338E120A349002F188
:10329400EAF0A3EB1233A11204A6E9600302338E11
:1032A4009002F11222CA8E828F83A3A3A3A3A31236
:1032B4004BD1850882850983123C3D120842740271
:1032C40012204602338EAC18AD19EEFAEFFB120849
:1032D4009002335DAC18AD19EEFAEFFB120896803C
:1032E40078AC18AD19EEFAEFFB12089C806BAC18A1
:1032F400AD19EEFAEFFB1208A2805EAC18AD19EE20
:10330400FAEFFB1208A88051AC18AD19EEFAEFFBE6
:103314001208AE80447402122086880C890D780C41
:103324001222B37402122096EEFAEFFB1208B47460
:10333400021220468023AC18AD19EEFAEFFB1208F6
:10334400BAE9F87016740212207CE4F0803CAC18E0
:10335400AD19EEFAEFFB1208C0E9F8E8602C8E8292
:103364008F83A3E064146022850A82850B83E09036
:1033740002F1F0851882851983123C3D9002F21205
:10338400387FE8A31233A11204A0EEFAEFFB12086F
:1033940018740212207CE0F97403024E51F07CF19F
:1033A4007D02850882850983123C412274E812203B
:1033B400A074FA122030740412207CECF0A3EDF017
:1033C4008A128B13EA2405F50EE43513F50FEA246B
:1033D40002F510E43513F511851082F583123C3D96
:1033E4001205968A0A8B0B7508007C037D00790010
:1033F4007AF17B021212C8E50E2402F516E4350FA9
:10340400F5177402122086880C890D780C1222B3E9
:10341400850E82850F83A3A3A3A3E0F50C750D008D
:10342400780C1222B3E50E2405F50CE4350FF50DE6
:10343400780C1222B3851682851783123F44120733
:103444007C74061220468A0C8B0DE50C450D700326
:103454000235D18020851882851983E0888289838A
:10346400F00508851882851983A3E0C0E01236129E
:10347400D0E0F00508E50A24FBFAE50B34FFFBC3B2
:10348400E5089AE49B40030235D17E007F00851253
:1034940082851383A3A3A3A3E0F50978091222B7B5
:1034A400E4F514F51578141222B37514EE751502AB
:1034B40078141222B39002EF1222CA740912207CEB
:1034C4001222CAE50A24F9F9AC0CAD0D85108285E7
:1034D4001183123C3D1208EA7409122046E9600384
:1034E400023572850E82850F83A3A3A3A3A3A3A38E
:1034F400E0F89002EEE0687075E0F5148E1578142B
:103504001222B3124BCE850E82850F83A3A3A3A3ED
:10351400A3A3A3A3123C3D1212C27402122046E9D3
:10352400604C9002F2123C6C703BE4F51478141277
:1035340022B37CFF7DFF7907851082851183123CBD
:103544003D1208547402122046123C727017850E04
:1035540082850F83124D6B740412207C12462C1248
:103564003F75023605850C82850D83123608A8182E
:10357400A9198814891578141222B3740412207CB2
:103584001222CA8516828517831238751207887429
:10359400041220468A0C8B0DEE4F700302344E1237
:1035A4003612EE12361D123F2BEF12361DF8A3E031
:1035B4003400F9E50C450D6003023459888289838F
:1035C40074FFF0050812361274FFF00508E5086070
:1035D4001A1313543F1238851204B2E96009900299
:1035E400F2123C3D12133479008016850E82850F49
:1035F40083124D6B740412207C12462C124294796F
:103604000A023EFEA3A3A3A3E0FEA3E0FF22A808B0
:103614009002F2E028123F2B22F00508089002F2F3
:10362400E0282274E81220A074FA122030740212E6
:10363400207C12387F740412207CECF0A3EDF0742B
:103644000212207CE02405123F14E0F50CA3E0F5FF
:103654000D740212207CE02402F510A3E03400F57E
:1036640011851082F583123C3D120596750800758C
:103674000900EA24FCFEEB34FFFF8008050CE50C8E
:103684007002050DA808C3EE98EF940050030238A9
:1036940031A818A919880E890F780E1222B385143F
:1036A40082851583A3A3A3A3124BD51222B3E514D9
:1036B4002405F50EE43515F50F780E1222B38514A2
:1036C4008285158312387312077C74061220468A89
:1036D4000E8B0FEA450F7003023831EA2404F51605
:1036E400E4350FF517851682F583E0F50CA3E0F5B4
:1036F4000D851882851983124BD18A828B83A3A3EB
:10370400A3E0F9851082851183123C3D12076AE912
:10371400F5096003023831740212207C123F3BF534
:103724000978091222B7E4F512F51378121222B3BC
:103734007512EE75130278121222B39002EF122260
:10374400CA740712207C1222CAEEF9AC0EAD0F85A2
:103754001082851183123C3D1208EA740912204636
:10376400E9F5096003023831E508703FE4F50EF528
:103774000F780E1222B37CFF7DFF790985108285B4
:103784001183123C3D1208547402122046123F6108
:10379400700D740412207C12386879110238659017
:1037A40002EEE024029002F2F080149002F2E0FAB9
:1037B4009002EEE0790024025001096A497072A86F
:1037C400089002EEE0FAE82AFAE43400FBEE9AEFFD
:1037D4009B405A851682851783E0C0E09002F3125D
:1037E4003617D0E0F00508851682851783A3E0C05C
:1037F400E0089002F3123617D0E0F005089002EECC
:10380400124BD51222B3124BCEA808123F08121243
:10381400B074021220469002EEE02508F50874FF09
:10382400650C700474FF650D6003023680E5086062
:103834001F9002F2E0F5F0E508841238851204B80E
:10384400E960099002F3123C3D12133479008011AF
:10385400E509700375090A740412207C123868A9FA
:1038640009023EFE1240A3E50CF0A3E50DF022A3ED
:10387400A3124E60AA0CAB0D22A3A3EAF0A3EBF0B3
:10388400229002F1F07CF17D028510828511831271
:103894003C412274EC1220A074FC1220301243A488
:1038A4007402122096123C371207828A0C8B0DEA9E
:1038B400450D700302396F12397FA818A9198810B1
:1038C400891178101222B37CFF7DFF790B85088261
:1038D400850983123C3D1208547402122046123AA0
:1038E40075700C850A82850B83123F7202397C8EB7
:1038F400828F83A3A3A3A3E0F51278121222B7E464
:10390400F512F51378121222B37512F175130278B9
:10391400121222B378101222B3740912207C1222DC
:10392400CA740912207CE0F9AC0CAD0D85088285BF
:103934000983123C3D1208EA7409122046E9FE701C
:10394400157CF17D02850882850983123C3D1204B1
:10395400BEE97009802074166E70027E009002F237
:10396400123C3D121334EE7004800B7E01850A82F2
:10397400850B83124291EEF90242A6EE2402F50869
:10398400E43FF5092274EC1220A074FC122030EA02
:10399400FEEBFF8C0E8D0FEE2405F508E43FF509D0
:1039A4007402122096850882850983123C3D120711
:1039B400828A0C8B0DEA450D7003023A65EE2402EF
:1039C400F50AE43FF50BA818A91988108911781095
:1039D4001222B37CFF7DFF790D123C371208547418
:1039E40002122046123A75700B85088285098312EB
:1039F4003F72807A8E828F83A3A3A3A3E0F512780B
:103A0400121222B7850882850983A3A31222CA75DC
:103A140012F175130278121222B378101222B374C1
:103A24000912207C1222CA740912207CE0F9123C8B
:103A3400331208EA7409122046E9FE700F7CF17D06
:103A440002123C371204C4E97009802074166E70A7
:103A5400027E009002F2123C3D121334EE70048098
:103A64000B7E01850882850983124291EEF9024298
:103A7400A6123C7CF510A3E0F511EA45112274E886
:103A84001220A074FE1220308A168B178C148D1508
:103A9400EA2405F50CE43517F50DEA2402F50EE4E5
:103AA4003517F50F850E82F583123C3D1205968A73
:103AB400088B09750B007C037D0079007AF17B0289
:103AC4001212C8750A00E50814F5100424FFF5085D
:103AD400E50934FFF50980549002F1E0FA9002EE12
:103AE400E0F8EA28F8E43400F9E50898E509995083
:103AF4000D9002F1E0F8E510C3989002EEF0E0F5C5
:103B04001275130078121222B3124BCE9002F2E017
:103B14002AFAA3E03400FB1212B074021220469079
:103B240002EEE0F89002F1E028F0050A850C8285A7
:103B34000D83A3A31245484003023C189002F1E010
:103B4400C39508E495094003023C18AE0AEE2EFE24
:103B5400E433FF123C57AC18AD19124BE9E439FBBE
:103B64001207828A128B13AC12AD13EC4D701B75C5
:103B74000B01123C471242959002F21231946003F9
:103B8400121334A90B7402023F0085168285178331
:103B9400A3A3A3A3E0F50B780B1222B7E4F512F567
:103BA4001378121222B37512EE75130278121222D0
:103BB400B39002EF1222CA740712207C1222CAA9FF
:103BC40010850E82850F83123C3D1208EA74091297
:103BD4002046E9F50B709B9002F2123C6C600302E4
:103BE4003ADCE4F512F51378121222B37CFF7DFF60
:103BF400790F850E82850F83123C3D12085474029E
:103C0400122046123C726003023ADC123C47123F17
:103C140076023B897CF17D02850E82850F83123CFE
:103C24003D1204CAE96003023B7C7900023B89AC83
:103C34000CAD0D850A82850B83123C4122E0FAA368
:103C4400E0FB22123C57E0FAA3E0F9EA85148285EE
:103C5400158322850C82850D83E02EF8A3E03FF9BD
:103C640088828983229002EF124D6FE84922123C28
:103C74007CF8A3E0F9E849229002F2EAF0A3EBF021
:103C84009002F2E02274E81220A074FA1220307438
:103C94000412207C12387F8C168D17740412207C39
:103CA400E02405F50EA3E03400F50F740412207C23
:103CB400E02402123F14123C3D1205968A0A8B0B33
:103CC4007F007E00A818A91988088909780812229B
:103CD400B3850E82850F83A3A3A3A3E0F5088E0901
:103CE40078081222B3E50E2405F508E4350FF5092A
:103CF40078081222B3850E82850F83A3A3123F4452
:103D040012077C74061220468A0C8B0D8029123F00
:103D140035F00F123F35F00F9002EE12428012225E
:103D2400B3124BCEEFF8123F081212B074021220F5
:103D3400469002EEE02FFFE50C450D7003023DC4F2
:103D44008518828519831243B6A3A3A3E0F98514C9
:103D540082851583123C3D12076AE9FEE50C2404B2
:103D6400F510E4350DF511EE7050740412207C1238
:103D74003F3BF50878081222B7E4F508F5097808FE
:103D84001222B37508EE75090278081222B3900264
:103D9400EF1222CA740712207C1222CAE50A24FAFE
:103DA400F9AC0CAD0D851482851583123C3D1208C7
:103DB400EA7409122046E9FE6039123F5112429416
:103DC400EF7003023EEB9002F2E0F5F0EF84900214
:103DD400F1F07CF17D02851482851583123C3D123D
:103DE40004D0E960099002F3123C3D1213347900C7
:103DF400023EFE8F08EF703BE4F512F513781212C1
:103E040022B37CFF7DFF7911851482851583123CD2
:103E14003D1208547402122046123F617009123F89
:103E240051123F75023EFE9002EEE024049002F22D
:103E3400F080359002EEE0F89002F2E0FAE8240413
:103E4400FCE43400FDEC6A4D6003023DCAE50A243B
:103E5400FAFAE50B34FFFBE50828F8E43400F9EA44
:103E640098EB995003023DCA851082851183E0C006
:103E7400E09002F3E02FF8A3E034008882F583D0C9
:103E8400E0F00F851082851183A3E0C0E0123F2289
:103E9400D0E0F00F7402122086880889097808128D
:103EA40022B3740212207C1222CA850E82850F83EB
:103EB40012387312078874041220468A0C8B0DEA98
:103EC400450D7003023D12740212207CE0C0E01222
:103ED4003F22D0E0F00F740212207CA3E0C0E01275
:103EE4003F22D0E0023D1AEE70027E0A850E8285E2
:103EF4000F83123F57124294EEF974061220467F44
:103F0400100221729002F3E028FAA3E03400FB22AD
:103F1400F514A3E03400F515851482F58322123FCD
:103F240026229002F3E02FFAA3E034008A82F5837C
:103F340022123F2674FF221240A3A3A3A3A3E022CC
:103F4400124E60850E82850F83123C4122851082B9
:103F5400851183124D6F851682851783229002F393
:103F6400EAF0A3EBF09002F3124D6FE849221242FB
:103F74009AE8F0A3E9F079112274EA1220A074FE01
:103F84001220308A088B098C128D13EA2405FEE472
:103F94003509FFAC18AD198E828F83123C3D120790
:103FA400828A0C8B0DEE2406F50EE43FF50FEA45EC
:103FB4000D7003024075E5082402F50AE43509F59D
:103FC4000B8A828B83A3A3A3E0A2E55028851882E1
:103FD400851983123C3D1208DE8A108B11EA4511C3
:103FE40060207912123C3385108285118312209E41
:103FF400E9F50C707F850E82850F83E060097952A4
:104004008011750C0E806D850882850983A3A3A396
:10401400A3E0F9E4F508F50978081222B38E828F3B
:1040240083A3A3E0F50878081222B38E828F83A3BA
:10403400A3A31222CA8E828F83124BD1123C371251
:1040440008F07406122046E9F50C7011850E82857D
:104054000F83E0702D123C371204D6802574166548
:104064000C7011750C00741812207C12409FE480AF
:1040740010750C01124D67851282851383E8F0A335
:10408400E9F0850E82850F83E0600479008002A93F
:104094000C74021220467F0E0221721240A322E009
:1040A400F8A3E0F58388822274EC1220A074F7123E
:1040B40020308A0A8B0B8C108D11EA2405FEE4351E
:1040C4000BFF750C00AC18AD198E828F83123C3D2A
:1040D4001207828A088B09EA4509700302426BE5DC
:1040E4000A2402F50A5002050B8A828B83A3A3A338
:1040F400E0A2E5502F851882851983123C3D1208F1
:10410400DE8A0C8B0DEA450D604F7912AC08AD09BF
:10411400123C37850C82850D8312209EE9F50C60D4
:104124000302426E850A82850B83E0F508A3E0F55D
:1041340009AA08FB1208D2EA4B70197AFF7BFF1216
:1041440008D2EA4B70030242618A828B83E508F04D
:10415400A3E509F07508008008750C0E02426E058F
:10416400089002EBE0F8E508C39840030242618539
:10417400080E750F007403780E12201D8A828B833B
:10418400A3A3E0250EF8A3E0350F12463570D08EB8
:10419400828F8312428912387F8E828F83A3A31267
:1041A400428912387DEE2404F508E43FF5098508B8
:1041B40082F583E088828983A3A3A3A3F0A3E4F018
:1041C400EE2405F50EE43FF50F850E82F5831242C9
:1041D40089A3A3A3A312387D75120775130078125F
:1041E4001222B3EEFCEFFD740412208E1212B0748E
:1041F40002122046E4F51278121222B38508828551
:104204000983E0FC7D007917123C371208547402CC
:10421400122046740712207C12387F740712207C07
:10422400E0FA4B603D8508828509831242801222A0
:10423400B3850E82850F83124BD11212B074021211
:1042440020467402122096123C371204DCE96026E0
:10425400740712207C123C3D1213348019750C092A
:104264008008750C118003750C01124D678510824E
:10427400851183124294A90C74098028E0F508750D
:104284000900780822123C41888289832212429ACA
:10429400E8F0A3E9F022E0F8A3E0F9850E82850FA7
:1042A400832274041220467F0C02217274EC1220C3
:1042B400A01243A4751000EE2402F50CE43FF50DA2
:1042C400850C82F583123C3D1208D28A088B09EAD8
:1042D40045097003024388850A82850B83E06401E3
:1042E400600302437DAC08AD09AA0AAB0B1208C6F1
:1042F400E9606E85088285098312360AEE2406F584
:104304000AE43FF50B8E828F83A3A31222CA8E8206
:104314008F83A3A3A3A31222CA850A82850B8312C7
:1043240022CA79188E828F831243B6123C3D12083A
:10433400F07406122046E9F8741668700B850A8238
:10434400850B83E4F0A38014E860128E828F8312BD
:104354003C3D850E82850F83EAF0A3EBF088108044
:1043640018780E1222B3AC08AD09EEFAEFFB12086E
:10437400CC7402122046E9F510AA08AB091208D839
:10438400E510700E850C82850D83123C3D1204E20B
:104394008009741665107003751000A9100242ABF1
:1043A400EAFEEBFF8C0E8D0FEE2405F50AE43FF5D3
:1043B4000B22124E60850C82850D832274EA122032
:1043C400A07508007509007E007F00750A00EC24C2
:1043D40002F510E43DF5118035EC65087003ED65D8
:1043E40009600302447588828983A3A3E06A700389
:1043F400A3E06B707C88828983A3A3A3A3124D6B73
:10440400EE28FEEF39FFEA28FAEB39FB050A1245DC
:1044140045503A850A0C750D007403780C12201D62
:10442400851082851183124538124635601FE508D0
:10443400450970A58C088D098882898312360888FD
:10444400828983A3A3E02EFAA3E03F80BEE50AC3DA
:1044540094025003024533750800750900EE4F605D
:1044640010EEFAEFFB12132E8A0E8B0FEA450F7033
:10447400057900024535750B00024508850B0C755E
:104484000D007403780C12201D851082851183E0C1
:10449400250CF50CA3E0350DF50DE50C2406F514FB
:1044A400E4350DF515851482F58312463A6042E52C
:1044B4000C2404F512E4350DF513851282F58312EC
:1044C40022CAE50E2508FAE50F3509FB1212B0746D
:1044D40002122046851282851383E02508F508A37D
:1044E400E03509F509851482851583123C3D1213C4
:1044F40034E50B600D7C087D007900AA0CAB0D122D
:1045040012C8050BE50BC3950A50030244808510BD
:1045140082851183124D6B88828983A3A3A3A3A3ED
:10452400A3E50EF0A3E50F12319BEEF0A3EFF079B3
:104534000102409A12453C22E0250CF8A3E0350D17
:10454400229002EBE0F8E50AC3982274F01220A04E
:104554008A0E8B0F8C0A8D0B750D00750C00805024
:104564007916EE2406F508E43FF5098E828F83A3BD
:10457400A31222CA8E828F83A3A3A3A31222CA8565
:1045840008828509831222CA850E82850F83A3A31C
:10459400123C3D1208F07406122046E9F50D74161B
:1045A400650D706C850882850983E4F0A3F0050C21
:1045B4009002EBE0F8E50CC3985066AA0C8A0875E3
:1045C40009007403780812201D850A82850B83A3D1
:1045D400A3124684E8FEE9FF8E828F8312463A6076
:1045E40040EA2401F508E43400F5099002EBE065A3
:1045F400087002E509601488828983A3A3A3A3A396
:10460400A3A3A3123C6C60030245647918024566B7
:10461400E9609B124D67741012207C12462C1242E2
:1046240094A90D7F08022172E0FAA3E0F5838A823F
:1046340022F988828983124E60EC4D2274F612208E
:10464400A07C0080010C900348E0F8ECC398501E55
:104654008C087509007402780812201D124679E04E
:104664006A7003A3E06B70DDE8FAE9FB80047A006A
:104674007B0002471C9002E91246848882898322C7
:10468400E02508F8A3E03509F92274F21220A08A83
:10469400088B09750A0080278E828F83A3A3A3A3A6
:1046A40012319260031213347C087D007900EEFA13
:1046B400EFFB1212C88E828F83E4F0A3F0050A1276
:1046C40045455027850A0C750D007403780C12209B
:1046D4001D850882850983A3A3E0250CFEA3E0358C
:1046E4000DFF8E828F83123C6C70AD850882850924
:1046F4008374FFF0A3F0024E5474F61220A0120843
:10470400848A828B83E582458370067A007B0080ED
:1047140007A3A3A3A3123C3D7F0202217274F412E7
:1047240020A089088C828D83E06402703C124D0ABB
:10473400FEA3E0F9EEF87402687003742969702925
:10474400750A02750B00780A1222B3741012207CC9
:104754001222CA741012207C1222CAA9081211BA99
:104764007406122046E9F9800279010231CF74E817
:104774001220A074FB122030E9851882851983F079
:104784008A168B17ECFEEDFF7510008E828F83A3C3
:10479400A3A3E0A2E4502D741D12207C123C3D1210
:1047A40008DE8A828B83E58245837003024BA979F4
:1047B4000AEEFCEFFDAA16AB1712209EE9F5106075
:1047C40003024BAC741F12207CE0F508A3E0F5094A
:1047D400742112207CE0F50AA3E0F50B7423122067
:1047E4007CE0F50EA3E0F50F8E828F83E064026017
:1047F40003024B4AA3124D6B850882850983A38566
:104804008212858313EE2406F50CE43FF50D8882AD
:104814008983124BE9F514E439F515781412233D14
:104824000100002801284C480700022811490328E8
:104834007F480029404A01296B4A02290C4A03296E
:10484400404A0429E44A4A4BE50E450F6003024BF3
:1048540045850C82850D83124D6BE8FAE9FB8A824B
:104864008B83E0850A82850B83124BF41222B38A70
:10487400828B83A3E0FCA3E0024ACEE50E450F60E1
:1048840003024B45850A82850B837401F0124BDECB
:10489400850882850983F07C007D008E828F83A346
:1048A400A3A3A3E02401FAA3E03400FB120782EAE5
:1048B4004B60408A828B83E02402F8850A82850B50
:1048C40083E028F0EA2404F8E43BF988828983E051
:1048D400851282851383124C02124BF41222B38A7E
:1048E400828B83A3124BD1E5082403FAE43509FB38
:1048F400024AD3850A82850B83E02404F07C047D7C
:10490400007900AA12AB131212C8024BACE50E4593
:104914000F6003024B45124BDEFEA3E0FF850A82C3
:10492400850B837404F0EE850882850983F0EF8596
:104934001282851383F07403122096EEFAEFFB12B1
:1049440007828A0C8B0DEA450D70030249EF8A82B7
:104954008B83A3A31236087401122086880E890F54
:10496400780E1222B3740512207C1222CA7CFF7DB9
:10497400FF12078874041220468B0FEA450F703328
:10498400850C82850D83124BD51222B3850C82854A
:104994000D83A31222CA7C027D007A687B821205F1
:1049A400847404122046E9700A740112207C74FF96
:1049B400F0A3F08E828F83E064027039750C027567
:1049C4000D00780C1222B38E828F83A3124BD1E593
:1049D400082404FAE43509FB1212B07402122046CA
:1049E400850A82850B83E024028009740112207CED
:1049F400EEF0A3EFF0740112207C124BC374011289
:104A0400207C124BBA024B3FE50E450F6003024B6C
:104A140045850C82850D83124E59AA16AB171211C7
:104A2400C0850A82850B837402F085088285098318
:104A3400EAF0851282851383EB024B42E50E450FA3
:104A44006003024B45124BDEF8A3E0F9850A828528
:104A54000B837402F0E8850882850983F0E98512E6
:104A640082851383024B42850C82850D83123C3D63
:104A74001212AAEAFAF8C3950EE4950F405CE865B1
:104A84000E450F70047A008021851882851983E011
:104A9400FCE50E2CFCE4350FFDC3EC98ED940050BE
:104AA40003E08005E50ECAC39AFAEA850A82850BFB
:104AB40083F08A0A750B00780A1222B3850C82856A
:104AC4000D83E0250EFCA3E0350FFDAA08AB091207
:104AD40012B07402122046024BAC751007024BACA4
:104AE400E50E450F705B850C82850D83124D6B8539
:104AF4000A82850B837407F088828983124BBB1268
:104B04004BB3E0851282851383F0E82402FAE4397A
:104B1400FB8A828B83124BC38A828B83124BBAA388
:104B2400A312319A124BC8F0E82405F85001098801
:104B3400828983124BC8A3124C02A3A3A3A3F080BF
:104B44006775100B8062741D12207C123C3D1208A4
:104B5400848A828B83E5824583604A124D6B880C7C
:104B6400890DE8450D603E742512207CE0F510782F
:104B7400101222B7780E1222B3780A1222B37808E0
:104B84001222B3740712207CE0F9EEFCEFFDAA16A2
:104B9400AB17850C82850D8312209E740712204664
:104BA400E9F510800375100EA9107405023F00F09A
:104BB40088828983A322A3E085088285098322123F
:104BC4004C09F022124C09A3A3229002EF124E606A
:104BD40022E0F50E750F00780E22850C82850D8378
:104BE4001240A3E022E0FAA3E0F8E4C8F9EA28229C
:104BF400F08A828B83E0F50A750B00780A22124B47
:104C0400B3124C0922E0850882850983A3A3227488
:104C1400EE1220A074FE1220308A088B09ECFEEDFF
:104C2400FF890AAC18AD19EEFAEFFB1207828A0C61
:104C34008B0DEA450D7003024CFB851882851983A0
:104C4400123C3D1208848A828B83E582458370037B
:104C5400024CF6A3A3124D6B880E890FE8450F7022
:104C640003024CF6741412207CE0F510A3E0F51155
:104C7400E50AF50B780B1222B7741912207C122264
:104C8400CA78101222B3741B12207CE0F9AC0CAD6C
:104C94000DAA08AB09850E82850F8312209E740528
:104CA400122046E9F50B705274FE650A604C850CBF
:104CB40082850D83E064027041124D0AFAA3E0F983
:104CC400EAF87402687003742969702E851082856D
:104CD4001183124BE9F50CE439F50D780C1222B36B
:104CE400EEFCEFFDAA08AB09120908740212204673
:104CF4008008750B0E8003750B01A90B740212203A
:104D0400467F0A022172A3124D6F88828983E022B2
:104D140074F61220A074FE122030740C12207C123F
:104D24004D6BE8851882851983F0740112207CE9A3
:104D3400F0E4F508F50978081222B375080278083A
:104D44001222B37404122086880889097808122272
:104D5400B379FE1208F0740612204674021220463B
:104D640002471C8E828F83124D6F22E0F8A3E0F974
:104D74002274F71220A0EAFEEBFF890890030612C2
:104D84004BD11211C0EA5402600BA908EEFAEFFBF2
:104D9400120776800279017F0102217274F21220D7
:104DA400A074FE122030EAFEEBFF890A7401650A42
:104DB40060147402650A6003024E4F7901120B18E5
:104DC400E96003024E4FEEFAEFFB1208D2EA4B60A1
:104DD400031208D8A818A919880889097808122282
:104DE400B375080275090078081222B37508747542
:104DF400098278081222B37CFF7DFF7A017B0012BE
:104E0400077C74061220468038850882850983A3AE
:104E1400A3A3A3A3A3124E59EEFAEFFB1211A8E425
:104E2400F50CF50D780C1222B3740212207C1222B8
:104E3400CA7CFF7DFFAA08AB0912078874041220FC
:104E4400468A088B09E508450970BE74021220469B
:104E54007F060221721240A3124E6022E0FCA3E0FE
:104E6400FD2274F41220A08A088B09ECFEEDFF9059
:104E74001885E0F4604B7A097B001212D4EA4B6087
:104E8400408A828B8374B1F0A3E4124EC8F08A8204
:104E94008B83A3A3E508F0A3E509124EC8A3EEF0A3
:104EA400A3EFF0740C12207C124D6B8A828B83A3C7
:104EB400A3A3A3A3A3A3124294901885E0F912120A
:104EC400E00231CFF08A828B83A3A3A3A32274F0E0
:104ED4001220A074FA1220308909ECFEEDFF750847
:104EE400008A0A8B0B780A1222F7000410F8501576
:104EF4004F334F4D4F654F834F9B4FBE4FD64FEAB5
:104F04004F14508F50A050B750D250F850F8502A38
:104F1400507401650960030250F38E828F83E0F8B8
:104F2400C3940340030250F3E89019710250CF7404
:104F340002650960030250F38E828F8312586790D2
:104F44001972E8F0A3E90250CF7401650960030205
:104F540050F312512040030250F3E89007490250E5
:104F6400CF7401650960030250F38E828F83E0F8E9
:104F7400C3940540030250F3E890074A0250CF74EB
:104F840001650960030250F312512040030250F3FB
:104F9400E890074B0250CF7410650960030250F388
:104FA400750A10750B00780A1222B37A4C7B07122B
:104FB40012B074021220460251197401650960038B
:104FC4000250F312512040030250F3E890075C02B0
:104FD40050CF7401650960030250F38E828F83E021
:104FE4009019750250CF7404650960030250F38E62
:104FF400828F83780C121EF4908240780C1215482C
:1050040050030250F390075E780C121F03025119EB
:10501400E960030250F312071CE9700512116C8059
:10502400559007F180617407650960030250F375B8
:105034000A06750B00780A1222B38E828F83A3AC02
:1050440082AD83740212208E1212B67402122046AC
:105054007C007D00AA18AB198E828F83E0F91211AF
:1050640018E9FEC3940A400302511612071CE970A2
:105074000CEEF912117279501213EE806D74F22E47
:10508400F582E43407F58374018040740165097086
:105094005E1251205059E890075D802F7401650914
:1050A400704D8E828F83E0F8C3940A5042E89019C1
:1050B4007480187401650970368E828F83E0F874E9
:1050C400F928C3940A5028E8901976F080477401AF
:1050D4006509701B9007F0E0F88E828F83E09007DB
:1050E400F0F0E87030E06401702B121160802675D6
:1050F40008188021C3EA9427EB94005015740265C4
:1051040009700F8E828F8312633612059CE9F508AD
:105114008003750802A90874060254468E828F83A0
:10512400E0F8C3940222A9088005740E1220467F79
:105134000402217274F01220A074B11220308C0A7F
:105144008D0B9081D674201220967406121F43741E
:1051540020122096121118E9FF745F12207CE0F5EA
:1051640009EFC3940A40030252BA75F006EFA4F59E
:105174000874411220967A0E74202508F91213E857
:10518400E97009744D12207CE0FE80027E009019C3
:1051940071E064027005750E018003750E007408D9
:1051A400650970047422800274212508F50D7C1BA6
:1051B4007D007900742612208E1212C874261220E3
:1051C400967A1BA90D1213E8E9702D744012207C05
:1051D400E024F9C3940A5020E50EF50D780D12224F
:1051E400B77427122096EEA2E0E433F9AA0AAB0BB7
:1051F40012063E74011220467C147D007900740C62
:1052040012208E1212C8740C1220967A107424255F
:1052140008F91213E8E970347C1079FF740C122039
:105224008E121328E97025741C12207CAC82AD8385
:105234007A0474252508F91213E8740C122096EEEA
:10524400A2E0E433F9AA0AAB0B120626AC18AD1996
:105254007A0C74702FF91213E8E97049AA18AB1983
:105264001211487F00EF75F003A4F8A9F0851882A5
:10527400851983E58228F8E583125A0A125BEC60EB
:105284001D88828983A3A3E0F50E750F00780E12A2
:1052940022B3AA0AAB0B1208F674021220460FEFCF
:1052A400C3940440C0EEA2E1500C900748E0F9AA70
:1052B4000AAB0B1208FC740465097028901971E09C
:1052C400640270207A0090075CE060027A01900723
:1052D40049E06004780480027800E84AF9AA0AAB3D
:1052E4000B1206F27900744F02544674F71220A090
:1052F40012071CE9704F9007F1E064017015121158
:105304006C9007F1E4F07C0AFDF97AF27B07121243
:10531400C8802A750800A80874F228FEE43407FF40
:105324008E828F83E06401700BA9081211728E8241
:105334008F83E4F00508E508C3940A40D979501234
:1053440013EE121160025D2974F01220A074F012A1
:105354002030EAFEEBFF8C088D09750A0AE9600C1F
:1053640014600914603B14607D02544212115AE91E
:10537400F50AC3940A4003025442E5084509700340
:10538400025442750C06750D00780C1222B3EEFC23
:10539400EFFDAA08AB091212B0740212204602549F
:1053A40042750C00750E06750F00780E1222B3EECE
:1053B400FCEFFDE50C75F00EA4F8A9F0746A28FA68
:1053C400740739FB1212C27402122046E9700B05ED
:1053D4000CE50CC3940A506680CA850C0AE50AC31E
:1053E400940A505A8049750C00AC18AD197A10759E
:1053F400F006E50CA42423F91213E8E9701C7C10D0
:1054040079FFAA18AB19121328E9700EEEFCEFFD10
:10541400AA18AB19120602E9600B050CE50CC3943B
:105424000A501B80C4850C0AE50AC3940A500FE590
:105434000845096009AA08AB09A90A121154A90A66
:1054440074101220467F0802217274F41220A0897D
:105454000975081574FF6A700374FF6B70277E006A
:10546400AC097A027B00EEF9121136E96003750883
:10547400000EEEC3940A40E8E50960537A847B1178
:10548400120B3C804A120B0C8A0A8B0BAE0AAF0B30
:10549400EE4F60387C007D00EE2405FAE43FFB8E7D
:1054A400828F83A3A3A3A3E0F9121118E9F9C3948B
:1054B4000A500CAC097A027B00121136750800E51B
:1054C40009600CEEFAEFFB121184800375081402D4
:1054D400512A74F21220A0ECFEEDFF750815740E2B
:1054E40012207CE0F50AA3E0F50B74FF6A700374E4
:1054F400FF6B7021750900AC0AAD0BEEFAEFFBA946
:105504000912113CE960037508000509E509C39413
:105514000A503F80E2120B0C8A828B83E58245831A
:10552400602D7C007D00E5822405FAE43583FBA32D
:10553400A3A3A3E0F9121118E9F9C3940A5013AC18
:105544000AAD0BEEFAEFFB12113C750800800375EF
:105554000814A9087F06022172C082C083900762E2
:10556400EAF0A3EBF0900748E0FC7D007A267B008C
:1055740012059C900748E0F912086002604374EE3B
:105584001220A074EC1220308A088B09EA240CF54E
:1055940010E43509F5118A828B83A385820C8583F7
:1055A4000DEA2405F50EE43509F50FEA2409F50A98
:1055B400E43509F50BEA2403FEE43509FF8A828BFE
:1055C40083A3A3E024FA700302584624FD70030267
:1055D400576614700302566014601024FD700302B1
:1055E400574914700302579E02584C12633C60449E
:1055F400E0F5838882125867880C890DE8450D60B0
:1056040033851082851183E0F50E780E1222B7EAF5
:10561400240BF582E43509F583E0F91263300A0AB4
:105624000AEFFB850C82850D8312209E74011220E3
:105634004602584C850A82850B831222CA90075E63
:10564400121F121206387402122046E9700302581F
:105654004C7901850A82850B83025816750A0085E8
:105664000C82850D83E06003025716850E82850F38
:1056740083E0A2E040030257169007FC12633F60E8
:10568400030257167C0E7D007900AA18AB1912127A
:10569400C885108285118312600EEA4B6010750A6A
:1056A40006750B00780A1222B3EA2410801B1260DC
:1056B4000A120B0CEA4B700302584C750A06750B60
:1056C40000780A1222B3EA2405FCE43BFD740212BA
:1056D400208E1212B07402122046850E82850F832A
:1056E400E0A2E25004D2F08002C2F0A2F0E433F867
:1056F400740C12207C1261BE12114EE970117A02F0
:105704007B00900748E0F9121304790002584E75A3
:105714000A1512633C700302584C12586D70030250
:10572400584C850C82850D83E0FC7901125858127F
:10573400209EE50A700302584CFC790312600A1299
:105744005FC502584112633C700302584C12586DF5
:10575400700302584C850C82850D83E0FC790202AB
:10576400583E7C007D00EA2404FAE43509FB8E826D
:105774008F83E0F9121118E9F8C3940A4003025820
:105784004CE508240AFCE43509FD7A0475F006E8C2
:10579400A42425F91213E202584C12600A90075D02
:1057A400E06007901974E0F9806B901971E070045F
:1057B40079058061120B0C8A0C8B0DA80CA90DE8DD
:1057C40049700302584CE82404F50CE439F50D85BE
:1057D4000882850983A3A3A3A3A3A3A3E0A2E05003
:1057E40039850C82850D83E0F508602E850A828553
:1057F4000B83A3E054027022740E122096E8240551
:10580400FAE439FBA908121118E9700E79038E82A3
:105814008F8312600E120632802EAC0EAD0F850CF3
:1058240082850D83E0F912600A12119012633C60C4
:105834001712586D60127C00790012585812209E7D
:10584400800612600A121112790174141220467F24
:105854000A0221728E828F83E0FAA3E0FB8882859C
:10586400098322E0F8A3E0F922125FD3F98909E859
:1058740045092274F41220A074F2122030EAFE8C3E
:105884000B75F006E9A42420F508AC18AD197A0EBE
:10589400F91213E8E970487C0679FFAA18AB1912CB
:1058A4001328E9703A740C12207C125867E8F50941
:1058B400E50B6005EE42098004EEF45209AA09E8FA
:1058C4006A7001E96015740C12207CEAF0A3E4F01C
:1058D400AC18AD197A0EA9081213E2790180027985
:1058E4000002512E74F21220A074E6122030890AAC
:1058F4008A088B09ECFEEDFF740C1220967A0E7563
:10590400F006E9A42420F91213E8E960030259CD52
:105914007C0679FF740C12208E121328E9600302AE
:1059240059CD7470250AF50BAC18AD197A0CF9121F
:1059340013E8E960030259C9AA18AB19121148E522
:10594400084509701D7C0C7900AA18AB191213289C
:10595400E970727C0C7D007900AA18AB191212C888
:105964008051AC18AD19AA08AB091211428A0C8BEC
:105974000DA80CA90DE8497022EE4F604CAC18AD8F
:10598400197A007B00121142EAF8EBF9EA4B60390C
:1059940088828983E508F0A3E509F0125A46FAEEF5
:1059A4006A7001EF601FEEF04F700888828983E40B
:1059B400F0A3F0AA18AB19121148AC18AD197A0C5F
:1059C400A90B1213E2790180027900741A1220469D
:1059D40002555874F71220A07E00EE75F003A4F867
:1059E400A9F0EC28F8ED125A0AE06A7003A3E06B00
:1059F4007006E8FAE9FB800B0EEEC3940440DB7AF0
:105A0400007B00025D2939F9888289832274F712A8
:105A140020A07C00EC75F003A4F8A9F0EA28F8EBC8
:105A2400125A0AE0F4FEA3E0F4FF88828983EEF0C0
:105A3400A3EFF0125A46F4F00CECC3940440D502E0
:105A44005D29E82402F582E439F583E02274F41236
:105A540020A074F4122030EAFEEBFF8C088D09902C
:105A640007FC12633F7050EE4F603FEC4509603A0B
:105A740012115AE9901977F0C3940A403A750A0052
:105A84007C0679FFE50A75F00EA4FAABF074642A7B
:105A9400FA74073BFB121328E97016050AE50AC3DA
:105AA400940A40DC901977740AF07901740C02515D
:105AB40030E50A901977F0901977E0C3940A50EA18
:105AC40075F006E0A4FB9007FC12633F7063EEFCE4
:105AD400EFFD7A0E74202BF91213E27C0C7D007911
:105AE400FFAA18AB191212C8AC18AD197A0C901988
:105AF40077E02470F91213E2750A0E750B00780A28
:105B04001222B3EEFCEFFD901977E075F00EA4F8C5
:105B1400A9F0746428FA740739FB1212B0740212E3
:105B240020469007FCE508F0A3E509F07900025A45
:105B3400B0E0C82406125BE660197A1B74212BF9C5
