:020000040000FA
:060000000201070229F5D0
:03002B00022E3D65
:03003300022E1F7B
:03005300022A6B13
:03006B00022DF96A
:1000830002284BE5C754F84401F5C7790122000063
:100093000080FB120086B900030200F1E4792178A5
:1000A30008B800028004F709D8FCE479297802B87B
:1000B30000028004F709D8FCE490028178D8791310
:1000C3008002F0A3D8FCD9FA7A587B1590013778CF
:1000D3003979048015E493A3AD82AE838A828B833E
:1000E300F0A3AA82AB838D828E83D8E9D9E7758288
:1000F300637583C274031201197582917583007449
:100103000012011975D00075813F751881751902A8
:10011300759F00020096C09FF59FE473D09F22D085
:1001230083D082C09FE493C0E0740193C0E0740263
:1001330093F59F22FF0000B4000028002800283018
:1001430075A000A000A000A00000080008E001F0D6
:10015300001000100010001000100010005000509C
:1001630000500010001000D0070000000000000F36
:100173000001000500307507001000010081FF0039
:10018300000000FFFFFF9106AF069706D306FF02AC
:10019300020208025000A0000000E803024F82019F
:1001A30000004782025382010000B3150259820105
:1001B3000000BF02025382010000B415025B8201FA
:1001C3000000D502025382010000B515025D8201D1
:1001D3000000D702025382010000B615025F8208B5
:1001E3000000D802025382010000B71502618201A8
:1001F3000000B815FF0100FF20024F820100004AF2
:10020300820253820100001C16028182000000005A
:1002130000025782030000060317004B0D4B0D4BE2
:100223000D4B0D4B0D4B0D4B0D4B0D4B0D4B0D4B0B
:100233000D4B0D4B0DF10F0310EB0F124261747454
:10024300657279206C6576656C0012506564616C2B
:100253006C696E6720737472656E677468000A4315
:100263006F6E66696775726174696F6E00125261B1
:100273007720706564616C6C696E6720646174617A
:1002830000024F8201000044820253820100005F9A
:1002930016027D82010000420702558201000060C0
:1002A3001602578203000043070253820100006EC7
:1002B30016027B8201000045070255820100006F90
:1002C300160257820300004907025382010000828D
:1002D300160279820100004B070255820100008358
:1002E3001602538201000091160275820100004F2D
:1002F3000702558201000092160257820300005143
:1003030007020202020202020202010D00000010B3
:1003130001024F820100003E820253820100002548
:1003230017026F8201000053070253820100002667
:1003330017026B82010000658102538201000027CE
:1003430017026982010000578102538201000028CD
:1003530017026782010000F6800253820100002920
:1003630017028382010000E4800253820100002A05
:1003730017026582010000C0800253820100002B36
:1003830017026D82010000D2800253820100002C0B
:100393001702738201000049810253820100002D7C
:1003A300170277820100002E1701E8030577100A70
:1003B300FFFFFF000130750302010600000000008B
:1003C300000000000000000000000000000000002A
:1003D30000000000000000FFFF0600800CE8030C93
:1003E300096542696B6520506564616C05125000B4
:1003F3002003020A000201060302E0FF6542696B63
:100403006520506564616C0000000000000000007E
:1004130000351400003B143031323334353637386D
:100423003941424344454600286E756C6C20706F19
:10043300696E74657229003031323334353637389A
:1004430039616263646566003F3F3F000000807F5F
:100453000000803F00000000F9021550B743BA5175
:100463000000204100E7DB2E0000A0401201229291
:10047300A103120122A5A103120122D6A103120195
:100483002210A20312012269A203120122B0A203C5
:10049300120122F8A20312012227A30312012256FA
:1004A300A3031201228DA303120122D4A303120179
:1004B30022EDA30312012242A4031201225BA4032F
:1004C300120122A9A403120122E3A4031201222B85
:1004D30077001201222E78001201226778001201A0
:1004E300228A78001201229C7800120122DA780015
:1004F3001201225679001201221E7A0012012240B3
:100503007A00120122D77A00120122297B001201FC
:10051300225A7B00120122677B00120122D17B0049
:10052300120122287C001201222B7C00120122647A
:100533007C00120122677C00120122717C001201EF
:1005430022C57C00120122067D00120122397D00A2
:10055300120122767D00120122787E001201221CF4
:100563007F00120122857F00120122C37F00120146
:1005730022B19903120122D99903120122069A0387
:100583001201223E9A031201229C9A03120122E8CD
:100593009A031201224F9B031201228F9B03120124
:1005A30022CC9B03120122FA9B03120122A49C0377
:1005B300120122AE9C03120122BB9C03120122EE04
:1005C3009C03120122FA9C03120122129D031201C1
:1005D300221C9D0312012229BF0312012237BF03EC
:1005E3001201224FBF0312012266BF031201223BF5
:1005F300A701120122E5A701120122F8A8011201A5
:100603002274A90112012292AA01120122CEAA0187
:1006130012012269AB011201224DAC011201221910
:10062300AD01120122A7AE0112012218AF0112017E
:1006330022D2AF01120122C4B00112012204B1017E
:10064300120122B8B101120122EAB101120122E022
:10065300B30112012222B40112012240B40112019A
:1006630022A6B40112012275B50112012239B60185
:1006730012012258B801120122D7D702120122C156
:10068300D8021201226CD902120122BDD902120131
:10069300226DDA02120122DEDA02120122C3DB0228
:1006A300120122F7DB02120122F0DC021201222DD9
:1006B300DD0212012209DE0212012248DE021201CA
:1006C3002264DE02120122ECB20312012270B30390
:1006D3001201229BB303120122B5B403120122AA11
:1006E3009D03120122C09D03120122DE9D0312010C
:1006F30022EF9E03120122F99E0312012224A0037A
:100703001201221BA10312012288A103120122C597
:10071300DE02120122FBDF0212012232E002120189
:100723002289E0021201229EE20212012285820145
:100733001201221183011201227584011201228107
:100743008401120122BC84011201222B85011201B2
:10075300223486011201223D8701120122048801FD
:100763001201226189011201227F89011201229C57
:100773008901120122498A01120122C68A0112014A
:1007830022EE8A01120122B88D01120122BD8D01D0
:10079300120122D68F011201222490011201229408
:1007A3009001120122D29001120122AE9101120195
:1007B300226E9201120122BA9201120122BD92010C
:1007C300120122019301120122499301120122888D
:1007D3009301120122AA9301120122DE9301120155
:1007E30022419401120122B5E902120122C3E90256
:1007F30012012216EA0212012235EA021201227ABA
:10080300EA02120122BEEB0212012259EC0212018A
:10081300229DEC02120122C7EC0212012236ED02E4
:100823001201227CED02120122F3ED02120122A435
:10083300EE02120122682E00120122782E0012010C
:1008430022192F00120122752F00120122323000CB
:100853001201224E3100120122803100120122AF17
:1008630031001201225C3300120122D33500120140
:10087300224338001201223539001201222E3A0098
:10088300120122353C00120122293F001201225895
:1008930040001201225C42001201226C430012014B
:1008A30022FB4400120122EC45001201223A4600C9
:1008B300120122A94600120122CD46001201221E76
:1008C3004700120122BF4B00120122C04C0012014B
:1008D30022214D001201224C4D00120122124E0022
:1008E3001201220080031201220A80031201224F07
:1008F3008003120122638003120122F38003120199
:10090300222C8103120122678103120122908103A9
:10091300120122E48103120122F981031201221B35
:100923008203120122308203120122448203120144
:1009330022598203120122938203120122BF8203EE
:100943001201220883031201227A8303120122A5D2
:100953008303120122E8830312012212840312018A
:10096300223D840312012299FE0112012257B20291
:100973001201223AB302120122B5B302120122F08C
:10098300B30212012241B502120122CFB5021201B4
:100993002261B80212012213B9021201221FBA0204
:1009A30012012292BB02120122EBBB021201221A94
:1009B3008D031201225D8D03120122E18D031201C9
:1009C30022B890031201227EAE0312012230AF033C
:1009D3001201222CB0031201226BB003120122C5B3
:1009E300B003120122E4B40312012247B50312013A
:1009F30022E4B50312012219B60312012249B603F8
:100A030012012284B603120122A4B603120122B6F4
:100A1300EE0212012242EF0212012201F002120140
:100A23002219F10212012233F302120122C39B02A3
:100A3300120122E89B02120122B59C0212012289B3
:100A43009D02120122F69D02120122369E0212011C
:100A530022D29E0212012206A002120122E1A0026A
:100A630012012240A102120122CCA1021201223A58
:100A7300A202120122C6A2021201220CA302120137
:100A8300227EA30212012210A402120122B1A402A7
:100A9300120122D1A40212012219A502120122621B
:100AA300A5021201227EA502120122A4A5021201AF
:100AB300221EA6021201222CA602120122BBA602AA
:100AC30012012224A7021201226AF302120122EF69
:100AD300F30212012231F40212012215F50212016E
:100AE3002282F502120122C6F5021201220AF6023F
:100AF30012012237F6021201225FF6021201229737
:100B0300F602120122D5F602120122FCF6021201AC
:100B13002276F702120122C0F70212012265B80100
:100B230012012204BA011201223CBC0112012290DB
:100B3300BC01120122BBBC0112012297BD011201AB
:100B430022C7BD01120122F6BD0112012209BE0115
:100B53001201224ABE0112012277BE01120122C5EF
:100B6300BE0112012201BF0112012246BF0112017F
:100B73002293BF011201220DC0011201224EC201B4
:100B830012012238C40112012274C401120122038A
:100B9300C60112012248C601120122BBC60112017D
:100BA3002210C70112012215C7011201229FC7019A
:100BB300120122C1C701120122E0C801120122F170
:100BC300C80112012254C602120122CDC60212012B
:100BD3002287CC0212012292CD021201223BCF02C4
:100BE300120122C9CF0212012218630012012299B5
:100BF3006300120122C663001201220F6400120176
:100C030022106500120122696500120122E56600C7
:100C1300120122676700120122826700120122F388
:100C23006700120122B068001201227369001201E9
:100C330022016A00120122B86A00120122CB6A0063
:100C4300120122646B00120122FB6B0012012222AB
:100C53006C001201228B6C00120122D56C00120170
:100C630022236D00120122C86D00120122666E005C
:100C7300120122F36E00120122646F00120122ABF3
:100C83006F0012012203700012012235700012015D
:100C930022EF7000120122F671001201223F72004E
:100CA3001201225C72001201227B7200120122AE39
:100CB30073001201226574001201228A740012016A
:100CC300229F74001201220F750012012250750039
:100CD300120122747600120122F576001201229489
:100CE300BC02120122DFBC02120122EBBC02120180
:100CF30022BFBD02120122D6BD0212012213BE027F
:100D030012012244BE021201227CBE02120122D22F
:100D1300BE02120122E8BE0212012224BF02120106
:100D23002237BF021201225EBF0212012292BF02CA
:100D3300120122B8C00212012202C202120122FED3
:100D4300C2021201221BC4021201225D2E001201F3
:100D530022FDD80112012238D9011201228ADC01B5
:100D6300120122E6DD01120122A5DE011201220C8D
:100D7300E201120122F6E20112012242E301120111
:100D8300225CE30112012299E301120122A4E3018F
:100D9300120122E3E301120122ECE3011201229684
:100DA300E4011201226DE501120122C1E5011201E4
:100DB300221EE60112012290E60112012219950179
:100DC3001201227898011201227E9801120122AFAA
:100DD3009F01120122B6A30112012281FC0212011A
:100DE300225EFD02120122A2FD02120122DCFD029B
:100DF30012012274FE02120122E3FE02120122EC0E
:100E0300FE02120122F8FE0212012212FF02120157
:100E1300223CFF021201226CFF021201226A91039B
:100E2300120122779103120122919103120122C42C
:100E3300910312012202920312012267920312010B
:100E4300227C9203120122879203120122949203BD
:100E5300120122AB9203120122B99203120122C49E
:100E63009203120122D09203120122DF9203120194
:100E730022EA92031201220D9303120122B193037A
:100E8300120122C19303120122DB9303120122F800
:100E930093031201221394031201223894031201C3
:100EA300224394031201225894031201226C9403E7
:100EB300120122CD9403120122D39403120122D9E9
:100EC3009403120122DF9403120122F79403120107
:100ED300222A9503120122408E02120122D78E028A
:100EE3001201226F8F021201225F900212012296D9
:100EF3009002120122A990021201221791021201FB
:100F030022B29202120122D992021201227B93028F
:100F1300120122B09302120122C193021201223A5A
:100F230094021201225B94021201227394021201B1
:100F330022CB9502120122D49702120122249A0293
:100F4300120122279B02120122769B02120122DF49
:100F5300E701120122DCE801120122C7E9011201B3
:100F630022D1E901120122F3E901120122FFE90171
:100F730012012251EB0112012280EB01120122B076
:100F8300EC01120122F2EC011201221EEE01120108
:100F930022F4EE0112012246EF01120122A5EF0114
:100FA300120122DCEF0112012217F001120122B219
:100FB300F301120122CBF3011201224DF4011201BC
:100FC300225BF401120122B0F401120122BEF401EA
:100FD3001201222BF5011201229DF501120122E3D8
:100FE300F50112012247A70212012269A702120189
:100FF3002253A902120122F8AC021201223BAE02D3
:1010030012012215AF02120122B2B603120122D736
:10101300B60312012248B7031201226CF601120132
:101023002275F6011201227EF601120122AFF701A9
:10103300120122CEF90112012204FA011201223E09
:10104300FA0112012274FA01120122AEFA0112010D
:1010530022E2FA011201220EFB0112012257FB01C7
:1010630012012291FB01120122D9FB011201222F4D
:10107300FC0112012264FC01120122BFFC011201D6
:1010830022F9FC011201224AFD0112012280FD0115
:10109300120122BAFD01120122E8FD011201220B05
:1010A300FE01120122B5C003120122E1C0031201A5
:1010B300223CC10312012246C10312012256C1037D
:1010C300120122C88803120122738903120122909C
:1010D3008903120122CC8A03120122328B031201EB
:1010E30022278C03120122E7A8031201220EA9036F
:1010F30012012239A903120122ADFF011201227E3E
:101103004E00120122E450001201229B52001201F0
:1011130022F85200120122FA5300120122825400D3
:101123001201220955001201222E55001201222319
:10113300580012012294580012012283590012010F
:1011430022BD5900120122FD59001201229E5B00AB
:10115300120122F15B001201223A5C00120122A863
:101163005C00120122DA5C00120122F45C0012011D
:10117300220A5E001201221A5E00120122A05F0001
:10118300120122C05F00120122F65F0012012276D3
:101193006100120122B56100120122F36200120103
:1011A3002200F80212012258F802120122A0F902C9
:1011B3001201220FFA02120122BEFA02120122DDEB
:1011C300FA0212012231FB021201226FFB02120109
:1011D30022F6BF0312012207C003120122AAC00391
:1011E300120122E97F0012012260C1031201227061
:1011F300C10312012282C103120122EAC1031201B7
:101203002283BB0312012207BC031201226FBC031A
:1012130012012206BA031201222FBA031201229CE1
:10122300BA03120122EFBA0312012248BB031201CF
:10123300224BA50312012262A503120122DBA5039F
:10124300120122B0A60312012282A8031201227FF7
:10125300BD03120122A8BD03120122D1BD03120155
:101263002213BE0312012265E4021201226FE4027B
:10127300120122AFE402120122F8E4021201223227
:10128300E50212012288E502120122A7E5021201FA
:1012930022B0E50212012201E6021201222AE6022D
:1012A3001201223FE602120122AFE6021201223DA1
:1012B300E70212012281E702120122AAE7021201C8
:1012C3002229E80212012266E8021201229DE802A5
:1012D300120122AFE802120122CEE802120122D744
:1012E300E80212012289E90212012268B8031201FD
:1012F30022B9B80312012242B903120122A8B90389
:10130300120122BDAB03120122E7AB03120122DC5F
:10131300AC031201220BAD0312012292AD031201A1
:101323002288BC03120122F0B00312012226B1036A
:1013330012012259B103120122B2B203120122EDAA
:10134300C10312012203C2031201220DC2031201BF
:10135300229AFF02120122F3CF02120122B0D0021D
:10136300120122EBD0021201221CD1021201227EB1
:10137300D102120122CAD10212012235D202120174
:1013830022AFD202120122AED30212012235D502BC
:10139300120122B8D5021201221ED60212012231F5
:1013A300D6021201222CD70212012279D70212018E
:1013B30022AC9503120122C2950312012266960301
:1013C300120122A59603120122C29603120122F3EF
:1013D300960312012240970312012274970312010C
:1013E30022AF9703120122A4990312012200800263
:1013F300120122B78302120122498502120122A09F
:101403008502120122BF85021201223D86021201CA
:1014130022CF8702120122B38802120122C48C0256
:10142300120122988D021201226584031201227B8C
:1014330086031201221C8703120122A988031201C9
:101443002258BE0312012283BE0312012214C901D2
:1014530012012223CE0112012227C3031201226D9E
:10146300C303120122D0C203120122E0C2031201FC
:101473002299C303000022E066701008A3E066709F
:101483000A08A3E066700408A3E06622C008C3E06C
:1014930096F50808A3E096420808A3E096420808D8
:1014A300A3E0964208A2D265D033E5087001D3D0F9
:1014B3000822C3E7960809E7960809E7960809E7AB
:1014C3009622C3E09608A3E09608A3E09608A3E05B
:1014D3009622C008C3E096F50808A3E096420808E0
:1014E300A3E096420808A3E09645087001D3D0080C
:1014F30022080808E630E711121DAE12150C080881
:1015030008C64480C618181822181818E9799EC608
:1015130008CAC608CBC608CCC6C370207996CACB06
:10152300CC7019798ECBCC70137986CC700EF98080
:101533002ACA33CACB33CBCC33CC331930E7F2CC02
:10154300CBCA3350147004EA30E00DE4CA3ACACB74
:101553003BCBCC3CCC500209C3E913C6CC182313B4
:10156300C6CB18C6CA18C6F9221215AC20F014301F
:10157300E72B74FFFCFBFA747F8022E4FCFBFA7414
:1015830080801AB48008BC00F2BB00EF800F50EBE0
:10159300F9E4C39AFAE49BFBE49CFCE499C6CC18F7
:1015A300C6CB18C6CA18C6F922E4C9C608CAC608F3
:1015B300CBC6D3330308CCC63392F0C3947F402EFB
:1015C30094184019C9B90704CACBCC225025C309C2
:1015D300CA33CACB33CBCC33CC33D9F422F4600D2A
:1015E300C9CCC313CB13CBCA13CAD9F6CC22E4FCA0
:1015F300FBFA2214FCFBFA22E62618461846184684
:1016030022E72719471947194722181818E60846E9
:10161300087009E626087005E633F4220822191932
:1016230019E70947097009E727097005E733F42229
:101633000922E6084608C3134608336002E633F47A
:1016430022E7094709C3134709336002E733F4224A
:10165300121635602512164460201215FB70030222
:101663001604080808E76670101819E766700A1868
:1016730019E76670041819E76622F422121635601A
:101683001C12164460171215FB7007121604700122
:10169300D322C0D01216047006D0D0B322C3223393
:1016A300D0D0501430E0F6C3E7960809E79608094E
:1016B300E7960809E796B32220E0D5E6970809E6FE
:1016C300970809E6970809E697B322121635601BB7
:1016D30012164460161215FB7007121604600CB341
:1016E30022C0D01216047005D0D022C32233D0D02A
:1016F300501330E0EBC3E7960809E7960809E7962D
:101703000809E7962220E0E4E6970809E697080926
:10171300E6970809E6972200121635604F12164421
:101723006012E7548066F612160D701112160470DB
:101733003B090909F4F618F618F618F622121621D1
:1017430070151215FB08080860EAE6447FF6187660
:101753008018E4F618F6221215FB601612160470B0
:1017630012E4F608F608F608E65480F609090918A3
:10177300181822EAC0E0EBC0E0ECC0E0EDC0E0E600
:1017830087F0A4FBACF008E687F0A42CFCE435F06A
:10179300FA1809E687F0A42C4B60027401CA35F0ED
:1017A300FCE433FB09E687F0D2F7A42CCB35F0FC3D
:1017B3001908E687F0A42BCC35F0FBE433FD0819B8
:1017C300E687F0D2E7A42C4ACB35F0CD3400FC09F0
:1017D300E687F0D2E7A42DCC35F0FDE433FA0918FF
:1017E300E687F0D2F7A42CCD35F0CA3400FC08E626
:1017F30087F0D2E7D2F7A42ACC35F07A7E20E70B24
:101803000ACB33CBCD33CDCC33CC33CB3350147065
:1018130004ED30E00ED2F1E4CD3DCDCC3CCC3B50D9
:1018230005DA05C2F1EB547FC63308E63392F0FBC9
:10183300E73309E733C39A502D2B70190C0D4C4D28
:1018430070151806E608C333700D20F10AA2F013D1
:10185300F6E418800B4024E4F630F002768018F6A4
:1018630018F618F68024D33B14501074FFA2F0131B
:10187300F6187680E418F618F6800FA2F013F6181F
:10188300E63303F618ECF618EDF6D0E0FDD0E0FCF5
:10189300D0E0FBD0E0FA22121644604612163560FF
:1018A3003DE9687008F618F618F618F62274806792
:1018B300F71218CE090909748067F72212163560EA
:1018C3001D1216447005191919801A12160D701F6E
:1018D300121621C37003E667331919194007181844
:1018E300182208080874FFF618F618F618F62212DC
:1018F30016216017121604702192F01215FB70194D
:10190300501720F014080808090909E7F61819E721
:10191300F61819E7F61819E7F6221215FB60E6E840
:1019230069701F0808E62480F608E436F618547F29
:10193300B47F0CE654806007F6E418F618F6221814
:101943001822E9C6CC08C6CD08C6CE08C6CFC0E06B
:10195300E8C0E0EAC0E0EBC0E009E9F809E7FA090A
:10196300E7FBE6F918E6F8C3EC98ED99EE9AEBC2BB
:10197300E7F5F0EFC2E795F0500E600CEBCFFBEA12
:10198300CEFAE9CDF9E8CCF8EAA2E7D2E7FAEB33ED
:10199300FB13F5F0EEA2E7D2E7FEEF33FFC5F0133A
:1019A300A2E730E601B313C5F0C3C0E0C0F07F0087
:1019B300C39BFB605E9418600F401D14601AD0E057
:1019C30023F9D0E0F8021AA08AF0E9486003D2F0C4
:1019D300E4AFF0FAF9F8803BEB30E40D89F0EA600C
:1019E30003D2F0E4AFF0F9CAF8EB30E30D88F0EF7F
:1019F3006002D2F0AFF0E4CAC9F8EB54076014FBFD
:101A0300C3EA13FAE913F9E813F8EF135002D2E02B
:101A1300FFDBEDD0E0C0E030E739C3E49FFFF5F032
:101A2300EC98FC42F0ED99FD42F0EE9AFE42F0D0C4
:101A3300E0F9D0E0F8E5F0607AE923F9EE20E74237
:101A4300D8028067C3EF33FFEC33FCED33FDEE3395
:101A5300FE80EAEC28FCED39FDEE3AFED0E023F9F6
:101A6300D0E0F84002801BC3EE13FEED13FDEC1330
:101A7300FCEF135002D2E0FF08B800067F7F74FF2B
:101A8300802EEF3350178CF020F00260100CBC0056
:101A93000C0DBD00080EBE000408E860DFE933E862
:101AA30013FFEE2313FE4F4D4C8008E95480FFE4EF
:101AB300FEFDFCEE33EF33F47004FCFD7E80D0E0DA
:101AC300FBD0E0FAD0E0F8D0E0CFC618CEC618CDF0
:101AD300C618CCC6F922121635700418181822122B
:101AE3001644700D74FFF61819F61819F61819F63E
:101AF30022E7548066F61215FB700F12160470F07D
:101B030014F608F608F608F680D1121604700CF6DF
:101B130008F608768008E6447F80EC121624700CE1
:101B230012161060BFE65480F6E480BB12161070E4
:101B33000519191980A5E869700C763F1876801885
:101B4300F618F6E8F922E6CDC0E018ECC0E0E6337B
:101B5300CD33CDD313F6E719FCE7191933CC33C3CF
:101B6300947F400ECD9D502408E65480F6E418F689
:101B7300800FF4043D14501408E6447FF618768071
:101B8300E418F618F6D0E0FCD0E0FD22CCD313CC59
:101B9300FD18E4C6CBC0E018E4C6CAC0E00808EDEF
:101BA30008C633E613F618E433C675F003C3CA97C1
:101BB300CA09CB97CB199C40047D08802EBD000336
:101BC300021C8216B6FF050606081618C3CA33CAD6
:101BD300CB33CB33CA27CA09CB37CB193CC37D08D8
:101BE300803E187D0820E75CC633C6CA33CACB33B0
:101BF300CB33DDF1D5F0EB30E77BCA97CA09CB973E
:101C03004ACB199C406F4B7025E620E02180661873
:101C13007D08C3CA97CA09CB97CB199CD3C633C6D1
:101C2300CA33CACB33CB3350C9DDE7D5F0E1D3E4B4
:101C3300C636C608C636C608C636C608C636C61869
:101C430018188031C3CA97CA09CB97CB199CB340E4
:101C530097C633C6CA33CACB33CB33DD34D5F02E64
:101C6300C6A2E0C640C8CA27CA09CB37194A70BE04
:101C7300CB3CB480B90808E63308E633601F181874
:101C830018D0E0FAD0E0FBD0E0FCD0E0FD22187DD4
:101C930008CA27CA09CB37CB193CD3808013F6185F
:101CA300E4B67F11F618B6FF0EF618C60470D20814
:101CB30008768080CAF618F618F680C5080808EA80
:101CC300C0E0EBC0E086F0E7A4FA180986F0E7A4C9
:101CD3002AFA180986F0E7A42AFA180986F0E7A475
:101CE3002AFA1986F0E7A4FBE5F02AFA190886F028
:101CF300E7A42BFBE5F03AFA190886F0E7A42BFBDF
:101D0300E5F03AFA18180986F0E7A4C5F02BFBE4CE
:101D13003AFA1908E7C5F0C6A426F6E5F03BFBE45A
:101D23003AFA1886F0E7A4F6E5F00826F6E43B084D
:101D3300F6E43A08F6D0E0FBD0E0FA22E4CFC0E0C4
:101D4300E4CEC0E0E4CDC0E0E4CCC0E075F020E632
:101D530026F608E633F608E633F608E633F61818EF
:101D630018EC33FCED33FDEE33FEEF33FFC3EC979A
:101D730009ED9709EE9709EF97191919400FFFEC31
:101D830097FC09ED97FD09EE97FE191906D5F0BFEB
:101D9300ECF709EDF709EEF709EFF7191919D0E098
:101DA300FCD0E0FDD0E0FED0E0FF22181818E4C319
:101DB30096F608E496F608E496F608E496F62260AA
:101DC30016080808C6C313C618C613C618C613C612
:101DD30018C613C6D5E0EA2270090808082260165F
:101DE300181818C6C333C608C633C608C633C60890
:101DF300C633C6D5E0EA22E627F60809E637F60831
:101E030009E637F60809E637F622E026F608A3E0E6
:101E130036F608A3E036F608A3E036F622E026F00D
:101E230008A3E036F008A3E036F008A3E036F0227A
:101E3300C3E697F60809E697F60809E697F6080950
:101E4300E697F622C3E096F008A3E096F008A3E035
:101E530096F008A3E096F022E056F608A3E056F6C3
:101E630008A3E056F608A3E056F622E056F008A3CE
:101E7300E056F008A3E056F008A3E056F022E0F69F
:101E830008A3E0F608A3E0F608A3E0F622E6F008CC
:101E9300A3E6F008A3E6F008A3E6F022E0FAA3E045
:101EA300FBA3E0FCA3E0FD22E0F8A3E0F9A3E0FA42
:101EB300A3E0FB22E8F0A3E9F0A3EAF0A3EBF0220E
:101EC300CAC0E0E6F0A308DAFAD0E0FA22CAC0E01A
:101ED300E0A3C582CCC582C583CDC583F0A3C582EB
:101EE300CCC582C583CDC583DAE6D0E0CA22C3E47C
:101EF30098F8E499F9121F328026C3E49AFAE49B16
:101F0300FBE920E7E9121F32E498F8E499F922C3C8
:101F1300E498F8E499F9121F32E498F8E499F9C3C4
:101F2300E49AFAE49BFB22EB20E7CFE920E7E0B950
:101F33000010BB0008E88AF084F8AAF022E4FBC88A
:101F4300FA22EB70227B10C833C8C933C933500758
:101F5300C39AC3DBF280069A50012ADBEAC833F442
:101F6300C8C933F4C9FA2275F008E4C833C8C933C1
:101F7300C933C99AC99B5004C92AC93BD5F0ECFBA4
:101F8300C833F4C8E4C9FA22600D08C6A2E713C631
:101F930018C613C6D5E0F322600C08C6C313C618CF
:101FA300C613C6D5E0F422700422600D18C6C333ED
:101FB300C608C633C6D5E0F41822251810AF08F5B5
:101FC30018400C15198008F51840021519D2AF22D4
:101FD30000C0D0251810AF08F518500C051980085B
:101FE300F51850020519D2AFD0D0222518F582106A
:101FF300AF08F518400C15198008F518400215199B
:10200300D2AF851983222518F582E43519F5832289
:102013002518F8E43519F9222518FAE43519FB22B5
:102023002518FCE43519FD22E4732518C582C0E0A8
:10203300E51934FFC583C0E0E518C3958224F81081
:10204300AF088583198582188008858319858218CE
:10205300D2AFCEF0A3E520F0A37808E608F0A3DE24
:10206300FAEFF0A3E58124FAF8E608F0A3E608F016
:10207300A3E608F0A30808E608F0A3E608F0A31512
:10208300811581D0E0FED0E0F8158115811581E836
:10209300C0E0EEC0E0222518C582C0E0E51934FF98
:1020A300C583C0E0E518C3958224F910AF08858382
:1020B300198582188008858319858218D2AFCEF0DE
:1020C300A3E520F0A37808E608F0A3DEFAEFF0A377
:1020D300E58124FBF8E608F0A3E608F0A30808E688
:1020E30008F0A3E608F0A315811581D0E0FED0E047
:1020F300F815811581E8C0E0EEC0E02285198385DB
:102103001882E0A3FEE0A3F5207808E0A3F608DF39
:10211300FAE0A3FFE0A3C0E0E0A3C0E0E0A3C0E0D7
:10212300E0A3C0E0E0A3C0E010AF08858218858378
:10213300198008858218858319D2AFD083D0820293
:10214300011F851983851882E0A3FEE0A3F520789B
:1021530008E0A3F608DFFAE0A3FFE0A3C0E0E0A3F2
:10216300C0E0E0A3C0E0E0A3C0E010AF08858218A0
:102173008583198008858218858319D2AFD083D0CF
:102183008222C0D02518C582C0E0E51934FFC5837B
:10219300C0E0E518C3958224F310AF088583198541
:1021A30082188008858319858218D2AFC8F0A3E905
:1021B300F0A3EAF0A3EBF0A37908E709F0A3D8FAB8
:1021C300ECF0A3EDF0A3EEF0A3EFF0A3D0E0F0A3C7
:1021D300D0E0F0A3D0E0F0A3E520F0A3E5F0F0A376
:1021E30022851983851882E0C0E0A3E0F9A3E0FA11
:1021F300A3E0FBA37808E0F608A3DFFAE0FCA3E082
:10220300FDA3E0FEA3E0FFA3E0C0E0A3E0C0E0A3E2
:10221300E0F5D0A3E0F520A3E0A3F5F010AF088527
:1022230083198582188008858319858218D2AFD0D7
:1022330082D083D0E0F8D0E0327404800674028048
:10224300027401C0E0F404121FEED0E0121EC32298
:102253007404800474028000CCC0E0EDC0E0E51893
:10226300C39CCCAD1950011D10AF068C188D19807D
:10227300068C188D19D2AF121ED0D0E0FDD0E0FC31
:1022830022D083D082E9C0E0E493A3C386F0C5F0F3
:1022930095F0F908E493A386F0C5F095F0700BE48C
:1022A30093A3C3994005E9048002A3E475F002A453
:1022B3002582F582E5F03583F583D0E0F9E493A335
:1022C300C0E0E493C0E022D083D082ECC0E0EDC054
:1022D300E0E493A3FCE493A3FDED4C600D122316FD
:1022E300EC24FFFCED34FFFD80EFE493A3FCE493C7
:1022F300A3FDED4C600D122355EC24FFFCED34FFE0
:10230300FD80EFD0E0FDD0E0FCE493A3C0E0E493D4
:10231300C0E022C0E0C3E49396087401939618408A
:102323000FE49366700808740193661870007019BF
:10233300A3A3C3E49396087401939618A3A3400D33
:10234300D0E0D0E0D0E0022306A3A3A3A3A3A3D0AD
:10235300E022C0E0C0F088F0E493667008087401DE
:102363009366187000A8F0A3A3700BD0F0D0E0D050
:10237300E0D0E0022306A3A3D0F0D0E02274F6124B
:102383002099EAFEEBFF8C088D09EE2434F8E43F34
:10239300F9E8FCE9FDEE2435122693FAEE24371210
:1023A3002693F88508F0A4C885F00A8509F0A425CA
:1023B3000AF9EA28F8E439F97A257B00121F32EA90
:1023C3008C828D83F0FA131313541FF8EE28F8E46C
:1023D3003FF9E8245DF582E439F583E0C0E0740752
:1023E3005AF8D0E0B800028004C313D8FCA2E0EE90
:1023F30050082434F582E43F80182436122693F5DE
:10240300F0EA84A8F0EE28F8E43FF9E82438F582EE
:10241300E439F583E0F97F0302214574F71220992B
:10242300EAFEEBFFEE2434122693C0E0EE2435F5EA
:1024330082E43FF583D0E0F08E828F83A3A3A3A32E
:10244300A3A3A3C082C0838E828F83A3A3A3A3A3CA
:10245300E0F8A3E0F9D083D082E0C398F508A3E0C5
:1024630099F509EE247F1226936401703EEE2480D1
:10247300F582E43FF583C082C0838E828F83A3A35A
:10248300A3A3A3E0240108A3E03400F9D083D082FE
:10249300E0687003A3E06970127CB17D04120C8BB9
:1024A300EE247FF582E43FF583E4F0AC08AD09EE5A
:1024B300FAEFFB122380E9F9122DEB7F020221458B
:1024C300C082C083851882851983E0F8A3E0F9C32D
:1024D300EA9CEB9D5010C3EC98ED99401BC3EA981E
:1024E300EB995014800EC3EA98EB994007C3EC981C
:1024F300ED994004790180027900D083D08222EAE9
:10250300C39CFAEB9DFB2274EF122099900376E0B3
:1025130064086005E06407702A9061C8E060249055
:1025230003A4E0F4601DE0F875F00BA4C8AAF02A38
:10253300F974A628FE740339FF8E828F83A3A3A3A5
:10254300E07003022618906060E0C0E0EE2468F5B6
:1025530082E43FF583D0E0F0750C21750D05750815
:1025630000750900E5D914F50AE5D95403F50E60A1
:10257300127403650E6043E50A600AEE24671226AF
:10258300937002807590051CE06401601F12269011
:1025930060047A0480027A00E50AC39AFA95E0FBA4
:1025A300120B2F8A088B09EA45097005120EB980B0
:1025B3006412269070048A0C8B0DE50A6012850C58
:1025C30082850D83F50BE5D9F0A3150BE50B70F6AA
:1025D300122690604474FC250AF50A780C122240F6
:1025E300AC0AA90EEEFAEFFB120D457402121FD3CB
:1025F300E97026AA08AB091212F1793D8E828F8306
:10260300A3A3A3A3E0FA7B00120991EEFAEFFB1256
:102613000CAF120D577900806F7403650E605185FE
:102623000A107511007810122240AC0CAD0DAA08E7
:10263300AB09120D097402121FD3EE2468122693FC
:1026430064807004747F8001E0F50C780C122244DE
:10265300E50EF50C780C122244A90AAC08AD0990DA
:1026630003A4E0FA7B001209677402121FD38013DC
:10267300900376E06408600BAC0CAD0DEEFAEFFB53
:10268300120DCF120EC579017F0A022145EE248374
:10269300F582E43FF583E02274F212209974FC1270
:1026A3001FBDEAFEEBFF8909A2AFE433F508C2AF11
:1026B300022765E0601B780C122240AC0BA90EEEDA
:1026C300FAEFFB120D3F7402121FD37404250BF5AE
:1026D3000B7401250BF5D9850ED9E50B6018F50AA6
:1026E300850C82850D83E0F5D9A385820C85830D46
:1026F300150AE50A70EA75E195EE2463F8E43FF9FB
:102703007A007B00A2AFE433F50BC2AF88828983E2
:10271300E0FCA3E0FDEC4D603A88828983E0FAA3F4
:10272300E0FB8A828B83E0FCA3E0FD88828983EC53
:10273300F0A3EDF08A828B83E4F0A3F0888289838F
:10274300E0FCA3E0FDEC4D700A88828983A3A3E437
:10275300F0A3F0E50BA2E092AF1212F19004B8E0FF
:1027630004F0EE2463122693F8A3E0F9E8496064C9
:10277300EE24631226932402F8A3E03400F988823E
:102783008983E5822402F50CE43583F50DE0F50B2E
:10279300A3E0F50EEE246212269364017036906175
:1027A300D0E0F812269060047C0480027C007480E0
:1027B300C398FA95E0FBE50B2CF8E43400F9E82420
:1027C30002F8500109C3EA98EB99A2D265D03340CD
:1027D300030226B69004B8E0604D9004B9E0F89087
:1027E30004B8E0C398500C74026509703A9004BAB7
:1027F300E060348E828F83A3A3A3A3E08518828530
:10280300198312283A7402122009E812283A900414
:10281300B7E028F07402122023AA18AB1979011229
:1028230009BB9004B8E4F0E508A2E092AF74041287
:102833001FD37F07022145F0A3E4F09004B8E0F82A
:10284300228521878522C622C0E074EB122185A24E
:10285300AFE433F508C2AF759B00906182E0A2E05C
:102863005030E591A2E0502A7591FE740165217004
:10287300211229DE120E111229CC122253122B958A
:102883007404121FD3E9640170057901120E4D120D
:10289300250A906182E0A2E5505DE591A2E55057DB
:1028A3007591DF900376E064076005E06408702F9C
:1028B3001229DE74016521703E120E111229CC1209
:1028C3002253122B957404121FD3E9640170057906
:1028D30001120E4D7901EEFAEFFB12269B8018E0F0
:1028E300640D7013900398E004F064287002E4F020
:1028F3007A00E0F9120ECB906182E0A2E640030277
:1029030029A1E591A2E640030229A17591BF900395
:1029130076E064057008120DF9120E058003120D9E
:10292300FF752100120E59E9900377F07900120E1A
:102933004D120BFB7A017B00900375E0F91212C173
:10294300907803E064427056900520E014F0704ED6
:10295300C2AF12295800782AD0E0F618D0E0F6E585
:102963009F5407F87005750DFF8003750D7FC4C074
:10297300E07829E6F50A08E6550DF50B740B780A9D
:10298300121F9BD0E0250AF8906270E0A2E740F89E
:10299300E8C333906272F0906270E0D2E0F090612D
:1029A30081E0A2E35009E5E9A2E3500375E9F7A347
:1029B300E0A2E75009E591A2E7500375917FE5088E
:1029C300A2E092AF7F080221E48E828F83E0F8A316
:1029D300E0C82416F582E438F583229003A4E0F8D6
:1029E30075F00BA4C8AAF02AF974A628FE7403395B
:1029F300FF22C0E0C0D0C082C083906183E0A2E028
:102A03005009E5BFA2E0500375BFFEE0A2E1500903
:102A1300E5BFA2E1500375BFFDE0A2E25009E5BFA7
:102A2300A2E2500375BFFBE0A2E35009E5BFA2E3B6
:102A3300500375BFF7E0A2E45009E5BFA2E45003D9
:102A430075BFEFE0A2E55009E5BFA2E5500375BFEE
:102A5300DFE0A2E65009E5BFA2E6500375BFBFD091
:102A630083D082D0D0D0E032C0E074F2122185E569
:102A7300A7A2E6500FE5A1A2E6500953A7BF75A18F
:102A8300BF122ABFE5A7A2E5500CE5A1A2E55006B7
:102A930053A7DF75A1DFE5A7A2E15009E5A1A2E1F4
:102AA300500375A1FDE5A7A2E2500CE5A1A2E250F7
:102AB3000653A7FB75A1FB7F010221E474F71220E3
:102AC30099752101900376E064067015120D7B8AD7
:102AD300828B83A3A3A3A3A3A3E0FAA3E0FB120D1A
:102AE300E7A2AFE433FED2AF90037CE06401701839
:102AF3007A207B00900375E0F91213D57A207B00CE
:102B0300900375E0F91212C7906182E0D2E6F0906B
:102B1300051DE0602185C622801690037BE06401D9
:102B23007008E5C654F84405F5C653BEFC122844A4
:102B33007401652160E4EEA2E092AF7F02022145B9
:102B4300008E238F24858228858327851882851903
:102B530083E0CEA3E0CF852882852783EBC9EAC82B
:102B6300EDCBECCA75F010C3E833C8E933C9EA33D7
:102B7300CAEB33CBC3EA9EF526EB9FF525B350048E
:102B8300AB25AA26EC33CCED33CDD5F0DAAE23AFAB
:102B9300242274F11220998A088B098C0A8D0B90D8
:102BA30081CA7808121E5B740F122009780C121E5A
:102BB300819081CA780C121E5B7808790C1214B5C7
:102BC3009081D650107808790C121E3378081214AD
:102BD300D54014800E780C7908121E33780C121429
:102BE300D550047901800279007F0802214574EDF4
:102BF3001220998A088B098C0A8D0B9081CA780858
:102C0300121E5B7413122009780C121E819081CA64
:102C1300780C121E5B780C79081214B540117808F1
:102C2300790C121E33AA08AB09AC0AAD0B802275CE
:102C330010007511007512007513017810790C12CC
:102C43001E3378107908121DFAAA10AB11AC12AD1D
:102C5300137F0C0221459081CA7808121E818A8253
:102C63008B837808121E6E7F0402214574F51220AF
:102C7300998C828D837808121E818A828B837808CF
:102C8300121E47122CC7C3E09CF0A3E09D122CB97F
:102C930040229081FA7808121E818A828B837808F9
:102CA300121E208A828B83A3A3A3A3E02420F0A374
:102CB300E0344EF080A0F088828983C3E09420A39F
:102CC300E0944E22EA2404F8E43BF98C828D83A33A
:102CD300A3A3A3E0FCA3E0FD888289832274F512F9
:102CE3002099E9FE9004D3E0FAA3E0FBEE29F8E48F
:102CF30033F9741928F582748139F583E02AF508CC
:102D0300A3E03BF5097808122240908216121E9F19
:102D1300122B447402121FD38A088B098C0A8D0B61
:102D230074107808121DC2AA08AB097F040221455A
:102D330074F11220998A0C8B0D8C0E8D0F74111265
:102D430020091222577411122009E02401F508A367
:102D5300E03400F509E4F50AF50B780C7908121C48
:102D6300BF9081CE7808121E81780C7908121CBF9F
:102D7300AA0CAB0DAC0EAD0F122B447402121FD371
:102D83008B09EA450960047A0180027A00EC2AFC87
:102D9300E43DFD7413122009E0F8A3E0F9E8FEE92D
:102DA300FFECF8EDF97A717B02121F32880889096A
:102DB300E4F50AF50B8E828F837808121E90ECF8E7
:102DC300EDF97A717B02121F328A088B0974057838
:102DD30008121FAA8E828F83A3A3A3A3E508F0A3DF
:102DE300E509F07F08022145C082C083E9906000B5
:102DF300F0D083D08222C0E074F2122185A2AFE426
:102E030033FED2AFE589A2E1500312122B7589007C
:102E1300C2C5EEA2E092AF7F010221E4C0E074F2EA
:102E2300122185A2AFE433FED2AFE58BA2E05003BB
:102E330012122B758B00C2E880D8C0E0C0D0E8C066
:102E4300E0A8A8D2AFC2C7E8A2E792AFD0E0F8D01B
:102E5300D0D0E032C2AF0200002202011FFFFFFF09
:102E6300FFFFFFFFFFC082C083E990161BF0D083F2
:102E7300D08202011F74F612202DE99002E8F0902F
:102E83000348E0F50875090074027808121FAAAA1E
:102E930008AB091213339002E912382B9002E9129E
:102EA3003C18606F900348E075F003A4FAABF0128E
:102EB300133390030612382B900306123C18700B41
:102EC3009002E9123BE91213398048900306124B32
:102ED3007D7AFF7BFF1211A17A0080198A08750998
:102EE3000074027808121FAA12462574FF12302BB1
:102EF300E4F0A3F00A900348E0F8EAC39840DD79D0
:102F03000512084D9002E8E0F91207397AD77B08D9
:102F1300120ACF0246C874F412202D8A088B09EBDB
:102F2300548060479002E8E0F91212A98A0A8B0BD9
:102F3300AE0AAF0BEE4F602A8E828F83E064B070CF
:102F43001A12085FE960148E828F83A3A3A3A3E000
:102F5300F9EE2405FAE43FFB12082FEEFAEFFB1219
:102F63001297AA08E5096480FB80047A007B0002BB
:102F7300317B74F212202D74FB121FBDEAFEEBFFAE
:102F8300EE4F60457403122009EEF0A3EFF08518AD
:102F930082851983ECF0A3EDF07402122009E9F0A5
:102FA300AA18AB19120733E9F508707574131220C8
:102FB30009E0F50AA3E0F50BE50A450B60638E8291
:102FC3008F831235B4EE4F700575080280537A066D
:102FD3007B001213338A0C8B0DA80CA90DE84970E2
:102FE30005750813803B88828983E412302BEEF049
:102FF300A3EF123147E50AF0A3E50BF09002EC12C0
:1030030031409002EC6017E0FCA3E08003EAFCEBA4
:10301300FD8C828D8312314070F38C828D8312423A
:1030230040A9087405024DFDF0A3124B5FA322745F
:10303300F212202D8908890C750D007403780C1287
:103043001FAA850C0A850D0B9002EBF09002E91282
:10305300404B12313E602E1213397900801D890CCA
:10306300750D007402780C121FAA9002E91244E451
:103073008882F583A3A3E4F0A3F009900348E0F862
:10308300E9C39840D9900348E0FA850AF0A4CAA896
:10309300F0850BF0A428FB1213338A0C8B0DAE0CB6
:1030A300AF0DEE4F7003023134900348E0FC850A04
:1030B300F0A4CCA8F0850BF0A428FD7900121285AA
:1030C3007C0080318D0C750D007403780C121FAADF
:1030D3008A828B8312313988828983E4F0123146E4
:1030E300A3A3F0A3F00DEDC3950840D8EE250AFE87
:1030F300EF350BFF0C900348E0F8ECC39850288C95
:103103000C750D007402780C121FAA9002E912319B
:1031130039E82402500109FAE9FB8A828B83EEF035
:10312300A3EFF07D0080BFE5089002EBF07900800B
:10313300027913024E001244E8F922A3A3123BEDD5
:10314300EA4B22A3124B5FA3A3A32274F412202DF4
:103153007900EAA2E0501F7508C07509817808124A
:10316300224079107C047D007A1D7B161208477477
:1031730002121FD3E9F980007F040220FFC082C03E
:10318300839002EC123C18601C88828983A3A3E01D
:103193006A7003A3E06B8882898370E8A3A3A3A367
:1031A300123BE980047A007B00022E7174F2122034
:1031B3002D74FD121FBDEAFEEBFF8518828519836E
:1031C300E4F0A3F074021220097401F0123C1570AC
:1031D30014120A091213339002EF12382B123C1502
:1031E300700302334112392BEE2404F50AE43FF550
:1031F3000B850A82F583E024FE603C24FC60742482
:10320300FE607E24FE700302329124FE70030232BC
:103213009E24FE70030232AB24FE70030232B824F4
:10322300FE70030232C524FC70030232E624FE70F2
:10323300030232FE02333A120A099002F1EAF0A3C2
:10324300EB12334D12047BE9600302333A9002F12F
:103253001222578E828F83A3A3A3A3A3124B7D8530
:103263000882850983123BE91208177402121FD3DF
:1032730002333AAC18AD19EEFAEFFB1208650233CC
:1032830009AC18AD19EEFAEFFB12086B8078AC1895
:10329300AD19EEFAEFFB120871806BAC18AD19EEA5
:1032A300FAEFFB120877805EAC18AD19EEFAEFFB6C
:1032B30012087D8051AC18AD19EEFAEFFB120883AA
:1032C30080447402122013880C890D780C1222405A
:1032D3007402122023EEFAEFFB1208897402121F04
:1032E300D38023AC18AD19EEFAEFFB12088FE9F87F
:1032F30070167402122009E4F0803CAC18AD19EE8C
:10330300FAEFFB120895E9F8E8602C8E828F83A30D
:10331300E064146022850A82850B83E09002F1F059
:10332300851882851983123BE99002F212382BE843
:10333300A312334D120475EEFAEFFB1207ED74027C
:10334300122009E0F97403024DFDF07CF17D028542
:103353000882850983123BED2274E812202D74FA4A
:10336300121FBD7404122009ECF0A3EDF08A128B36
:1033730013EA2405F50EE43513F50FEA2402F510DC
:10338300E43513F511851082F583123BE912056BC1
:103393008A0A8B0B7508007C037D0079007AF17B28
:1033A30002121285E50E2402F516E4350FF51774A3
:1033B30002122013880C890D780C122240850E828C
:1033C300850F83A3A3A3A3E0F50C750D00780C125E
:1033D3002240E50E2405F50CE4350FF50D780C12AB
:1033E3002240851682851783123EF0120751740618
:1033F300121FD38A0C8B0DE50C450D700302357D2E
:103403008020851882851983E088828983F00508E6
:10341300851882851983A3E0C0E01235BED0E0F0A1
:103423000508E50A24FBFAE50B34FFFBC3E5089A1C
:10343300E49B400302357D7E007F00851282851365
:1034430083A3A3A3A3E0F5097809122244E4F514A6
:10345300F51578141222407514EE751502781412BE
:1034630022409002EF1222577409122009122257A8
:10347300E50A24F9F9AC0CAD0D8510828511831290
:103483003BE91208BF7409121FD3E9600302351E1A
:10349300850E82850F83A3A3A3A3A3A3A3E0F89020
:1034A30002EEE0687075E0F5148E15781412224070
:1034B300124B7A850E82850F83A3A3A3A3A3A3A391
:1034C300A3123BE912127F7402121FD3E9604C90DE
:1034D30002F2123C18703BE4F51478141222407C7B
:1034E300FF7DFF7907851082851183123BE912085E
:1034F300297402121FD3123C1E7017850E82850F8A
:1035030083124D1774041220091245D8123F210269
:1035130035B1850C82850D831235B4A818A9198895
:1035230014891578141222407404122009122257A8
:1035330085168285178312382112075D7404121FC2
:10354300D38A0C8B0DEE4F70030233FA1235BEEEA5
:103553001235C9123ED7EF1235C9F8A3E03400F98A
:10356300E50C450D60030234058882898374FFF0FE
:1035730005081235BE74FFF00508E508601A131339
:10358300543F123831120487E960099002F2123B6A
:10359300E91212F179008016850E82850F83124D90
:1035A3001774041220091245D8124240790A023EC8
:1035B300AAA3A3A3A3E0FEA3E0FF22A8089002F21C
:1035C300E028123ED722F00508089002F2E02822F4
:1035D30074E812202D74FA121FBD7402122009120E
:1035E300382B7404122009ECF0A3EDF074021220BE
:1035F30009E02405123EC0E0F50CA3E0F50D7402CA
:10360300122009E02402F510A3E03400F51185101F
:1036130082F583123BE912056B750800750900EA10
:1036230024FCFEEB34FFFF8008050CE50C7002055B
:103633000DA808C3EE98EF940050030237DDA818D5
:10364300A919880E890F780E1222408514828515D8
:1036530083A3A3A3A3124B81122240E5142405F5EF
:103663000EE43515F50F780E122240851482851568
:103673008312381F1207517406121FD38A0E8B0F41
:10368300EA450F70030237DDEA2404F516E4350F2B
:10369300F517851682F583E0F50CA3E0F50D851883
:1036A30082851983124B7D8A828B83A3A3A3E0F9BE
:1036B300851082851183123BE912073FE9F5096002
:1036C300030237DD7402122009123EE7F509780977
:1036D300122244E4F512F51378121222407512EE09
:1036E30075130278121222409002EF1222577407C8
:1036F300122009122257EEF9AC0EAD0F8510828508
:103703001183123BE91208BF7409121FD3E9F509AB
:1037130060030237DDE508703FE4F50EF50F780E20
:103723001222407CFF7DFF79098510828511831267
:103733003BE91208297402121FD3123F0D700D7456
:103743000412200912381479110238119002EEE0A4
:1037530024029002F2F080149002F2E0FA9002EE5A
:10376300E0790024025001096A497072A8089002A6
:10377300EEE0FAE82AFAE43400FBEE9AEF9B405AB3
:10378300851682851783E0C0E09002F31235C3D01B
:10379300E0F00508851682851783A3E0C0E0089052
:1037A30002F31235C3D0E0F005089002EE124B810C
:1037B300122240124B7AA808123EB412126D740200
:1037C300121FD39002EEE02508F50874FF650C7014
:1037D3000474FF650D600302362CE508601F900238
:1037E300F2E0F5F0E5088412383112048DE960093E
:1037F3009002F3123BE91212F179008011E509708E
:103803000375090A7404122009123814A909023E27
:10381300AA12404FE50CF0A3E50DF022A3A3124E2C
:103823000CAA0CAB0D22A3A3EAF0A3EBF0229002A7
:10383300F1F07CF17D02851082851183123BED222C
:1038430074EC12202D74FC121FBD1243507402122B
:103853002023123BE31207578A0C8B0DEA450D70A8
:103863000302391B12392BA818A91988108911785A
:10387300101222407CFF7DFF790B85088285098326
:10388300123BE91208297402121FD3123A21700C59
:10389300850A82850B83123F1E0239288E828F830D
:1038A300A3A3A3A3E0F5127812122244E4F512F5C0
:1038B3001378121222407512F17513027812122234
:1038C30040781012224074091220091222577409F9
:1038D300122009E0F9AC0CAD0D850882850983122D
:1038E3003BE91208BF7409121FD3E9FE70157CF17E
:1038F3007D02850882850983123BE9120493E970EE
:1039030009802074166E70027E009002F2123BE969
:103913001212F1EE7004800B7E01850A82850B83FF
:1039230012423DEEF9024252EE2402F508E43FF55D
:10393300092274EC12202D74FC121FBDEAFEEBFF6A
:103943008C0E8D0FEE2405F508E43FF50974021281
:103953002023850882850983123BE91207578A0CC5
:103963008B0DEA450D7003023A11EE2402F50AE4C9
:103973003FF50BA818A91988108911781012224055
:103983007CFF7DFF790D123BE31208297402121F9D
:10399300D3123A21700B850882850983123F1E805A
:1039A3007A8E828F83A3A3A3A3E0F5127812122247
:1039B30044850882850983A3A31222577512F175E2
:1039C3001302781212224078101222407409122036
:1039D300091222577409122009E0F9123BDF120879
:1039E300BF7409121FD3E9FE700F7CF17D02123BF5
:1039F300E3120499E97009802074166E70027E0048
:103A03009002F2123BE91212F1EE7004800B7E0178
:103A130085088285098312423DEEF9024252123C27
:103A230028F510A3E0F511EA45112274E812202DC0
:103A330074FE121FBD8A168B178C148D15EA24058C
:103A4300F50CE43517F50DEA2402F50EE43517F508
:103A53000F850E82F583123BE912056B8A088B09E9
:103A6300750B007C037D0079007AF17B02121285CD
:103A7300750A00E50814F5100424FFF508E5093478
:103A8300FFF50980549002F1E0FA9002EEE0F8EAC3
:103A930028F8E43400F9E50898E50999500D9002F7
:103AA300F1E0F8E510C3989002EEF0E0F51275131B
:103AB300007812122240124B7A9002F2E02AFAA303
:103AC300E03400FB12126D7402121FD39002EEE079
:103AD300F89002F1E028F0050A850C82850D83A396
:103AE300A31244F44003023BC49002F1E0C39508DF
:103AF300E495094003023BC4AE0AEE2EFEE433FF15
:103B0300123C03AC18AD19124B95E439FB1207575D
:103B13008A128B13AC12AD13EC4D701B750B011293
:103B23003BF31242419002F212314060031212F150
:103B3300A90B7402023EAC851682851783A3A3A347
:103B4300A3E0F50B780B122244E4F512F513781277
:103B53001222407512EE751302781212224090025F
:103B6300EF1222577407122009122257A910850E4B
:103B730082850F83123BE91208BF7409121FD3E930
:103B8300F50B709B9002F2123C186003023A88E432
:103B9300F512F51378121222407CFF7DFF790F8511
:103BA3000E82850F83123BE91208297402121FD378
:103BB300123C1E6003023A88123BF3123F22023B7F
:103BC300357CF17D02850E82850F83123BE9120459
:103BD3009FE96003023B287900023B35AC0CAD0D35
:103BE300850A82850B83123BED22E0FAA3E0FB22D8
:103BF300123C03E0FAA3E0F9EA85148285158322D7
:103C0300850C82850D83E02EF8A3E03FF988828935
:103C130083229002EF124D1BE84922123C28F8A39D
:103C2300E0F9E849229002F2EAF0A3EBF09002F205
:103C3300E02274E812202D74FA121FBD74041220BE
:103C43000912382B8C168D177404122009E02405F1
:103C5300F50EA3E03400F50F7404122009E02402EA
:103C6300123EC0123BE912056B8A0A8B0B7F007E62
:103C730000A818A919880889097808122240850E16
:103C830082850F83A3A3A3A3E0F5088E0978081206
:103C93002240E50E2405F508E4350FF509780812EE
:103CA3002240850E82850F83A3A3123EF012075193
:103CB3007406121FD38A0C8B0D8029123EE1F00F7C
:103CC300123EE1F00F9002EE12422C122240124BF0
:103CD3007AEFF8123EB412126D7402121FD39002DF
:103CE300EEE02FFFE50C450D7003023D7085188251
:103CF300851983124362A3A3A3E0F9851482851572
:103D030083123BE912073FE9FEE50C2404F510E4B6
:103D1300350DF511EE70507404122009123EE7F5CB
:103D2300087808122244E4F508F5097808122240BD
:103D33007508EE75090278081222409002EF1222EC
:103D4300577407122009122257E50A24FAF9AC0C1A
:103D5300AD0D851482851583123BE91208BF7409E2
:103D6300121FD3E9FE6039123EFD124240EF700389
:103D7300023E979002F2E0F5F0EF849002F1F07CBE
:103D8300F17D02851482851583123BE91204A5E9AE
:103D930060099002F3123BE91212F17900023EAA84
:103DA3008F08EF703BE4F512F51378121222407C72
:103DB300FF7DFF7911851482851583123BE9120873
:103DC300297402121FD3123F0D7009123EFD123FD8
:103DD30021023EAA9002EEE024049002F2F0803524
:103DE3009002EEE0F89002F2E0FAE82404FCE434F6
:103DF30000FDEC6A4D6003023D76E50A24FAFAE51C
:103E03000B34FFFBE50828F8E43400F9EA98EB9952
:103E13005003023D76851082851183E0C0E0900255
:103E2300F3E02FF8A3E034008882F583D0E0F00FAD
:103E3300851082851183A3E0C0E0123ECED0E0F06E
:103E43000F7402122013880889097808122240741B
:103E530002122009122257850E82850F8312381F02
:103E630012075D7404121FD38A0C8B0DEA450D7083
:103E730003023CBE7402122009E0C0E0123ECED021
:103E8300E0F00F7402122009A3E0C0E0123ECED08E
:103E9300E0023CC6EE70027E0A850E82850F831215
:103EA3003F03124240EEF97406121FD37F10022023
:103EB300FF9002F3E028FAA3E03400FB22F514A3F9
:103EC300E03400F515851482F58322123ED2229048
:103ED30002F3E02FFAA3E034008A82F58322123E34
:103EE300D274FF2212404FA3A3A3A3E022124E0CCD
:103EF300850E82850F83123BED2285108285118307
:103F0300124D1B851682851783229002F3EAF0A3D4
:103F1300EBF09002F3124D1BE84922124246E8F0FF
:103F2300A3E9F079112274EA12202D74FE121FBD49
:103F33008A088B098C128D13EA2405FEE43509FFE8
:103F4300AC18AD198E828F83123BE91207578A0C86
:103F53008B0DEE2406F50EE43FF50FEA450D7003D5
:103F6300024021E5082402F50AE43509F50B8A82AB
:103F73008B83A3A3A3E0A2E5502885188285198328
:103F8300123BE91208B38A108B11EA4511602079BC
:103F930012123BDF85108285118312202BE9F50C69
:103FA300707F850E82850F83E060097952801175D9
:103FB3000C0E806D850882850983A3A3A3A3E0F972
:103FC300E4F508F50978081222408E828F83A3A3B3
:103FD300E0F50878081222408E828F83A3A3A312F0
:103FE30022578E828F83124B7D123BE31208C574D6
:103FF30006121FD3E9F50C7011850E82850F83E03D
:10400300702D123BE31204AB80257416650C7011FE
:10401300750C00741812200912404BE48010750CC3
:1040230001124D13851282851383E8F0A3E9F0850D
:104033000E82850F83E0600479008002A90C74026C
:10404300121FD37F0E0220FF12404F22E0F8A3E09D
:10405300F58388822274EC12202D74F7121FBD8A17
:104063000A8B0B8C108D11EA2405FEE4350BFF75CA
:104073000C00AC18AD198E828F83123BE9120757DF
:104083008A088B09EA45097003024217E50A2402EC
:10409300F50A5002050B8A828B83A3A3A3E0A2E552
:1040A300502F851882851983123BE91208B38A0CB5
:1040B3008B0DEA450D604F7912AC08AD09123BE355
:1040C300850C82850D8312202BE9F50C60030242D7
:1040D3001A850A82850B83E0F508A3E0F509AA088F
:1040E300FB1208A7EA4B70197AFF7BFF1208A7EAB5
:1040F3004B700302420D8A828B83E508F0A3E50926
:10410300F07508008008750C0E02421A050890022B
:10411300EBE0F8E508C398400302420D85080E75ED
:104123000F007403780E121FAA8A828B83A3A3E065
:10413300250EF8A3E0350F1245E170D08E828F83F0
:1041430012423512382B8E828F83A3A3124235126B
:104153003829EE2404F508E43FF509850882F58340
:10416300E088828983A3A3A3A3F0A3E4F0EE24054C
:10417300F50EE43FF50F850E82F583124235A3A3B6
:10418300A3A312382975120775130078121222405F
:10419300EEFCEFFD740412201B12126D7402121F49
:1041A300D3E4F5127812122240850882850983E050
:1041B300FC7D007917123BE31208297402121FD306
:1041C300740712200912382B7407122009E0FA4BE6
:1041D300603D85088285098312422C122240850E98
:1041E30082850F83124B7D12126D7402121FD374DA
:1041F30002122023123BE31204B1E9602674071272
:104203002009123BE91212F18019750C0980087517
:104213000C118003750C01124D13851082851183D7
:10422300124240A90C74098028E0F508750900784A
:104233000822123BED8882898322124246E8F0A3CA
:10424300E9F022E0F8A3E0F9850E82850F8322745A
:1042530004121FD37F0C0220FF74EC12202D124393
:1042630050751000EE2402F50CE43FF50D850C8229
:10427300F583123BE91208A78A088B09EA450970FE
:1042830003024334850A82850B83E06401600302E1
:104293004329AC08AD09AA0AAB0B12089BE9606E6F
:1042A3008508828509831235B6EE2406F50AE43FB4
:1042B300F50B8E828F83A3A31222578E828F83A343
:1042C300A3A3A3122257850A82850B83122257794F
:1042D300188E828F83124362123BE91208C574065B
:1042E300121FD3E9F8741668700B850A82850B8355
:1042F300E4F0A38014E860128E828F83123BE98579
:104303000E82850F83EAF0A3EBF088108018780EF5
:10431300122240AC08AD09EEFAEFFB1208A17402B9
:10432300121FD3E9F510AA08AB091208ADE5107006
:104333000E850C82850D83123BE91204B780097444
:104343001665107003751000A910024257EAFEEBC0
:10435300FF8C0E8D0FEE2405F50AE43FF50B2212B8
:104363004E0C850C82850D832274EA12202D75086C
:10437300007509007E007F00750A00EC2402F51029
:10438300E43DF5118035EC65087003ED65096003C4
:1043930002442188828983A3A3E06A7003A3E06BAC
:1043A300707C88828983A3A3A3A3124D17EE28FEF2
:1043B300EF39FFEA28FAEB39FB050A1244F1503AC8
:1043C300850A0C750D007403780C121FAA851082E0
:1043D3008511831244E41245E1601FE50845097025
:1043E300A58C088D09888289831235B488828983D4
:1043F300A3A3E02EFAA3E03F80BEE50AC3940250D4
:10440300030244DF750800750900EE4F6010EEFAF1
:10441300EFFB1212EB8A0E8B0FEA450F7005790042
:104423000244E1750B000244B4850B0C750D007456
:1044330003780C121FAA851082851183E0250CF5E1
:104443000CA3E0350DF50DE50C2406F514E4350D4C
:10445300F515851482F5831245E66042E50C2404C4
:10446300F512E4350DF513851282F583122257E513
:104473000E2508FAE50F3509FB12126D7402121F9F
:10448300D3851282851383E02508F508A3E0350957
:10449300F509851482851583123BE91212F1E50BA8
:1044A300600D7C087D007900AA0CAB0D1212850506
:1044B3000BE50BC3950A500302442C85108285112A
:1044C30083124D1788828983A3A3A3A3A3A3E50E15
:1044D300F0A3E50F123147EEF0A3EFF079010240AC
:1044E300461244E822E0250CF8A3E0350D229002A1
:1044F300EBE0F8E50AC3982274F012202D8A0E8BA4
:104503000F8C0A8D0B750D00750C0080507916EE1B
:104513002406F508E43FF5098E828F83A3A31222B4
:10452300578E828F83A3A3A3A31222578508828564
:104533000983122257850E82850F83A3A3123BE9B9
:104543001208C57406121FD3E9F50D7416650D70B4
:104553006C850882850983E4F0A3F0050C9002EBD7
:10456300E0F8E50CC3985066AA0C8A087509007434
:10457300037808121FAA850A82850B83A3A3124618
:1045830030E8FEE9FF8E828F831245E66040EA241D
:1045930001F508E43400F5099002EBE065087002C8
:1045A300E509601488828983A3A3A3A3A3A3A3A378
:1045B300123C1860030245107918024512E9609B0A
:1045C300124D1374101220091245D8124240A90D3E
:1045D3007F080220FFE0FAA3E0F5838A8222F988AC
:1045E300828983124E0CEC4D2274F612202D7C002E
:1045F30080010C900348E0F8ECC398501E8C0875BA
:10460300090074027808121FAA124625E06A700393
:10461300A3E06B70DDE8FAE9FB80047A007B00021B
:1046230046C89002E91246308882898322E0250831
:10463300F8A3E03509F92274F212202D8A088B09B8
:10464300750A0080278E828F83A3A3A3A312313E12
:1046530060031212F17C087D007900EEFAEFFB1281
:1046630012858E828F83E4F0A3F0050A1244F15081
:1046730027850A0C750D007403780C121FAA850890
:1046830082850983A3A3E0250CFEA3E0350DFF8EED
:10469300828F83123C1870AD85088285098374FF6D
:1046A300F0A3F0024E0074F612202D1208598A82EC
:1046B3008B83E582458370067A007B008007A3A382
:1046C300A3A3123BE97F020220FF74F412202D8979
:1046D300088C828D83E06402703C124CB6FEA3E02A
:1046E300F9EEF874026870037429697029750A0277
:1046F300750B00780A1222407410122009122257F7
:104703007410122009122257A9081211B374061249
:104713001FD3E9F98002790102317B74E812202D5D
:1047230074FB121FBDE9851882851983F08A168BE5
:1047330017ECFEEDFF7510008E828F83A3A3A3E019
:10474300A2E4502D741D122009123BE91208B38A0A
:10475300828B83E58245837003024B55790AEEFC15
:10476300EFFDAA16AB1712202BE9F5106003024BDD
:1047730058741F122009E0F508A3E0F5097421120B
:104783002009E0F50AA3E0F50B7423122009E0F5F4
:104793000EA3E0F50F8E828F83E064026003024A6A
:1047A300F6A3124D17850882850983A38582128596
:1047B3008313EE2406F50CE43FF50D8882898312FA
:1047C3004B95F514E439F51578141222CA0100004B
:1047D300280128F84707000228BD4803282B480072
:1047E30029EC490129174A0229B8490329EC49044C
:1047F30029904AF64AE50E450F6003024AF1850CFB
:1048030082850D83124D17E8FAE9FB8A828B83E0D8
:10481300850A82850B83124BA01222408A828B83E6
:10482300A3E0FCA3E0024A7AE50E450F6003024AC7
:10483300F1850A82850B837401F0124B8A85088205
:10484300850983F07C007D008E828F83A3A3A3A3BD
:10485300E02401FAA3E03400FB120757EA4B60405F
:104863008A828B83E02402F8850A82850B83E02801
:10487300F0EA2404F8E43BF988828983E085128214
:10488300851383124BAE124BA01222408A828B8374
:10489300A3124B7DE5082403FAE43509FB024A7FA2
:1048A300850A82850B83E02404F07C047D00790073
:1048B300AA12AB13121285024B58E50E450F600383
:1048C300024AF1124B8AFEA3E0FF850A82850B831D
:1048D3007404F0EE850882850983F0EF85128285E2
:1048E3001383F07403122023EEFAEFFB1207578AA7
:1048F3000C8B0DEA450D700302499B8A828B83A3BF
:10490300A31235B47401122013880E890F780E1286
:10491300224074051220091222577CFF7DFF1207E3
:104923005D7404121FD38B0FEA450F7033850C821D
:10493300850D83124B81122240850C82850D83A342
:104943001222577C027D007A517B8212055974042E
:10495300121FD3E9700A740112200974FFF0A3F047
:104963008E828F83E064027039750C02750D0078B6
:104973000C1222408E828F83A3124B7DE508240400
:10498300FAE43509FB12126D7402121FD3850A82F1
:10499300850B83E0240280097401122009EEF0A341
:1049A300EFF07401122009124B6F740112200912E7
:1049B3004B66024AEBE50E450F6003024AF1850C94
:1049C30082850D83124E05AA16AB171211B9850AFB
:1049D30082850B837402F0850882850983EAF0855A
:1049E3001282851383EB024AEEE50E450F60030244
:1049F3004AF1124B8AF8A3E0F9850A82850B837486
:104A030002F0E8850882850983F0E985128285131F
:104A130083024AEE850C82850D83123BE9121267ED
:104A2300EAFAF8C3950EE4950F405CE8650E450F6E
:104A330070047A008021851882851983E0FCE50ED5
:104A43002CFCE4350FFDC3EC98ED94005003E0809B
:104A530005E50ECAC39AFAEA850A82850B83F08AB2
:104A63000A750B00780A122240850C82850D83E0BB
:104A7300250EFCA3E0350FFDAA08AB0912126D74D5
:104A830002121FD3024B58751007024B58E50E450F
:104A93000F705B850C82850D83124D17850A828505
:104AA3000B837407F088828983124B67124B5FE094
:104AB300851282851383F0E82402FAE439FB8A82A3
:104AC3008B83124B6F8A828B83124B66A3A31231A3
:104AD30046124B74F0E82405F85001098882898353
:104AE300124B74A3124BAEA3A3A3A3F0806775105C
:104AF3000B8062741D122009123BE91208598A8245
:104B03008B83E5824583604A124D17880C890DE833
:104B1300450D603E7425122009E0F510781012222D
:104B230044780E122240780A12224078081222405A
:104B33007407122009E0F9EEFCEFFDAA16AB178506
:104B43000C82850D8312202B7407121FD3E9F510F5
:104B5300800375100EA9107405023EACF08882899B
:104B630083A322A3E085088285098322124BB5F033
:104B730022124BB5A3A3229002EF124E0C22E0F5B2
:104B83000E750F00780E22850C82850D8312404F1F
:104B9300E022E0FAA3E0F8E4C8F9EA2822F08A82E6
:104BA3008B83E0F50A750B00780A22124B5F124BD8
:104BB300B522E0850882850983A3A32274EE12201F
:104BC3002D74FE121FBD8A088B09ECFEEDFF890AC6
:104BD300AC18AD19EEFAEFFB1207578A0C8B0DEAEE
:104BE300450D7003024CA7851882851983123BE992
:104BF3001208598A828B83E58245837003024CA293
:104C0300A3A3124D17880E890FE8450F7003024CBA
:104C1300A27414122009E0F510A3E0F511E50AF5DA
:104C23000B780B12224474191220091222577810A0
:104C3300122240741B122009E0F9AC0CAD0DAA0836
:104C4300AB09850E82850F8312202B7405121FD3A7
:104C5300E9F50B705274FE650A604C850C82850D74
:104C630083E064027041124CB6FAA3E0F9EAF874E7
:104C730002687003742969702E851082851183126E
:104C83004B95F50CE439F50D780C122240EEFCEF50
:104C9300FDAA08AB091208DD7402121FD380087540
:104CA3000B0E8003750B01A90B7402121FD37F0A2D
:104CB3000220FFA3124D1B88828983E02274F6121F
:104CC300202D74FE121FBD740C122009124D17E81B
:104CD300851882851983F07401122009E9F0E4F53F
:104CE30008F5097808122240750802780812224054
:104CF300740412201388088909780812224079FE67
:104D03001208C57406121FD37402121FD30246C8B9
:104D13008E828F83124D1B22E0F8A3E0F92274F7F1
:104D230012202DEAFEEBFF8908900306124B7D1239
:104D330011B9EA5402600BA908EEFAEFFB12074B14
:104D4300800279017F010220FF74F212202D74FE8C
:104D5300121FBDEAFEEBFF890A7401650A60147431
:104D630002650A6003024DFB7901120AEDE9600353
:104D7300024DFBEEFAEFFB1208A7EA4B60031208A1
:104D8300ADA818A91988088909780812224075085E
:104D93000275090078081222407508577509827850
:104DA300081222407CFF7DFF7A017B0012075174B9
:104DB30006121FD38038850882850983A3A3A3A382
:104DC300A3A3124E05EEFAEFFB1211A1E4F50CF5C5
:104DD3000D780C12224074021220091222577CFF14
:104DE3007DFFAA08AB0912075D7404121FD38A085A
:104DF3008B09E508450970BE7402121FD37F0602B2
:104E030020FF12404F124E0C22E0FCA3E0FD22745F
:104E1300F412202D8A088B09ECFEEDFF90161BE09F
:104E2300F4604B7A097B00121291EA4B60408A824C
:104E33008B8374B1F0A3E4124E74F08A828B83A344
:104E4300A3E508F0A3E509124E74A3EEF0A3EFF077
:104E5300740C122009124D178A828B83A3A3A3A378
:104E6300A3A3A312424090161BE0F912129D023134
:104E73007BF08A828B83A3A3A3A32274F012202D39
:104E830074FA121FBD8909ECFEEDFF7508008A0A4A
:104E93008B0B780A122284000410A450C14EDF4EFB
:104EA300F94E114F2F4F474F6A4F824F964FC04FC6
:104EB3003B504C5063507E50A450A450D64F7401C5
:104EC3006509600302509F8E828F83E0F8C39403C9
:104ED300400302509FE89017CD02507B740265098E
:104EE300600302509F8E828F831258139017CEE86F
:104EF300F0A3E902507B74016509600302509F121D
:104F030050CC400302509FE890075C02507B740131
:104F13006509600302509F8E828F83E0F8C3940576
:104F2300400302509FE890075D02507B74016509BE
:104F3300600302509F1250CC400302509FE8900739
:104F43005E02507B74106509600302509F750A105E
:104F5300750B00780A1222407A5F7B0712126D7478
:104F630002121FD30250C574016509600302509FEA
:104F73001250CC400302509FE890076F02507B749D
:104F8300016509600302509F8E828F83E09017D1E1
:104F930002507B74046509600302509F8E828F83E5
:104FA300780C121E81908216780C1214D5500302CD
:104FB300509F900771780C121E900250C5E9600350
:104FC30002509F1206F1E970051211658055900891
:104FD30004806174076509600302509F750A0675B2
:104FE3000B00780A1222408E828F83A3AC82AD839A
:104FF300740212201B1212737402121FD37C007DE1
:1050030000AA18AB198E828F83E0F9121111E9FE01
:10501300C3940A40030250C21206F1E9700CEEF980
:1050230012116B79501213AB806D74052EF582E467
:105033003408F5837401804074016509705E125071
:10504300CC5059E8900770802F74016509704D8E1C
:10505300828F83E0F8C3940A5042E89017D08018F7
:105063007401650970368E828F83E0F874F928C362
:10507300940A5028E89017D2F080477401650970AC
:105083001B900803E0F88E828F83E0900803F0E81A
:105093007030E06401702B12115980267508188056
:1050A30021C3EA9427EB9400501574026509700F2D
:1050B3008E828F831262E2120571E9F5088003750F
:1050C3000802A90874060253F28E828F83E0F8C3A4
:1050D300940222A9088005740E121FD37F040220B4
:1050E300FF74F012202D74B1121FBD8C0A8D0B902A
:1050F30081B474201220237406121ED0742012204F
:1051030023121111E9FF745F122009E0F509EFC3BF
:10511300940A400302526675F006EFA4F508744141
:105123001220237A0E74202508F91213A5E97009B9
:10513300744D122009E0FE80027E009017CDE064DA
:10514300027005750E018003750E00740865097001
:10515300047422800274212508F50D7C1B7D0079DF
:1051630000742612201B12128574261220237A1B28
:10517300A90D1213A5E9702D7440122009E024F93A
:10518300C3940A5020E50EF50D780D1222447427BE
:10519300122023EEA2E0E433F9AA0AAB0B120613A2
:1051A3007401121FD37C147D007900740C12201B30
:1051B300121285740C1220237A1074242508F91214
:1051C30013A5E970347C1079FF740C12201B1212A2
:1051D300E5E97025741C122009AC82AD837A04744E
:1051E300252508F91213A5740C122023EEA2E0E47E
:1051F30033F9AA0AAB0B1205FBAC18AD197A0C7480
:10520300702FF91213A5E97049AA18AB19121141AD
:105213007F00EF75F003A4F8A9F085188285198340
:10522300E58228F8E5831259B6125B98601D8882DF
:105233008983A3A3E0F50E750F00780E122240AA0E
:105243000AAB0B1208CB7402121FD30FEFC39404E3
:1052530040C0EEA2E1500C90075BE0F9AA0AAB0B49
:105263001208D17404650970289017CDE0640270A8
:10527300207A0090076FE060027A0190075CE0609B
:1052830004780480027800E84AF9AA0AAB0B1206F4
:10529300C77900744F0253F274F712202D1206F1EE
:1052A300E9704F900804E0640170151211659008CD
:1052B30004E4F07C0AFDF97A057B08121285802A42
:1052C300750800A808740528FEE43408FF8E828F51
:1052D30083E06401700BA90812116B8E828F83E443
:1052E300F00508E508C3940A40D979501213AB12AC
:1052F3001159025CD574F012202D74F0121FBDEA0F
:10530300FEEBFF8C088D09750A0AE9600C1460092D
:1053130014603B14607D0253EE121153E9F50AC386
:10532300940A40030253EEE508450970030253EE65
:10533300750C06750D00780C122240EEFCEFFDAAE9
:1053430008AB0912126D7402121FD30253EE750CCF
:1053530000750E06750F00780E122240EEFCEFFD6D
:10536300E50C75F00EA4F8A9F0747D28FA740739DA
:10537300FB12127F7402121FD3E9700B050CE50CAC
:10538300C3940A506680CA850C0AE50AC3940A507E
:105393005A8049750C00AC18AD197A1075F006E502
:1053A3000CA42423F91213A5E9701C7C1079FFAA1D
:1053B30018AB191212E5E9700EEEFCEFFDAA18AB5B
:1053C300191205D7E9600B050CE50CC3940A501BB1
:1053D30080C4850C0AE50AC3940A500FE508450901
:1053E3006009AA08AB09A90A12114DA90A7410127F
:1053F3001FD37F080220FF74F412202D890975083A
:105403001574FF6A700374FF6B70277E00AC097A12
:10541300027B00EEF912112FE960037508000EEE0E
:10542300C3940A40E8E50960537A7D7B11120B119E
:10543300804A120AE18A0A8B0BAE0AAF0BEE4F6069
:10544300387C007D00EE2405FAE43FFB8E828F83D7
:10545300A3A3A3A3E0F9121111E9F9C3940A500C11
:10546300AC097A027B0012112F750800E509600C64
:10547300EEFAEFFB12117D80037508140250D67407
:10548300F212202DECFEEDFF750815740E122009A3
:10549300E0F50AA3E0F50B74FF6A700374FF6B7009
:1054A30021750900AC0AAD0BEEFAEFFBA909121145
:1054B30035E960037508000509E509C3940A503FFF
:1054C30080E2120AE18A828B83E5824583602D7C28
:1054D300007D00E5822405FAE43583FBA3A3A3A39F
:1054E300E0F9121111E9F9C3940A5013AC0AAD0B98
:1054F300EEFAEFFB1211357508008003750814A945
:10550300087F060220FFC082C083900775EAF0A3DC
:10551300EBF090075BE0FC7D007A267B00120571BF
:1055230090075BE0F9120835025FEF74EE12202D4D
:1055330074EC121FBD8A088B09EA240CF510E435BC
:1055430009F5118A828B83A385820C85830DEA2456
:1055530005F50EE43509F50FEA2409F50AE43509E2
:10556300F50BEA2403FEE43509FF8A828B83A3A3A8
:10557300E024FA70030257F224FD70030257121459
:10558300700302560C14601024FD70030256F514C8
:10559300700302574A0257F81262E86044E0F58349
:1055A3008882125813880C890DE8450D60338510E5
:1055B30082851183E0F50E780E122244EA240BF55E
:1055C30082E43509F583E0F91262DC0A0A0AEFFB8B
:1055D300850C82850D8312202B7401121FD3025771
:1055E300F8850A82850B83122257900771121E9F3A
:1055F30012060D7402121FD3E970030257F87901E2
:10560300850A82850B830257C2750A00850C828541
:105613000D83E060030256C2850E82850F83E0A2EC
:10562300E040030256C290080F1262EB6003025679
:10563300C27C0E7D007900AA18AB19121285851061
:1056430082851183125FBAEA4B6010750A06750BE7
:1056530000780A122240EA2410801B125FB6120A55
:10566300E1EA4B70030257F8750A06750B00780AD6
:10567300122240EA2405FCE43BFD740212201B12B3
:10568300126D7402121FD3850E82850F83E0A2E28E
:105693005004D2F08002C2F0A2F0E433F8740C128A
:1056A300200912616A121147E970117A027B009096
:1056B300075BE0F91212C179000257FA750A151255
:1056C30062E870030257F812581970030257F885FD
:1056D3000C82850D83E0FC790112580412202BE51E
:1056E3000A70030257F8FC7903125FB6125F710266
:1056F30057ED1262E870030257F81258197003024B
:1057030057F8850C82850D83E0FC79020257EA7C09
:10571300007D00EA2404FAE43509FB8E828F83E0DE
:10572300F9121111E9F8C3940A40030257F8E50886
:10573300240AFCE43509FD7A0475F006E8A424255F
:10574300F912139F0257F8125FB6900770E06007D3
:105753009017D0E0F9806B9017CDE0700479058045
:1057630061120AE18A0C8B0DA80CA90DE84970039C
:105773000257F8E82404F50CE439F50D8508828511
:105783000983A3A3A3A3A3A3A3E0A2E05039850C99
:1057930082850D83E0F508602E850A82850B83A33D
:1057A300E054027022740E122023E82405FAE4392F
:1057B300FBA908121111E9700E79038E828F8312EF
:1057C3005FBA120607802EAC0EAD0F850C82850DD5
:1057D30083E0F9125FB61211891262E8601712585A
:1057E3001960127C00790012580412202B800612D3
:1057F3005FB612110B79017414121FD37F0A0220B2
:10580300FF8E828F83E0FAA3E0FB888285098322DF
:10581300E0F8A3E0F922125F7FF98909E84509223C
:1058230074F412202D74F2121FBDEAFE8C0B75F076
:1058330006E9A42420F508AC18AD197A0EF9121361
:10584300A5E970487C0679FFAA18AB191212E5E99D
:10585300703A740C122009125813E8F509E50B602D
:1058630005EE42098004EEF45209AA09E86A7001C0
:10587300E96015740C122009EAF0A3E4F0AC18AD4A
:10588300197A0EA90812139F790180027900025038
:10589300DA74F212202D74E6121FBD890A8A088B6E
:1058A30009ECFEEDFF740C1220237A0E75F006E965
:1058B300A42420F91213A5E960030259797C06791F
:1058C300FF740C12201B1212E5E96003025979746C
:1058D30070250AF50BAC18AD197A0CF91213A5E96A
:1058E3006003025975AA18AB19121141E50845095D
:1058F300701D7C0C7900AA18AB191212E5E97072BD
:105903007C0C7D007900AA18AB191212858051AC6A
:1059130018AD19AA08AB0912113B8A0C8B0DA80C00
:10592300A90DE8497022EE4F604CAC18AD197A000E
:105933007B0012113BEAF8EBF9EA4B603988828964
:1059430083E508F0A3E509F01259F2FAEE6A700153
:10595300EF601FEEF04F700888828983E4F0A3F0B4
:10596300AA18AB19121141AC18AD197A0CA90B1274
:10597300139F790180027900741A121FD302550410
:1059830074F712202D7E00EE75F003A4F8A9F0EC55
:1059930028F8ED1259B6E06A7003A3E06B7006E8CD
:1059A300FAE9FB800B0EEEC3940440DB7A007B0024
:1059B300025CD539F9888289832274F712202D7C01
:1059C30000EC75F003A4F8A9F0EA28F8EB1259B635
:1059D300E0F4FEA3E0F4FF88828983EEF0A3EFF006
:1059E3001259F2F4F00CECC3940440D5025CD5E8F0
:1059F3002402F582E439F583E02274F412202D7435
:105A0300F4121FBDEAFEEBFF8C088D0990080F12FC
:105A130062EB7050EE4F603FEC4509603A12115350
:105A2300E99017D3F0C3940A403A750A007C0679CB
:105A3300FFE50A75F00EA4FAABF074772AFA74073F
:105A43003BFB1212E5E97016050AE50AC3940A4006
:105A5300DC9017D3740AF07901740C0250DCE50A68
:105A63009017D3F09017D3E0C3940A50EA75F00669
:105A7300E0A4FB90080F1262EB7063EEFCEFFD7A7B
:105A83000E74202BF912139F7C0C7D0079FFAA184A
:105A9300AB19121285AC18AD197A0C9017D3E02408
:105AA30070F912139F750A0E750B00780A122240C3
:105AB300EEFCEFFD9017D3E075F00EA4F8A9F07497
:105AC3007728FA740739FB12126D7402121FD390F0
:105AD300080FE508F0A3E509F07900025A5CE0C875
:105AE3002406125B9260197A1B74212BF912139FFF
:105AF300125B7E2406F582E438F583E4F0A380D8B4
:105B0300125B7E240A125B9260107A1B74222BF9BB
:105B130012139F125B7E240A80DB125B7E240C121D
:105B23005B9260107A1074232BF912139F125B7E21
:105B3300240C80C1125B87125B9260307A1074244C
