:020000040000FA
:060000000201070229F9CC
:03002B00022E4161
:03003300022E2377
:03005300022A6F0F
:03006B00022DFD66
:1000830002284FE5C754F84401F5C779012200005F
:100093000080FB120086B900030200F1E4792178A5
:1000A30008B800028004F709D8FCE479297802B87B
:1000B30000028004F709D8FCE490028178D4791314
:1000C3008002F0A3D8FCD9FA7A547B1590013778D3
:1000D3003B79048015E493A3AD82AE838A828B833C
:1000E300F0A3AA82AB838D828E83D8E9D9E7758288
:1000F300367583C274031201197582917583007476
:100103000012011975D00075813F751881751902A8
:10011300759F00020096C09FF59FE473D09F22D085
:1001230083D082C09FE493C0E0740193C0E0740263
:1001330093F59F22FF0000B4000028002800283018
:1001430075A000A000A000A00000080008E001F0D6
:10015300001000100010001000100010005000509C
:1001630000500010001000D0070000000000000F36
:100173000001000500307507001000010081FF0039
:10018300000000FFFFFF9306B1069906D506FF02A4
:10019300020208025000A0000000E803024F82019F
:1001A30000004782025382010000AF150259820109
:1001B3000000BF02025382010000B015025B8201FE
:1001C3000000D502025382010000B115025D8201D5
:1001D3000000D702025382010000B215025F8208B9
:1001E3000000D802025382010000B31502618201AC
:1001F3000000B415FF0100FF20024F820100004AF6
:10020300820253820100001816028182000000005E
:1002130000025782030000060317004D0D4D0D4DDC
:100223000D4D0D4D0D4D0D4D0D4D0D4D0D4D0D4DFB
:100233000D4D0D4D0DF30F0510ED0F12426174744A
:10024300657279206C6576656C0012506564616C2B
:100253006C696E6720737472656E677468000A4315
:100263006F6E66696775726174696F6E00125261B1
:100273007720706564616C6C696E6720646174617A
:1002830000024F8201000044820253820100005B9E
:1002930016027D8201000042070255820100005CC4
:1002A3001602578203000044070253820100006ACA
:1002B30016027B8201000046070255820100006B93
:1002C300160257820300004A070253820100007E90
:1002D300160279820100004C070255820100007F5B
:1002E300160253820100008D160275820100005030
:1002F300070255820100008E160257820300005246
:1003030007020202020202020202010D00000010B3
:1003130001024F820100003E82025382010000214C
:1003230017026F820100005407025382010000226A
:1003330017026B82010000658102538201000023D2
:1003430017026982010000578102538201000024D1
:1003530017026782010000F6800253820100002524
:1003630017028382010000E4800253820100002609
:1003730017026582010000C080025382010000273A
:1003830017026D82010000D280025382010000280F
:100393001702738201000049810253820100002980
:1003A300170277820100002A1701E8030577100A74
:1003B300FFFFFF000130750302010600000000008B
:1003C300000000000000000000000000000000002A
:1003D30000000000000000FFFF0600800CE8030E91
:1003E300096542696B6520506564616C2052051292
:1003F30050002003020A000201060302E0FF6542E7
:10040300696B6520506564616C00000000000000AA
:10041300000000371400003D1430313233343536D8
:1004230037383941424344454600286E756C6C2089
:10043300706F696E7465722900303132333435362A
:10044300373839616263646566003F3F3F000000EF
:10045300807F0000803F00000000F9021550B74381
:10046300BA510000204100E7DB2E0000A04012013A
:1004730022C3A103120122D6A10312012207A20360
:1004830012012241A2031201229AA203120122E1C4
:10049300A20312012229A30312012258A30312016A
:1004A3002287A303120122BEA30312012205A40380
:1004B3001201221EA40312012273A4031201228C2F
:1004C300A403120122DAA40312012214A5031201C8
:1004D300222F77001201223278001201226B78005A
:1004E3001201228E7800120122A07800120122DE6E
:1004F30078001201225A7900120122227A00120195
:1005030022447A00120122DB7A001201222D7B00A1
:100513001201225E7B001201226B7B00120122D5A5
:100523007B001201222C7C001201222F7C0012017D
:1005330022687C001201226B7C00120122757C0070
:10054300120122C97C001201220A7D001201223D00
:100553007D001201227A7D001201227C7E001201AD
:1005630022207F00120122897F00120122C77F000F
:10057300120122E299031201220A9A03120122377D
:100583009A031201226F9A03120122CD9A031201D8
:1005930022199B03120122809B03120122C09B0399
:1005A300120122FD9B031201222B9C03120122D56F
:1005B3009C03120122DF9C03120122EC9C03120113
:1005C300221F9D031201222B9D03120122439D032F
:1005D3001201224D9D0312012289BE0312012297AB
:1005E300BE03120122AFBE03120122C6BE031201D3
:1005F300223BA701120122E5A701120122F8A8015B
:1006030012012274A90112012292AA01120122CE1F
:10061300AA0112012269AB011201224DAC011201A0
:100623002219AD01120122A7AE0112012218AF0156
:10063300120122D2AF01120122C4B001120122041D
:10064300B101120122B8B101120122EAB101120172
:1006530022E0B30112012222B40112012240B401AB
:10066300120122A6B40112012275B5011201223929
:10067300B60112012258B801120122D7D702120182
:1006830022C1D8021201226CD902120122BDD90261
:100693001201226DDA02120122DEDA02120122C3F2
:1006A300DB02120122F7DB02120122F0DC0212014B
:1006B300222DDD0212012209DE0212012248DE028E
:1006C30012012264DE021201221DB303120122A1D0
:1006D300B303120122CCB303120122E6B4031201C5
:1006E30022DB9D03120122F19D031201220F9E03BF
:1006F300120122209F031201222A9F031201225575
:10070300A0031201224CA103120122B9A103120179
:1007130022C5DE02120122FBDF0212012232E002B5
:1007230012012289E0021201229EE20212012285B5
:100733008201120122118301120122758401120127
:1007430022818401120122BC84011201222B850122
:100753001201223486011201223D87011201220473
:1007630088011201226189011201227F890112018C
:10077300229C8901120122498A01120122C68A019F
:10078300120122EE8A01120122B88D01120122BD4B
:100793008D01120122D68F01120122249001120130
:1007A30022949001120122D29001120122AE9101F2
:1007B3001201226E9201120122BA9201120122BD8C
:1007C30092011201220193011201224993011201A4
:1007D30022889301120122AA9301120122DE9301BE
:1007E300120122419401120122B5E902120122C32E
:1007F300E90212012216EA0212012235EA0212016B
:10080300227AEA02120122BEEB0212012259EC0201
:100813001201229DEC02120122C7EC0212012236C0
:10082300ED021201227CED02120122F3ED0212010C
:1008330022A4EE021201226C2E001201227C2E0051
:100843001201221D2F00120122792F0012012236DC
:1008530030001201225231001201228431001201B0
:1008630022B33100120122603300120122D7350076
:1008730012012247380012012239390012012232B3
:100883003A00120122393C001201222D3F001201CD
:10089300225C4000120122604200120122704300D8
:1008A300120122FF4400120122F045001201223EF0
:1008B3004600120122AD4600120122D14600120168
:1008C30022224700120122C34B00120122C44C0012
:1008D300120122254D00120122504D001201221651
:1008E3004E001201228184031201228B8403120120
:1008F30022D08403120122E48403120122748503AB
:10090300120122AD8503120122E88503120122118F
:1009130086031201226586031201227A86031201DD
:10092300229C8603120122B18603120122C586038B
:10093300120122DA860312012214870312012240D4
:100943008703120122898703120122FB8703120105
:100953002226880312012269880312012293880345
:10096300120122BE880312012299FE0112012257AD
:10097300B2021201223AB302120122B5B3021201EA
:1009830022F0B30212012241B502120122CFB502B5
:1009930012012261B80212012213B9021201221FAD
:1009A300BA0212012292BB02120122EBBB02120114
:1009B300224B8D031201228E8D03120122128E030C
:1009C300120122E99003120122AFAE031201226148
:1009D300AF031201225DB0031201229CB003120186
:1009E30022F6B00312012215B50312012278B503D2
:1009F30012012215B6031201224AB6031201227A0A
:100A0300B603120122B5B603120122D5B6031201B1
:100A130022B6EE0212012242EF0212012201F0027B
:100A230012012219F10212012233F302120122C32D
:100A33009B02120122E89B02120122B59C021201C1
:100A430022899D02120122F69D02120122369E0284
:100A5300120122D29E0212012206A002120122E1F9
:100A6300A00212012240A102120122CCA102120112
:100A7300223AA202120122C6A2021201220CA302EE
:100A83001201227EA30212012210A402120122B13A
:100A9300A402120122D1A40212012219A5021201F9
:100AA3002262A5021201227EA502120122A4A5023E
:100AB3001201221EA6021201222CA602120122BB3F
:100AC300A60212012224A7021201226AF3021201D2
:100AD30022EFF30212012231F40212012215F50270
:100AE30012012282F502120122C6F5021201220A24
:100AF300F60212012237F6021201225FF6021201F8
:100B03002297F602120122D5F602120122FCF60206
:100B130012012276F702120122C0F70212012265A6
:100B2300B80112012204BA011201223CBC011201D4
:100B33002290BC01120122BBBC0112012297BD010C
:100B4300120122C7BD01120122F6BD0112012209C1
:100B5300BE011201224ABE0112012277BE01120117
:100B630022C5BE0112012201BF0112012246BF01AB
:100B730012012293BF011201220DC0011201224E64
:100B8300C20112012238C40112012274C4011201EC
:100B93002203C60112012248C601120122BBC6016B
:100BA30012012210C70112012215C7011201229F4F
:100BB300C701120122C1C701120122E0C8011201BB
:100BC30022F1C80112012254C602120122CDC6022B
:100BD30012012287CC0212012292CD021201223B82
:100BE300CF02120122C9CF021201221C630012019B
:100BF300229D6300120122CA6300120122136400C2
:100C03001201221465001201226D6500120122E90E
:100C130066001201226B670012012286670012012F
:100C230022F76700120122B46800120122776900DB
:100C3300120122056A00120122BC6A00120122CFAE
:100C43006A00120122686B00120122FF6B0012017D
:100C530022266C001201228F6C00120122D96C0033
:100C6300120122276D00120122CC6D001201226AAB
:100C73006E00120122F76E00120122686F0012014A
:100C830022AF6F0012012207700012012239700097
:100C9300120122F37000120122FA710012012243A1
:100CA30072001201226072001201227F720012018F
:100CB30022B273001201226974001201228E7400A1
:100CC300120122A37400120122137500120122548F
:100CD3007500120122787600120122F976001201C2
:100CE3002294BC02120122DFBC02120122EBBC02DD
:100CF300120122BFBD02120122D6BD02120122132C
:100D0300BE0212012244BE021201227CBE02120163
:100D130022D2BE02120122E8BE0212012224BF0225
:100D230012012237BF021201225EBF021201229278
:100D3300BF02120122B8C00212012202C202120132
:100D430022FEC2021201221BC402120122612E00E2
:100D5300120122FDD80112012238D9011201228A7F
:100D6300DC01120122E6DD01120122A5DE011201DE
:100D7300220CE201120122F6E20112012242E301F6
:100D83001201225CE30112012299E301120122A460
:100D9300E301120122E3E301120122ECE301120158
:100DA3002296E4011201226DE501120122C1E5013F
:100DB3001201221EE60112012290E60112012219FC
:100DC30095011201227898011201227E98011201E5
:100DD30022AF9F01120122B6A30112012295FC0248
:100DE30012012272FD02120122B6FD02120122F04B
:100DF300FD0212012288FE02120122F7FE021201F5
:100E03002200FF021201220CFF0212012226FF021E
:100E130012012250FF0212012280FF021201229BC3
:100E23009103120122A89103120122C2910312011C
:100E330022F59103120122339203120122989203A5
:100E4300120122AD9203120122B89203120122C5AC
:100E53009203120122DC9203120122EA920312018D
:100E630022F592031201220193031201221093032C
:100E73001201221B93031201223E9303120122E269
:100E83009303120122F293031201220C9403120121
:100E93002229940312012244940312012269940328
:100EA3001201227494031201228994031201229DD8
:100EB3009403120122FE94031201220495031201EA
:100EC300220A950312012210950312012228950389
:100ED3001201225B9503120122408E02120122D7D6
:100EE3008E021201226F8F021201225F9002120101
:100EF30022969002120122A9900212012217910256
:100F0300120122B29202120122D992021201227B11
:100F13009302120122B09302120122C19302120121
:100F2300223A94021201225B940212012273940268
:100F3300120122CB9502120122D49702120122241C
:100F43009A02120122279B02120122769B021201AE
:100F530022DFE701120122DCE801120122C7E901C5
:100F6300120122D1E901120122F3E901120122FF48
:100F7300E90112012251EB0112012280EB0112015E
:100F830022B0EC01120122F2EC011201221EEE0149
:100F9300120122F4EE0112012246EF01120122A5F1
:100FA300EF01120122DCEF0112012217F0011201FD
:100FB30022B2F301120122CBF3011201224DF401FB
:100FC3001201225BF401120122B0F401120122BECC
:100FD300F4011201222BF5011201229DF5011201E8
:100FE30022E3F50112012247A70212012269A70297
:100FF30012012253A902120122F8AC021201223B70
:10100300AE0212012215AF02120122E3B60312014E
:101013002208B70312012279B7031201226CF601E9
:1010230012012275F6011201227EF601120122AF8E
:10103300F701120122CEF90112012204FA01120171
:10104300223EFA0112012274FA01120122AEFA01C0
:10105300120122E2FA011201220EFB0112012257B0
:10106300FB0112012291FB01120122D9FB011201A2
:10107300222FFC0112012264FC01120122BFFC0198
:10108300120122F9FC011201224AFD011201228000
:10109300FD01120122BAFD01120122E8FD01120134
:1010A300220BFE0112012215C00312012241C003CB
:1010B3001201229CC003120122A6C003120122B610
:1010C300C00312012200F802120122ABF80212013E
:1010D30022C8F80212012244FA02120122AAFA02D9
:1010E30012012297FB0212012218A9031201223FC7
:1010F300A9031201226AA903120122ADFF01120101
:1011030022824E00120122E850001201229F520057
:10111300120122FC5200120122FE53001201228608
:1011230054001201220D5500120122325500120102
:1011330022275800120122985800120122875900D1
:10114300120122C15900120122015A00120122A2E6
:101153005B00120122F55B001201223E5C001201CA
:1011630022AC5C00120122DE5C00120122F85C005A
:101173001201220E5E001201221E5E00120122A441
:101183005F00120122C45F00120122FA5F00120104
:10119300227A6100120122B96100120122F7620072
:1011A300120122008003120122588003120122A09F
:1011B30081031201220F8203120122BE8203120154
:1011C30022DD82031201223183031201226F830382
:1011D30012012256BF0312012267BF031201220A22
:1011E300C003120122ED7F00120122C0C0031201CD
:1011F30022D0C003120122E2C0031201224AC1031A
:10120300120122B4BB0312012238BC03120122A033
:10121300BC0312012237BA0312012260BA0312017E
:1012230022CDBA0312012220BB0312012279BB0390
:101233001201227CA50312012293A5031201220CA1
:10124300A603120122E1A603120122B3A80312018D
:1012530022B0BD03120122D9BD0312012202BE0333
:1012630012012244BE0312012265E4021201226F1D
:10127300E402120122AFE402120122F8E402120195
:101283002232E50212012288E502120122A7E502B9
:10129300120122B0E50212012201E6021201222A02
:1012A300E6021201223FE602120122AFE602120118
:1012B300223DE70212012281E702120122AAE7027C
:1012C30012012229E80212012266E8021201229D7C
:1012D300E802120122AFE802120122CEE802120153
:1012E30022D7E80212012289E90212012299B803E6
:1012F300120122EAB80312012273B903120122D99F
:10130300B903120122EEAB0312012218AC0312013E
:10131300220DAD031201223CAD03120122C3AD0322
:10132300120122B9BC0312012221B1031201225777
:10133300B1031201228AB103120122E3B2031201A3
:10134300224DC10312012263C1031201226DC103A5
:10135300120122A3C203120122F3CF02120122B00F
:10136300D002120122EBD0021201221CD10212017F
:10137300227ED102120122CAD10212012235D202E7
:10138300120122AFD202120122AED3021201223580
:10139300D502120122B8D5021201221ED602120171
:1013A3002231D6021201222CD70212012279D7024E
:1013B300120122DD9503120122F3950312012297F4
:1013C3009603120122D69603120122F39603120109
:1013D30022249703120122719703120122A5970376
:1013E300120122E09703120122D599031201220070
:1013F3008002120122B783021201224985021201DF
:1014030022A08502120122BF85021201223D86021B
:10141300120122CF8702120122B38802120122C4D1
:101423008C02120122988D02120122E68803120116
:1014330022FE8A031201229F8B031201222C8D03A9
:10144300120122C3C103120122EEC10312012214AD
:10145300C90112012223CE01120122AEFF021201A1
:10146300225EC30312012207C30312012217C3031F
:101473001201228AC303000022E066701008A3E071
:1014830066700A08A3E066700408A3E06622C00839
:10149300C3E096F50808A3E096420808A3E0964245
:1014A3000808A3E0964208A2D265D033E50870018C
:1014B300D3D00822C3E7960809E7960809E79608F8
:1014C30009E79622C3E09608A3E09608A3E09608EE
:1014D300A3E09622C008C3E096F50808A3E096426D
:1014E3000808A3E096420808A3E09645087001D3D4
:1014F300D00822080808E630E711121DB012150EB5
:10150300080808C64480C618181822181818E9795C
:101513009EC608CAC608CBC608CCC6C37020799637
:10152300CACBCC7019798ECBCC70137986CC700E64
:10153300F9802ACA33CACB33CBCC33CC331930E747
:10154300F2CCCBCA3350147004EA30E00DE4CA3A4B
:10155300CACB3BCBCC3CCC500209C3E913C6CC1855
:101563002313C6CB18C6CA18C6F9221215AE20F02B
:101573001430E72B74FFFCFBFA747F8022E4FCFB3E
:10158300FA7480801AB48008BC00F2BB00EF800FAD
:1015930050EBF9E4C39AFAE49BFBE49CFCE499C6A0
:1015A300CC18C6CB18C6CA18C6F922E4C9C608CADD
:1015B300C608CBC6D3330308CCC63392F0C3947F9B
:1015C300402E94184019C9B90704CACBCC22502520
:1015D300C309CA33CACB33CBCC33CC33D9F422F4CB
:1015E300600DC9CCC313CB13CBCA13CAD9F6CC2213
:1015F300E4FCFBFA2214FCFBFA22E6261846184602
:10160300184622E72719471947194722181818E6D9
:101613000846087009E626087005E633F422082216
:10162300191919E70947097009E727097005E7330D
:10163300F4220922E6084608C3134608336002E68B
:1016430033F422E7094709C3134709336002E73339
:10165300F422121637602512164660201215FD700B
:1016630003021606080808E76670101819E7667083
:101673000A1819E76670041819E76622F42212168D
:1016830037601C12164660171215FD7007121606F6
:101693007001D322C0D01216067006D0D0B322C375
:1016A3002233D0D0501430E0F6C3E7960809E7960A
:1016B3000809E7960809E796B32220E0D5E69708DC
:1016C30009E6970809E6970809E697B32212163741
:1016D300601B12164660161215FD7007121606607F
:1016E3000CB322C0D01216067005D0D022C3223309
:1016F300D0D0501330E0EBC3E7960809E79608090A
:10170300E7960809E7962220E0E4E6970809E697BA
:101713000809E6970809E6972200121637604F1268
:1017230016466012E7548066F612160F70111216F1
:1017330006703B090909F4F618F618F618F6221292
:10174300162370151215FD08080860EAE6447FF6B3
:1017530018768018E4F618F6221215FD6016121694
:10176300067012E4F608F608F608E65480F609094E
:101773000918181822EAC0E0EBC0E0ECC0E0EDC0A5
:10178300E0E687F0A4FBACF008E687F0A42CFCE4C9
:1017930035F0FA1809E687F0A42C4B60027401CAED
:1017A30035F0FCE433FB09E687F0D2F7A42CCB3504
:1017B300F0FC1908E687F0A42BCC35F0FBE433FDED
:1017C3000819E687F0D2E7A42C4ACB35F0CD3400D4
:1017D300FC09E687F0D2E7A42DCC35F0FDE433FA1B
:1017E3000918E687F0D2F7A42CCD35F0CA3400FCF3
:1017F30008E687F0D2E7D2F7A42ACC35F07A7E2028
:10180300E70B0ACB33CBCD33CDCC33CC33CB3350F7
:10181300147004ED30E00ED2F1E4CD3DCDCC3CCCE0
:101823003B5005DA05C2F1EB547FC63308E6339229
:10183300F0FBE73309E733C39A502D2B70190C0DD6
:101843004C4D70151806E608C333700D20F10AA23B
:10185300F013F6E418800B4024E4F630F0027680AF
:1018630018F618F618F68024D33B14501074FFA210
:10187300F013F6187680E418F618F6800FA2F0132A
:10188300F618E63303F618ECF618EDF6D0E0FDD0C3
:10189300E0FCD0E0FBD0E0FA2212164660461216B6
:1018A30037603DE9687008F618F618F618F62274E2
:1018B3008067F71218D0090909748067F722121696
:1018C30037601D1216467005191919801A12160F62
:1018D300701F121623C37003E667331919194007E3
:1018E3001818182208080874FFF618F618F618F6E0
:1018F300221216236017121606702192F01215FD9C
:101903007019501720F014080808090909E7F61898
:1019130019E7F61819E7F61819E7F6221215FD600C
:10192300E6E869701F0808E62480F608E436F6182E
:10193300547FB47F0CE654806007F6E418F618F67B
:1019430022181822E9C6CC08C6CD08C6CE08C6CFD1
:10195300C0E0E8C0E0EAC0E0EBC0E009E9F809E76D
:10196300FA09E7FBE6F918E6F8C3EC98ED99EE9A65
:10197300EBC2E7F5F0EFC2E795F0500E600CEBCF4A
:10198300FBEACEFAE9CDF9E8CCF8EAA2E7D2E7FA26
:10199300EB33FB13F5F0EEA2E7D2E7FEEF33FFC51F
:1019A300F013A2E730E601B313C5F0C3C0E0C0F003
:1019B3007F00C39BFB605E9418600F401D14601A88
:1019C300D0E023F9D0E0F8021AA28AF0E9486003D4
:1019D300D2F0E4AFF0FAF9F8803BEB30E40D89F094
:1019E300EA6003D2F0E4AFF0F9CAF8EB30E30D8814
:1019F300F0EF6002D2F0AFF0E4CAC9F8EB5407602D
:101A030014FBC3EA13FAE913F9E813F8EF135002CE
:101A1300D2E0FFDBEDD0E0C0E030E739C3E49FFF65
:101A2300F5F0EC98FC42F0ED99FD42F0EE9AFE429F
:101A3300F0D0E0F9D0E0F8E5F0607AE923F9EE20A0
:101A4300E742D8028067C3EF33FFEC33FCED33FD8D
:101A5300EE33FE80EAEC28FCED39FDEE3AFED0E0F1
:101A630023F9D0E0F84002801BC3EE13FEED13FD13
:101A7300EC13FCEF135002D2E0FF08B800067F7F9F
:101A830074FF802EEF3350178CF020F00260100C9F
:101A9300BC000C0DBD00080EBE000408E860DFE9C1
:101AA30033E813FFEE2313FE4F4D4C8008E95480B7
:101AB300FFE4FEFDFCEE33EF33F47004FCFD7E80A7
:101AC300D0E0FBD0E0FAD0E0F8D0E0CFC618CEC625
:101AD30018CDC618CCC6F922121637700418181878
:101AE30022121646700D74FFF61819F61819F61817
:101AF30019F622E7548066F61215FD700F121606CA
:101B030070F014F608F608F608F680D1121606707F
:101B13000CF608F608768008E6447F80EC12162659
:101B2300700C12161260BFE65480F6E480BB1216E6
:101B330012700519191980A5E869700C763F18769B
:101B43008018F618F6E8F922E6CDC0E018ECC0E0FC
:101B5300E633CD33CDD313F6E719FCE7191933CCAC
:101B630033C3947F400ECD9D502408E65480F6E4A1
:101B730018F6800FF4043D14501408E6447FF61859
:101B83007680E418F618F6D0E0FCD0E0FD22CCD342
:101B930013CCFD18E4C6CBC0E018E4C6CAC0E00805
:101BA30008ED08C633E613F618E433C675F003C32D
:101BB300CA97CA09CB97CB199C40047D08802EBDD8
:101BC3000003021C8416B6FF050606081618C3CACE
:101BD30033CACB33CB33CA27CA09CB37CB193CC360
:101BE3007D08803E187D0820E75CC633C6CA33CA29
:101BF300CB33CB33DDF1D5F0EB30E77BCA97CA09A2
:101C0300CB974ACB199C406F4B7025E620E021808F
:101C130066187D08C3CA97CA09CB97CB199CD3C64C
:101C230033C6CA33CACB33CB3350C9DDE7D5F0E172
:101C3300D3E4C636C608C636C608C636C608C63690
:101C4300C61818188031C3CA97CA09CB97CB199CF9
:101C5300B34097C633C6CA33CACB33CB33DD34D58F
:101C6300F02EC6A2E0C640C8CA27CA09CB37194A14
:101C730070BECB3CB480B90808E63308E633601F76
:101C8300181818D0E0FAD0E0FBD0E0FCD0E0FD2239
:101C9300187D08CA27CA09CB37CB193CD3808013D8
:101CA300F618E4B67F11F618B6FF0EF618C60470E0
:101CB300D20808768080CAF618F618F680C5080898
:101CC30008EAC0E0EBC0E086F0E7A4FA180986F062
:101CD300E7A42AFA180986F0E7A42AFA180986F075
:101CE300E7A42AFA1986F0E7A4FBE5F02AFA190813
:101CF30086F0E7A42BFBE5F03AFA190886F0E7A48F
:101D03002BFBE5F03AFA18180986F0E7A4C5F02B87
:101D1300FBE43AFA1908E7C5F0C6A426F6E5F03B5A
:101D2300FBE43AFA1886F0E7A4F6E5F00826F6E4B1
:101D33003B08F6E43A08F6D0E0FBD0E0FA22E4CF21
:101D4300C0E0E4CEC0E0E4CDC0E0E4CCC0E075F098
:101D530020E626F608E633F608E633F608E633F619
:101D6300181818EC33FCED33FDEE33FEEF33FFC3ED
:101D7300EC9709ED9709EE9709EF97191919400F99
:101D8300FFEC97FC09ED97FD09EE97FE191906D5AF
:101D9300F0BFECF709EDF709EEF709EFF719191999
:101DA300D0E0FCD0E0FDD0E0FED0E0FF2218181810
:101DB300E4C396F608E496F608E496F608E496F685
:101DC300226016080808C6C313C618C613C618C669
:101DD30013C618C613C6D5E0EA22700908080822FC
:101DE3006016181818C6C333C608C633C608C633E8
:101DF300C608C633C6D5E0EA22E627F60809E63761
:101E0300F60809E637F60809E637F622E026F6086B
:101E1300A3E036F608A3E036F608A3E036F622E0A0
:101E230026F008A3E036F008A3E036F008A3E03676
:101E3300F022C3E697F60809E697F60809E697F64F
:101E43000809E697F622C3E096F008A3E096F008A7
:101E5300A3E096F008A3E096F022E056F608A3E08C
:101E630056F608A3E056F608A3E056F622E056F02D
:101E730008A3E056F008A3E056F008A3E056F022CA
:101E8300E0F608A3E0F608A3E0F608A3E0F622E6EE
:101E9300F008A3E6F008A3E6F008A3E6F022E0FAD0
:101EA300A3E0FBA3E0FCA3E0FD22E0F8A3E0F9A399
:101EB300E0FAA3E0FB22E8F0A3E9F0A3EAF0A3EB46
:101EC300F022CAC0E0E6F0A308DAFAD0E0FA22CAA8
:101ED300C0E0E0A3C582CCC582C583CDC583F0A392
:101EE300C582CCC582C583CDC583DAE6D0E0CA22DC
:101EF300C3E498F8E499F9121F348026C3E49AFAEC
:101F0300E49BFBE920E7E9121F34E498F8E499F92C
:101F130022C3E498F8E499F9121F34E498F8E49999
:101F2300F9C3E49AFAE49BFB22EB20E7CFE920E72D
:101F3300E0B90010BB0008E88AF084F8AAF022E4B4
:101F4300FBC8FA22EB70227B10C833C8C933C933EC
:101F53005007C39AC3DBF280069A50012ADBEAC812
:101F630033F4C8C933F4C9FA2275F008E4C833C896
:101F7300C933C933C99AC99B5004C92AC93BD5F08F
:101F8300ECFBC833F4C8E4C9FA22600D08C6A2E723
:101F930013C618C613C6D5E0F322600C08C6C313D4
:101FA300C618C613C6D5E0F422700422600D18C605
:101FB300C333C608C633C6D5E0F41822251810AFBC
:101FC30008F518400C15198008F51840021519D2A8
:101FD300AF2200C0D0251810AF08F518500C051912
:101FE3008008F51850020519D2AFD0D0222518F574
:101FF3008210AF08F518400C15198008F518400237
:102003001519D2AF851983222518F582E43519F500
:1020130083222518F8E43519F9222518FAE435192D
:10202300FB222518FCE43519FD22E4732518C5822B
:10203300C0E0E51934FFC583C0E0E518C3958224E9
:10204300F810AF0885831985821880088583198560
:102053008218D2AFCEF0A3E520F0A37808E608F00B
:10206300A3DEFAEFF0A3E58124FAF8E608F0A3E68D
:1020730008F0A3E608F0A30808E608F0A3E608F0D2
:10208300A315811581D0E0FED0E0F81581158115E7
:1020930081E8C0E0EEC0E0222518C582C0E0E51962
:1020A30034FFC583C0E0E518C3958224F910AF0857
:1020B3008583198582188008858319858218D2AF94
:1020C300CEF0A3E520F0A37808E608F0A3DEFAEF4C
:1020D300F0A3E58124FBF8E608F0A3E608F0A308E3
:1020E30008E608F0A3E608F0A315811581D0E0FE09
:1020F300D0E0F815811581E8C0E0EEC0E022851933
:1021030083851882E0A3FEE0A3F5207808E0A3F618
:1021130008DFFAE0A3FFE0A3C0E0E0A3C0E0E0A390
:10212300C0E0E0A3C0E0E0A3C0E010AF08858218E0
:102133008583198008858218858319D2AFD083D00F
:102143008202011F851983851882E0A3FEE0A3F5AF
:10215300207808E0A3F608DFFAE0A3FFE0A3C0E0DD
:10216300E0A3C0E0E0A3C0E0E0A3C0E010AF0885B7
:1021730082188583198008858218858319D2AFD088
:1021830083D08222C0D02518C582C0E0E51934FF70
:10219300C583C0E0E518C3958224F310AF08858397
:1021A300198582188008858319858218D2AFC8F0F3
:1021B300A3E9F0A3EAF0A3EBF0A37908E709F0A3FE
:1021C300D8FAECF0A3EDF0A3EEF0A3EFF0A3D0E088
:1021D300F0A3D0E0F0A3D0E0F0A3E520F0A3E5F076
:1021E300F0A322851983851882E0C0E0A3E0F9A358
:1021F300E0FAA3E0FBA37808E0F608A3DFFAE0FC2B
:10220300A3E0FDA3E0FEA3E0FFA3E0C0E0A3E0C0E2
:10221300E0A3E0F5D0A3E0F520A3E0A3F5F010AF31
:10222300088583198582188008858319858218D2C9
:10223300AFD082D083D0E0F8D0E03274048006744B
:102243000280027401C0E0F404121FF0D0E0121EF9
:10225300C5227404800474028000CCC0E0EDC0E0A9
:10226300E518C39CCCAD1950011D10AF068C188D19
:102273001980068C188D19D2AF121ED2D0E0FDD072
:10228300E0FC22D083D082E9C0E0E493A3C386F0CC
:10229300C5F095F0F908E493A386F0C5F095F070C6
:1022A3000BE493A3C3994005E9048002A3E475F00A
:1022B30002A42582F582E5F03583F583D0E0F9E4C5
:1022C30093A3C0E0E493C0E022D083D082ECC0E0CB
:1022D300EDC0E0E493A3FCE493A3FDED4C600D1289
:1022E3002318EC24FFFCED34FFFD80EFE493A3FC03
:1022F300E493A3FDED4C600D122357EC24FFFCED9A
:1023030034FFFD80EFD0E0FDD0E0FCE493A3C0E018
:10231300E493C0E022C0E0C3E4939608740193966B
:1023230018400FE4936670080874019366187000F0
:102333007019A3A3C3E49396087401939618A3A3F7
:10234300400DD0E0D0E0D0E0022308A3A3A3A3A3D1
:10235300A3D0E022C0E0C0F088F0E49366700808E0
:1023630074019366187000A8F0A3A3700BD0F0D08B
:0F237300E0D0E0D0E0022308A3A3D0F0D0E02216
:1023840074F612209BEAFEEBFF8C088D09EE2434D0
:10239400F8E43FF9E8FCE9FDEE2435122697FAEE5D
:1023A4002437122697F88508F0A4C885F00A850911
:1023B400F0A4250AF9EA28F8E439F97A257B001211
:1023C4001F34EA8C828D83F0FA131313541FF8EE32
:1023D40028F8E43FF9E8245DF582E439F583E0C0A8
:1023E400E074075AF8D0E0B800028004C313D8FCA4
:1023F400A2E0EE50082434F582E43F80182436121B
:102404002697F5F0EA84A8F0EE28F8E43FF9E824EA
:1024140038F582E439F583E0F97F0302214774F744
:1024240012209BEAFEEBFFEE2434122697C0E0EE66
:102434002435F582E43FF583D0E0F08E828F83A3C8
:10244400A3A3A3A3A3A3C082C0838E828F83A3A3C9
:10245400A3A3A3E0F8A3E0F9D083D082E0C398F566
:1024640008A3E099F509EE247F1226976401703ED3
:10247400EE2480F582E43FF583C082C0838E828F90
:1024840083A3A3A3A3A3E0240108A3E03400F9D009
:1024940083D082E0687003A3E06970127CB17D048C
:1024A400120C8DEE247FF582E43FF583E4F0AC0852
:1024B400AD09EEFAEFFB122384E9F9122DEF7F0246
:1024C400022147C082C083851882851983E0F8A35E
:1024D400E0F9C3EA9CEB9D5010C3EC98ED99401BC6
:1024E400C3EA98EB995014800EC3EA98EB9940071D
:1024F400C3EC98ED994004790180027900D083D02F
:102504008222EAC39CFAEB9DFB2274EF12209B907B
:102514000376E064086005E06407702A9061C8E00F
:1025240060249003A4E0F4601DE0F875F00BA4C8E7
:10253400AAF02AF974A628FE740339FF8E828F83C9
:10254400A3A3A3E0700302261C906060E0C0E0EE49
:102554002468F582E43FF583D0E0F0750C21750D15
:1025640005750800750900E5D914F50AE5D9540381
:10257400F50E60127403650E6043E50A600AEE24EA
:10258400671226977002807590051CE06401601F35
:1025940012269460047A0480027A00E50AC39AFA47
:1025A40095E0FB120B318A088B09EA450970051284
:1025B4000EBB806412269470048A0C8B0DE50A60AD
:1025C40012850C82850D83F50BE5D9F0A3150BE577
:1025D4000B70F6122694604474FC250AF50A780CF4
:1025E400122242AC0AA90EEEFAEFFB120D47740256
:1025F400121FD5E97026AA08AB091212F3793D8E91
:10260400828F83A3A3A3A3E0FA7B00120993EEFABB
:10261400EFFB120CB1120D597900806F7403650E33
:102624006051850A107511007810122242AC0CAD6D
:102634000DAA08AB09120D0B7402121FD5EE246803
:1026440012269764807004747F8001E0F50C780C86
:10265400122246E50EF50C780C122246A90AAC08A3
:10266400AD099003A4E0FA7B001209697402121FF9
:10267400D58013900376E06408600BAC0CAD0DEECE
:10268400FAEFFB120DD1120EC779017F0A0221471E
:10269400EE2483F582E43FF583E02274F212209B5A
:1026A40074FC121FBFEAFEEBFF8909A2AFE433F505
:1026B40008C2AF022769E0601B780C122242AC0BFF
:1026C400A90EEEFAEFFB120D417402121FD5740429
:1026D400250BF50B7401250BF5D9850ED9E50B6097
:1026E40018F50A850C82850D83E0F5D9A385820C43
:1026F40085830D150AE50A70EA75E195EE2463F801
:10270400E43FF97A007B00A2AFE433F50BC2AF8853
:10271400828983E0FCA3E0FDEC4D603A88828983E2
:10272400E0FAA3E0FB8A828B83E0FCA3E0FD8882CD
:102734008983ECF0A3EDF08A828B83E4F0A3F08824
:10274400828983E0FCA3E0FDEC4D700A88828983D2
:10275400A3A3E4F0A3F0E50BA2E092AF1212F3906E
:1027640004B8E004F0EE2463122697F8A3E0F9E835
:10277400496064EE24631226972402F8A3E034002F
:10278400F988828983E5822402F50CE43583F50D0A
:10279400E0F50BA3E0F50EEE2462122697640170B7
:1027A400369061D0E0F812269460047C0480027CA8
:1027B400007480C398FA95E0FBE50B2CF8E4340030
:1027C400F9E82402F8500109C3EA98EB99A2D2650A
:1027D400D03340030226BA9004B8E0604D9004B9A7
:1027E400E0F89004B8E0C398500C74026509703A9C
:1027F4009004BAE060348E828F83A3A3A3A3E08500
:10280400188285198312283E740212200BE81228BC
:102814003E9004B7E028F07402122025AA18AB19E0
:1028240079011209BD9004B8E4F0E508A2E092AF82
:102834007404121FD57F07022147F0A3E4F090042B
:10284400B8E0F8228521878522C622C0E074EB1205
:102854002187A2AFE433F508C2AF759B0090618273
:10286400E0A2E05030E591A2E0502A7591FE740197
:10287400652170211229E2120E131229D012225559
:10288400122B997404121FD5E964017005790112A1
:102894000E4F12250E906182E0A2E5505DE591A2F3
:1028A400E550577591DF900376E064076005E064B6
:1028B40008702F1229E274016521703E120E131262
:1028C40029D0122255122B997404121FD5E96401E0
:1028D40070057901120E4F7901EEFAEFFB12269F73
:1028E4008018E0640D7013900398E004F06428707D
:1028F40002E4F07A00E0F9120ECD906182E0A2E6E3
:1029040040030229A5E591A2E640030229A5759199
:10291400BF900376E064057008120DFB120E078069
:1029240003120E01752100120E5BE9900377F07912
:1029340000120E4F120BFD7A017B00900375E0F933
:102944001212C3907803E064427056900520E0149C
:10295400F0704EC2AF12295C00782AD0E0F618D08D
:10296400E0F6E59F5407F87005750DFF8003750DBB
:102974007FC4C0E07829E6F50A08E6550DF50B7426
:102984000B780A121F9DD0E0250AF8906270E0A22D
:10299400E740F8E8C333906272F0906270E0D2E0EE
:1029A400F0906181E0A2E35009E5E9A2E3500375E8
:1029B400E9F7A3E0A2E75009E591A2E75003759176
:1029C4007FE508A2E092AF7F080221E68E828F8322
:1029D400E0F8A3E0C82416F582E438F583229003D6
:1029E400A4E0F875F00BA4C8AAF02AF974A628FE8E
:1029F400740339FF22C0E0C0D0C082C083906183D9
:102A0400E0A2E05009E5BFA2E0500375BFFEE0A2DA
:102A1400E15009E5BFA2E1500375BFFDE0A2E25019
:102A240009E5BFA2E2500375BFFBE0A2E35009E54C
:102A3400BFA2E3500375BFF7E0A2E45009E5BFA2CB
:102A4400E4500375BFEFE0A2E55009E5BFA2E550ED
:102A54000375BFDFE0A2E65009E5BFA2E6500375A7
:102A6400BFBFD083D082D0D0D0E032C0E074F212A5
:102A74002187E5A7A2E6500FE5A1A2E6500953A7D6
:102A8400BF75A1BF122AC3E5A7A2E5500CE5A1A218
:102A9400E5500653A7DF75A1DFE5A7A2E15009E5DC
:102AA400A1A2E1500375A1FDE5A7A2E2500CE5A1A6
:102AB400A2E2500653A7FB75A1FB7F010221E67435
:102AC400F712209B752101900376E06406701512BD
:102AD4000D7D8A828B83A3A3A3A3A3A3E0FAA3E01F
:102AE400FB120DE9A2AFE433FED2AF90037CE064A5
:102AF4000170187A207B00900375E0F91213D77ADD
:102B0400207B00900375E0F91212C9906182E0D233
:102B1400E6F090051DE0602185C622801690037BB7
:102B2400E064017008E5C654F84405F5C653BEFCDC
:102B34001228487401652160E4EEA2E092AF7F029E
:102B4400022147008E238F248582288583278518B8
:102B540082851983E0CEA3E0CF852882852783EB85
:102B6400C9EAC8EDCBECCA75F010C3E833C8E93341
:102B7400C9EA33CAEB33CBC3EA9EF526EB9FF525AE
:102B8400B35004AB25AA26EC33CCED33CDD5F0DA23
:102B9400AE23AF242274F112209B8A088B098C0A7D
:102BA4008D0B9081CA7808121E5D740F12200B7869
:102BB4000C121E839081CA780C121E5D7808790C61
:102BC4001214B79081D650107808790C121E3578FB
:102BD400081214D74014800E780C7908121E357828
:102BE4000C1214D750047901800279007F08022165
:102BF4004774ED12209B8A088B098C0A8D0B9081F7
:102C0400CA7808121E5D741312200B780C121E83EE
:102C14009081CA780C121E5D780C79081214B740A2
:102C2400117808790C121E35AA08AB09AC0AAD0B51
:102C3400802275100075110075120075130178104B
:102C4400790C121E3578107908121DFCAA10AB11EC
:102C5400AC12AD137F0C0221479081CA7808121E72
:102C6400838A828B837808121E707F040221477442
:102C7400F512209B8C828D837808121E838A828BA6
:102C8400837808121E49122CCBC3E09CF0A3E09D6C
:102C9400122CBD40229081FA7808121E838A828BFE
:102CA400837808121E228A828B83A3A3A3A3E02421
:102CB40020F0A3E0344EF080A0F088828983C3E042
:102CC4009420A3E0944E22EA2404F8E43BF98C8295
:102CD4008D83A3A3A3A3E0FCA3E0FD8882898322C0
:102CE40074F512209BE9FE9004D3E0FAA3E0FBEE16
:102CF40029F8E433F9741928F582748139F583E0ED
:102D04002AF508A3E03BF5097808122242908216BE
:102D1400121EA1122B487402121FD58A088B098C2B
:102D24000A8D0B74107808121DC4AA08AB097F041D
:102D340002214774F112209B8A0C8B0D8C0E8D0F8F
:102D4400741112200B122259741112200BE0240169
:102D5400F508A3E03400F509E4F50AF50B780C79DD
:102D640008121CC19081CE7808121E83780C790851
:102D7400121CC1AA0CAB0DAC0EAD0F122B48740281
:102D8400121FD58B09EA450960047A0180027A0092
:102D9400EC2AFCE43DFD741312200BE0F8A3E0F9E7
:102DA400E8FEE9FFECF8EDF97A717B02121F348832
:102DB400088909E4F50AF50B8E828F837808121EC0
:102DC40092ECF8EDF97A717B02121F348A088B09B0
:102DD40074057808121FAC8E828F83A3A3A3A3E586
:102DE40008F0A3E509F07F08022147C082C083E907
:102DF400906000F0D083D08222C0E074F212218768
:102E0400A2AFE433FED2AFE589A2E1500312122D42
:102E1400758900C2C5EEA2E092AF7F010221E6C02F
:102E2400E074F2122187A2AFE433FED2AFE58BA2A5
:102E3400E0500312122D758B00C2E880D8C0E0C0A8
:102E4400D0E8C0E0A8A8D2AFC2C7E8A2E792AFD04A
:102E5400E0F8D0D0D0E032C2AF0200002202011F5D
:102E6400FFFFFFFFFFFFFFFFC082C083E99016173B
:102E7400F0D083D08202011F74F612202FE9900251
:102E8400E8F0900348E0F508750900740278081228
:102E94001FACAA08AB091213359002E912382F901F
:102EA40002E9123C1C606F900348E075F003A4FA39
:102EB400ABF012133590030612382F900306123C20
:102EC4001C700B9002E9123BED12133B80489003F7
:102ED40006124B817AFF7BFF1211A37A0080198AB4
:102EE4000875090074027808121FAC12462974FF91
:102EF40012302FE4F0A3F00A900348E0F8EAC398F4
:102F040040DD790512084F9002E8E0F912073B7A98
:102F1400D97B08120AD10246CC74F412202F8A08F5
:102F24008B09EB548060479002E8E0F91212AB8AF7
:102F34000A8B0BAE0AAF0BEE4F602A8E828F83E0B2
:102F440064B0701A120861E960148E828F83A3A39F
:102F5400A3A3E0F9EE2405FAE43FFB120831EEFAEC
:102F6400EFFB121299AA08E5096480FB80047A0039
:102F74007B0002317F74F212202F74FB121FBFEA10
:102F8400FEEBFFEE4F6045740312200BEEF0A3EF4F
:102F9400F0851882851983ECF0A3EDF074021220F9
:102FA4000BE9F0AA18AB19120735E9F50870757426
:102FB4001312200BE0F50AA3E0F50BE50A450B60BC
:102FC400638E828F831235B8EE4F700575080280C8
:102FD400537A067B001213358A0C8B0DA80CA90DAD
:102FE400E8497005750813803B88828983E41230B0
:102FF4002FEEF0A3EF12314BE50AF0A3E50BF090AE
:1030040002EC1231449002EC6017E0FCA3E0800370
:10301400EAFCEBFD8C828D8312314470F38C828D3B
:1030240083124244A9087405024E01F0A3124B63B3
:10303400A32274F212202F8908890C750D007403E1
:10304400780C121FAC850C0A850D0B9002EBF090E6
:1030540002E912404F123142602E12133B79008074
:103064001D890C750D007402780C121FAC9002E9D6
:103074001244E88882F583A3A3E4F0A3F009900343
:1030840048E0F8E9C39840D9900348E0FA850AF08B
:10309400A4CAA8F0850BF0A428FB1213358A0C8B64
:1030A4000DAE0CAF0DEE4F7003023138900348E0C3
:1030B400FC850AF0A4CCA8F0850BF0A428FD7900C7
:1030C4001212877C0080318D0C750D007403780C0E
:1030D400121FAC8A828B8312313D88828983E4F08B
:1030E40012314AA3A3F0A3F00DEDC3950840D8EE26
:1030F400250AFEEF350BFF0C900348E0F8ECC3986B
:1031040050288C0C750D007402780C121FAC9002C0
:10311400E912313DE82402500109FAE9FB8A828B65
:1031240083EEF0A3EFF07D0080BFE5089002EBF0A2
:10313400790080027913024E041244ECF922A3A30D
:10314400123BF1EA4B22A3124B63A3A3A32274F410
:1031540012202F7900EAA2E0501F7508C07509817A
:10316400780812224279107C047D007A197B1612A9
:1031740008497402121FD5E9F980007F0402210175
:10318400C082C0839002EC123C1C601C888289833C
:10319400A3A3E06A7003A3E06B8882898370E8A329
:1031A400A3A3A3123BED80047A007B00022E757466
:1031B400F212202F74FD121FBFEAFEEBFF85188266
:1031C400851983E4F0A3F0740212200B7401F01249
:1031D4003C197014120A0B1213359002EF12382F97
:1031E400123C19700302334512392FEE2404F50AF8
:1031F400E43FF50B850A82F583E024FE603C24FC61
:10320400607424FE607E24FE700302329524FE70F6
:10321400030232A224FE70030232AF24FE700302C2
:1032240032BC24FE70030232C924FC70030232EA69
:1032340024FE700302330202333E120A0B9002F1A1
:10324400EAF0A3EB12335112047DE9600302333E2A
:103254009002F11222598E828F83A3A3A3A3A312F7
:103264004B81850882850983123BED12081974028B
:10327400121FD502333EAC18AD19EEFAEFFB12085B
:103284006702330DAC18AD19EEFAEFFB12086D802E
:1032940078AC18AD19EEFAEFFB120873806BAC181A
:1032A400AD19EEFAEFFB120879805EAC18AD19EE99
:1032B400FAEFFB12087F8051AC18AD19EEFAEFFB60
:1032C40012088580447402122015880C890D780C2C
:1032D4001222427402122025EEFAEFFB12088B74BC
:1032E40002121FD58023AC18AD19EEFAEFFB1208B9
:1032F40091E9F87016740212200BE4F0803CAC18CB
:10330400AD19EEFAEFFB120897E9F8E8602C8E820B
:103314008F83A3E064146022850A82850B83E09086
:1033240002F1F0851882851983123BED9002F212A6
:10333400382FE8A3123351120477EEFAEFFB120789
:10334400EF740212200BE0F97403024E01F07CF1D9
:103354007D02850882850983123BF12274E81220DC
:103364002F74FA121FBF740412200BECF0A3EDF0BB
:103374008A128B13EA2405F50EE43513F50FEA24BB
:1033840002F510E43513F511851082F583123BED37
:1033940012056D8A0A8B0B7508007C037D00790089
:1033A4007AF17B02121287E50E2402F516E4350F3A
:1033B400F5177402122015880C890D780C1222421C
:1033C400850E82850F83A3A3A3A3E0F50C750D00DE
:1033D400780C122242E50E2405F50CE4350FF50DA8
:1033E400780C122242851682851783123EF4120746
:1033F400537406121FD58A0C8B0DE50C450D700312
:103404000235818020851882851983E0888289832A
:10341400F00508851882851983A3E0C0E01235C23F
:10342400D0E0F00508E50A24FBFAE50B34FFFBC302
:10343400E5089AE49B40030235817E007F008512F3
:1034440082851383A3A3A3A3E0F509780912224676
:10345400E4F514F51578141222427514EE7515026C
:1034640078141222429002EF122259740912200B8E
:10347400122259E50A24F9F9AC0CAD0D85108285A8
:103484001183123BED1208C17409121FD5E96003C0
:10349400023522850E82850F83A3A3A3A3A3A3A32E
:1034A400E0F89002EEE0687075E0F5148E1578147B
:1034B400122242124B7E850E82850F83A3A3A3A3FF
:1034C400A3A3A3A3123BED1212817402121FD5E928
:1034D400604C9002F2123C1C703BE4F51478141218
:1034E40022427CFF7DFF7907851082851183123B80
:1034F400ED12082B7402121FD5123C227017850E90
:1035040082850F83124D1B740412200B1245DC12AA
:103514003F250235B5850C82850D831235B8A81870
:10352400A919881489157814122242740412200BE4
:1035340012225985168285178312382512075F7463
:1035440004121FD58A0C8B0DEE4F70030233FE124A
:1035540035C2EE1235CD123EDBEF1235CDF8A3E0C5
:103564003400F9E50C450D6003023409888289832F
:1035740074FFF005081235C274FFF00508E5086011
:103584001A1313543F123835120489E96009900262
:10359400F2123BED1212F379008016850E82850F2C
:1035A40083124D1B740412200B1245DC1242447921
:1035B4000A023EAEA3A3A3A3E0FEA3E0FF22A80851
:1035C4009002F2E028123EDB22F00508089002F295
:1035D400E0282274E812202F74FA121FBF7402121A
:1035E400200B12382F740412200BECF0A3EDF074AE
:1035F4000212200BE02405123EC4E0F50CA3E0F512
:103604000D740212200BE02402F510A3E03400F53F
:1036140011851082F583123BED12056D7508007556
:103624000900EA24FCFEEB34FFFF8008050CE50CDE
:103634007002050DA808C3EE98EF940050030237FA
:10364400E1A818A919880E890F780E122242851450
:1036540082851583A3A3A3A3124B85122242E514EA
:103664002405F50EE43515F50F780E122242851463
:10367400828515831238231207537406121FD58AC4
:103684000E8B0FEA450F70030237E1EA2404F516A6
:10369400E4350FF517851682F583E0F50CA3E0F504
:1036A4000D851882851983124B818A828B83A3A38B
:1036B400A3E0F9851082851183123BED120741E9DD
:1036C400F50960030237E1740212200B123EEBF598
:1036D400097809122246E4F512F5137812122242EF
:1036E4007512EE75130278121222429002EF122222
:1036F40059740712200B122259EEF9AC0EAD0F8546
:103704001082851183123BED1208C17409121FD572
:10371400E9F50960030237E1E508703FE4F50EF5C9
:103724000F780E1222427CFF7DFF79098510828575
:103734001183123BED12082B7402121FD5123F1194
:10374400700D740412200B12381879110238159078
:1037540002EEE024029002F2F080149002F2E0FA09
:103764009002EEE0790024025001096A497072A8BF
:10377400089002EEE0FAE82AFAE43400FBEE9AEF4D
:103784009B405A851682851783E0C0E09002F312AD
:1037940035C7D0E0F00508851682851783A3E0C0FD
:1037A400E0089002F31235C7D0E0F005089002EE6D
:1037B400124B85122242124B7EA808123EB81212F6
:1037C4006F7402121FD59002EEE02508F50874FF0D
:1037D400650C700474FF650D6003023630E5086003
:1037E4001F9002F2E0F5F0E5088412383512048FD8
:1037F400E960099002F3123BED1212F37900801193
:10380400E509700375090A740412200B123818A90B
:1038140009023EAE124053E50CF0A3E50DF022A3DD
:10382400A3124E10AA0CAB0D22A3A3EAF0A3EBF053
:10383400229002F1F07CF17D0285108285118312C1
:103844003BF12274EC12202F74FC121FBF1243545C
:103854007402122025123BE71207598A0C8B0DEAD9
:10386400450D700302391F12392FA818A9198810A1
:10387400891178101222427CFF7DFF790B85088222
:10388400850983123BED12082B7402121FD5123ADC
:1038940025700C850A82850B83123F2202392C8EF7
:1038A400828F83A3A3A3A3E0F5127812122246E425
:1038B400F512F51378121222427512F1751302787B
:1038C400121222427810122242740912200B122280
:1038D40059740912200BE0F9AC0CAD0D85088285F2
:1038E4000983123BED1208C17409121FD5E9FE7059
:1038F400157CF17D02850882850983123BED120453
:1039040095E97009802074166E70027E009002F2B0
:10391400123BED1212F3EE7004800B7E01850A82D5
:10392400850B83124241EEF9024256EE2402F50859
:10393400E43FF5092274EC12202F74FC121FBFEA35
:10394400FEEBFF8C0E8D0FEE2405F508E43FF50920
:103954007402122025850882850983123BED120723
:10396400598A0C8B0DEA450D7003023A15EE2402B8
:10397400F50AE43FF50BA818A919881089117810E5
:103984001222427CFF7DFF790D123BE712082B7453
:1039940002121FD5123A25700B85088285098312FD
:1039A4003F22807A8E828F83A3A3A3A3E0F51278AB
:1039B40012122246850882850983A3A3122259750F
:1039C40012F17513027812122242781012224274F4
:1039D4000912200B122259740912200BE0F9123B30
:1039E400E31208C17409121FD5E9FE700F7CF17D42
:1039F40002123BE712049BE97009802074166E7072
:103A0400027E009002F2123BED1212F3EE7004807B
:103A14000B7E01850882850983124241EEF9024238
:103A240056123C2CF510A3E0F511EA45112274E876
:103A340012202F74FE121FBF8A168B178C148D153B
:103A4400EA2405F50CE43517F50DEA2402F50EE435
:103A54003517F50F850E82F583123BED12056D8A3D
:103A6400088B09750B007C037D0079007AF17B02D9
:103A7400121287750A00E50814F5100424FFF508EE
:103A8400E50934FFF50980549002F1E0FA9002EE62
:103A9400E0F8EA28F8E43400F9E50898E5099950D3
:103AA4000D9002F1E0F8E510C3989002EEF0E0F515
:103AB400127513007812122242124B7E9002F2E029
:103AC4002AFAA3E03400FB12126F7402121FD5907D
:103AD40002EEE0F89002F1E028F0050A850C8285F8
:103AE4000D83A3A31244F84003023BC89002F1E003
:103AF400C39508E495094003023BC8AE0AEE2EFEC6
:103B0400E433FF123C07AC18AD19124B99E439FBAE
:103B14001207598A128B13AC12AD13EC4D701B753E
:103B24000B01123BF71242459002F212314460033A
:103B34001212F3A90B7402023EB085168285178314
:103B4400A3A3A3A3E0F50B780B122246E4F512F528
:103B54001378121222427512EE7513027812122291
:103B6400429002EF122259740712200B122259A913
:103B740010850E82850F83123BED1208C174091261
:103B84001FD5E9F50B709B9002F2123C1C600302F6
:103B94003A8CE4F512F51378121222427CFF7DFF71
:103BA400790F850E82850F83123BED12082B740268
:103BB400121FD5123C226003023A8C123BF7123FCB
:103BC40026023B397CF17D02850E82850F83123BF0
:103BD400ED1204A1E96003023B2C7900023B39ACED
:103BE4000CAD0D850A82850B83123BF122E0FAA30A
:103BF400E0FB22123C07E0FAA3E0F9EA851482858F
:103C0400158322850C82850D83E02EF8A3E03FF90D
:103C140088828983229002EF124D1FE84922123CC8
:103C24002CF8A3E0F9E849229002F2EAF0A3EBF0C1
:103C34009002F2E02274E812202F74FA121FBF746B
:103C44000412200B12382F8C168D17740412200BBB
:103C5400E02405F50EA3E03400F50F740412200BE4
:103C6400E02402123EC4123BED12056D8A0A8B0B4E
:103C74007F007E00A818A9198808890978081222EB
:103C840042850E82850F83A3A3A3A3E0F5088E09C2
:103C94007808122242E50E2405F508E4350FF509EB
:103CA4007808122242850E82850F83A3A3123EF464
:103CB4001207537406121FD58A0C8B0D8029123EED
:103CC400E5F00F123EE5F00F9002EE1242301222A0
:103CD40042124B7EEFF8123EB812126F7402121F9A
:103CE400D59002EEE02FFFE50C450D7003023D7404
:103CF400851882851983124366A3A3A3E0F985146A
:103D040082851583123BED120741E9FEE50C24047C
:103D1400F510E4350DF511EE7050740412200B12F9
:103D24003EEBF5087808122246E4F508F509780810
:103D34001222427508EE7509027808122242900296
:103D4400EF122259740712200B122259E50A24FAA1
:103D5400F9AC0CAD0D851482851583123BED120868
:103D6400C17409121FD5E9FE6039123F01124244A1
:103D7400EF7003023E9B9002F2E0F5F0EF849002B4
:103D8400F1F07CF17D02851482851583123BED12DE
:103D940004A7E960099002F3123BED1212F37900D3
:103DA400023EAE8F08EF703BE4F512F51378121261
:103DB40022427CFF7DFF7911851482851583123B95
:103DC400ED12082B7402121FD5123F117009123F15
:103DD40001123F25023EAE9002EEE024049002F26E
:103DE400F080359002EEE0F89002F2E0FAE8240464
:103DF400FCE43400FDEC6A4D6003023D7AE50A24DC
:103E0400FAFAE50B34FFFBE50828F8E43400F9EA94
:103E140098EB995003023D7A851082851183E0C0A6
:103E2400E09002F3E02FF8A3E034008882F583D019
:103E3400E0F00F851082851183A3E0C0E0123ED22A
:103E4400D0E0F00F7402122015880889097808124E
:103E54002242740212200B122259850E82850F838E
:103E640012382312075F7404121FD58A0C8B0DEAD3
:103E7400450D7003023CC2740212200BE0C0E01234
:103E84003ED2D0E0F00F740212200BA3E0C0E01287
:103E94003ED2D0E0023CCAEE70027E0A850E8285D4
:103EA4000F83123F07124244EEF97406121FD57FA6
:103EB400100221019002F3E028FAA3E03400FB226F
:103EC400F514A3E03400F515851482F58322123E1F
:103ED400D6229002F3E02FFAA3E034008A82F5831D
:103EE40022123ED674FF22124053A3A3A3A3E022BE
:103EF400124E10850E82850F83123BF122851082AB
:103F0400851183124D1F851682851783229002F333
:103F1400EAF0A3EBF09002F3124D1FE8492212429B
:103F24004AE8F0A3E9F079112274EA12202F74FE12
:103F3400121FBF8A088B098C128D13EA2405FEE434
:103F44003509FFAC18AD198E828F83123BED120731
:103F5400598A0C8B0DEE2406F50EE43FF50FEA4565
:103F64000D7003024025E5082402F50AE43509F53D
:103F74000B8A828B83A3A3A3E0A2E5502885188231
:103F8400851983123BED1208B58A108B11EA45118D
:103F940060207912123BE385108285118312202D53
:103FA400E9F50C707F850E82850F83E060097952F4
:103FB4008011750C0E806D850882850983A3A3A3E7
:103FC400A3E0F9E4F508F50978081222428E828FFD
:103FD40083A3A3E0F50878081222428E828F83A37C
:103FE400A3A31222598E828F83124B81123BE712B4
:103FF40008C77406121FD5E9F50C7011850E828569
:104004000F83E0702D123BE71204AD802574166512
:104014000C7011750C00741812200B12404FE480C0
:1040240010750C01124D17851282851383E8F0A3D5
:10403400E9F0850E82850F83E0600479008002A98F
:104044000C7402121FD57F0E02210112405322E08C
:10405400F8A3E0F58388822274EC12202F74F712FF
:104064001FBF8A0A8B0B8C108D11EA2405FEE435E0
:104074000BFF750C00AC18AD198E828F83123BEDCB
:104084001207598A088B09EA4509700302421BE5A5
:104094000A2402F50A5002050B8A828B83A3A3A388
:1040A400E0A2E5502F851882851983123BED120892
:1040B400B58A0C8B0DEA450D604F7912AC08AD0939
:1040C400123BE7850C82850D8312202DE9F50C60E7
:1040D4000302421E850A82850B83E0F508A3E0F5FE
:1040E40009AA08FB1208A9EA4B70197AFF7BFF1290
:1040F40008A9EA4B70030242118A828B83E508F017
:10410400A3E509F07508008008750C0E02421E052F
:10411400089002EBE0F8E508C398400302421185D9
:10412400080E750F007403780E121FAC8A828B83FD
:10413400A3A3E0250EF8A3E0350F1245E570D08E59
:10414400828F8312423912382F8E828F83A3A31257
:10415400423912382DEE2404F508E43FF5098508A8
:1041640082F583E088828983A3A3A3A3F0A3E4F068
:10417400EE2405F50EE43FF50F850E82F583124219
:1041840039A3A3A3A312382D75120775130078124F
:10419400122242EEFCEFFD740412201D12126F7401
:1041A40002121FD5E4F51278121222428508828584
:1041B4000983E0FC7D007917123BE712082B740297
:1041C400121FD5740712200B12382F740712200BFC
:1041D400E0FA4B603D850882850983124230122241
:1041E40042850E82850F83124B8112126F74021264
:1041F4001FD57402122025123BE71204B3E960268E
:10420400740712200B123BED1212F38019750C097E
:104214008008750C118003750C01124D17851082EE
:10422400851183124244A90C74098028E0F50875AD
:104234000900780822123BF1888289832212424ABB
:10424400E8F0A3E9F022E0F8A3E0F9850E82850FF7
:1042540083227404121FD57F0C02210174EC1220F6
:104264002F124354751000EE2402F50CE43FF50DB3
:10427400850C82F583123BED1208A98A088B09EAA2
:1042840045097003024338850A82850B83E0640183
:10429400600302432DAC08AD09AA0AAB0B12089DBA
:1042A400E9606E8508828509831235BAEE2406F525
:1042B4000AE43FF50B8E828F83A3A31222598E82C8
:1042C4008F83A3A3A3A3122259850A82850B831289
:1042D400225979188E828F83124366123BED12089D
:1042E400C77406121FD5E9F8741668700B850A8224
:1042F400850B83E4F0A38014E860128E828F83120E
:104304003BED850E82850F83EAF0A3EBF0881080E5
:1043140018780E122242AC08AD09EEFAEFFB12082F
:10432400A37402121FD5E9F510AA08AB091208AF4D
:10433400E510700E850C82850D83123BED1204B9D5
:104344008009741665107003751000A91002425B91
:10435400EAFEEBFF8C0E8D0FEE2405F50AE43FF523
:104364000B22124E10850C82850D832274EA1220D2
:104374002F7508007509007E007F00750A00EC2483
:1043840002F510E43DF5118035EC65087003ED6528
:1043940009600302442588828983A3A3E06A700329
:1043A400A3E06B707C88828983A3A3A3A3124D1B13
:1043B400EE28FEEF39FFEA28FAEB39FB050A12442E
:1043C400F5503A850A0C750D007403780C121FAC75
:1043D4008510828511831244E81245E5601FE508C3
:1043E400450970A58C088D09888289831235B8889F
:1043F400828983A3A3E02EFAA3E03F80BEE50AC32B
:10440400940250030244E3750800750900EE4F60FE
:1044140010EEFAEFFB1212ED8A0E8B0FEA450F70C5
:104424000579000244E5750B000244B8850B0C7550
:104434000D007403780C121FAC851082851183E083
:10444400250CF50CA3E0350DF50DE50C2406F5144B
:10445400E4350DF515851482F5831245EA6042E5CD
:104464000C2404F512E4350DF513851282F583123C
:104474002259E50E2508FAE50F3509FB12126F746F
:1044840002121FD5851282851383E02508F508A33F
:10449400E03509F509851482851583123BED121266
:1044A400F3E50B600D7C087D007900AA0CAB0D12BE
:1044B4001287050BE50BC3950A500302443085109F
:1044C40082851183124D1B88828983A3A3A3A3A38E
:1044D400A3E50EF0A3E50F12314BEEF0A3EFF07954
:1044E4000102404A1244EC22E0250CF8A3E0350D09
:1044F400229002EBE0F8E50AC3982274F012202F10
:104504008A0E8B0F8C0A8D0B750D00750C00805074
:104514007916EE2406F508E43FF5098E828F83A30D
:10452400A31222598E828F83A3A3A3A31222598597
:104534000882850983122259850E82850F83A3A3DD
:10454400123BED1208C77406121FD5E9F50D741657
:10455400650D706C850882850983E4F0A3F0050C71
:104564009002EBE0F8E50CC3985066AA0C8A087533
:10457400090074037808121FAC850A82850B83A393
:10458400A3124634E8FEE9FF8E828F831245EA6067
:1045940040EA2401F508E43400F5099002EBE065F3
:1045A400087002E509601488828983A3A3A3A3A3E6
:1045B400A3A3A3123C1C60030245147918024516F8
:1045C400E9609B124D17741012200B1245DC124245
:1045D40044A90D7F08022101E0FAA3E0F5838A8251
:1045E40022F988828983124E10EC4D2274F612202F
:1045F4002F7C0080010C900348E0F8ECC398501E17
:104604008C0875090074027808121FAC124629E060
:104614006A7003A3E06B70DDE8FAE9FB80047A00BA
:104624007B000246CC9002E91246348882898322B8
:10463400E02508F8A3E03509F92274F212202F8A44
:10464400088B09750A0080278E828F83A3A3A3A3F6
:1046540012314260031212F37C087D007900EEFAF5
:10466400EFFB1212878E828F83E4F0A3F0050A1207
:1046740044F55027850A0C750D007403780C121F3D
:10468400AC850882850983A3A3E0250CFEA3E0354D
:104694000DFF8E828F83123C1C70AD8508828509C4
:1046A4008374FFF0A3F0024E0474F612202F120854
:1046B4005B8A828B83E582458370067A007B008067
:1046C40007A3A3A3A3123BED7F0202210174F412FA
:1046D400202F89088C828D83E06402703C124CBACE
:1046E400FEA3E0F9EEF87402687003742969702976
:1046F400750A02750B00780A122242741012200BFC
:10470400122259741012200B122259A9081211B541
:104714007406121FD5E9F98002790102317F74E829
:1047240012202F74FB121FBFE9851882851983F0AC
:104734008A168B17ECFEEDFF7510008E828F83A313
:10474400A3A3E0A2E4502D741D12200B123BED1222
:1047540008B58A828B83E58245837003024B5979BD
:104764000AEEFCEFFDAA16AB1712202DE9F5106036
:1047740003024B5C741F12200BE0F508A3E0F5095B
:10478400742112200BE0F50AA3E0F50B7423122028
:104794000BE0F50EA3E0F50F8E828F83E0640260D8
:1047A40003024AFAA3124D1B850882850983A38557
:1047B4008212858313EE2406F50CE43FF50D8882FE
:1047C4008983124B99F514E439F51578141222CC27
:1047D400010000280128FC4707000228C1480328DB
:1047E4002F480029F04901291B4A0229BC49032901
:1047F400F0490429944AFA4AE50E450F6003024A37
:10480400F5850C82850D83124D1BE8FAE9FB8A823B
:104814008B83E0850A82850B83124BA41222428A81
:10482400828B83A3E0FCA3E0024A7EE50E450F6081
:1048340003024AF5850A82850B837401F0124B8EBC
:10484400850882850983F07C007D008E828F83A396
:10485400A3A3A3E02401FAA3E03400FB120759EA5E
:104864004B60408A828B83E02402F8850A82850BA0
:1048740083E028F0EA2404F8E43BF988828983E0A1
:10488400851282851383124BB2124BA41222428AE0
:10489400828B83A3124B81E5082403FAE43509FBD8
:1048A400024A83850A82850B83E02404F07C047D1C
:1048B400007900AA12AB13121287024B5CE50E4575
:1048C4000F6003024AF5124B8EFEA3E0FF850A82B5
:1048D400850B837404F0EE850882850983F0EF85E7
:1048E4001282851383F07403122025EEFAEFFB1273
:1048F40007598A0C8B0DEA450D700302499F8A8281
:104904008B83A3A31235B87401122015880E890F66
:10491400780E122242740512200B1222597CFF7D5C
:10492400FF12075F7404121FD58B0FEA450F703313
:10493400850C82850D83124B85122242850C82855B
:104944000D83A31222597C027D007A517B821205C9
:104954005B7404121FD5E9700A740112200B74FFF2
:10496400F0A3F08E828F83E064027039750C0275B7
:104974000D00780C1222428E828F83A3124B81E5A4
:10498400082404FAE43509FB12126F7402121FD5CD
:10499400850A82850B83E024028009740112200BAE
:1049A400EEF0A3EFF0740112200B124B737401129A
:1049B400200B124B6A024AEFE50E450F6003024AD0
:1049C400F5850C82850D83124E09AA16AB171211B8
:1049D400BB850A82850B837402F08508828509836E
:1049E400EAF0851282851383EB024AF2E50E450F45
:1049F4006003024AF5124B8EF8A3E0F9850A82851A
:104A04000B837402F0E8850882850983F0E9851236
:104A140082851383024AF2850C82850D83123BED55
:104A2400121269EAFAF8C3950EE4950F405CE86542
:104A34000E450F70047A008021851882851983E061
:104A4400FCE50E2CFCE4350FFDC3EC98ED9400500E
:104A540003E08005E50ECAC39AFAEA850A82850B4B
:104A640083F08A0A750B00780A122242850C82852B
:104A74000D83E0250EFCA3E0350FFDAA08AB091257
:104A8400126F7402121FD5024B5C751007024B5C47
:104A9400E50E450F705B850C82850D83124D1B85D9
:104AA4000A82850B837407F088828983124B6B1208
:104AB4004B63E0851282851383F0E82402FAE4391B
:104AC400FB8A828B83124B738A828B83124B6AA379
:104AD400A312314A124B78F0E82405F850010988F2
:104AE400828983124B78A3124BB2A3A3A3A3F080B1
:104AF4006775100B8062741D12200B123BED1208B7
:104B04005B8A828B83E5824583604A124D1B880C45
:104B1400890DE8450D603E742512200BE0F51078F0
:104B240010122246780E122242780A122242780883
:104B3400122242740712200BE0F9EEFCEFFDAA16D4
:104B4400AB17850C82850D8312202D7407121FD597
:104B5400E9F510800375100EA9107405023EB0F03B
:104B640088828983A322A3E085088285098322128F
:104B74004BB9F022124BB9A3A3229002EF124E10AC
:104B840022E0F50E750F00780E22850C82850D83C8
:104B9400124053E022E0FAA3E0F8E4C8F9EA28223C
:104BA400F08A828B83E0F50A750B00780A22124B97
:104BB40063124BB922E0850882850983A3A322747A
:104BC400EE12202F74FE121FBF8A088B09ECFEED33
:104BD400FF890AAC18AD19EEFAEFFB1207598A0CDB
:104BE4008B0DEA450D7003024CAB85188285198341
:104BF400123BED12085B8A828B83E5824583700346
:104C0400024CA6A3A3124D1B880E890FE8450F7012
:104C140003024CA6741412200BE0F510A3E0F51166
:104C2400E50AF50B780B122246741912200B122296
:104C3400597810122242741B12200BE0F9AC0CAD0F
:104C44000DAA08AB09850E82850F8312202D7405E9
:104C5400121FD5E9F50B705274FE650A604C850C81
:104C640082850D83E064027041124CBAFAA3E0F924
:104C7400EAF87402687003742969702E85108285BD
:104C84001183124B99F50CE439F50D780C1222427C
:104C9400EEFCEFFDAA08AB091208DF7402121FD55F
:104CA4008008750B0E8003750B01A90B7402121F8B
:104CB400D57F0A022101A3124D1F88828983E02235
:104CC40074F612202F74FE121FBF740C12200B12E4
:104CD4004D1BE8851882851983F0740112200BE9B5
:104CE400F0E4F508F50978081222427508027808FC
:104CF40012224274041220158808890978081222A5
:104D04004279FE1208C77406121FD57402121FD509
:104D14000246CC8E828F83124D1F22E0F8A3E0F965
:104D24002274F712202FEAFEEBFF89089003061283
:104D34004B811211BBEA5402600BA908EEFAEFFB97
:104D440012074D800279017F0102210174F21220C1
:104D54002F74FE121FBFEAFEEBFF890A7401650A75
:104D640060147402650A6003024DFF7901120AEFB0
:104D7400E96003024DFFEEFAEFFB1208A9EA4B606B
:104D8400031208AFA818A9198808890978081222FB
:104D94004275080275090078081222427508577591
:104DA400098278081222427CFF7DFF7A017B00127F
:104DB40007537406121FD58038850882850983A39A
:104DC400A3A3A3A3A3124E09EEFAEFFB1211A3E4CB
:104DD400F50CF50D780C122242740212200B1222EB
:104DE400597CFF7DFFAA08AB0912075F7404121FE8
:104DF400D58A088B09E508450970BE7402121FD5CF
:104E04007F06022101124053124E1022E0FCA3E05F
:104E1400FD2274F412202F8A088B09ECFEEDFF901A
:104E24001617E0F4604B7A097B00121293EA4B6088
:104E3400408A828B8374B1F0A3E4124E78F08A82A4
:104E44008B83A3A3E508F0A3E509124E78A3EEF043
:104E5400A3EFF0740C12200B124D1B8A828B83A3D8
:104E6400A3A3A3A3A3A3124244901617E0F912121A
:104E74009F02317FF08A828B83A3A3A3A32274F0C1
:104E840012202F74FA121FBF8909ECFEEDFF75087A
:104E9400008A0A8B0B780A122286000410A850C5D7
:104EA4004EE34EFD4E154F334F4B4F6E4F864F9A88
:104EB4004FC44F3F50505067508250A850A850DA0A
:104EC4004F7401650960030250A38E828F83E0F85A
:104ED400C3940340030250A3E89017C902507F749F
:104EE40002650960030250A38E828F8312581790C3
:104EF40017CAE8F0A3E902507F7401650960030250
:104F040050A31250D040030250A3E890075D025012
:104F14007F7401650960030250A38E828F83E0F8D9
:104F2400C3940540030250A3E890075E02507F74C7
:104F340001650960030250A31250D040030250A33C
:104F4400E890075F02507F7410650960030250A364
:104F5400750A10750B00780A1222427A607B0712D8
:104F6400126F7402121FD50250C9740165096003DF
:104F74000250A31250D040030250A3E890077002DD
:104F8400507F7401650960030250A38E828F83E011
:104F94009017CD02507F7404650960030250A38EFC
:104FA400828F83780C121E83908216780C1214D789
:104FB40050030250A3900772780C121E920250C93B
:104FC400E960030250A31206F3E970051211678029
:104FD4005590080580617407650960030250A37544
:104FE4000A06750B00780A1222428E828F83A3ACC4
:104FF40082AD83740212201D1212757402121FD521
:105004007C007D00AA18AB198E828F83E0F91211FF
:1050140013E9FEC3940A40030250C61206F3E97072
:105024000CEEF912116D79501213AD806D74062EC9
:10503400F582E43408F583740180407401650970D5
:105044005E1250D05059E8900771802F74016509A1
:10505400704D8E828F83E0F8C3940A5042E8901713
:10506400CC80187401650970368E828F83E0F874E1
:10507400F928C3940A5028E89017CEF080477401A9
:105084006509701B900804E0F88E828F83E0900815
:1050940004F0E87030E06401702B12115B80267517
:1050A40008188021C3EA9427EB9400501574026514
:1050B40009700F8E828F831262E6120573E9F50878
:1050C4008003750802A90874060253F68E828F8342
:1050D400E0F8C3940222A9088005740E121FD57F3C
:1050E4000402210174F012202F74B1121FBF8C0A24
:1050F4008D0B9081B474201220257406121ED27474
:1051040020122025121113E9FF745F12200BE0F521
:1051140009EFC3940A400302526A75F006EFA4F53E
:105124000874411220257A0E74202508F91213A759
:10513400E97009744D12200BE0FE80027E00901786
:10514400C9E064027005750E018003750E007408D1
:10515400650970047422800274212508F50D7C1BF6
:105164007D007900742612201D12128774261220E5
:10517400257A1BA90D1213A7E9702D744012200B78
:10518400E024F9C3940A5020E50EF50D780D12229F
:10519400467427122025EEA2E0E433F9AA0AAB0BE9
:1051A4001206157401121FD57C147D007900740C4D
:1051B40012201D121287740C1220257A10742425D3
:1051C40008F91213A7E970347C1079FF740C1220CB
:1051D4001D1212E7E97025741C12200BAC82AD83FA
:1051E4007A0474252508F91213A7740C122025EEED
:1051F400A2E0E433F9AA0AAB0B1205FDAC18AD1911
:105204007A0C74702FF91213A7E97049AA18AB1914
:105214001211437F00EF75F003A4F8A9F0851882FA
:10522400851983E58228F8E5831259BA125B9C60DC
:105234001D88828983A3A3E0F50E750F00780E12F2
:105244002242AA0AAB0B1208CD7402121FD50FEF2B
:10525400C3940440C0EEA2E1500C90075CE0F9AAAC
:105264000AAB0B1208D37404650970289017C9E0BF
:10527400640270207A00900770E060027A0190075F
:105284005DE06004780480027800E84AF9AA0AAB79
:105294000B1206C97900744F0253F674F712202FCB
:1052A4001206F3E9704F900805E0640170151211BD
:1052B40067900805E4F07C0AFDF97A067B0812126F
:1052C40087802A750800A808740628FEE43408FFBD
:1052D4008E828F83E06401700BA90812116D8E8297
:1052E4008F83E4F00508E508C3940A40D979501285
:1052F40013AD12115B025CD974F012202F74F012FA
:105304001FBFEAFEEBFF8C088D09750A0AE9600CE1
:1053140014600914603B14607D0253F2121155E9C4
:10532400F50AC3940A40030253F2E50845097003E1
:105334000253F2750C06750D00780C122242EEFC35
:10534400EFFDAA08AB0912126F7402121FD50253A3
:10535400F2750C00750E06750F00780E122242EEDF
:10536400FCEFFDE50C75F00EA4F8A9F0747E28FAA4
:10537400740739FB1212817402121FD5E9700B05F0
:105384000CE50CC3940A506680CA850C0AE50AC36E
:10539400940A505A8049750C00AC18AD197A1075EE
:1053A400F006E50CA42423F91213A7E9701C7C1061
:1053B40079FFAA18AB191212E7E9700EEEFCEFFDA3
:1053C400AA18AB191205D9E9600B050CE50CC394B6
:1053D4000A501B80C4850C0AE50AC3940A500FE5E1
:1053E4000845096009AA08AB09A90A12114FA90ABC
:1053F4007410121FD57F0802210174F412202F8922
:105404000975081574FF6A700374FF6B70277E00BA
:10541400AC097A027B00EEF9121131E960037508D8
:10542400000EEEC3940A40E8E50960537A7F7B11CD
:10543400120B13804A120AE38A0A8B0BAE0AAF0BD3
:10544400EE4F60387C007D00EE2405FAE43FFB8ECD
:10545400828F83A3A3A3A3E0F9121113E9F9C394E0
:105464000A500CAC097A027B00121131750800E570
:1054740009600CEEFAEFFB12117F80037508140229
:1054840050DA74F212202FECFEEDFF750815740E3D
:1054940012200BE0F50AA3E0F50B74FF6A700374A5
:1054A400FF6B7021750900AC0AAD0BEEFAEFFBA996
:1054B40009121137E960037508000509E509C39469
:1054C4000A503F80E2120AE38A828B83E582458395
:1054D400602D7C007D00E5822405FAE43583FBA37E
:1054E400A3A3A3E0F9121113E9F9C3940A5013AC6E
:1054F4000AAD0BEEFAEFFB12113775080080037545
:105504000814A9087F06022101C082C0839007768F
:10551400EAF0A3EBF090075CE0FC7D007A267B00C8
:1055240012057390075CE0F9120837025FF374EE1A
:1055340012202F74EC121FBF8A088B09EA240CF581
:1055440010E43509F5118A828B83A385820C858347
:105554000DEA2405F50EE43509F50FEA2409F50AE8
:10556400E43509F50BEA2403FEE43509FF8A828B4E
:1055740083A3A3E024FA70030257F624FD70030208
:10558400571614700302561014601024FD700302A1
:1055940056F914700302574E0257FC1262EC604431
:1055A400E0F5838882125817880C890DE8450D6050
:1055B40033851082851183E0F50E780E122246EAB7
:1055C400240BF582E43509F583E0F91262E00A0A56
:1055D4000AEFFB850C82850D8312202D7401121FA6
:1055E400D50257FC850A82850B83122259900772D3
:1055F400121EA112060F7402121FD5E9700302577E
:10560400FC7901850A82850B830257C6750A0085D9
:105614000C82850D83E060030256C6850E82850FD9
:1056240083E0A2E040030256C69008101262EF60C5
:10563400030256C67C0E7D007900AA18AB1912121B
:1056440087851082851183125FBEEA4B6010750A4C
:1056540006750B00780A122242EA2410801B125F9E
:10566400BA120AE3EA4B70030257FC750A06750B7B
:1056740000780A122242EA2405FCE43BFD7402127B
:10568400201D12126F7402121FD5850E82850F839E
:10569400E0A2E25004D2F08002C2F0A2F0E433F8B7
:1056A400740C12200B12616E121149E970117A0206
:1056B4007B0090075CE0F91212C379000257FE7573
:1056C4000A151262EC70030257FC12581D70030293
:1056D40057FC850C82850D83E0FC79011258081271
:1056E400202DE50A70030257FCFC7903125FBA12FD
:1056F4005F750257F11262EC70030257FC12581DD9
:1057040070030257FC850C82850D83E0FC7902024C
:1057140057EE7C007D00EA2404FAE43509FB8E820E
:105724008F83E0F9121113E9F8C3940A4003025776
:10573400FCE508240AFCE43509FD7A0475F006E862
:10574400A42425F91213A10257FC125FBA90077121
:10575400E060079017CCE0F9806B9017C9E0700403
:1057640079058061120AE38A0C8B0DA80CA90DE857
:105774004970030257FCE82404F50CE439F50D855F
:105784000882850983A3A3A3A3A3A3A3E0A2E05053
:1057940039850C82850D83E0F508602E850A8285A3
:1057A4000B83A3E054027022740E122025E8240512
:1057B400FAE439FBA908121113E9700E79038E82F9
:1057C4008F83125FBE120609802EAC0EAD0F850CBE
:1057D40082850D83E0F9125FBA12118B1262EC60BC
:1057E4001712581D60127C00790012580812202DDF
:1057F4008006125FBA12110D79017414121FD57F3D
:105804000A0221018E828F83E0FAA3E0FB8882855D
:10581400098322E0F8A3E0F922125F83F98909E8F9
:1058240045092274F412202F74F2121FBFEAFE8C71
:105834000B75F006E9A42420F508AC18AD197A0E0E
:10584400F91213A7E970487C0679FFAA18AB19125C
:1058540012E7E9703A740C12200B125817E8F50994
:10586400E50B6005EE42098004EEF45209AA09E84A
:105874006A7001E96015740C12200BEAF0A3E4F0DD
:10588400AC18AD197A0EA9081213A1790180027916
:10589400000250DE74F212202F74E6121FBF890A30
:1058A4008A088B09ECFEEDFF740C1220257A0E7524
:1058B400F006E9A42420F91213A7E9600302597D34
:1058C4007C0679FF740C12201D1212E7E9600302B2
:1058D400597D7470250AF50BAC18AD197A0CF912C0
:1058E40013A7E96003025979AA18AB19121143E509
:1058F400084509701D7C0C7900AA18AB191212E72F
:10590400E970727C0C7D007900AA18AB1912128719
:105914008051AC18AD19AA08AB0912113D8A0C8B41
:105924000DA80CA90DE8497022EE4F604CAC18ADDF
:10593400197A007B0012113DEAF8EBF9EA4B603961
:1059440088828983E508F0A3E509F01259F6FAEE96
:105954006A7001EF601FEEF04F700888828983E45B
:10596400F0A3F0AA18AB19121143AC18AD197A0CB4
:10597400A90B1213A1790180027900741A121FD5A0
:1059840002550874F712202F7E00EE75F003A4F878
:10599400A9F0EC28F8ED1259BAE06A7003A3E06BA1
:1059A4007006E8FAE9FB800B0EEEC3940440DB7A40
:1059B400007B00025CD939F9888289832274F7124A
:1059C400202F7C00EC75F003A4F8A9F0EA28F8EB8A
:1059D4001259BAE0F4FEA3E0F4FF88828983EEF062
:1059E400A3EFF01259F6F4F00CECC3940440D50282
:1059F4005CD9E82402F582E439F583E02274F412D8
:105A0400202F74F4121FBFEAFEEBFF8C088D09905F
:105A140008101262EF7050EE4F603FEC4509603A97
:105A2400121155E99017CFF0C3940A403A750A0051
:105A34007C0679FFE50A75F00EA4FAABF074782AB7
:105A4400FA74073BFB1212E7E97016050AE50AC36C
:105A5400940A40DC9017CF740AF07901740C025058
:105A6400E0E50A9017CFF09017CFE0C3940A50EA0C
:105A740075F006E0A4FB9008101262EF7063EEFC70
:105A8400EFFD7A0E74202BF91213A17C0C7D0079A2
:105A9400FFAA18AB19121287AC18AD197A0C90171B
:105AA400CFE02470F91213A1750A0E750B00780A61
:105AB400122242EEFCEFFD9017CFE075F00EA4F831
:105AC400A9F0747828FA740739FB12126F74021261
:105AD4001FD5900810E508F0A3E509F07900025AF3
:105AE40060E0C82406125B9660197A1B74212BF9B6
:105AF4001213A1125B822406F582E438F583E4F0E4
:105B0400A380D8125B82240A125B9660107A1B74FD
:105B1400222BF91213A1125B82240A80DB125B820E
:105B2400240C125B9660107A1074232BF91213A1C3
:105B3400125B82240C80C1125B8B125B9660307AFC
