:020000040000FA
:060000000201070229F5D0
:03002B00022E3D65
:03003300022E1F7B
:03005300022A6B13
:03006B00022DF96A
:1000830002284BE5C754F84401F5C7790122000063
:100093000080FB120086B900030200F1E4792178A5
:1000A30008B800028004F709D8FCE479297802B87B
:1000B30000028004F709D8FCE490028178D1791317
:1000C3008002F0A3D8FCD9FA7A517B1590013778D6
:1000D3003779048015E493A3AD82AE838A828B8340
:1000E300F0A3AA82AB838D828E83D8E9D9E7758288
:1000F300347583C274031201197582917583007478
:100103000012011975D00075813F751881751902A8
:10011300759F00020096C09FF59FE473D09F22D085
:1001230083D082C09FE493C0E0740193C0E0740263
:1001330093F59F22FF0000B4000028002800283018
:1001430075A000A000A000A00000080008E001F0D6
:10015300001000100010001000100010005000509C
:1001630000500010001000D0070000000000000F36
:100173000001000500307507001000010081FF0039
:10018300000000FFFFFF8F06AD069506D106FF02B4
:10019300020208025000A0000000E80302B281013D
:1001A30000006782026F82010000AC1502758201B4
:1001B3000000BF02026F82010000AD1502778201C9
:1001C3000000D502026F82010000AE1502798201A0
:1001D3000000D702026F82010000AF15027B820884
:1001E3000000D802026F82010000B015027D820177
:1001F3000000B115FF0100FF2002B2810100006A77
:1002030082026F820100001516027F820000000047
:100213000002738203000006031700490D490D49CC
:100223000D490D490D490D490D490D490D490D491B
:100233000D490D490DEF0F0110E90F12426174745E
:10024300657279206C6576656C0012506564616C2B
:100253006C696E6720737472656E677468000A4315
:100263006F6E66696775726174696F6E00125261B1
:100273007720706564616C6C696E6720646174617A
:100283000002B2810100006482026F820100005803
:1002930016029B820100004207027182010000598D
:1002A300160273820300004307026F820100006796
:1002B300160299820100004507027182010000685D
:1002C300160273820300004907026F820100007B5C
:1002D300160297820100004B070271820100007C25
:1002E30016026F820100008A160295820100004FF8
:1002F300070271820100008B160273820300005112
:1003030007020202020202020202010D00000010B3
:100313000102B2810100005E82026F820100001EB1
:1003230017028D820100005307026F820100001F34
:1003330017028B820100009181026F82010000206D
:10034300170287820100006781026F82010000218A
:1003530017028582010000DE80026F820100002205
:100363001702A1820100001481026F8201000023A1
:10037300170283820100000281026F8201000024C0
:1003830017029F82010000F080026F8201000025A6
:10039300170291820100008381026F82010000260F
:1003A30017029382010000271701E8030577100A5B
:1003B300FFFFFF000130750302010600000000008B
:1003C300000000000000000000000000000000002A
:1003D30000000000000000FFFF0600800CE8030A95
:1003E30009424C4520506564616C0512500020039E
:1003F300020A000201060302F0FF424C4520506549
:10040300726970686572616C00000000000000335F
:10041300140000391430313233343536373839412A
:10042300424344454600286E756C6C20706F696EBC
:1004330074657229003031323334353637383961D7
:100443006263646566003F3F3F000000807F0000F9
:10045300803F00000000F9021550B743BA51000075
:10046300204100E7DB2E0000A040120122C2A103BD
:10047300120122D5A10312012206A2031201224076
:10048300A20312012299A203120122E0A203120184
:100493002228A30312012257A30312012286A303D6
:1004A300120122BDA30312012204A4031201221D7F
:1004B300A40312012272A4031201228BA4031201CA
:1004C30022D9A40312012213A5031201222B7700C0
:1004D3001201222E78001201226778001201228A6B
:1004E30078001201229C7800120122DA78001201AE
:1004F300225679001201221E7A00120122407A004C
:10050300120122D77A00120122297B001201225AFA
:100513007B00120122677B00120122D17B001201B2
:1005230022287C001201222B7C00120122647C0011
:10053300120122677C00120122717C00120122C584
:100543007C00120122067D00120122397D00120176
:1005530022767D00120122787E001201221C7F0088
:10056300120122857F00120122C37F00120122E1C2
:100573009903120122099A03120122369A031201E6
:10058300226E9A03120122CC9A03120122189B03B2
:100593001201227F9B03120122BF9B03120122FC43
:1005A3009B031201222A9C03120122D49C031201F1
:1005B30022DE9C03120122EB9C031201221E9D03E7
:1005C3001201222A9D03120122429D031201224C91
:1005D3009D0312012288BE0312012296BE0312015B
:1005E30022AEBE03120122C5BE031201225AA70185
:1005F30012012204A80112012217A9011201229358
:10060300A901120122B1AA01120122EDAA011201CC
:100613002288AB011201226CAC0112012238AD0118
:10062300120122C6AE0112012237AF01120122F1DB
:10063300AF01120122E3B00112012223B101120121
:1006430022D7B10112012209B201120122FFB30123
:1006530012012241B4011201225FB401120122C529
:10066300B40112012294B50112012258B6011201FC
:100673002277B801120122D7D702120122C1D80270
:100683001201226CD902120122BDD9021201226D7C
:10069300DA02120122DEDA02120122C3DB021201A4
:1006A30022F7DB02120122F0DC021201222DDD020D
:1006B30012012209DE0212012248DE021201226423
:1006C300DE021201221CB303120122A0B3031201A2
:1006D30022CBB303120122E5B403120122DA9D03F4
:1006E300120122F09D031201220E9E031201221F0A
:1006F3009F03120122299F0312012254A003120116
:10070300224BA103120122B8A103120122C5DE026A
:10071300120122FBDF0212012232E00212012289BE
:10072300E0021201229EE202120122A482011201BE
:1007330022308301120122948401120122A0840138
:10074300120122DB84011201224A85011201225384
:1007530086011201225C8701120122238801120102
:10076300228089011201229E8901120122BB890183
:10077300120122688A01120122E58A011201220D67
:100783008B01120122D78D01120122DC8D0112018E
:1007930022F58F01120122439001120122B390012D
:1007A300120122F19001120122CD91011201228D39
:1007B3009201120122D99201120122DC920112014B
:1007C30022209301120122689301120122A79301AF
:1007D300120122C99301120122FD93011201226029
:1007E3009401120122B5E902120122C3E9021201A6
:1007F3002216EA0212012235EA021201227AEA02E1
:10080300120122BEEB0212012259EC021201229DB7
:10081300EC02120122C7EC0212012236ED02120190
:10082300227CED02120122F3ED02120122A4EE0258
:10083300120122682E00120122782E0012012219C1
:100843002F00120122752F001201223230001201F3
:10085300224E3100120122803100120122AF3100F9
:100863001201225C3300120122D33500120122430C
:1008730038001201223539001201222E3A001201EA
:1008830022353C00120122293F0012012258400068
:100893001201225C42001201226C4300120122FB6E
:1008A3004400120122EC45001201223A46001201D3
:1008B30022A94600120122CD46001201221E470042
:1008C300120122BF4B00120122C04C00120122214F
:1008D3004D001201224C4D00120122124E00120152
:1008E300228184031201228B8403120122D0840308
:1008F300120122E48403120122748503120122AD42
:100903008503120122E885031201221186031201D5
:10091300226586031201227A86031201229C860332
:10092300120122B18603120122C58603120122DAC3
:100933008603120122148703120122408703120146
:1009430022898703120122FB8703120122268803CF
:10095300120122698803120122938803120122BE25
:100963008803120122B8FE0112012257B2021201BA
:10097300223AB302120122B5B302120122F0B302EA
:1009830012012241B502120122CFB50212012261E6
:10099300B80212012213B9021201221FBA02120174
:1009A3002292BB02120122EBBB021201224A8D03E7
:1009B3001201228D8D03120122118E03120122E8EE
:1009C3009003120122AEAE0312012260AF031201A3
:1009D300225CB0031201229BB003120122F5B00383
:1009E30012012214B50312012277B5031201221456
:1009F300B60312012249B60312012279B60312018A
:100A030022B4B603120122D4B60312012271F302F7
:100A1300120122FDF302120122BCF402120122D4BC
:100A2300F502120122EEF702120122C39B02120108
:100A330022E89B02120122B59C02120122899D0227
:100A4300120122F69D02120122369E02120122D2C7
:100A53009E0212012206A002120122E1A00212014B
:100A63002240A102120122CCA1021201223AA202C7
:100A7300120122C6A2021201220CA3021201227E3B
:100A8300A30212012210A402120122B1A402120134
:100A930022D1A40212012219A50212012262A50287
:100AA3001201227EA502120122A4A5021201221E16
:100AB300A6021201222CA602120122BBA6021201D7
:100AC3002224A70212012225F802120122AAF80207
:100AD300120122ECF802120122D0F9021201223D86
:100AE300FA0212012281FA02120122C5FA0212014C
:100AF30022F2FA021201221AFB0212012252FB0213
:100B030012012290FB02120122B7FB0212012231D1
:100B1300FC021201227BFC0212012284B8011201A1
:100B23002223BA011201225BBC01120122AFBC01D4
:100B3300120122DABC01120122B6BD01120122E622
:100B4300BD0112012215BE0112012228BE011201AC
:100B53002269BE0112012296BE01120122E4BE01E6
:100B630012012220BF0112012265BF01120122B22C
:100B7300BF011201222CC0011201226DC201120118
:100B83002257C40112012293C40112012222C60179
:100B930012012267C601120122DAC6011201222FB5
:100BA300C70112012234C701120122BEC70112017B
:100BB30022E0C701120122FFC80112012210C9015C
:100BC30012012254C602120122CDC602120122874B
:100BD300CC0212012292CD021201223BCF0212015A
:100BE30022C9CF0212012218630012012299630065
:100BF300120122C663001201220F640012012210A7
:100C03006500120122696500120122E566001201E6
:100C130022676700120122826700120122F3670034
:100C2300120122B06800120122736900120122012D
:100C33006A00120122B86A00120122CB6A00120173
:100C430022646B00120122FB6B00120122226C0052
:100C53001201228B6C00120122D56C001201222397
:100C63006D00120122C86D00120122666E0012018E
:100C730022F36E00120122646F00120122AB6F0097
:100C8300120122037000120122357000120122EFBB
:100C93007000120122F671001201223F720012014C
:100CA300225C72001201227B7200120122AE7300D9
:100CB3001201226574001201228A74001201229F1C
:100CC30074001201220F75001201225075001201E7
:100CD30022747600120122F5760012012294BC02DE
:100CE300120122DFBC02120122EBBC02120122BF5D
:100CF300BD02120122D6BD0212012213BE0212014D
:100D03002244BE021201227CBE02120122D2BE0282
:100D1300120122E8BE0212012224BF02120122376D
:100D2300BF021201225EBF0212012292BF02120110
:100D330022B8C00212012202C202120122FEC20222
:100D43001201221BC4021201225D2E001201221C79
:100D5300D90112012257D901120122A9DC01120182
:100D63002205DE01120122C4DE011201222BE2015F
:100D730012012215E30112012261E3011201227B18
:100D8300E301120122B8E301120122C3E3011201BC
:100D93002202E4011201220BE401120122B5E40153
:100DA3001201228CE501120122E0E5011201223D2C
:100DB300E601120122AFE601120122389501120168
:100DC300229798011201229D9801120122CE9F01C0
:100DD300120122D5A301120122BBFC0212012298A7
:100DE300FD02120122DCFD0212012216FE02120193
:100DF30022AEFE021201221DFF0212012226FF0271
:100E030012012232FF021201224CFF02120122764A
:100E1300FF02120122A6FF021201229A910312017C
:100E230022A79103120122C19103120122F491031B
:100E3300120122329203120122979203120122AC71
:100E43009203120122B79203120122C492031201E8
:100E530022DB9203120122E99203120122F492038C
:100E63001201220093031201220F93031201221A8B
:100E730093031201223D9303120122E19303120112
:100E830022F193031201220B9403120122289403EB
:100E93001201224394031201226894031201227364
:100EA30094031201228894031201229C94031201D9
:100EB30022FD9403120122039503120122099503D3
:100EC3001201220F95031201222795031201225AC0
:100ED3009503120122408E02120122D78E021201C3
:100EE300226F8F021201225F90021201229690025A
:100EF300120122A99002120122179102120122B2B9
:100F03009202120122D992021201227B9302120150
:100F130022B09302120122C193021201223A9402D7
:100F23001201225B9402120122739402120122CB5A
:100F33009502120122D49702120122249A0212016D
:100F430022279B02120122769B02120122FEE70155
:100F5300120122FBE801120122E6E901120122F04B
:100F6300E90112012212EA011201221EEA01120111
:100F73002270EB011201229FEB01120122CFEC013F
:100F830012012211ED011201223DEE011201221381
:100F9300EF0112012265EF01120122C4EF011201D8
:100FA30022FBEF0112012236F001120122D1F301DB
:100FB300120122EAF3011201226CF4011201227AD6
:100FC300F401120122CFF401120122DDF401120116
:100FD300224AF501120122BCF50112012202F60197
:100FE30012012247A70212012269A702120122530A
:100FF300A902120122F8AC021201223BAE02120135
:101003002215AF02120122E2B60312012207B7032F
:1010130012012278B7031201228BF60112012294E6
:10102300F6011201229DF601120122CEF7011201EF
:1010330022EDF90112012223FA011201225DFA01C4
:1010430012012293FA01120122CDFA0112012201A7
:10105300FB011201222DFB0112012276FB01120179
:1010630022B0FB01120122F8FB011201224EFC0106
:1010730012012283FC01120122DEFC01120122185B
:10108300FD0112012269FD011201229FFD011201DE
:1010930022D9FD0112012207FE011201222AFE01BB
:1010A30012012214C00312012240C0031201229B29
:1010B300C003120122A5C003120122B5C00312010D
:1010C30022E68803120122918903120122AE8903C9
:1010D300120122FE8A03120122648B03120122529F
:1010E3008C0312012217A9031201223EA903120144
:1010F3002269A9031201225CC3031201227E4E005E
:10110300120122E450001201229B5200120122F824
:101113005200120122FA53001201228254001201DA
:10112300220955001201222E5500120122235800D4
:10113300120122945800120122835900120122BD88
:101143005900120122FD59001201229E5B00120177
:1011530022F15B001201223A5C00120122A85C001A
:10116300120122DA5C00120122F45C001201220A4D
:101173005E001201221A5E00120122A05F0012011A
:1011830022C05F00120122F65F0012012276610085
:10119300120122B56100120122F362001201220042
:1011A3008003120122588003120122A0810312013D
:1011B300220F8203120122BE8203120122DD820367
:1011C3001201223183031201226F8303120122557C
:1011D300BF0312012266BF0312012209C0031201D9
:1011E30022E97F00120122BFC003120122CFC003F4
:1011F300120122E1C00312012249C103120122B3E9
:10120300BB0312012237BC031201229FBC0312014C
:101213002236BA031201225FBA03120122CCBA03A7
:101223001201221FBB0312012278BB031201227B8E
:10123300A50312012292A5031201220BA603120198
:1012430022E0A603120122B2A803120122AFBD03BA
:10125300120122D8BD0312012201BE03120122434F
:10126300BE0312012265E4021201226FE40212019D
:1012730022AFE402120122F8E40212012232E50253
:1012830012012288E502120122A7E502120122B00F
:10129300E50212012201E6021201222AE6021201EC
:1012A300223FE602120122AFE6021201223DE702CB
:1012B30012012281E702120122AAE7021201222966
:1012C300E80212012266E8021201229DE8021201DD
:1012D30022AFE802120122CEE802120122D7E8026D
:1012E30012012289E90212012298B803120122E9AC
:1012F300B80312012272B903120122D8B9031201F1
:1013030022EDAB0312012217AC031201220CAD0331
:101313001201223BAD03120122C2AD03120122B816
:10132300BC0312012220B10312012256B1031201A0
:101333002289B103120122E2B2031201224CC1033A
:1013430012012262C1031201226CC103120122A104
:10135300C203120122F3CF02120122B0D002120102
:1013630022EBD0021201221CD1021201227ED102F1
:10137300120122CAD10212012235D202120122AF76
:10138300D202120122AED30212012235D50212017A
:1013930022B8D5021201221ED60212012231D60230
:1013A3001201222CD70212012279D702120122DC68
:1013B3009503120122F2950312012296960312015C
:1013C30022D59603120122F29603120122239703D8
:1013D300120122709703120122A49703120122DF44
:1013E3009703120122D499031201220080021201F1
:1013F30022B78302120122498502120122A085022B
:10140300120122BF85021201223D8602120122CF60
:101413008702120122B38802120122C48C02120134
:1014230022988D02120122B6EE02120122C4F002AA
:1014330012012265F10212012252F302120122C2A9
:10144300C103120122EDC10312012233C9011201AA
:101453002242CE01120122A6C303120122CCFF01B4
:1014630012012205C30312012215C303120122D460
:10147300FF02000022E066701008A3E066700A080D
:10148300A3E066700408A3E06622C008C3E096F5F3
:101493000808A3E096420808A3E096420808A3E0E0
:1014A300964208A2D265D033E5087001D3D0082252
:1014B300C3E7960809E7960809E7960809E796221D
:1014C300C3E09608A3E09608A3E09608A3E096225B
:1014D300C008C3E096F50808A3E096420808A3E015
:1014E30096420808A3E09645087001D3D008220865
:1014F3000808E630E711121DAC12150A080808C6E1
:101503004480C618181822181818E9799EC608CA04
:10151300C608CBC608CCC6C370207996CACBCC709C
:1015230019798ECBCC70137986CC700EF9802ACAC8
:1015330033CACB33CBCC33CC331930E7F2CCCBCA61
:101543003350147004EA30E00DE4CA3ACACB3BCB03
:10155300CC3CCC500209C3E913C6CC182313C6CB29
:1015630018C6CA18C6F9221215AA20F01430E72BA0
:1015730074FFFCFBFA747F8022E4FCFBFA74808026
:101583001AB48008BC00F2BB00EF800F50EBF9E403
:10159300C39AFAE49BFBE49CFCE499C6CC18C6CB43
:1015A30018C6CA18C6F922E4C9C608CAC608CBC6F3
:1015B300D3330308CCC63392F0C3947F402E9418E0
:1015C3004019C9B90704CACBCC225025C309CA3371
:1015D300CACB33CBCC33CC33D9F422F4600DC9CC92
:1015E300C313CB13CBCA13CAD9F6CC22E4FCFBFA40
:1015F3002214FCFBFA22E62618461846184622E770
:101603002719471947194722181818E6084608707A
:1016130009E626087005E633F4220822191919E7AA
:101623000947097009E727097005E733F4220922FE
:10163300E6084608C3134608336002E633F422E79C
:10164300094709C3134709336002E733F42212162B
:1016530033602512164260201215F9700302160238
:10166300080808E76670101819E766700A1819E782
:101673006670041819E76622F422121633601C12EE
:10168300164260171215F970071216027001D32261
:10169300C0D01216027006D0D0B322C32233D0D0EA
:1016A300501430E0F6C3E7960809E7960809E79671
:1016B3000809E796B32220E0D5E6970809E69708DC
:1016C30009E6970809E697B322121633601B121630
:1016D3004260161215F97007121602600CB322C08D
:1016E300D01216027005D0D022C32233D0D05013AB
:1016F30030E0EBC3E7960809E7960809E79608097F
:10170300E7962220E0E4E6970809E6970809E697BA
:101713000809E6972200121633604F121642601230
:10172300E7548066F612160B7011121602703B090D
:101733000909F4F618F618F618F62212161F701592
:101743001215F908080860EAE6447FF6187680184F
:10175300E4F618F6221215F960161216027012E456
:10176300F608F608F608E65480F609090918181869
:1017730022EAC0E0EBC0E0ECC0E0EDC0E0E687F0B9
:10178300A4FBACF008E687F0A42CFCE435F0FA18CF
:1017930009E687F0A42C4B60027401CA35F0FCE41F
:1017A30033FB09E687F0D2F7A42CCB35F0FC1908FC
:1017B300E687F0A42BCC35F0FBE433FD0819E6876C
:1017C300F0D2E7A42C4ACB35F0CD3400FC09E687F0
:1017D300F0D2E7A42DCC35F0FDE433FA0918E687FF
:1017E300F0D2F7A42CCD35F0CA3400FC08E687F01C
:1017F300D2E7D2F7A42ACC35F07A7E20E70B0ACBC6
:1018030033CBCD33CDCC33CC33CB3350147004ED49
:1018130030E00ED2F1E4CD3DCDCC3CCC3B5005DAEB
:1018230005C2F1EB547FC63308E63392F0FBE7338E
:1018330009E733C39A502D2B70190C0D4C4D7015BD
:101843001806E608C333700D20F10AA2F013F6E47C
:1018530018800B4024E4F630F002768018F618F670
:1018630018F68024D33B14501074FFA2F013F6181B
:101873007680E418F618F6800FA2F013F618E63314
:1018830003F618ECF618EDF6D0E0FDD0E0FCD0E05E
:10189300FBD0E0FA221216426046121633603DE98D
:1018A300687008F618F618F618F622748067F712AF
:1018B30018CC090909748067F722121633601D12C8
:1018C30016427005191919801A12160B701F121679
:1018D3001FC37003E6673319191940071818182234
:1018E30008080874FFF618F618F618F62212161FE1
:1018F3006017121602702192F01215F97019501721
:1019030020F014080808090909E7F61819E7F6187A
:1019130019E7F61819E7F6221215F960E6E8697077
:101923001F0808E62480F608E436F618547FB47FCF
:101933000CE654806007F6E418F618F6221818220D
:10194300E9C6CC08C6CD08C6CE08C6CFC0E0E8C0FD
:10195300E0EAC0E0EBC0E009E9F809E7FA09E7FBD0
:10196300E6F918E6F8C3EC98ED99EE9AEBC2E7F5C1
:10197300F0EFC2E795F0500E600CEBCFFBEACEFA26
:10198300E9CDF9E8CCF8EAA2E7D2E7FAEB33FB13A7
:10199300F5F0EEA2E7D2E7FEEF33FFC5F013A2E7BF
:1019A30030E601B313C5F0C3C0E0C0F07F00C39BB2
:1019B300FB605E9418600F401D14601AD0E023F999
:1019C300D0E0F8021A9E8AF0E9486003D2F0E4AF4F
:1019D300F0FAF9F8803BEB30E40D89F0EA6003D2CA
:1019E300F0E4AFF0F9CAF8EB30E30D88F0EF6002F2
:1019F300D2F0AFF0E4CAC9F8EB54076014FBC3EAB2
:101A030013FAE913F9E813F8EF135002D2E0FFDBFE
:101A1300EDD0E0C0E030E739C3E49FFFF5F0EC9888
:101A2300FC42F0ED99FD42F0EE9AFE42F0D0E0F96F
:101A3300D0E0F8E5F0607AE923F9EE20E742D80236
:101A43008067C3EF33FFEC33FCED33FDEE33FE80F1
:101A5300EAEC28FCED39FDEE3AFED0E023F9D0E0C4
:101A6300F84002801BC3EE13FEED13FDEC13FCEFF5
:101A7300135002D2E0FF08B800067F7F74FF802E68
:101A8300EF3350178CF020F00260100CBC000C0DEB
:101A9300BD00080EBE000408E860DFE933E813FF69
:101AA300EE2313FE4F4D4C8008E95480FFE4FEFD06
:101AB300FCEE33EF33F47004FCFD7E80D0E0FBD00A
:101AC300E0FAD0E0F8D0E0CFC618CEC618CDC618DD
:101AD300CCC6F922121633700418181822121642B3
:101AE300700D74FFF61819F61819F61819F622E78F
:101AF300548066F61215F9700F12160270F014F680
:101B030008F608F608F680D1121602700CF608F6ED
:101B130008768008E6447F80EC121622700C1216B9
:101B23000E60BFE65480F6E480BB12160E700519F2
:101B3300191980A5E869700C763F18768018F61895
:101B4300F6E8F922E6CDC0E018ECC0E0E633CD3389
:101B5300CDD313F6E719FCE7191933CC33C3947FBC
:101B6300400ECD9D502408E65480F6E418F6800F0D
:101B7300F4043D14501408E6447FF6187680E41804
:101B8300F618F6D0E0FCD0E0FD22CCD313CCFD1840
:101B9300E4C6CBC0E018E4C6CAC0E00808ED08C636
:101BA30033E613F618E433C675F003C3CA97CA09BC
:101BB300CB97CB199C40047D08802EBD0003021CEB
:101BC3008016B6FF050606081618C3CA33CACB33F8
:101BD300CB33CA27CA09CB37CB193CC37D08803E18
:101BE300187D0820E75CC633C6CA33CACB33CB3370
:101BF300DDF1D5F0EB30E77BCA97CA09CB974ACB27
:101C0300199C406F4B7025E620E0218066187D0803
:101C1300C3CA97CA09CB97CB199CD3C633C6CA3359
:101C2300CACB33CB3350C9DDE7D5F0E1D3E4C636B5
:101C3300C608C636C608C636C608C636C618181835
:101C43008031C3CA97CA09CB97CB199CB34097C6B7
:101C530033C6CA33CACB33CB33DD34D5F02EC6A259
:101C6300E0C640C8CA27CA09CB37194A70BECB3C65
:101C7300B480B90808E63308E633601F181818D093
:101C8300E0FAD0E0FBD0E0FCD0E0FD22187D08CAEA
:101C930027CA09CB37CB193CD3808013F618E4B697
:101CA3007F11F618B6FF0EF618C60470D208087630
:101CB3008080CAF618F618F680C5080808EAC0E05E
:101CC300EBC0E086F0E7A4FA180986F0E7A42AFA45
:101CD300180986F0E7A42AFA180986F0E7A42AFA75
:101CE3001986F0E7A4FBE5F02AFA190886F0E7A4C1
:101CF3002BFBE5F03AFA190886F0E7A42BFBE5F095
:101D03003AFA18180986F0E7A4C5F02BFBE43AFA6F
:101D13001908E7C5F0C6A426F6E5F03BFBE43AFA5A
:101D23001886F0E7A4F6E5F00826F6E43B08F6E4A7
:101D33003A08F6D0E0FBD0E0FA22E4CFC0E0E4CEEC
:101D4300C0E0E4CDC0E0E4CCC0E075F020E626F6C8
:101D530008E633F608E633F608E633F6181818EC07
:101D630033FCED33FDEE33FEEF33FFC3EC9709EDA8
:101D73009709EE9709EF97191919400FFFEC97FC94
:101D830009ED97FD09EE97FE191906D5F0BFECF79B
:101D930009EDF709EEF709EFF7191919D0E0FCD0AF
:101DA300E0FDD0E0FED0E0FF22181818E4C396F659
:101DB30008E496F608E496F608E496F62260160818
:101DC3000808C6C313C618C613C618C613C618C652
:101DD30013C6D5E0EA22700908080822601618180D
:101DE30018C6C333C608C633C608C633C608C633C7
:101DF300C6D5E0EA22E627F60809E637F60809E63B
:101E030037F60809E637F622E026F608A3E036F6A9
:101E130008A3E036F608A3E036F622E026F008A38E
:101E2300E036F008A3E036F008A3E036F022C3E67C
:101E330097F60809E697F60809E697F60809E6977C
:101E4300F622C3E096F008A3E096F008A3E096F02C
:101E530008A3E096F022E056F608A3E056F608A39E
:101E6300E056F608A3E056F622E056F008A3E05643
:101E7300F008A3E056F008A3E056F022E0F608A32A
:101E8300E0F608A3E0F608A3E0F622E6F008A3E6EE
:101E9300F008A3E6F008A3E6F022E0FAA3E0FBA330
:101EA300E0FCA3E0FD22E0F8A3E0F9A3E0FAA3E05D
:101EB300FB22E8F0A3E9F0A3EAF0A3EBF022CAC007
:101EC300E0E6F0A308DAFAD0E0FA22CAC0E0E0A321
:101ED300C582CCC582C583CDC583F0A3C582CCC5DD
:101EE30082C583CDC583DAE6D0E0CA22C3E498F87D
:101EF300E499F9121F308026C3E49AFAE49BFBE9C4
:101F030020E7E9121F30E498F8E499F922C3E49832
:101F1300F8E499F9121F30E498F8E499F9C3E49AC4
:101F2300FAE49BFB22EB20E7CFE920E7E0B90010BE
:101F3300BB0008E88AF084F8AAF022E4FBC8FA227E
:101F4300EB70227B10C833C8C933C9335007C39A17
:101F5300C3DBF280069A50012ADBEAC833F4C8C90E
:101F630033F4C9FA2275F008E4C833C8C933C93356
:101F7300C99AC99B5004C92AC93BD5F0ECFBC833A5
:101F8300F4C8E4C9FA22600D08C6A2E713C618C64E
:101F930013C6D5E0F322600C08C6C313C618C613D4
:101FA300C6D5E0F422700422600D18C6C333C608F8
:101FB300C633C6D5E0F41822251810AF08F518402B
:101FC3000C15198008F51840021519D2AF2200C06C
:101FD300D0251810AF08F518500C05198008F5180E
:101FE30050020519D2AFD0D0222518F58210AF08C0
:101FF300F518400C15198008F51840021519D2AFD1
:10200300851983222518F582E43519F583222518CD
:10201300F8E43519F9222518FAE43519FB222518B5
:10202300FCE43519FD22E4732518C582C0E0E519E7
:1020330034FFC583C0E0E518C3958224F810AF08C8
:102043008583198582188008858319858218D2AF04
:10205300CEF0A3E520F0A37808E608F0A3DEFAEFBC
:10206300F0A3E58124FAF8E608F0A3E608F0A3E676
:1020730008F0A30808E608F0A3E608F0A315811505
:1020830081D0E0FED0E0F8158115811581E8C0E02C
:10209300EEC0E0222518C582C0E0E51934FFC583F0
:1020A300C0E0E518C3958224F910AF08858319852C
:1020B30082188008858319858218D2AFCEF0A3E5F4
:1020C30020F0A37808E608F0A3DEFAEFF0A3E58199
:1020D30024FBF8E608F0A3E608F0A30808E608F0F6
:1020E300A3E608F0A315811581D0E0FED0E0F81532
:1020F300811581E8C0E0EEC0E0228519838518824E
:10210300E0A3FEE0A3F5207808E0A3F608DFFAE0F9
:10211300A3FFE0A3C0E0E0A3C0E0E0A3C0E0E0A32E
:10212300C0E0E0A3C0E010AF088582188583198062
:1021330008858218858319D2AFD083D08202011F0C
:10214300851983851882E0A3FEE0A3F5207808E0D3
:10215300A3F608DFFAE0A3FFE0A3C0E0E0A3C0E03A
:10216300E0A3C0E0E0A3C0E010AF08858218858338
:10217300198008858218858319D2AFD083D0822233
:10218300C0D02518C582C0E0E51934FFC583C0E07F
:10219300E518C3958224F310AF0885831985821847
:1021A3008008858319858218D2AFC8F0A3E9F0A30C
:1021B300EAF0A3EBF0A37908E709F0A3D8FAECF06F
:1021C300A3EDF0A3EEF0A3EFF0A3D0E0F0A3D0E0F3
:1021D300F0A3D0E0F0A3E520F0A3E5F0F0A322857F
:1021E3001983851882E0C0E0A3E0F9A3E0FAA3E035
:1021F300FBA37808E0F608A3DFFAE0FCA3E0FDA365
:10220300E0FEA3E0FFA3E0C0E0A3E0C0E0A3E0F5AD
:10221300D0A3E0F520A3E0A3F5F010AF0885831960
:102223008582188008858319858218D2AFD082D021
:1022330083D0E0F8D0E03274048006740280027424
:1022430001C0E0F404121FECD0E0121EC12274049A
:10225300800474028000CCC0E0EDC0E0E518C39CAC
:10226300CCAD1950011D10AF068C188D1980068C4A
:10227300188D19D2AF121ECED0E0FDD0E0FC22D0D3
:1022830083D082E9C0E0E493A3C386F0C5F095F060
:10229300F908E493A386F0C5F095F0700BE493A3DB
:1022A300C3994005E9048002A3E475F002A42582E2
:1022B300F582E5F03583F583D0E0F9E493A3C0E03C
:1022C300E493C0E022D083D082ECC0E0EDC0E0E430
:1022D30093A3FCE493A3FDED4C600D122314EC24B3
:1022E300FFFCED34FFFD80EFE493A3FCE493A3FD37
:1022F300ED4C600D122353EC24FFFCED34FFFD8005
:10230300EFD0E0FDD0E0FCE493A3C0E0E493C0E0B1
:1023130022C0E0C3E49396087401939618400FE437
:102323009366700808740193661870007019A3A36C
:10233300C3E49396087401939618A3A3400DD0E0C9
:10234300D0E0D0E0022304A3A3A3A3A3A3D0E0225D
:10235300C0E0C0F088F0E4936670080874019366E7
:10236300187000A8F0A3A3700BD0F0D0E0D0E0D099
:0B237300E0022304A3A3D0F0D0E0227E
:1023800074F6122097EAFEEBFF8C088D09EE2434D8
:10239000F8E43FF9E8FCE9FDEE2435122693FAEE65
:1023A0002437122693F88508F0A4C885F00A850919
:1023B000F0A4250AF9EA28F8E439F97A257B001215
:1023C0001F30EA8C828D83F0FA131313541FF8EE3A
:1023D00028F8E43FF9E8245DF582E439F583E0C0AC
:1023E000E074075AF8D0E0B800028004C313D8FCA8
:1023F000A2E0EE50082434F582E43F80182436121F
:102400002693F5F0EA84A8F0EE28F8E43FF9E824F2
:1024100038F582E439F583E0F97F0302214374F74C
:10242000122097EAFEEBFFEE2434122693C0E0EE72
:102430002435F582E43FF583D0E0F08E828F83A3CC
:10244000A3A3A3A3A3A3C082C0838E828F83A3A3CD
:10245000A3A3A3E0F8A3E0F9D083D082E0C398F56A
:1024600008A3E099F509EE247F1226936401703EDB
:10247000EE2480F582E43FF583C082C0838E828F94
:1024800083A3A3A3A3A3E0240108A3E03400F9D00D
:1024900083D082E0687003A3E06970127CB17D0490
:1024A000120C89EE247FF582E43FF583E4F0AC085A
:1024B000AD09EEFAEFFB122380E9F9122DEB7F0252
:1024C000022143C082C083851882851983E0F8A366
:1024D000E0F9C3EA9CEB9D5010C3EC98ED99401BCA
:1024E000C3EA98EB995014800EC3EA98EB99400721
:1024F000C3EC98ED994004790180027900D083D033
:102500008222EAC39CFAEB9DFB2274EF1220979083
:102510000376E064086005E06407702A9061C8E013
:1025200060249003A4E0F4601DE0F875F00BA4C8EB
:10253000AAF02AF974A628FE740339FF8E828F83CD
:10254000A3A3A3E07003022618906060E0C0E0EE51
:102550002468F582E43FF583D0E0F0750C21750D19
:1025600005750800750900E5D914F50AE5D9540385
:10257000F50E60127403650E6043E50A600AEE24EE
:10258000671226937002807590051CE06401601F3D
:1025900012269060047A0480027A00E50AC39AFA4F
:1025A00095E0FB120B2D8A088B09EA45097005128C
:1025B0000EB7806412269070048A0C8B0DE50A60B9
:1025C00012850C82850D83F50BE5D9F0A3150BE57B
:1025D0000B70F6122690604474FC250AF50A780CFC
:1025E00012223EAC0AA90EEEFAEFFB120D43740262
:1025F000121FD1E97026AA08AB091212EF793D8E9D
:10260000828F83A3A3A3A3E0FA7B0012098FEEFAC3
:10261000EFFB120CAD120D557900806F7403650E3F
:102620006051850A10751100781012223EAC0CAD75
:102630000DAA08AB09120D077402121FD1EE24680F
:1026400012269364807004747F8001E0F50C780C8E
:10265000122242E50EF50C780C122242A90AAC08AF
:10266000AD099003A4E0FA7B001209657402121F01
:10267000D18013900376E06408600BAC0CAD0DEED6
:10268000FAEFFB120DCD120EC379017F0A0221432E
:10269000EE2483F582E43FF583E02274F212209762
:1026A00074FC121FBBEAFEEBFF8909A2AFE433F50D
:1026B00008C2AF022765E0601B780C12223EAC0B0B
:1026C000A90EEEFAEFFB120D3D7402121FD1740435
:1026D000250BF50B7401250BF5D9850ED9E50B609B
:1026E00018F50A850C82850D83E0F5D9A385820C47
:1026F00085830D150AE50A70EA75E195EE2463F805
:10270000E43FF97A007B00A2AFE433F50BC2AF8857
:10271000828983E0FCA3E0FDEC4D603A88828983E6
:10272000E0FAA3E0FB8A828B83E0FCA3E0FD8882D1
:102730008983ECF0A3EDF08A828B83E4F0A3F08828
:10274000828983E0FCA3E0FDEC4D700A88828983D6
:10275000A3A3E4F0A3F0E50BA2E092AF1212EF9076
:1027600004B8E004F0EE2463122693F8A3E0F9E83D
:10277000496064EE24631226932402F8A3E0340037
:10278000F988828983E5822402F50CE43583F50D0E
:10279000E0F50BA3E0F50EEE2462122693640170BF
:1027A000369061D0E0F812269060047C0480027CB0
:1027B000007480C398FA95E0FBE50B2CF8E4340034
:1027C000F9E82402F8500109C3EA98EB99A2D2650E
:1027D000D03340030226B69004B8E0604D9004B9AF
:1027E000E0F89004B8E0C398500C74026509703AA0
:1027F0009004BAE060348E828F83A3A3A3A3E08504
:10280000188285198312283A7402122007E81228C8
:102810003A9004B7E028F07402122021AA18AB19EC
:1028200079011209B99004B8E4F0E508A2E092AF8A
:102830007404121FD17F07022143F0A3E4F0900437
:10284000B8E0F8228521878522C622C0E074EB1209
:102850002183A2AFE433F508C2AF759B009061827B
:10286000E0A2E05030E591A2E0502A7591FE74019B
:10287000652170211229DE120E0F1229CC1222516D
:10288000122B957404121FD1E964017005790112AD
:102890000E4B12250A906182E0A2E5505DE591A2FF
:1028A000E550577591DF900376E064076005E064BA
:1028B00008702F1229DE74016521703E120E0F126E
:1028C00029CC122251122B957404121FD1E96401F4
:1028D00070057901120E4B7901EEFAEFFB12269B7F
:1028E0008018E0640D7013900398E004F064287081
:1028F00002E4F07A00E0F9120EC9906182E0A2E6EB
:1029000040030229A1E591A2E640030229A17591A5
:10291000BF900376E064057008120DF7120E038075
:1029200003120DFD752100120E57E9900377F0791F
:1029300000120E4B120BF97A017B00900375E0F93F
:102940001212BF907803E064427056900520E014A4
:10295000F0704EC2AF12295800782AD0E0F618D095
:10296000E0F6E59F5407F87005750DFF8003750DBF
:102970007FC4C0E07829E6F50A08E6550DF50B742A
:102980000B780A121F99D0E0250AF8906270E0A235
:10299000E740F8E8C333906272F0906270E0D2E0F2
:1029A000F0906181E0A2E35009E5E9A2E3500375EC
:1029B000E9F7A3E0A2E75009E591A2E7500375917A
:1029C0007FE508A2E092AF7F080221E28E828F832A
:1029D000E0F8A3E0C82416F582E438F583229003DA
:1029E000A4E0F875F00BA4C8AAF02AF974A628FE92
:1029F000740339FF22C0E0C0D0C082C083906183DD
:102A0000E0A2E05009E5BFA2E0500375BFFEE0A2DE
:102A1000E15009E5BFA2E1500375BFFDE0A2E2501D
:102A200009E5BFA2E2500375BFFBE0A2E35009E550
:102A3000BFA2E3500375BFF7E0A2E45009E5BFA2CF
:102A4000E4500375BFEFE0A2E55009E5BFA2E550F1
:102A50000375BFDFE0A2E65009E5BFA2E6500375AB
:102A6000BFBFD083D082D0D0D0E032C0E074F212A9
:102A70002183E5A7A2E6500FE5A1A2E6500953A7DE
:102A8000BF75A1BF122ABFE5A7A2E5500CE5A1A220
:102A9000E5500653A7DF75A1DFE5A7A2E15009E5E0
:102AA000A1A2E1500375A1FDE5A7A2E2500CE5A1AA
:102AB000A2E2500653A7FB75A1FB7F010221E2743D
:102AC000F7122097752101900376E06406701512C5
:102AD0000D798A828B83A3A3A3A3A3A3E0FAA3E027
:102AE000FB120DE5A2AFE433FED2AF90037CE064AD
:102AF0000170187A207B00900375E0F91213D37AE5
:102B0000207B00900375E0F91212C5906182E0D23B
:102B1000E6F090051DE0602185C622801690037BBB
:102B2000E064017008E5C654F84405F5C653BEFCE0
:102B30001228447401652160E4EEA2E092AF7F02A6
:102B4000022143008E238F248582288583278518C0
:102B500082851983E0CEA3E0CF852882852783EB89
:102B6000C9EAC8EDCBECCA75F010C3E833C8E93345
:102B7000C9EA33CAEB33CBC3EA9EF526EB9FF525B2
:102B8000B35004AB25AA26EC33CCED33CDD5F0DA27
:102B9000AE23AF242274F11220978A088B098C0A85
:102BA0008D0B9082067808121E59740F1220077838
:102BB0000C121E7F908206780C121E597808790C30
:102BC0001214B39081FA50107808790C121E3178E3
:102BD000081214D34014800E780C7908121E317834
:102BE0000C1214D350047901800279007F0802216D
:102BF0004374ED1220978A088B098C0A8D0B908202
:102C0000067808121E597413122007780C121E7FC2
:102C1000908206780C121E59780C79081214B34071
:102C2000117808790C121E31AA08AB09AC0AAD0B59
:102C3000802275100075110075120075130178104F
:102C4000790C121E3178107908121DF8AA10AB11F8
:102C5000AC12AD137F0C0221439082067808121E3D
:102C60007F8A828B837808121E6C7F040221437452
:102C7000F51220978C828D837808121E7F8A828BB2
:102C8000837808121E45122CC7C3E09CF0A3E09D78
:102C9000122CB9402290821A7808121E7F8A828BE9
:102CA000837808121E1E8A828B83A3A3A3A3E02429
:102CB00020F0A3E0344EF080A0F088828983C3E046
:102CC0009420A3E0944E22EA2404F8E43BF98C8299
:102CD0008D83A3A3A3A3E0FCA3E0FD8882898322C4
:102CE00074F5122097E9FE9004D3E0FAA3E0FBEE1E
:102CF00029F8E433F9744728F582748139F583E0C3
:102D00002AF508A3E03BF509780812223E908236A6
:102D1000121E9D122B447402121FD18A088B098C3B
:102D20000A8D0B74107808121DC0AA08AB097F0425
:102D300002214374F11220978A0C8B0D8C0E8D0F9B
:102D400074111220071222557411122007E0240179
:102D5000F508A3E03400F509E4F50AF50B780C79E1
:102D600008121CBD9081EA7808121E7F780C790841
:102D7000121CBDAA0CAB0DAC0EAD0F122B4474028D
:102D8000121FD18B09EA450960047A0180027A009A
:102D9000EC2AFCE43DFD7413122007E0F8A3E0F9EF
:102DA000E8FEE9FFECF8EDF97A717B02121F30883A
:102DB000088909E4F50AF50B8E828F837808121EC4
:102DC0008EECF8EDF97A717B02121F308A088B09BC
:102DD00074057808121FA88E828F83A3A3A3A3E58E
:102DE00008F0A3E509F07F08022143C082C083E90F
:102DF000906000F0D083D08222C0E074F212218370
:102E0000A2AFE433FED2AFE589A2E150031212294A
:102E1000758900C2C5EEA2E092AF7F010221E2C037
:102E2000E074F2122183A2AFE433FED2AFE58BA2AD
:102E3000E05003121229758B00C2E880D8C0E0C0B0
:102E4000D0E8C0E0A8A8D2AFC2C7E8A2E792AFD04E
:102E5000E0F8D0D0D0E032C2AF0200002202011F61
:102E6000FFFFFFFFFFFFFFFFC082C083E990161442
:102E7000F0D083D08202011F74F612202BE9900259
:102E8000E8F0900348E0F50875090074027808122C
:102E90001FA8AA08AB091213319002E912382B902F
:102EA00002E9123C18606F900348E075F003A4FA41
:102EB000ABF012133190030612382B900306123C2C
:102EC00018700B9002E9123BE91213378048900307
:102ED00006124B7D7AFF7BFF12119F7A0080198AC0
:102EE0000875090074027808121FA812462574FF9D
:102EF00012302BE4F0A3F00A900348E0F8EAC398FC
:102F000040DD790512084B9002E8E0F91207377AA4
:102F1000D57B08120ACD0246C874F412202B8A0809
:102F20008B09EB548060479002E8E0F91212A78AFF
:102F30000A8B0BAE0AAF0BEE4F602A8E828F83E0B6
:102F400064B0701A12085DE960148E828F83A3A3A7
:102F5000A3A3E0F9EE2405FAE43FFB12082DEEFAF4
:102F6000EFFB121295AA08E5096480FB80047A0041
:102F70007B0002317B74F212202B74FB121FBBEA20
:102F8000FEEBFFEE4F60457403122007EEF0A3EF57
:102F9000F0851882851983ECF0A3EDF074021220FD
:102FA00007E9F0AA18AB19120731E9F50870757432
:102FB00013122007E0F50AA3E0F50BE50A450B60C4
:102FC000638E828F831235B4EE4F700575080280D0
:102FD000537A067B001213318A0C8B0DA80CA90DB5
:102FE000E8497005750813803B88828983E41230B4
:102FF0002BEEF0A3EF123147E50AF0A3E50BF090BA
:1030000002EC1231409002EC6017E0FCA3E0800378
:10301000EAFCEBFD8C828D8312314070F38C828D43
:1030200083124240A9087405024DFDF0A3124B5FC4
:10303000A32274F212202B8908890C750D007403E9
:10304000780C121FA8850C0A850D0B9002EBF090EE
:1030500002E912404B12313E602E12133779008084
:103060001D890C750D007402780C121FA89002E9DE
:103070001244E48882F583A3A3E4F0A3F00990034B
:1030800048E0F8E9C39840D9900348E0FA850AF08F
:10309000A4CAA8F0850BF0A428FB1213318A0C8B6C
:1030A0000DAE0CAF0DEE4F7003023134900348E0CB
:1030B000FC850AF0A4CCA8F0850BF0A428FD7900CB
:1030C0001212837C0080318D0C750D007403780C16
:1030D000121FA88A828B8312313988828983E4F097
:1030E000123146A3A3F0A3F00DEDC3950840D8EE2E
:1030F000250AFEEF350BFF0C900348E0F8ECC3986F
:1031000050288C0C750D007402780C121FA89002C8
:10311000E9123139E82402500109FAE9FB8A828B6D
:1031200083EEF0A3EFF07D0080BFE5089002EBF0A6
:10313000790080027913024E001244E8F922A3A319
:10314000123BEDEA4B22A3124B5FA3A3A32274F41C
:1031500012202B7900EAA2E0501F7508DA75098168
:10316000780812223E79107C047D007A167B1612B4
:1031700008457402121FD1E9F980007F040220FD86
:10318000C082C0839002EC123C18601C8882898344
:10319000A3A3E06A7003A3E06B8882898370E8A32D
:1031A000A3A3A3123BE980047A007B00022E717472
:1031B000F212202B74FD121FBBEAFEEBFF85188272
:1031C000851983E4F0A3F074021220077401F01251
:1031D0003C157014120A071213319002EF12382BAB
:1031E000123C15700302334112392BEE2404F50A08
:1031F000E43FF50B850A82F583E024FE603C24FC65
:10320000607424FE607E24FE700302329124FE70FE
:103210000302329E24FE70030232AB24FE700302CE
:1032200032B824FE70030232C524FC70030232E679
:1032300024FE70030232FE02333A120A079002F1B2
:10324000EAF0A3EB12334D120479E9600302333A3A
:103250009002F11222558E828F83A3A3A3A3A312FF
:103260004B7D850882850983123BE912081574029B
:10327000121FD102333AAC18AD19EEFAEFFB120867
:1032800063023309AC18AD19EEFAEFFB120869803E
:1032900078AC18AD19EEFAEFFB12086F806BAC1822
:1032A000AD19EEFAEFFB120875805EAC18AD19EEA1
:1032B000FAEFFB12087B8051AC18AD19EEFAEFFB68
:1032C00012088180447402122011880C890D780C38
:1032D00012223E7402122021EEFAEFFB12088774CC
:1032E00002121FD18023AC18AD19EEFAEFFB1208C1
:1032F0008DE9F870167402122007E4F0803CAC18D7
:10330000AD19EEFAEFFB120893E9F8E8602C8E8213
:103310008F83A3E064146022850A82850B83E0908A
:1033200002F1F0851882851983123BE99002F212AE
:10333000382BE8A312334D120473EEFAEFFB120799
:10334000EB7402122007E0F97403024DFDF07CF1EA
:103350007D02850882850983123BED2274E81220E4
:103360002B74FA121FBB7404122007ECF0A3EDF0CB
:103370008A128B13EA2405F50EE43513F50FEA24BF
:1033800002F510E43513F511851082F583123BE93F
:103390001205698A0A8B0B7508007C037D00790091
:1033A0007AF17B02121283E50E2402F516E4350F42
:1033B000F5177402122011880C890D780C12223E28
:1033C000850E82850F83A3A3A3A3E0F50C750D00E2
:1033D000780C12223EE50E2405F50CE4350FF50DB0
:1033E000780C12223E851682851783123EF0120752
:1033F0004F7406121FD18A0C8B0DE50C450D70031E
:1034000002357D8020851882851983E08882898332
:10341000F00508851882851983A3E0C0E01235BE47
:10342000D0E0F00508E50A24FBFAE50B34FFFBC306
:10343000E5089AE49B400302357D7E007F008512FB
:1034400082851383A3A3A3A3E0F50978091222427E
:10345000E4F514F515781412223E7514EE75150274
:10346000781412223E9002EF12225574091220079E
:10347000122255E50A24F9F9AC0CAD0D85108285B0
:103480001183123BE91208BD7409121FD1E96003D0
:1034900002351E850E82850F83A3A3A3A3A3A3A336
:1034A000E0F89002EEE0687075E0F5148E1578147F
:1034B00012223E124B7A850E82850F83A3A3A3A30B
:1034C000A3A3A3A3123BE912127D7402121FD1E938
:1034D000604C9002F2123C18703BE4F51478141220
:1034E000223E7CFF7DFF7907851082851183123B88
:1034F000E91208277402121FD1123C1E7017850EA4
:1035000082850F83124D1774041220071245D812BA
:103510003F210235B1850C82850D831235B4A81880
:10352000A91988148915781412223E7404122007F0
:1035300012225585168285178312382112075B7473
:1035400004121FD18A0C8B0DEE4F70030233FA1256
:1035500035BEEE1235C9123ED7EF1235C9F8A3E0D9
:103560003400F9E50C450D60030234058882898337
:1035700074FFF005081235BE74FFF00508E5086019
:103580001A1313543F123831120485E9600990026E
:10359000F2123BE91212EF79008016850E82850F38
:1035A00083124D1774041220071245D81242407935
:1035B0000A023EAAA3A3A3A3E0FEA3E0FF22A80859
:1035C0009002F2E028123ED722F00508089002F29D
:1035D000E0282274E812202B74FA121FBB74021226
:1035E000200712382B7404122007ECF0A3EDF074BE
:1035F00002122007E02405123EC0E0F50CA3E0F51E
:103600000D7402122007E02402F510A3E03400F547
:1036100011851082F583123BE91205697508007562
:103620000900EA24FCFEEB34FFFF8008050CE50CE2
:103630007002050DA808C3EE98EF940050030237FE
:10364000DDA818A919880E890F780E12223E85145C
:1036500082851583A3A3A3A3124B8112223EE514F6
:103660002405F50EE43515F50F780E12223E85146B
:103670008285158312381F12074F7406121FD18AD4
:103680000E8B0FEA450F70030237DDEA2404F516AE
:10369000E4350FF517851682F583E0F50CA3E0F508
:1036A0000D851882851983124B7D8A828B83A3A393
:1036B000A3E0F9851082851183123BE912073DE9E9
:1036C000F50960030237DD7402122007123EE7F5A8
:1036D000097809122242E4F512F513781212223EFB
:1036E0007512EE751302781212223E9002EF12222A
:1036F000557407122007122255EEF9AC0EAD0F8556
:103700001082851183123BE91208BD7409121FD182
:10371000E9F50960030237DDE508703FE4F50EF5D1
:103720000F780E12223E7CFF7DFF7909851082857D
:103730001183123BE91208277402121FD1123F0DA8
:10374000700D740412200712381479110238119088
:1037500002EEE024029002F2F080149002F2E0FA0D
:103760009002EEE0790024025001096A497072A8C3
:10377000089002EEE0FAE82AFAE43400FBEE9AEF51
:103780009B405A851682851783E0C0E09002F312B1
:1037900035C3D0E0F00508851682851783A3E0C005
:1037A000E0089002F31235C3D0E0F005089002EE75
:1037B000124B8112223E124B7AA808123EB412120A
:1037C0006B7402121FD19002EEE02508F50874FF19
:1037D000650C700474FF650D600302362CE508600B
:1037E0001F9002F2E0F5F0E5088412383112048BE4
:1037F000E960099002F3123BE91212EF790080119F
:10380000E509700375090A7404122007123814A917
:1038100009023EAA12404FE50CF0A3E50DF022A3E9
:10382000A3124E0CAA0CAB0D22A3A3EAF0A3EBF05B
:10383000229002F1F07CF17D0285108285118312C5
:103840003BED2274EC12202B74FC121FBB12435070
:103850007402122021123BE31207558A0C8B0DEAE9
:10386000450D700302391B12392BA818A9198810AD
:103870008911781012223E7CFF7DFF790B8508822A
:10388000850983123BE91208277402121FD1123AEC
:1038900021700C850A82850B83123F1E0239288E07
:1038A000828F83A3A3A3A3E0F5127812122242E42D
:1038B000F512F513781212223E7512F17513027883
:1038C0001212223E781012223E7409122007122290
:1038D000557409122007E0F9AC0CAD0D85088285FE
:1038E0000983123BE91208BD7409121FD1E9FE7069
:1038F000157CF17D02850882850983123BE912045B
:1039000091E97009802074166E70027E009002F2B8
:10391000123BE91212EFEE7004800B7E01850A82E1
:10392000850B8312423DEEF9024252EE2402F50865
:10393000E43FF5092274EC12202B74FC121FBBEA41
:10394000FEEBFF8C0E8D0FEE2405F508E43FF50924
:103950007402122021850882850983123BE912072F
:10396000558A0C8B0DEA450D7003023A11EE2402C4
:10397000F50AE43FF50BA818A919881089117810E9
:1039800012223E7CFF7DFF790D123BE31208277463
:1039900002121FD1123A21700B8508828509831209
:1039A0003F1E807A8E828F83A3A3A3A3E0F51278B3
:1039B00012122242850882850983A3A3122255751B
:1039C00012F1751302781212223E781012223E7400
:1039D000091220071222557409122007E0F9123B40
:1039E000DF1208BD7409121FD1E9FE700F7CF17D52
:1039F00002123BE3120497E97009802074166E707E
:103A0000027E009002F2123BE91212EFEE70048087
:103A10000B7E0185088285098312423DEEF9024240
:103A200052123C28F510A3E0F511EA45112274E882
:103A300012202B74FE121FBB8A168B178C148D1547
:103A4000EA2405F50CE43517F50DEA2402F50EE439
:103A50003517F50F850E82F583123BE91205698A49
:103A6000088B09750B007C037D0079007AF17B02DD
:103A7000121283750A00E50814F5100424FFF508F6
:103A8000E50934FFF50980549002F1E0FA9002EE66
:103A9000E0F8EA28F8E43400F9E50898E5099950D7
:103AA0000D9002F1E0F8E510C3989002EEF0E0F519
:103AB00012751300781212223E124B7A9002F2E035
:103AC0002AFAA3E03400FB12126B7402121FD19089
:103AD00002EEE0F89002F1E028F0050A850C8285FC
:103AE0000D83A3A31244F44003023BC49002F1E00F
:103AF000C39508E495094003023BC4AE0AEE2EFECE
:103B0000E433FF123C03AC18AD19124B95E439FBBA
:103B10001207558A128B13AC12AD13EC4D701B7546
:103B20000B01123BF31242419002F212314060034A
:103B30001212EFA90B7402023EAC85168285178320
:103B4000A3A3A3A3E0F50B780B122242E4F512F530
:103B500013781212223E7512EE7513027812122299
:103B60003E9002EF1222557407122007122255A927
:103B700010850E82850F83123BE91208BD7409126D
:103B80001FD1E9F50B709B9002F2123C1860030202
:103B90003A88E4F512F513781212223E7CFF7DFF7D
:103BA000790F850E82850F83123BE9120827740274
:103BB000121FD1123C1E6003023A88123BF3123FDF
:103BC00022023B357CF17D02850E82850F83123BFC
:103BD000E912049DE96003023B287900023B35AC01
:103BE0000CAD0D850A82850B83123BED22E0FAA312
:103BF000E0FB22123C03E0FAA3E0F9EA8514828597
:103C0000158322850C82850D83E02EF8A3E03FF911
:103C100088828983229002EF124D1BE84922123CD0
:103C200028F8A3E0F9E849229002F2EAF0A3EBF0C9
:103C30009002F2E02274E812202B74FA121FBB7477
:103C40000412200712382B8C168D177404122007CB
:103C5000E02405F50EA3E03400F50F7404122007EC
:103C6000E02402123EC0123BE91205698A0A8B0B5E
:103C70007F007E00A818A9198808890978081222EF
:103C80003E850E82850F83A3A3A3A3E0F5088E09CA
:103C9000780812223EE50E2405F508E4350FF509F3
:103CA000780812223E850E82850F83A3A3123EF070
:103CB00012074F7406121FD18A0C8B0D8029123EF9
:103CC000E1F00F123EE1F00F9002EE12422C1222B0
:103CD0003E124B7AEFF8123EB412126B7402121FAE
:103CE000D19002EEE02FFFE50C450D7003023D7010
:103CF000851882851983124362A3A3A3E0F9851472
:103D000082851583123BE912073DE9FEE50C240488
:103D1000F510E4350DF511EE705074041220071201
:103D20003EE7F5087808122242E4F508F50978081C
:103D300012223E7508EE750902780812223E9002A2
:103D4000EF1222557407122007122255E50A24FAB1
:103D5000F9AC0CAD0D851482851583123BE9120870
:103D6000BD7409121FD1E9FE6039123EFD124240B6
:103D7000EF7003023E979002F2E0F5F0EF849002BC
:103D8000F1F07CF17D02851482851583123BE912E6
:103D900004A3E960099002F3123BE91212EF7900E3
:103DA000023EAA8F08EF703BE4F512F51378121269
:103DB000223E7CFF7DFF7911851482851583123B9D
:103DC000E91208277402121FD1123F0D7009123E2A
:103DD000FD123F21023EAA9002EEE024049002F27E
:103DE000F080359002EEE0F89002F2E0FAE8240468
:103DF000FCE43400FDEC6A4D6003023D76E50A24E4
:103E0000FAFAE50B34FFFBE50828F8E43400F9EA98
:103E100098EB995003023D76851082851183E0C0AE
:103E2000E09002F3E02FF8A3E034008882F583D01D
:103E3000E0F00F851082851183A3E0C0E0123ECE32
:103E4000D0E0F00F74021220118808890978081256
:103E5000223E7402122007122255850E82850F839E
:103E600012381F12075B7404121FD18A0C8B0DEAE3
:103E7000450D7003023CBE7402122007E0C0E01240
:103E80003ECED0E0F00F7402122007A3E0C0E01293
:103E90003ECED0E0023CC6EE70027E0A850E8285E0
:103EA0000F83123F03124240EEF97406121FD17FB6
:103EB000100220FD9002F3E028FAA3E03400FB2278
:103EC000F514A3E03400F515851482F58322123E23
:103ED000D2229002F3E02FFAA3E034008A82F58325
:103EE00022123ED274FF2212404FA3A3A3A3E022CA
:103EF000124E0C850E82850F83123BED22851082B7
:103F0000851183124D1B851682851783229002F33B
:103F1000EAF0A3EBF09002F3124D1BE849221242A3
:103F200046E8F0A3E9F079112274EA12202B74FE1E
:103F3000121FBB8A088B098C128D13EA2405FEE43C
:103F40003509FFAC18AD198E828F83123BE9120739
:103F5000558A0C8B0DEE2406F50EE43FF50FEA456D
:103F60000D7003024021E5082402F50AE43509F545
:103F70000B8A828B83A3A3A3E0A2E5502885188235
:103F8000851983123BE91208B18A108B11EA451199
:103F900060207912123BDF8510828511831220295F
:103FA000E9F50C707F850E82850F83E060097952F8
:103FB0008011750C0E806D850882850983A3A3A3EB
:103FC000A3E0F9E4F508F509780812223E8E828F05
:103FD00083A3A3E0F508780812223E8E828F83A384
:103FE000A3A31222558E828F83124B7D123BE312C4
:103FF00008C37406121FD1E9F50C7011850E828575
:104000000F83E0702D123BE31204A980257416651E
:104010000C7011750C00741812200712404BE480CC
:1040200010750C01124D13851282851383E8F0A3DD
:10403000E9F0850E82850F83E0600479008002A993
:104040000C7402121FD17F0E0220FD12404F22E09D
:10405000F8A3E0F58388822274EC12202B74F71207
:104060001FBB8A0A8B0B8C108D11EA2405FEE435E8
:104070000BFF750C00AC18AD198E828F83123BE9D3
:104080001207558A088B09EA45097003024217E5B1
:104090000A2402F50A5002050B8A828B83A3A3A38C
:1040A000E0A2E5502F851882851983123BE912089A
:1040B000B18A0C8B0DEA450D604F7912AC08AD0941
:1040C000123BE3850C82850D83122029E9F50C60F3
:1040D0000302421A850A82850B83E0F508A3E0F506
:1040E00009AA08FB1208A5EA4B70197AFF7BFF1298
:1040F00008A5EA4B700302420D8A828B83E508F023
:10410000A3E509F07508008008750C0E02421A0537
:10411000089002EBE0F8E508C398400302420D85E1
:10412000080E750F007403780E121FA88A828B8305
:10413000A3A3E0250EF8A3E0350F1245E170D08E61
:10414000828F8312423512382B8E828F83A3A31263
:104150004235123829EE2404F508E43FF5098508B4
:1041600082F583E088828983A3A3A3A3F0A3E4F06C
:10417000EE2405F50EE43FF50F850E82F58312421D
:1041800035A3A3A3A312382975120775130078125B
:1041900012223EEEFCEFFD740412201912126B7411
:1041A00002121FD1E4F512781212223E8508828590
:1041B0000983E0FC7D007917123BE31208277402A3
:1041C000121FD1740712200712382B740712200710
:1041D000E0FA4B603D85088285098312422C122249
:1041E0003E850E82850F83124B7D12126B74021274
:1041F0001FD17402122021123BE31204AFE96026A2
:104200007407122007123BE91212EF8019750C098E
:104210008008750C118003750C01124D13851082F6
:10422000851183124240A90C74098028E0F50875B5
:104230000900780822123BED8882898322124246C7
:10424000E8F0A3E9F022E0F8A3E0F9850E82850FFB
:1042500083227404121FD17F0C0220FD74EC122003
:104260002B124350751000EE2402F50CE43FF50DBF
:10427000850C82F583123BE91208A58A088B09EAAE
:1042800045097003024334850A82850B83E064018B
:104290006003024329AC08AD09AA0AAB0B120899C6
:1042A000E9606E8508828509831235B6EE2406F52D
:1042B0000AE43FF50B8E828F83A3A31222558E82D0
:1042C0008F83A3A3A3A3122255850A82850B831291
:1042D000225579188E828F83124362123BE91208AD
:1042E000C37406121FD1E9F8741668700B850A8230
:1042F000850B83E4F0A38014E860128E828F831212
:104300003BE9850E82850F83EAF0A3EBF0881080ED
:1043100018780E12223EAC08AD09EEFAEFFB120837
:104320009F7402121FD1E9F510AA08AB091208AB5D
:10433000E510700E850C82850D83123BE91204B5E1
:104340008009741665107003751000A91002425799
:10435000EAFEEBFF8C0E8D0FEE2405F50AE43FF527
:104360000B22124E0C850C82850D832274EA1220DA
:104370002B7508007509007E007F00750A00EC248B
:1043800002F510E43DF5118035EC65087003ED652C
:1043900009600302442188828983A3A3E06A700331
:1043A000A3E06B707C88828983A3A3A3A3124D171B
:1043B000EE28FEEF39FFEA28FAEB39FB050A124432
:1043C000F1503A850A0C750D007403780C121FA881
:1043D0008510828511831244E41245E1601FE508CF
:1043E000450970A58C088D09888289831235B488A7
:1043F000828983A3A3E02EFAA3E03F80BEE50AC32F
:10440000940250030244DF750800750900EE4F6006
:1044100010EEFAEFFB1212E98A0E8B0FEA450F70CD
:104420000579000244E1750B000244B4850B0C755C
:104430000D007403780C121FA8851082851183E08B
:10444000250CF50CA3E0350DF50DE50C2406F5144F
:10445000E4350DF515851482F5831245E66042E5D5
:104460000C2404F512E4350DF513851282F5831240
:104470002255E50E2508FAE50F3509FB12126B747B
:1044800002121FD1851282851383E02508F508A347
:10449000E03509F509851482851583123BE912126E
:1044A000EFE50B600D7C087D007900AA0CAB0D12C6
:1044B0001283050BE50BC3950A500302442C8510AB
:1044C00082851183124D1788828983A3A3A3A3A396
:1044D000A3E50EF0A3E50F123147EEF0A3EFF0795C
:1044E000010240461244E822E0250CF8A3E0350D15
:1044F000229002EBE0F8E50AC3982274F012202B18
:104500008A0E8B0F8C0A8D0B750D00750C00805078
:104510007916EE2406F508E43FF5098E828F83A311
:10452000A31222558E828F83A3A3A3A312225585A3
:104530000882850983122255850E82850F83A3A3E5
:10454000123BE91208C37406121FD1E9F50D741667
:10455000650D706C850882850983E4F0A3F0050C75
:104560009002EBE0F8E50CC3985066AA0C8A087537
:10457000090074037808121FA8850A82850B83A39B
:10458000A3124630E8FEE9FF8E828F831245E66073
:1045900040EA2401F508E43400F5099002EBE065F7
:1045A000087002E509601488828983A3A3A3A3A3EA
:1045B000A3A3A3123C186003024510791802451208
:1045C000E9609B124D1374101220071245D8124255
:1045D00040A90D7F080220FDE0FAA3E0F5838A825E
:1045E00022F988828983124E0CEC4D2274F6122037
:1045F0002B7C0080010C900348E0F8ECC398501E1F
:104600008C0875090074027808121FA8124625E06C
:104610006A7003A3E06B70DDE8FAE9FB80047A00BE
:104620007B000246C89002E91246308882898322C4
:10463000E02508F8A3E03509F92274F212202B8A4C
:10464000088B09750A0080278E828F83A3A3A3A3FA
:1046500012313E60031212EF7C087D007900EEFA01
:10466000EFFB1212838E828F83E4F0A3F0050A120F
:1046700044F15027850A0C750D007403780C121F45
:10468000A8850882850983A3A3E0250CFEA3E03555
:104690000DFF8E828F83123C1870AD8508828509CC
:1046A0008374FFF0A3F0024E0074F612202B120860
:1046B000578A828B83E582458370067A007B00806F
:1046C00007A3A3A3A3123BE97F020220FD74F41207
:1046D000202B89088C828D83E06402703C124CB6DA
:1046E000FEA3E0F9EEF8740268700374296970297A
:1046F000750A02750B00780A12223E741012200708
:104700001222557410122007122255A9081211B155
:104710007406121FD1E9F98002790102317B74E835
:1047200012202B74FB121FBBE9851882851983F0B8
:104730008A168B17ECFEEDFF7510008E828F83A317
:10474000A3A3E0A2E4502D741D122007123BE9122E
:1047500008B18A828B83E58245837003024B5579C9
:104760000AEEFCEFFDAA16AB17122029E9F510603E
:1047700003024B58741F122007E0F508A3E0F50967
:104780007421122007E0F50AA3E0F50B7423122030
:1047900007E0F50EA3E0F50F8E828F83E0640260E0
:1047A00003024AF6A3124D17850882850983A38563
:1047B0008212858313EE2406F50CE43FF50D888202
:1047C0008983124B95F514E439F51578141222C833
:1047D000010000280128F84707000228BD480328E7
:1047E0002B480029EC490129174A0229B849032915
:1047F000EC490429904AF64AE50E450F6003024A47
:10480000F1850C82850D83124D17E8FAE9FB8A8247
:104810008B83E0850A82850B83124BA012223E8A8D
:10482000828B83A3E0FCA3E0024A7AE50E450F6089
:1048300003024AF1850A82850B837401F0124B8AC8
:10484000850882850983F07C007D008E828F83A39A
:10485000A3A3A3E02401FAA3E03400FB120755EA66
:104860004B60408A828B83E02402F8850A82850BA4
:1048700083E028F0EA2404F8E43BF988828983E0A5
:10488000851282851383124BAE124BA012223E8AF0
:10489000828B83A3124B7DE5082403FAE43509FBE0
:1048A000024A7F850A82850B83E02404F07C047D24
:1048B000007900AA12AB13121283024B58E50E4581
:1048C0000F6003024AF1124B8AFEA3E0FF850A82C1
:1048D000850B837404F0EE850882850983F0EF85EB
:1048E0001282851383F07403122021EEFAEFFB127B
:1048F00007558A0C8B0DEA450D700302499B8A828D
:104900008B83A3A31235B47401122011880E890F72
:10491000780E12223E74051220071222557CFF7D6C
:10492000FF12075B7404121FD18B0FEA450F70331F
:10493000850C82850D83124B8112223E850C828567
:104940000D83A31222557C027D007A6D7B821205B5
:10495000577404121FD1E9700A740112200774FF02
:10496000F0A3F08E828F83E064027039750C0275BB
:104970000D00780C12223E8E828F83A3124B7DE5B0
:10498000082404FAE43509FB12126B7402121FD1D9
:10499000850A82850B83E0240280097401122007B6
:1049A000EEF0A3EFF07401122007124B6F740112A6
:1049B0002007124B66024AEBE50E450F6003024AE0
:1049C000F1850C82850D83124E05AA16AB171211C4
:1049D000B7850A82850B837402F085088285098376
:1049E000EAF0851282851383EB024AEEE50E450F4D
:1049F0006003024AF1124B8AF8A3E0F9850A828526
:104A00000B837402F0E8850882850983F0E985123A
:104A100082851383024AEE850C82850D83123BE961
:104A2000121265EAFAF8C3950EE4950F405CE8654A
:104A30000E450F70047A008021851882851983E065
:104A4000FCE50E2CFCE4350FFDC3EC98ED94005012
:104A500003E08005E50ECAC39AFAEA850A82850B4F
:104A600083F08A0A750B00780A12223E850C828533
:104A70000D83E0250EFCA3E0350FFDAA08AB09125B
:104A8000126B7402121FD1024B58751007024B585B
:104A9000E50E450F705B850C82850D83124D1785E1
:104AA0000A82850B837407F088828983124B671210
:104AB0004B5FE0851282851383F0E82402FAE43923
:104AC000FB8A828B83124B6F8A828B83124B66A385
:104AD000A3123146124B74F0E82405F850010988FE
:104AE000828983124B74A3124BAEA3A3A3A3F080BD
:104AF0006775100B8062741D122007123BE91208C3
:104B0000578A828B83E5824583604A124D17880C51
:104B1000890DE8450D603E7425122007E0F51078F8
:104B200010122242780E12223E780A12223E780893
:104B300012223E7407122007E0F9EEFCEFFDAA16E0
:104B4000AB17850C82850D831220297407121FD1A3
:104B5000E9F510800375100EA9107405023EACF043
:104B600088828983A322A3E0850882850983221293
:104B70004BB5F022124BB5A3A3229002EF124E0CBC
:104B800022E0F50E750F00780E22850C82850D83CC
:104B900012404FE022E0FAA3E0F8E4C8F9EA282244
:104BA000F08A828B83E0F50A750B00780A22124B9B
:104BB0005F124BB522E0850882850983A3A3227486
:104BC000EE12202B74FE121FBB8A088B09ECFEED3F
:104BD000FF890AAC18AD19EEFAEFFB1207558A0CE3
:104BE0008B0DEA450D7003024CA785188285198349
:104BF000123BE91208578A828B83E5824583700352
:104C0000024CA2A3A3124D17880E890FE8450F701E
:104C100003024CA27414122007E0F510A3E0F51172
:104C2000E50AF50B780B12224274191220071222A2
:104C300055781012223E741B122007E0F9AC0CAD1F
:104C40000DAA08AB09850E82850F831220297405F1
:104C5000121FD1E9F50B705274FE650A604C850C89
:104C600082850D83E064027041124CB6FAA3E0F92C
:104C7000EAF87402687003742969702E85108285C1
:104C80001183124B95F50CE439F50D780C12223E88
:104C9000EEFCEFFDAA08AB091208DB7402121FD16B
:104CA0008008750B0E8003750B01A90B7402121F8F
:104CB000D17F0A0220FDA3124D1B88828983E02246
:104CC00074F612202B74FE121FBB740C12200712F4
:104CD0004D17E8851882851983F07401122007E9C1
:104CE000F0E4F508F509780812223E750802780804
:104CF00012223E74041220118808890978081222B1
:104D00003E79FE1208C37406121FD17402121FD11D
:104D10000246C88E828F83124D1B22E0F8A3E0F971
:104D20002274F712202BEAFEEBFF8908900306128B
:104D30004B7D1211B7EA5402600BA908EEFAEFFBA3
:104D4000120749800279017F010220FD74F21220CE
:104D50002B74FE121FBBEAFEEBFF890A7401650A81
:104D600060147402650A6003024DFB7901120AEBBC
:104D7000E96003024DFBEEFAEFFB1208A5EA4B6077
:104D8000031208ABA818A919880889097808122203
:104D90003E750802750900780812223E7508737581
:104DA0000982780812223E7CFF7DFF7A017B001287
:104DB000074F7406121FD18038850882850983A3A6
:104DC000A3A3A3A3A3124E05EEFAEFFB12119FE4D7
:104DD000F50CF50D780C12223E74021220071222F7
:104DE000557CFF7DFFAA08AB0912075B7404121FF4
:104DF000D18A088B09E508450970BE7402121FD1DB
:104E00007F060220FD12404F124E0C22E0FCA3E070
:104E1000FD2274F412202B8A088B09ECFEEDFF9022
:104E20001614E0F4604B7A097B0012128FEA4B6093
:104E3000408A828B8374B1F0A3E4124E74F08A82AC
:104E40008B83A3A3E508F0A3E509124E74A3EEF04B
:104E5000A3EFF0740C122007124D178A828B83A3E4
:104E6000A3A3A3A3A3A3124240901614E0F9121225
:104E70009B02317BF08A828B83A3A3A3A32274F0CD
:104E800012202B74FA121FBB8909ECFEEDFF750886
:104E9000008A0A8B0B780A122282000410A450C1E7
:104EA0004EDF4EF94E114F2F4F474F6A4F824F96AC
:104EB0004FC04F3B504C5063507E50A450A450D62E
:104EC0004F74016509600302509F8E828F83E0F862
:104ED000C39403400302509FE89017C602507B74AE
:104EE000026509600302509F8E828F8312581390CF
:104EF00017C7E8F0A3E902507B740165096003025B
:104F0000509F1250CC400302509FE890075C025023
:104F10007B74016509600302509F8E828F83E0F8E5
:104F2000C39405400302509FE890075D02507B74D4
:104F3000016509600302509F1250CC400302509F4C
:104F4000E890075E02507B74106509600302509F71
:104F5000750A10750B00780A12223E7A5F7B0712E1
:104F6000126B7402121FD10250C5740165096003EF
:104F700002509F1250CC400302509FE890076F02EE
:104F8000507B74016509600302509F8E828F83E01D
:104F90009017CA02507B74046509600302509F8E0B
:104FA000828F83780C121E7F908236780C1214D375
:104FB000500302509F900771780C121E8E0250C54C
:104FC000E9600302509F1206EFE970051211638039
:104FD00055900804806174076509600302509F754D
:104FE0000A06750B00780A12223E8E828F83A3ACCC
:104FF00082AD8374021220191212717402121FD131
:105000007C007D00AA18AB198E828F83E0F9121103
:105010000FE9FEC3940A40030250C21206EFE97082
:105020000CEEF912116979501213A9806D74052ED6
:10503000F582E43408F583740180407401650970D9
:105040005E1250CC5059E8900770802F74016509AA
:10505000704D8E828F83E0F8C3940A5042E8901717
:10506000C980187401650970368E828F83E0F874E8
:10507000F928C3940A5028E89017CBF080477401B0
:105080006509701B900803E0F88E828F83E090081A
:1050900003F0E87030E06401702B12115780267520
:1050A00008188021C3EA9427EB9400501574026518
:1050B00009700F8E828F831262E212056FE9F50884
:1050C0008003750802A90874060253F28E828F834A
:1050D000E0F8C3940222A9088005740E121FD17F44
:1050E000040220FD74F012202B74B1121FBB8C0A35
:1050F0008D0B9081CE74201220217406121ECE7466
:105100002012202112110FE9FF745F122007E0F531
:1051100009EFC3940A400302526675F006EFA4F546
:105120000874411220217A0E74202508F91213A365
:10513000E97009744D122007E0FE80027E0090178E
:10514000C6E064027005750E018003750E007408D8
:10515000650970047422800274212508F50D7C1BFA
:105160007D007900742612201912128374261220F1
:10517000217A1BA90D1213A3E9702D744012200788
:10518000E024F9C3940A5020E50EF50D780D1222A3
:10519000427427122021EEA2E0E433F9AA0AAB0BF5
:1051A0001206117401121FD17C147D007900740C59
:1051B000122019121283740C1220217A10742425E3
:1051C00008F91213A3E970347C1079FF740C1220D3
:1051D000191212E3E97025741C122007AC82AD830A
:1051E0007A0474252508F91213A3740C122021EEF9
:1051F000A2E0E433F9AA0AAB0B1205F9AC18AD1919
:105200007A0C74702FF91213A3E97049AA18AB191C
:1052100012113F7F00EF75F003A4F8A9F085188202
:10522000851983E58228F8E5831259B6125B9860E8
:105230001D88828983A3A3E0F50E750F00780E12F6
:10524000223EAA0AAB0B1208C97402121FD10FEF3B
:10525000C3940440C0EEA2E1500C90075BE0F9AAB1
:105260000AAB0B1208CF7404650970289017C6E0CA
:10527000640270207A0090076FE060027A01900764
:105280005CE06004780480027800E84AF9AA0AAB7E
:105290000B1206C57900744F0253F274F712202BDB
:1052A0001206EFE9704F900804E0640170151211C6
:1052B00063900804E4F07C0AFDF97A057B08121279
:1052C00083802A750800A808740528FEE43408FFC6
:1052D0008E828F83E06401700BA9081211698E829F
:1052E0008F83E4F00508E508C3940A40D979501289
:1052F00013A9121157025CD574F012202B74F0120E
:105300001FBBEAFEEBFF8C088D09750A0AE9600CE9
:1053100014600914603B14607D0253EE121151E9D0
:10532000F50AC3940A40030253EEE50845097003E9
:105330000253EE750C06750D00780C12223EEEFC41
:10534000EFFDAA08AB0912126B7402121FD10253AF
:10535000EE750C00750E06750F00780E12223EEEEB
:10536000FCEFFDE50C75F00EA4F8A9F0747D28FAA9
:10537000740739FB12127D7402121FD1E9700B05FC
:105380000CE50CC3940A506680CA850C0AE50AC372
:10539000940A505A8049750C00AC18AD197A1075F2
:1053A000F006E50CA42423F91213A3E9701C7C1069
:1053B00079FFAA18AB191212E3E9700EEEFCEFFDAB
:1053C000AA18AB191205D5E9600B050CE50CC394BE
:1053D0000A501B80C4850C0AE50AC3940A500FE5E5
:1053E0000845096009AA08AB09A90A12114BA90AC4
:1053F0007410121FD17F080220FD74F412202B8933
:105400000975081574FF6A700374FF6B70277E00BE
:10541000AC097A027B00EEF912112DE960037508E0
:10542000000EEEC3940A40E8E50960537A7B7B11D5
:10543000120B0F804A120ADF8A0A8B0BAE0AAF0BDF
:10544000EE4F60387C007D00EE2405FAE43FFB8ED1
:10545000828F83A3A3A3A3E0F912110FE9F9C394E8
:105460000A500CAC097A027B0012112D750800E578
:1054700009600CEEFAEFFB12117B80037508140231
:1054800050D674F212202BECFEEDFF750815740E49
:10549000122007E0F50AA3E0F50B74FF6A700374AD
:1054A000FF6B7021750900AC0AAD0BEEFAEFFBA99A
:1054B00009121133E960037508000509E509C39471
:1054C0000A503F80E2120ADF8A828B83E58245839D
:1054D000602D7C007D00E5822405FAE43583FBA382
:1054E000A3A3A3E0F912110FE9F9C3940A5013AC76
:1054F0000AAD0BEEFAEFFB1211337508008003754D
:105500000814A9087F060220FDC082C08390077599
:10551000EAF0A3EBF090075BE0FC7D007A267B00CD
:1055200012056F90075BE0F9120833025FEF74EE2B
:1055300012202B74EC121FBB8A088B09EA240CF58D
:1055400010E43509F5118A828B83A385820C85834B
:105550000DEA2405F50EE43509F50FEA2409F50AEC
:10556000E43509F50BEA2403FEE43509FF8A828B52
:1055700083A3A3E024FA70030257F224FD70030210
:10558000571214700302560C14601024FD700302AD
:1055900056F514700302574A0257F81262E8604445
:1055A000E0F5838882125813880C890DE8450D6058
:1055B00033851082851183E0F50E780E122242EABF
:1055C000240BF582E43509F583E0F91262DC0A0A5E
:1055D0000AEFFB850C82850D831220297401121FAE
:1055E000D10257F8850A82850B83122255900771E4
:1055F000121E9D12060B7402121FD1E9700302578E
:10560000F87901850A82850B830257C2750A0085E5
:105610000C82850D83E060030256C2850E82850FE1
:1056200083E0A2E040030256C290080F1262EB60D2
:10563000030256C27C0E7D007900AA18AB19121223
:1056400083851082851183125FBAEA4B6010750A58
:1056500006750B00780A12223EEA2410801B125FA6
:10566000B6120ADFEA4B70030257F8750A06750B8B
:1056700000780A12223EEA2405FCE43BFD74021283
:10568000201912126B7402121FD1850E82850F83AE
:10569000E0A2E25004D2F08002C2F0A2F0E433F8BB
:1056A000740C12200712616A121145E970117A0216
:1056B0007B0090075BE0F91212BF79000257FA7580
:1056C0000A151262E870030257F8125819700302A3
:1056D00057F8850C82850D83E0FC7901125804127D
:1056E0002029E50A70030257F8FC7903125FB6120D
:1056F0005F710257ED1262E870030257F8125819F1
:1057000070030257F8850C82850D83E0FC79020254
:1057100057EA7C007D00EA2404FAE43509FB8E8216
:105720008F83E0F912110FE9F8C3940A400302577E
:10573000F8E508240AFCE43509FD7A0475F006E86A
:10574000A42425F912139D0257F8125FB690077032
:10575000E060079017C9E0F9806B9017C6E070040D
:1057600079058061120ADF8A0C8B0DA80CA90DE85F
:105770004970030257F8E82404F50CE439F50D8567
:105780000882850983A3A3A3A3A3A3A3E0A2E05057
:1057900039850C82850D83E0F508602E850A8285A7
:1057A0000B83A3E054027022740E122021E824051A
:1057B000FAE439FBA90812110FE9700E79038E8201
:1057C0008F83125FBA120605802EAC0EAD0F850CCA
:1057D00082850D83E0F9125FB61211871262E860CC
:1057E0001712581960127C007900125804122029EF
:1057F0008006125FB612110979017414121FD17F4D
:105800000A0220FD8E828F83E0FAA3E0FB88828566
:10581000098322E0F8A3E0F922125F7FF98909E801
:1058200045092274F412202B74F2121FBBEAFE8C7D
:105830000B75F006E9A42420F508AC18AD197A0E12
:10584000F91213A3E970487C0679FFAA18AB191264
:1058500012E3E9703A740C122007125813E8F509A4
:10586000E50B6005EE42098004EEF45209AA09E84E
:105870006A7001E96015740C122007EAF0A3E4F0E5
:10588000AC18AD197A0EA90812139D79018002791E
:10589000000250DA74F212202B74E6121FBB890A40
:1058A0008A088B09ECFEEDFF740C1220217A0E752C
:1058B000F006E9A42420F91213A3E9600302597940
:1058C0007C0679FF740C1220191212E3E9600302BE
:1058D00059797470250AF50BAC18AD197A0CF912C8
:1058E00013A3E96003025975AA18AB1912113FE519
:1058F000084509701D7C0C7900AA18AB191212E337
:10590000E970727C0C7D007900AA18AB1912128321
:105910008051AC18AD19AA08AB091211398A0C8B49
:105920000DA80CA90DE8497022EE4F604CAC18ADE3
:10593000197A007B00121139EAF8EBF9EA4B603969
:1059400088828983E508F0A3E509F01259F2FAEE9E
:105950006A7001EF601FEEF04F700888828983E45F
:10596000F0A3F0AA18AB1912113FAC18AD197A0CBC
:10597000A90B12139D790180027900741A121FD1AC
:1059800002550474F712202B7E00EE75F003A4F884
:10599000A9F0EC28F8ED1259B6E06A7003A3E06BA9
:1059A0007006E8FAE9FB800B0EEEC3940440DB7A44
:1059B000007B00025CD539F9888289832274F71252
:1059C000202B7C00EC75F003A4F8A9F0EA28F8EB92
:1059D0001259B6E0F4FEA3E0F4FF88828983EEF06A
:1059E000A3EFF01259F2F4F00CECC3940440D5028A
:1059F0005CD5E82402F582E439F583E02274F412E0
:105A0000202B74F4121FBBEAFEEBFF8C088D09906B
:105A1000080F1262EB7050EE4F603FEC4509603AA0
:105A2000121151E99017CCF0C3940A403A750A005C
:105A30007C0679FFE50A75F00EA4FAABF074772ABC
:105A4000FA74073BFB1212E3E97016050AE50AC374
:105A5000940A40DC9017CC740AF07901740C02505F
:105A6000DCE50A9017CCF09017CCE0C3940A50EA1A
:105A700075F006E0A4FB90080F1262EB7063EEFC79
:105A8000EFFD7A0E74202BF912139D7C0C7D0079AA
:105A9000FFAA18AB19121283AC18AD197A0C901723
:105AA000CCE02470F912139D750A0E750B00780A6C
:105AB00012223EEEFCEFFD9017CCE075F00EA4F83C
:105AC000A9F0747728FA740739FB12126B7402126A
:105AD0001FD190080FE508F0A3E509F07900025AFC
:105AE0005CE0C82406125B9260197A1B74212BF9C2
:105AF00012139D125B7E2406F582E438F583E4F0F0
:105B0000A380D8125B7E240A125B9260107A1B7409
:105B1000222BF912139D125B7E240A80DB125B7E1E
:105B2000240C125B9260107A1074232BF912139DCF
:105B3000125B7E240C80C1125B87125B9260307A0C
