:020000040000FA
:060000000201070229EDD8
:03002B00022E356D
:03003300022E1783
:03005300022A631B
:03006B00022DF172
:10008300022843E5C754F84401F5C779012200006B
:100093000080FB120086B900030200F1E4792178A5
:1000A30008B800028004F709D8FCE479297802B87B
:1000B30000028004F709D8FCE490028178E1791307
:1000C3008002F0A3D8FCD9FA7A617B1590013778C6
:1000D3003779048015E493A3AD82AE838A828B8340
:1000E300F0A3AA82AB838D828E83D8E9D9E7758288
:1000F300607583C27403120119758291758300744C
:100103000012011975D00075813F751881751902A8
:10011300759F00020096C09FF59FE473D09F22D085
:1001230083D082C09FE493C0E0740193C0E0740263
:1001330093F59F22FF0000B4000028002800283018
:1001430075A000A000A000A00000080008E001F0D6
:10015300001000100010001000100010005000509C
:1001630000500010001000D0070000000000000F36
:100173000001000500307507001000010081FF0039
:10018300000000FFFFFF8F06AD069506D106FF02B4
:10019300020208025000A0000000E80302BA810135
:1001A30000006582026D82010000BC1502738201AA
:1001B3000000BF02026D82010000BD1502758201BD
:1001C3000000D502026D82010000BE150277820194
:1001D3000000D702026D82010000BF150279820878
:1001E3000000D802026D82010000C015027B82016B
:1001F3000000C115FF0100FF2002BA810100006861
:1002030082026D820100002516027D82000000003B
:100213000002718203000006031700490D490D49CE
:100223000D490D490D490D490D490D490D490D491B
:100233000D490D490DEF0F0110E90F12426174745E
:10024300657279206C6576656C0012506564616C2B
:100253006C696E6720737472656E677468000A4315
:100263006F6E66696775726174696F6E00125261B1
:100273007720706564616C6C696E6720646174617A
:100283000002BA810100006282026D8201000068EF
:10029300160299820100004207026F820100006981
:1002A300160271820300004307026D82010000778A
:1002B300160297820100004507026F820100007851
:1002C300160271820300004907026D820100008B50
:1002D300160295820100004B07026F820100008C19
:1002E30016026D820100009A160293820100004FEC
:1002F30007026F820100009B160271820300005106
:1003030007020202020202020202010D00000010B3
:100313000102BA810100005C82026D820100002E9D
:1003230017028B820100005307026D820100002F28
:10033300170289820100009181026D820100003061
:10034300170285820100006781026D82010000317E
:1003530017028382010000DE80026D8201000032F9
:1003630017029F820100001481026D820100003395
:10037300170281820100000281026D8201000034B4
:1003830017029D82010000F080026D82010000359A
:1003930017028F820100008381026D820100003603
:1003A30017029182010000371701E8030577100A4D
:1003B300FFFFFF000130750302010600000000008B
:1003C300000000000000000000000000000000002A
:1003D30000000000000000FFFF0600800CE8030A95
:1003E30009424C4520506564616C0512500020039E
:1003F300020A000201060302F0FF424C4520506549
:10040300726970686572616C000000000000002D65
:100413001400003314303132333435363738394130
:10042300424344454600286E756C6C20706F696EBC
:1004330074657229003031323334353637383961D7
:100443006263646566003F3F3F000000807F0000F9
:10045300803F00000000F9021550B743BA51000075
:10046300204100E7DB2E0000A040120122C2A103BD
:10047300120122D5A10312012206A2031201224076
:10048300A20312012299A203120122E0A203120184
:100493002228A30312012257A30312012286A303D6
:1004A300120122BDA30312012204A4031201221D7F
:1004B300A40312012272A4031201228BA4031201CA
:1004C30022D9A40312012213A503120122237700C8
:1004D3001201222678001201225F78001201228283
:1004E3007800120122947800120122D278001201BE
:1004F300224E7900120122167A00120122387A0064
:10050300120122CF7A00120122217B001201225212
:100513007B001201225F7B00120122C97B001201C2
:1005230022207C00120122237C001201225C7C0029
:100533001201225F7C00120122697C00120122BD9C
:100543007C00120122FE7C00120122317D00120187
:10055300226E7D00120122707E00120122147F00A0
:100563001201227D7F00120122BB7F00120122E1D2
:100573009903120122099A03120122369A031201E6
:10058300226E9A03120122CC9A03120122189B03B2
:100593001201227F9B03120122BF9B03120122FC43
:1005A3009B031201222A9C03120122D49C031201F1
:1005B30022DE9C03120122EB9C031201221E9D03E7
:1005C3001201222A9D03120122429D031201224C91
:1005D3009D0312012288BE0312012296BE0312015B
:1005E30022AEBE03120122C5BE0312012258A70187
:1005F30012012202A80112012215A901120122915E
:10060300A901120122AFAA01120122EBAA011201D0
:100613002286AB011201226AAC0112012236AD011E
:10062300120122C4AE0112012235AF01120122EFE1
:10063300AF01120122E1B00112012221B101120125
:1006430022D5B10112012207B201120122FDB30129
:100653001201223FB4011201225DB401120122C32F
:10066300B40112012292B50112012256B601120100
:100673002275B801120122D7D702120122C1D80272
:100683001201226CD902120122BDD9021201226D7C
:10069300DA02120122DEDA02120122C3DB021201A4
:1006A30022F7DB02120122F0DC021201222DDD020D
:1006B30012012209DE0212012248DE021201226423
:1006C300DE021201221CB303120122A0B3031201A2
:1006D30022CBB303120122E5B403120122DA9D03F4
:1006E300120122F09D031201220E9E031201221F0A
:1006F3009F03120122299F0312012254A003120116
:10070300224BA103120122B8A103120122C5DE026A
:10071300120122FBDF0212012232E00212012289BE
:10072300E0021201229EE202120122A282011201C0
:10073300222E83011201229284011201229E84013E
:10074300120122D98401120122488501120122518A
:1007530086011201225A8701120122218801120106
:10076300227E89011201229C8901120122B9890189
:10077300120122668A01120122E38A011201220B6D
:100783008B01120122D58D01120122DA8D01120192
:1007930022F38F01120122419001120122B1900133
:1007A300120122EF9001120122CB91011201228B3F
:1007B3009201120122D79201120122DA920112014F
:1007C300221E9301120122669301120122A59301B5
:1007D300120122C79301120122FB93011201225E2F
:1007E3009401120122B5E902120122C3E9021201A6
:1007F3002216EA0212012235EA021201227AEA02E1
:10080300120122BEEB0212012259EC021201229DB7
:10081300EC02120122C7EC0212012236ED02120190
:10082300227CED02120122F3ED02120122A4EE0258
:10083300120122602E00120122702E0012012211D9
:100843002F001201226D2F001201222A3000120103
:1008530022463100120122783100120122A7310011
:10086300120122543300120122CB35001201223B24
:1008730038001201222D3900120122263A001201FA
:10088300222D3C00120122213F0012012250400080
:10089300120122544200120122644300120122F386
:1008A3004400120122E445001201223246001201E3
:1008B30022A14600120122C546001201221647005A
:1008C300120122B74B00120122B84C001201221967
:1008D3004D00120122444D001201220A4E00120162
:1008E300228184031201228B8403120122D0840308
:1008F300120122E48403120122748503120122AD42
:100903008503120122E885031201221186031201D5
:10091300226586031201227A86031201229C860332
:10092300120122B18603120122C58603120122DAC3
:100933008603120122148703120122408703120146
:1009430022898703120122FB8703120122268803CF
:10095300120122698803120122938803120122BE25
:100963008803120122B6FE0112012257B2021201BC
:10097300223AB302120122B5B302120122F0B302EA
:1009830012012241B502120122CFB50212012261E6
:10099300B80212012213B9021201221FBA02120174
:1009A3002292BB02120122EBBB021201224A8D03E7
:1009B3001201228D8D03120122118E03120122E8EE
:1009C3009003120122AEAE0312012260AF031201A3
:1009D300225CB0031201229BB003120122F5B00383
:1009E30012012214B50312012277B5031201221456
:1009F300B60312012249B60312012279B60312018A
:100A030022B4B603120122D4B60312012271F302F7
:100A1300120122FDF302120122BCF402120122D4BC
:100A2300F502120122EEF702120122C39B02120108
:100A330022E89B02120122B59C02120122899D0227
:100A4300120122F69D02120122369E02120122D2C7
:100A53009E0212012206A002120122E1A00212014B
:100A63002240A102120122CCA1021201223AA202C7
:100A7300120122C6A2021201220CA3021201227E3B
:100A8300A30212012210A402120122B1A402120134
:100A930022D1A40212012219A50212012262A50287
:100AA3001201227EA502120122A4A5021201221E16
:100AB300A6021201222CA602120122BBA6021201D7
:100AC3002224A70212012225F802120122AAF80207
:100AD300120122ECF802120122D0F9021201223D86
:100AE300FA0212012281FA02120122C5FA0212014C
:100AF30022F2FA021201221AFB0212012252FB0213
:100B030012012290FB02120122B7FB0212012231D1
:100B1300FC021201227BFC0212012282B8011201A3
:100B23002221BA0112012259BC01120122ADBC01DA
:100B3300120122D8BC01120122B4BD01120122E428
:100B4300BD0112012213BE0112012226BE011201B0
:100B53002267BE0112012294BE01120122E2BE01EC
:100B63001201221EBF0112012263BF01120122B032
:100B7300BF011201222AC0011201226BC20112011C
:100B83002255C40112012291C40112012220C6017F
:100B930012012265C601120122D8C6011201222DBB
:100BA300C70112012232C701120122BCC70112017F
:100BB30022DEC701120122FDC8011201220EC90162
:100BC30012012254C602120122CDC602120122874B
:100BD300CC0212012292CD021201223BCF0212015A
:100BE30022C9CF0212012210630012012291630075
:100BF300120122BE630012012207640012012208BF
:100C03006500120122616500120122DD66001201F6
:100C1300225F67001201227A6700120122EB67004C
:100C2300120122A868001201226B6900120122F945
:100C33006900120122B06A00120122C36A00120184
:100C4300225C6B00120122F36B001201221A6C006A
:100C5300120122836C00120122CD6C001201221BAF
:100C63006D00120122C06D001201225E6E0012019E
:100C730022EB6E001201225C6F00120122A36F00AF
:100C8300120122FB6F001201222D7000120122E7D4
:100C93007000120122EE710012012237720012015C
:100CA30022547200120122737200120122A67300F1
:100CB3001201225D74001201228274001201229734
:100CC30074001201220775001201224875001201F7
:100CD300226C7600120122ED760012012294BC02EE
:100CE300120122DFBC02120122EBBC02120122BF5D
:100CF300BD02120122D6BD0212012213BE0212014D
:100D03002244BE021201227CBE02120122D2BE0282
:100D1300120122E8BE0212012224BF02120122376D
:100D2300BF021201225EBF0212012292BF02120110
:100D330022B8C00212012202C202120122FEC20222
:100D43001201221BC402120122552E001201221A83
:100D5300D90112012255D901120122A7DC01120186
:100D63002203DE01120122C2DE0112012229E20165
:100D730012012213E3011201225FE301120122791E
:100D8300E301120122B6E301120122C1E3011201C0
:100D93002200E40112012209E401120122B3E40159
:100DA3001201228AE501120122DEE5011201223B32
:100DB300E601120122ADE60112012236950112016C
:100DC300229598011201229B9801120122CC9F01C6
:100DD300120122D3A301120122BBFC0212012298A9
:100DE300FD02120122DCFD0212012216FE02120193
:100DF30022AEFE021201221DFF0212012226FF0271
:100E030012012232FF021201224CFF02120122764A
:100E1300FF02120122A6FF021201229A910312017C
:100E230022A79103120122C19103120122F491031B
:100E3300120122329203120122979203120122AC71
:100E43009203120122B79203120122C492031201E8
:100E530022DB9203120122E99203120122F492038C
:100E63001201220093031201220F93031201221A8B
:100E730093031201223D9303120122E19303120112
:100E830022F193031201220B9403120122289403EB
:100E93001201224394031201226894031201227364
:100EA30094031201228894031201229C94031201D9
:100EB30022FD9403120122039503120122099503D3
:100EC3001201220F95031201222795031201225AC0
:100ED3009503120122408E02120122D78E021201C3
:100EE300226F8F021201225F90021201229690025A
:100EF300120122A99002120122179102120122B2B9
:100F03009202120122D992021201227B9302120150
:100F130022B09302120122C193021201223A9402D7
:100F23001201225B9402120122739402120122CB5A
:100F33009502120122D49702120122249A0212016D
:100F430022279B02120122769B02120122FCE70157
:100F5300120122F9E801120122E4E901120122EE51
:100F6300E90112012210EA011201221CEA01120115
:100F7300226EEB011201229DEB01120122CDEC0145
:100F83001201220FED011201223BEE011201221187
:100F9300EF0112012263EF01120122C2EF011201DC
:100FA30022F9EF0112012234F001120122CFF301E1
:100FB300120122E8F3011201226AF40112012278DC
:100FC300F401120122CDF401120122DBF40112011A
:100FD3002248F501120122BAF50112012200F6019D
:100FE30012012247A70212012269A702120122530A
:100FF300A902120122F8AC021201223BAE02120135
:101003002215AF02120122E2B60312012207B7032F
:1010130012012278B70312012289F60112012292EA
:10102300F6011201229BF601120122CCF7011201F3
:1010330022EBF90112012221FA011201225BFA01CA
:1010430012012291FA01120122CBFA01120122FFAD
:10105300FA011201222BFB0112012274FB0112017E
:1010630022AEFB01120122F6FB011201224CFC010C
:1010730012012281FC01120122DCFC011201221661
:10108300FD0112012267FD011201229DFD011201E2
:1010930022D7FD0112012205FE0112012228FE01C1
:1010A30012012209C00312012235C003120122904A
:1010B300C0031201229AC003120122AAC003120123
:1010C30022E68803120122918903120122AE8903C9
:1010D300120122FE8A03120122648B03120122529F
:1010E3008C0312012217A9031201223EA903120144
:1010F3002269A90312012288C303120122764E003A
:10110300120122DC5000120122935200120122F03C
:101113005200120122F253001201227A54001201EA
:10112300220155001201222655001201221B5800EC
:101133001201228C58001201227B5900120122B5A0
:101143005900120122F55900120122965B00120187
:1011530022E95B00120122325C00120122A05C0032
:10116300120122D25C00120122EC5C001201220265
:101173005E00120122125E00120122985F0012012A
:1011830022B85F00120122EE5F001201226E61009D
:10119300120122AD6100120122EB62001201220052
:1011A3008003120122588003120122A0810312013D
:1011B300220F8203120122BE8203120122DD820367
:1011C3001201223183031201226F8303120122557C
:1011D300BF0312012266BF03120122D4FF021201D0
:1011E300225DC1031201226DC1031201227FC103DB
:1011F300120122E7C103120122B3BB0312012237FA
:10120300BC031201229FBC0312012236BA0312014E
:10121300225FBA03120122CCBA031201221FBB03BD
:1012230012012278BB031201227BA5031201229231
:10123300A5031201220BA603120122E0A603120149
:1012430022B2A803120122AFBD03120122D8BD03AB
:1012530012012201BE0312012243BE0312012265C1
:10126300E4021201226FE402120122AFE40212012E
:1012730022F8E40212012232E50212012288E50279
:10128300120122A7E502120122B0E5021201220196
:10129300E6021201222AE6021201223FE6021201AD
:1012A30022AFE6021201223DE70212012281E70288
:1012B300120122AAE70212012229E8021201226680
:1012C300E8021201229DE802120122AFE802120194
:1012D30022CEE802120122D7E80212012289E90292
:1012E30012012298B803120122E9B80312012272F3
:1012F300B903120122D8B903120122EDAB03120183
:101303002217AC031201220CAD031201223BAD03E1
:10131300120122C2AD03120122B8BC031201222022
:10132300B10312012256B10312012289B103120142
:1013330022E2B203120122EAC10312012200C20314
:101343001201220AC203120122CDC203120122F3A7
:10135300CF02120122B0D002120122EBD0021201FD
:10136300221CD1021201227ED102120122CAD10211
:1013730012012235D202120122AFD202120122AE91
:10138300D30212012235D502120122B8D50212016D
:10139300221ED60212012231D6021201222CD702BA
:1013A30012012279D702120122DC9503120122F2E3
:1013B3009503120122969603120122D59603120178
:1013C30022F296031201222397031201227097033C
:1013D300120122A49703120122DF9703120122D4E0
:1013E3009903120122008002120122B78302120123
:1013F30022498502120122A08502120122BF850221
:101403001201223D8602120122CF8702120122B36A
:101413008802120122C48C02120122988D02120149
:1014230022B6EE02120122C4F00212012265F10279
:1014330012012252F302120122B4C003120122D577
:10144300C00312012231C90112012240CE0112014F
:1014530022D2C303120122CAFF0112012231C303A4
:1014630012012241C303120122E17F00000022E0A6
:1014730066701008A3E066700A08A3E066700408AB
:10148300A3E06622C008C3E096F50808A3E09642ED
:101493000808A3E096420808A3E0964208A2D26592
:1014A300D033E5087001D3D00822C3E7960809E7D3
:1014B300960809E7960809E79622C3E09608A3E091
:1014C3009608A3E09608A3E09622C008C3E096F529
:1014D3000808A3E096420808A3E096420808A3E0A0
:1014E3009645087001D3D00822080808E630E711B2
:1014F300121DA6121504080808C64480C618181839
:1015030022181818E9799EC608CAC608CBC608CCA3
:10151300C6C370207996CACBCC7019798ECBCC70A8
:10152300137986CC700EF9802ACA33CACB33CBCC5D
:1015330033CC331930E7F2CCCBCA3350147004EAFE
:1015430030E00DE4CA3ACACB3BCBCC3CCC500209C9
:10155300C3E913C6CC182313C6CB18C6CA18C6F9D9
:10156300221215A420F01430E72B74FFFCFBFA744D
:101573007F8022E4FCFBFA7480801AB48008BC00EC
:10158300F2BB00EF800F50EBF9E4C39AFAE49BFB44
:10159300E49CFCE499C6CC18C6CB18C6CA18C6F995
:1015A30022E4C9C608CAC608CBC6D3330308CCC6CF
:1015B3003392F0C3947F402E94184019C9B907049D
:1015C300CACBCC225025C309CA33CACB33CBCC33C5
:1015D300CC33D9F422F4600DC9CCC313CB13CBCADB
:1015E30013CAD9F6CC22E4FCFBFA2214FCFBFA2240
:1015F300E62618461846184622E7271947194719B9
:101603004722181818E60846087009E626087005E8
:10161300E633F4220822191919E70947097009E783
:1016230027097005E733F4220922E6084608C313A5
:101633004608336002E633F422E7094709C3134738
:1016430009336002E733F42212162D602512163C8B
:1016530060201215F370030215FC080808E7667092
:10166300101819E766700A1819E76670041819E765
:101673006622F42212162D601C12163C60171215F6
:10168300F370071215FC7001D322C0D01215FC7041
:1016930006D0D0B322C32233D0D0501430E0F6C3E7
:1016A300E7960809E7960809E7960809E796B3223B
:1016B30020E0D5E6970809E6970809E6970809E6C2
:1016C30097B32212162D601B12163C60161215F3E7
:1016D30070071215FC600CB322C0D01215FC700504
:1016E300D0D022C32233D0D0501330E0EBC3E796DF
:1016F3000809E7960809E7960809E7962220E0E437
:10170300E6970809E6970809E6970809E69722008D
:1017130012162D604F12163C6012E7548066F612C3
:10172300160570111215FC703B090909F4F618F639
:1017330018F618F62212161970151215F308080870
:1017430060EAE6447FF618768018E4F618F622126B
:1017530015F360161215FC7012E4F608F608F60885
:10176300E65480F609090918181822EAC0E0EBC00C
:10177300E0ECC0E0EDC0E0E687F0A4FBACF008E6E7
:1017830087F0A42CFCE435F0FA1809E687F0A42CC2
:101793004B60027401CA35F0FCE433FB09E687F0C1
:1017A300D2F7A42CCB35F0FC1908E687F0A42BCC98
:1017B30035F0FBE433FD0819E687F0D2E7A42C4AA1
:1017C300CB35F0CD3400FC09E687F0D2E7A42DCC6D
:1017D30035F0FDE433FA0918E687F0D2F7A42CCDEF
:1017E30035F0CA3400FC08E687F0D2E7D2F7A42A22
:1017F300CC35F07A7E20E70B0ACB33CBCD33CDCC7F
:1018030033CC33CB3350147004ED30E00ED2F1E41B
:10181300CD3DCDCC3CCC3B5005DA05C2F1EB547F3A
:10182300C63308E63392F0FBE73309E733C39A5034
:101833002D2B70190C0D4C4D70151806E608C3338B
:10184300700D20F10AA2F013F6E418800B4024E493
:10185300F630F002768018F618F618F68024D33B9B
:1018630014501074FFA2F013F6187680E418F618DB
:10187300F6800FA2F013F618E63303F618ECF61809
:10188300EDF6D0E0FDD0E0FCD0E0FBD0E0FA221290
:10189300163C604612162D603DE9687008F618F68E
:1018A30018F618F622748067F71218C60909097426
:1018B3008067F72212162D601D12163C7005191948
:1018C30019801A121605701F121619C37003E667E2
:1018D3003319191940071818182208080874FFF655
:1018E30018F618F618F62212161960171215FC705E
:1018F3002192F01215F37019501720F014080808FC
:10190300090909E7F61819E7F61819E7F61819E7A8
:10191300F6221215F360E6E869701F0808E62480D2
:10192300F608E436F618547FB47F0CE6548060075B
:10193300F6E418F618F622181822E9C6CC08C6CD24
:1019430008C6CE08C6CFC0E0E8C0E0EAC0E0EBC0FE
:10195300E009E9F809E7FA09E7FBE6F918E6F8C34D
:10196300EC98ED99EE9AEBC2E7F5F0EFC2E795F04C
:10197300500E600CEBCFFBEACEFAE9CDF9E8CCF8D8
:10198300EAA2E7D2E7FAEB33FB13F5F0EEA2E7D2D4
:10199300E7FEEF33FFC5F013A2E730E601B313C54B
:1019A300F0C3C0E0C0F07F00C39BFB605E9418608F
:1019B3000F401D14601AD0E023F9D0E0F8021A9802
:1019C3008AF0E9486003D2F0E4AFF0FAF9F8803B1B
:1019D300EB30E40D89F0EA6003D2F0E4AFF0F9CA2A
:1019E300F8EB30E30D88F0EF6002D2F0AFF0E4CA19
:1019F300C9F8EB54076014FBC3EA13FAE913F9E8D7
:101A030013F8EF135002D2E0FFDBEDD0E0C0E0307B
:101A1300E739C3E49FFFF5F0EC98FC42F0ED99FD44
:101A230042F0EE9AFE42F0D0E0F9D0E0F8E5F06043
:101A33007AE923F9EE20E742D8028067C3EF33FF48
:101A4300EC33FCED33FDEE33FE80EAEC28FCED399C
:101A5300FDEE3AFED0E023F9D0E0F84002801BC34C
:101A6300EE13FEED13FDEC13FCEF135002D2E0FF77
:101A730008B800067F7F74FF802EEF3350178CF079
:101A830020F00260100CBC000C0DBD00080EBE005F
:101A93000408E860DFE933E813FFEE2313FE4F4D3C
:101AA3004C8008E95480FFE4FEFDFCEE33EF33F491
:101AB3007004FCFD7E80D0E0FBD0E0FAD0E0F8D0EB
:101AC300E0CFC618CEC618CDC618CCC6F92212165A
:101AD3002D70041818182212163C700D74FFF61896
:101AE30019F61819F61819F622E7548066F6121536
:101AF300F3700F1215FC70F014F608F608F608F6EA
:101B030080D11215FC700CF608F608768008E644BE
:101B13007F80EC12161C700C12160860BFE654800E
:101B2300F6E480BB121608700519191980A5E86937
:101B3300700C763F18768018F618F6E8F922E6CD91
:101B4300C0E018ECC0E0E633CD33CDD313F6E7198C
:101B5300FCE7191933CC33C3947F400ECD9D502439
:101B630008E65480F6E418F6800FF4043D1450148C
:101B730008E6447FF6187680E418F618F6D0E0FC01
:101B8300D0E0FD22CCD313CCFD18E4C6CBC0E018C3
:101B9300E4C6CAC0E00808ED08C633E613F618E445
:101BA30033C675F003C3CA97CA09CB97CB199C40B8
:101BB300047D08802EBD0003021C7A16B6FF0506BD
:101BC30006081618C3CA33CACB33CB33CA27CA098C
:101BD300CB37CB193CC37D08803E187D0820E75CDA
:101BE300C633C6CA33CACB33CB33DDF1D5F0EB30C2
:101BF300E77BCA97CA09CB974ACB199C406F4B70B6
:101C030025E620E0218066187D08C3CA97CA09CB60
:101C130097CB199CD3C633C6CA33CACB33CB335005
:101C2300C9DDE7D5F0E1D3E4C636C608C636C60833
:101C3300C636C608C636C61818188031C3CA97CA2E
:101C430009CB97CB199CB34097C633C6CA33CACBCB
:101C530033CB33DD34D5F02EC6A2E0C640C8CA2745
:101C6300CA09CB37194A70BECB3CB480B90808E621
:101C73003308E633601F181818D0E0FAD0E0FBD021
:101C8300E0FCD0E0FD22187D08CA27CA09CB37CB78
:101C9300193CD3808013F618E4B67F11F618B6FF0B
:101CA3000EF618C60470D20808768080CAF618F6B5
:101CB30018F680C5080808EAC0E0EBC0E086F0E744
:101CC300A4FA180986F0E7A42AFA180986F0E7A40B
:101CD3002AFA180986F0E7A42AFA1986F0E7A4FB82
:101CE300E5F02AFA190886F0E7A42BFBE5F03AFAA7
:101CF300190886F0E7A42BFBE5F03AFA18180986D1
:101D0300F0E7A4C5F02BFBE43AFA1908E7C5F0C6DF
:101D1300A426F6E5F03BFBE43AFA1886F0E7A4F6CE
:101D2300E5F00826F6E43B08F6E43A08F6D0E0FBD3
:101D3300D0E0FA22E4CFC0E0E4CEC0E0E4CDC0E0DE
:101D4300E4CCC0E075F020E626F608E633F608E6B4
:101D530033F608E633F6181818EC33FCED33FDEED2
:101D630033FEEF33FFC3EC9709ED9709EE9709EFC5
:101D730097191919400FFFEC97FC09ED97FD09EE30
:101D830097FE191906D5F0BFECF709EDF709EEF741
:101D930009EFF7191919D0E0FCD0E0FDD0E0FED02F
:101DA300E0FF22181818E4C396F608E496F608E450
:101DB30096F608E496F6226016080808C6C313C60A
:101DC30018C613C618C613C618C613C6D5E0EA222A
:101DD3007009080808226016181818C6C333C60805
:101DE300C633C608C633C608C633C6D5E0EA22E6FC
:101DF30027F60809E637F60809E637F60809E6374D
:101E0300F622E026F608A3E036F608A3E036F60845
:101E1300A3E036F622E026F008A3E036F008A3E0BC
:101E230036F008A3E036F022C3E697F60809E697F2
:101E3300F60809E697F60809E697F622C3E096F056
:101E430008A3E096F008A3E096F008A3E096F0223A
:101E5300E056F608A3E056F608A3E056F608A3E01A
:101E630056F622E056F008A3E056F008A3E056F039
:101E730008A3E056F022E0F608A3E0F608A3E0F694
:101E830008A3E0F622E6F008A3E6F008A3E6F008CC
:101E9300A3E6F022E0FAA3E0FBA3E0FCA3E0FD222B
:101EA300E0F8A3E0F9A3E0FAA3E0FB22E8F0A3E95A
:101EB300F0A3EAF0A3EBF022CAC0E0E6F0A308DA4D
:101EC300FAD0E0FA22CAC0E0E0A3C582CCC582C53D
:101ED30083CDC583F0A3C582CCC582C583CDC5831D
:101EE300DAE6D0E0CA22C3E498F8E499F9121F2A8B
:101EF3008026C3E49AFAE49BFBE920E7E9121F2A50
:101F0300E498F8E499F922C3E498F8E499F9121FE4
:101F13002AE498F8E499F9C3E49AFAE49BFB22EBE8
:101F230020E7CFE920E7E0B90010BB0008E88AF01A
:101F330084F8AAF022E4FBC8FA22EB70227B10C8D3
:101F430033C8C933C9335007C39AC3DBF280069A37
:101F530050012ADBEAC833F4C8C933F4C9FA22753D
:101F6300F008E4C833C8C933C933C99AC99B5004BC
:101F7300C92AC93BD5F0ECFBC833F4C8E4C9FA223B
:101F8300600D08C6A2E713C618C613C6D5E0F32230
:101F9300600C08C6C313C618C613C6D5E0F4227076
:101FA3000422600D18C6C333C608C633C6D5E0F491
:101FB3001822251810AF08F518400C15198008F5DC
:101FC3001840021519D2AF2200C0D0251810AF084F
:101FD300F518500C05198008F51850020519D2AFF1
:101FE300D0D0222518F58210AF08F518400C15192A
:101FF3008008F51840021519D2AF851983222518D8
:10200300F582E43519F583222518F8E43519F92208
:102013002518FAE43519FB222518FCE43519FD22AD
:10202300E4732518C582C0E0E51934FFC583C0E019
:10203300E518C3958224F810AF08858319858218A3
:102043008008858319858218D2AFCEF0A3E520F0EE
:10205300A37808E608F0A3DEFAEFF0A3E58124FAFB
:10206300F8E608F0A3E608F0A3E608F0A30808E6FC
:1020730008F0A3E608F0A315811581D0E0FED0E0B7
:10208300F8158115811581E8C0E0EEC0E02225181E
:10209300C582C0E0E51934FFC583C0E0E518C395E8
:1020A3008224F910AF0885831985821880088583F7
:1020B30019858218D2AFCEF0A3E520F0A37808E605
:1020C30008F0A3DEFAEFF0A3E58124FBF8E608F0BD
:1020D300A3E608F0A30808E608F0A3E608F0A315B2
:1020E300811581D0E0FED0E0F815811581E8C0E0CC
:1020F300EEC0E022851983851882E0A3FEE0A3F5F4
:10210300207808E0A3F608DFFAE0A3FFE0A3C0E02D
:10211300E0A3C0E0E0A3C0E0E0A3C0E0E0A3C0E030
:1021230010AF0885821885831980088582188583F6
:1021330019D2AFD083D08202011F851983851882FB
:10214300E0A3FEE0A3F5207808E0A3F608DFFAE0B9
:10215300A3FFE0A3C0E0E0A3C0E0E0A3C0E0E0A3EE
:10216300C0E010AF0885821885831980088582181E
:10217300858319D2AFD083D08222C0D02518C582DF
:10218300C0E0E51934FFC583C0E0E518C395822498
:10219300F310AF0885831985821880088583198514
:1021A3008218D2AFC8F0A3E9F0A3EAF0A3EBF0A33F
:1021B3007908E709F0A3D8FAECF0A3EDF0A3EEF069
:1021C300A3EFF0A3D0E0F0A3D0E0F0A3D0E0F0A31E
:1021D300E520F0A3E5F0F0A322851983851882E0BA
:1021E300C0E0A3E0F9A3E0FAA3E0FBA37808E0F6DC
:1021F30008A3DFFAE0FCA3E0FDA3E0FEA3E0FFA356
:10220300E0C0E0A3E0C0E0A3E0F5D0A3E0F520A3A5
:10221300E0A3F5F010AF088583198582188008853F
:102223008319858218D2AFD082D083D0E0F8D0E072
:102233003274048006740280027401C0E0F4041254
:102243001FE6D0E0121EBB227404800474028000D7
:10225300CCC0E0EDC0E0E518C39CCCAD1950011D26
:1022630010AF068C188D1980068C188D19D2AF12F9
:102273001EC8D0E0FDD0E0FC22D083D082E9C0E0CC
:10228300E493A3C386F0C5F095F0F908E493A3861D
:10229300F0C5F095F0700BE493A3C3994005E904EE
:1022A3008002A3E475F002A42582F582E5F035836C
:1022B300F583D0E0F9E493A3C0E0E493C0E022D037
:1022C30083D082ECC0E0EDC0E0E493A3FCE493A3ED
:1022D300FDED4C600D12230EEC24FFFCED34FFFDED
:1022E30080EFE493A3FCE493A3FDED4C600D122374
:1022F3004DEC24FFFCED34FFFD80EFD0E0FDD0E09A
:10230300FCE493A3C0E0E493C0E022C0E0C3E49301
:1023130096087401939618400FE493667008087446
:102323000193661870007019A3A3C3E4939608740D
:1023330001939618A3A3400DD0E0D0E0D0E0022291
:10234300FEA3A3A3A3A3A3D0E022C0E0C0F088F020
:10235300E4936670080874019366187000A8F0A3EC
:10236300A3700BD0F0D0E0D0E0D0E00222FEA3A314
:10237300D0F0D0E02274F6122091EAFEEBFF8C0835
:102383008D09EE2434F8E43FF9E8FCE9FDEE243549
:1023930012268BFAEE243712268BF88508F0A4C890
:1023A30085F00A8509F0A4250AF9EA28F8E439F941
:1023B3007A257B00121F2AEA8C828D83F0FA13138D
:1023C30013541FF8EE28F8E43FF9E8245DF582E49E
:1023D30039F583E0C0E074075AF8D0E0B800028012
:1023E30004C313D8FCA2E0EE50082434F582E43F82
:1023F3008018243612268BF5F0EA84A8F0EE28F82C
:10240300E43FF9E82438F582E439F583E0F97F0302
:1024130002213D74F7122091EAFEEBFFEE24341201
:10242300268BC0E0EE2435F582E43FF583D0E0F05F
:102433008E828F83A3A3A3A3A3A3A3C082C0838EEF
:10244300828F83A3A3A3A3A3E0F8A3E0F9D083D04F
:1024530082E0C398F508A3E099F509EE247F1226DC
:102463008B6401703EEE2480F582E43FF583C082E5
:10247300C0838E828F83A3A3A3A3A3E0240108A315
:10248300E03400F9D083D082E0687003A3E0697080
:10249300127CB17D04120C89EE247FF582E43FF5B2
:1024A30083E4F0AC08AD09EEFAEFFB122378E9F907
:1024B300122DE37F0202213DC082C08385188285ED
:1024C3001983E0F8A3E0F9C3EA9CEB9D5010C3EC39
:1024D30098ED99401BC3EA98EB995014800EC3EA18
:1024E30098EB994007C3EC98ED9940047901800279
:1024F3007900D083D08222EAC39CFAEB9DFB22743D
:10250300EF122091900376E064086005E0640770A1
:102513002A9061C8E060249003A4E0F4601DE0F811
:1025230075F00BA4C8AAF02AF974A628FE7403391F
:10253300FF8E828F83A3A3A3E07003022610906013
:1025430060E0C0E0EE2468F582E43FF583D0E0F07C
:10255300750C21750D05750800750900E5D914F58D
:102563000AE5D95403F50E60127403650E6043E562
:102573000A600AEE246712268B7002807590051C90
:10258300E06401601F12268860047A0480027A00E6
:10259300E50AC39AFA95E0FB120B2D8A088B09EA28
:1025A30045097005120EB7806412268870048A0CE0
:1025B3008B0DE50A6012850C82850D83F50BE5D939
:1025C300F0A3150BE50B70F6122688604474FC2506
:1025D3000AF50A780C122238AC0AA90EEEFAEFFBC0
:1025E300120D437402121FCBE97026AA08AB09121D
:1025F30012E9793D8E828F83A3A3A3A3E0FA7B0024
:1026030012098FEEFAEFFB120CAD120D5579008013
:102613006F7403650E6051850A10751100781012EE
:102623002238AC0CAD0DAA08AB09120D07740212C7
:102633001FCBEE246812268B64807004747F8001A4
:10264300E0F50C780C12223CE50EF50C780C122206
:102653003CA90AAC08AD099003A4E0FA7B00120977
:10266300657402121FCB8013900376E06408600B3D
:10267300AC0CAD0DEEFAEFFB120DCD120EC37901CA
:102683007F0A02213DEE2483F582E43FF583E022B5
:1026930074F212209174FC121FB5EAFEEBFF890954
:1026A300A2AFE433F508C2AF02275DE0601B780CEC
:1026B300122238AC0BA90EEEFAEFFB120D3D740299
:1026C300121FCB7404250BF50B7401250BF5D9856B
:1026D3000ED9E50B6018F50A850C82850D83E0F5AC
:1026E300D9A385820C85830D150AE50A70EA75E185
:1026F30095EE2463F8E43FF97A007B00A2AFE4335C
:10270300F50BC2AF88828983E0FCA3E0FDEC4D604A
:102713003A88828983E0FAA3E0FB8A828B83E0FC18
:10272300A3E0FD88828983ECF0A3EDF08A828B839A
:10273300E4F0A3F088828983E0FCA3E0FDEC4D7014
:102743000A88828983A3A3E4F0A3F0E50BA2E092B5
:10275300AF1212E99004B8E004F0EE246312268B62
:10276300F8A3E0F9E8496064EE246312268B24029F
:10277300F8A3E03400F988828983E5822402F50C0A
:10278300E43583F50DE0F50BA3E0F50EEE246212BC
:10279300268B640170369061D0E0F81226886004BD
:1027A3007C0480027C007480C398FA95E0FBE50BFF
:1027B3002CF8E43400F9E82402F8500109C3EA983C
:1027C300EB99A2D265D03340030226AE9004B8E061
:1027D300604D9004B9E0F89004B8E0C398500C74CD
:1027E300026509703A9004BAE060348E828F83A345
:1027F300A3A3A3E0851882851983122832740212D9
:102803002001E81228329004B7E028F07402122065
:102813001BAA18AB1979011209B99004B8E4F0E5C1
:1028230008A2E092AF7404121FCB7F0702213DF090
:10283300A3E4F09004B8E0F8228521878522C6221C
:10284300C0E074EB12217DA2AFE433F508C2AF758B
:102853009B00906182E0A2E05030E591A2E0502A13
:102863007591FE7401652170211229D6120E0F1283
:1028730029C412224B122B8D7404121FCBE964015D
:1028830070057901120E4B122502906182E0A2E5D8
:10289300505DE591A2E550577591DF900376E064B2
:1028A300076005E06408702F1229D6740165217052
:1028B3003E120E0F1229C412224B122B8D740412D6
:1028C3001FCBE9640170057901120E4B7901EEFA11
:1028D300EFFB1226938018E0640D7013900398E0C9
:1028E30004F064287002E4F07A00E0F9120EC99053
:1028F3006182E0A2E64003022999E591A2E6400342
:102903000229997591BF900376E064057008120D52
:10291300F7120E038003120DFD752100120E57E905
:10292300900377F07900120E4B120BF97A017B00BA
:10293300900375E0F91212B9907803E0644270567F
:10294300900520E014F0704EC2AF12295000782A8F
:10295300D0E0F618D0E0F6E59F5407F87005750D42
:10296300FF8003750D7FC4C0E07829E6F50A08E609
:10297300550DF50B740B780A121F93D0E0250AF856
:10298300906270E0A2E740F8E8C333906272F0907F
:102993006270E0D2E0F0906181E0A2E35009E5E9E2
:1029A300A2E3500375E9F7A3E0A2E75009E591A27A
:1029B300E7500375917FE508A2E092AF7F080221FB
:1029C300DC8E828F83E0F8A3E0C82416F582E43816
:1029D300F583229003A4E0F875F00BA4C8AAF02AAB
:1029E300F974A628FE740339FF22C0E0C0D0C08268
:1029F300C083906183E0A2E05009E5BFA2E05003E9
:102A030075BFFEE0A2E15009E5BFA2E1500375BF27
:102A1300FDE0A2E25009E5BFA2E2500375BFFBE06F
:102A2300A2E35009E5BFA2E3500375BFF7E0A2E4B8
:102A33005009E5BFA2E4500375BFEFE0A2E55009DA
:102A4300E5BFA2E5500375BFDFE0A2E65009E5BF8D
:102A5300A2E6500375BFBFD083D082D0D0D0E0327E
:102A6300C0E074F212217DE5A7A2E6500FE5A1A212
:102A7300E6500953A7BF75A1BF122AB7E5A7A2E580
:102A8300500CE5A1A2E5500653A7DF75A1DFE5A72A
:102A9300A2E15009E5A1A2E1500375A1FDE5A7A2BA
:102AA300E2500CE5A1A2E2500653A7FB75A1FB7F00
:102AB300010221DC74F7122091752101900376E065
:102AC30064067015120D798A828B83A3A3A3A3A333
:102AD300A3E0FAA3E0FB120DE5A2AFE433FED2AF0D
:102AE30090037CE0640170187A207B00900375E00A
:102AF300F91213CD7A207B00900375E0F91212BF0F
:102B0300906182E0D2E6F090051DE0602185C62247
:102B1300801690037BE064017008E5C654F8440511
:102B2300F5C653BEFC12283C7401652160E4EEA295
:102B3300E092AF7F0202213D008E238F24858228FD
:102B4300858327851882851983E0CEA3E0CF852866
:102B530082852783EBC9EAC8EDCBECCA75F010C3B5
:102B6300E833C8E933C9EA33CAEB33CBC3EA9EF58A
:102B730026EB9FF525B35004AB25AA26EC33CCED09
:102B830033CDD5F0DAAE23AF242274F11220918A2B
:102B9300088B098C0A8D0B9082047808121E5374DB
:102BA3000F122001780C121E79908204780C121EE9
:102BB300537808790C1214AD9081E4501078087999
:102BC3000C121E2B78081214CD4014800E780C7949
:102BD30008121E2B780C1214CD500479018002794F
:102BE300007F0802213D74ED1220918A088B098C25
:102BF3000A8D0B9082047808121E5374131220015D
:102C0300780C121E79908204780C121E53780C797A
:102C1300081214AD40117808790C121E2BAA08ABC8
:102C230009AC0AAD0B8022751000751100751200F6
:102C33007513017810790C121E2B78107908121D68
:102C4300F2AA10AB11AC12AD137F0C02213D90829E
:102C5300047808121E798A828B837808121E667F95
:102C63000402213D74F51220918C828D8378081221
:102C73001E798A828B837808121E3F122CBFC3E011
:102C83009CF0A3E09D122CB1402290821878081288
:102C93001E798A828B837808121E188A828B83A3FB
:102CA300A3A3A3E02420F0A3E0344EF080A0F08897
:102CB300828983C3E09420A3E0944E22EA2404F89B
:102CC300E43BF98C828D83A3A3A3A3E0FCA3E0FDE3
:102CD300888289832274F5122091E9FE9004D3E05F
:102CE300FAA3E0FBEE29F8E433F9744728F582747C
:102CF3008139F583E02AF508A3E03BF5097808124A
:102D03002238908234121E97122B3C7402121FCB6E
:102D13008A088B098C0A8D0B74107808121DBAAAC5
:102D230008AB097F0402213D74F11220918A0C8BB8
:102D33000D8C0E8D0F741112200112224F7411127B
:102D43002001E02401F508A3E03400F509E4F50AC5
:102D5300F50B780C7908121CB79081E87808121EDD
:102D630079780C7908121CB7AA0CAB0DAC0EAD0F19
:102D7300122B3C7402121FCB8B09EA450960047ABB
:102D83000180027A00EC2AFCE43DFD741312200159
:102D9300E0F8A3E0F9E8FEE9FFECF8EDF97A717BDE
:102DA30002121F2A88088909E4F50AF50B8E828F1F
:102DB300837808121E88ECF8EDF97A717B02121FF2
:102DC3002A8A088B0974057808121FA28E828F83C2
:102DD300A3A3A3A3E508F0A3E509F07F0802213D1F
:102DE300C082C083E9906000F0D083D08222C0E02B
:102DF30074F212217DA2AFE433FED2AFE589A2E1E2
:102E03005003121223758900C2C5EEA2E092AF7F70
:102E1300010221DCC0E074F212217DA2AFE433FE93
:102E2300D2AFE58BA2E05003121223758B00C2E8E8
:102E330080D8C0E0C0D0E8C0E0A8A8D2AFC2C7E83D
:102E4300A2E792AFD0E0F8D0D0D0E032C2AF020018
:102E5300002202011FFFFFFFFFFFFFFFFFC082C031
:102E630083E9901624F0D083D08202011F74F612F6
:102E73002025E99002E8F0900348E0F50875090081
:102E830074027808121FA2AA08AB0912132B90022E
:102E9300E91238239002E9123C10606F900348E076
:102EA30075F003A4FAABF012132B90030612382328
:102EB300900306123C10700B9002E9123BE11213CF
:102EC300318048900306124B757AFF7BFF12119FE6
:102ED3007A0080198A0875090074027808121FA203
:102EE30012461D74FF123023E4F0A3F00A90034846
:102EF300E0F8EAC39840DD790512084B9002E8E058
:102F0300F91207377AD57B08120ACD0246C074F44A
:102F13001220258A088B09EB548060479002E8E071
:102F2300F91212A18A0A8B0BAE0AAF0BEE4F602A7D
:102F33008E828F83E064B0701A12085DE960148E8C
:102F4300828F83A3A3A3A3E0F9EE2405FAE43FFB56
:102F530012082DEEFAEFFB12128FAA08E50964801E
:102F6300FB80047A007B0002317374F21220257413
:102F7300FB121FB5EAFEEBFFEE4F60457403122010
:102F830001EEF0A3EFF0851882851983ECF0A3ED31
:102F9300F07402122001E9F0AA18AB19120731E903
:102FA300F50870757413122001E0F50AA3E0F50B20
:102FB300E50A450B60638E828F831235ACEE4F704A
:102FC3000575080280537A067B0012132B8A0C8B3B
:102FD3000DA80CA90DE8497005750813803B88827C
:102FE3008983E4123023EEF0A3EF12313FE50AF0B8
:102FF300A3E50BF09002EC1231389002EC6017E07D
:10300300FCA3E08003EAFCEBFD8C828D8312313854
:1030130070F38C828D83124238A9087405024DF532
:10302300F0A3124B57A32274F21220258908890CAE
:10303300750D007403780C121FA2850C0A850D0B05
:103043009002EBF09002E9124043123136602E12E7
:1030530013317900801D890C750D007402780C12F0
:103063001FA29002E91244DC8882F583A3A3E4F053
:10307300A3F009900348E0F8E9C39840D9900348C6
:10308300E0FA850AF0A4CAA8F0850BF0A428FB1285
:10309300132B8A0C8B0DAE0CAF0DEE4F7003023168
:1030A3002C900348E0FC850AF0A4CCA8F0850BF033
:1030B300A428FD790012127D7C0080318D0C750DE2
:1030C300007403780C121FA28A828B831231318819
:1030D300828983E4F012313EA3A3F0A3F00DEDC384
:1030E300950840D8EE250AFEEF350BFF0C900348F8
:1030F300E0F8ECC39850288C0C750D007402780C22
:10310300121FA29002E9123131E82402500109FA98
:10311300E9FB8A828B83EEF0A3EFF07D0080BFE5AD
:10312300089002EBF0790080027913024DF8124403
:10313300E0F922A3A3123BE5EA4B22A3124B57A3C8
:10314300A3A32274F41220257900EAA2E0501F758C
:1031530008CE750981780812223879107C047D0025
:103163007A267B161208457402121FCBE9F98000F8
:103173007F040220F7C082C0839002EC123C1060EF
:103183001C88828983A3A3E06A7003A3E06B88820F
:10319300898370E8A3A3A3A3123BE180047A007B95
:1031A30000022E6974F212202574FD121FB5EAFE87
:1031B300EBFF851882851983E4F0A3F074021220D3
:1031C300017401F0123C0D7014120A0712132B90B4
:1031D30002EF123823123C0D7003023339123923E4
:1031E300EE2404F50AE43FF50B850A82F583E02417
:1031F300FE603C24FC607424FE607E24FE700302A7
:10320300328924FE700302329624FE70030232A335
:1032130024FE70030232B024FE70030232BD24FC8C
:1032230070030232DE24FE70030232F602333212DE
:103233000A079002F1EAF0A3EB123345120479E98D
:1032430060030233329002F112224F8E828F83A3E6
:10325300A3A3A3A3124B75850882850983123BE1BF
:103263001208157402121FCB023332AC18AD19EEDB
:10327300FAEFFB120863023301AC18AD19EEFAEF53
:10328300FB1208698078AC18AD19EEFAEFFB12084F
:103293006F806BAC18AD19EEFAEFFB120875805E08
:1032A300AC18AD19EEFAEFFB12087B8051AC18ADE8
:1032B30019EEFAEFFB1208818044740212200B8886
:1032C3000C890D780C122238740212201BEEFAEFCF
:1032D300FB1208877402121FCB8023AC18AD19EEC2
:1032E300FAEFFB12088DE9F870167402122001E45C
:1032F300F0803CAC18AD19EEFAEFFB120893E9F835
:10330300E8602C8E828F83A3E064146022850A8296
:10331300850B83E09002F1F0851882851983123BB7
:10332300E19002F2123823E8A3123345120473EE3C
:10333300FAEFFB1207EB7402122001E0F9740302A7
:103343004DF5F07CF17D02850882850983123BE50A
:103353002274E812202574FA121FB5740412200196
:10336300ECF0A3EDF08A128B13EA2405F50EE43595
:1033730013F50FEA2402F510E43513F511851082D5
:10338300F583123BE11205698A0A8B0B7508007CF1
:10339300037D0079007AF17B0212127DE50E24028F
:1033A300F516E4350FF517740212200B880C890DFE
:1033B300780C122238850E82850F83A3A3A3A3E082
:1033C300F50C750D00780C122238E50E2405F50C6A
:1033D300E4350FF50D780C12223885168285178394
:1033E300123EE812074F7406121FCB8A0C8B0DE5B1
:1033F3000C450D700302357580208518828519836D
:10340300E088828983F00508851882851983A3E003
:10341300C0E01235B6D0E0F00508E50A24FBFAE572
:103423000B34FFFBC3E5089AE49B40030235757E2A
:10343300007F00851282851383A3A3A3A3E0F5096C
:10344300780912223CE4F514F51578141222387524
:1034530014EE75150278141222389002EF12224FDF
:10346300740912200112224FE50A24F9F9AC0CADBC
:103473000D851082851183123BE11208BD74091278
:103483001FCBE96003023516850E82850F83A3A344
:10349300A3A3A3A3A3E0F89002EEE0687075E0F5A0
:1034A300148E157814122238124B72850E82850FF2
:1034B30083A3A3A3A3A3A3A3A3123BE11212777431
:1034C30002121FCBE9604C9002F2123C10703BE4F5
:1034D300F51478141222387CFF7DFF79078510825A
:1034E300851183123BE11208277402121FCB123C91
:1034F300167017850E82850F83124D0F74041220E8
:10350300011245D0123F190235A9850C82850D831E
:103513001235ACA818A91988148915781412223801
:10352300740412200112224F8516828517831238E4
:103533001912075B7404121FCB8A0C8B0DEE4F70AC
:10354300030233F21235B6EE1235C1123ECFEF123B
:1035530035C1F8A3E03400F9E50C450D60030233EF
:10356300FD8882898374FFF005081235B674FFF075
:103573000508E508601A1313543F1238291204850D
:10358300E960099002F2123BE11212E97900801618
:10359300850E82850F83124D0F740412200112458C
:1035A300D0124238790A023EA2A3A3A3A3E0FEA34A
:1035B300E0FF22A8089002F2E028123ECF22F00595
:1035C30008089002F2E0282274E812202574FA1207
:1035D3001FB574021220011238237404122001EC67
:1035E300F0A3EDF07402122001E02405123EB8E0CE
:1035F300F50CA3E0F50D7402122001E02402F5108E
:10360300A3E03400F511851082F583123BE1120526
:1036130069750800750900EA24FCFEEB34FFFF809E
:1036230008050CE50C7002050DA808C3EE98EF948D
:103633000050030237D5A818A919880E890F780EF0
:10364300122238851482851583A3A3A3A3124B7971
:10365300122238E5142405F50EE43515F50F780E1E
:1036630012223885148285158312381712074F7476
:1036730006121FCB8A0E8B0FEA450F70030237D554
:10368300EA2404F516E4350FF517851682F583E071
:10369300F50CA3E0F50D851882851983124B758A05
:1036A300828B83A3A3A3E0F9851082851183123B48
:1036B300E112073DE9F50960030237D574021220D0
:1036C30001123EDFF509780912223CE4F512F513E5
:1036D30078121222387512EE7513027812122238FC
:1036E3009002EF12224F740712200112224FEEF9BB
:1036F300AC0EAD0F851082851183123BE11208BD1C
:103703007409121FCBE9F50960030237D5E5087088
:103713003FE4F50EF50F780E1222387CFF7DFF791A
:1037230009851082851183123BE112082774021266
:103733001FCB123F05700D740412200112380C794F
:10374300110238099002EEE024029002F2F0801494
:103753009002F2E0FA9002EEE079002402500109AF
:103763006A497072A8089002EEE0FAE82AFAE43493
:1037730000FBEE9AEF9B405A851682851783E0C0C3
:10378300E09002F31235BBD0E0F005088516828580
:103793001783A3E0C0E0089002F31235BBD0E0F03A
:1037A30005089002EE124B79122238124B72A808C8
:1037B300123EAC1212657402121FCB9002EEE0258A
:1037C30008F50874FF650C700474FF650D6003024F
:1037D3003624E508601F9002F2E0F5F0E508841254
:1037E300382912048BE960099002F3123BE11212AB
:1037F300E979008011E509700375090A7404122040
:103803000112380CA909023EA2124047E50CF0A3AD
:10381300E50DF022A3A3124E04AA0CAB0D22A3A321
:10382300EAF0A3EBF0229002F1F07CF17D02851027
:1038330082851183123BE52274EC12202574FC125D
:103843001FB5124348740212201B123BDB120755AB
:103853008A0C8B0DEA450D7003023913123923A824
:1038630018A9198810891178101222387CFF7DFF5E
:10387300790B850882850983123BE11208277402BC
:10388300121FCB123A19700C850A82850B83123FE3
:10389300160239208E828F83A3A3A3A3E0F51278A7
:1038A3001212223CE4F512F5137812122238751223
:1038B300F175130278121222387810122238740923
:1038C30012200112224F7409122001E0F9AC0CAD51
:1038D3000D850882850983123BE11208BD74091224
:1038E3001FCBE9FE70157CF17D0285088285098373
:1038F300123BE1120491E97009802074166E700284
:103903007E009002F2123BE11212E9EE7004800B8A
:103913007E01850A82850B83124235EEF902424A03
:10392300EE2402F508E43FF5092274EC1220257415
:10393300FC121FB5EAFEEBFF8C0E8D0FEE2405F58E
:1039430008E43FF509740212201B85088285098368
:10395300123BE11207558A0C8B0DEA450D700302E9
:103963003A09EE2402F50AE43FF50BA818A91988D1
:1039730010891178101222387CFF7DFF790D123BDC
:10398300DB1208277402121FCB123A19700B850839
:1039930082850983123F16807A8E828F83A3A3A325
:1039A300A3E0F512781212223C850882850983A3CD
:1039B300A312224F7512F17513027812122238786E
:1039C30010122238740912200112224F7409122096
:1039D30001E0F9123BD71208BD7409121FCBE9FEAF
:1039E300700F7CF17D02123BDB120497E9700980B2
:1039F3002074166E70027E009002F2123BE11212E6
:103A0300E9EE7004800B7E018508828509831242EA
:103A130035EEF902424A123C20F510A3E0F511EA13
:103A230045112274E812202574FE121FB58A168BE5
:103A3300178C148D15EA2405F50CE43517F50DEAFA
:103A43002402F50EE43517F50F850E82F583123B3C
:103A5300E11205698A088B09750B007C037D0079E7
:103A6300007AF17B0212127D750A00E50814F51045
:103A73000424FFF508E50934FFF50980549002F1A9
:103A8300E0FA9002EEE0F8EA28F8E43400F9E508F9
:103A930098E50999500D9002F1E0F8E510C398906C
:103AA30002EEF0E0F5127513007812122238124B71
:103AB300729002F2E02AFAA3E03400FB121265745A
:103AC30002121FCB9002EEE0F89002F1E028F0051D
:103AD3000A850C82850D83A3A31244EC4003023BA9
:103AE300BC9002F1E0C39508E495094003023BBC96
:103AF300AE0AEE2EFEE433FF123BFBAC18AD1912F7
:103B03004B8DE439FB1207558A128B13AC12AD139C
:103B1300EC4D701B750B01123BEB1242399002F214
:103B230012313860031212E9A90B7402023EA48514
:103B33001682851783A3A3A3A3E0F50B780B1222A8
:103B43003CE4F512F51378121222387512EE751350
:103B53000278121222389002EF12224F74071220B9
:103B63000112224FA910850E82850F83123BE112A9
:103B730008BD7409121FCBE9F50B709B9002F2127A
:103B83003C106003023A80E4F512F5137812122216
:103B9300387CFF7DFF790F850E82850F83123BE111
:103BA3001208277402121FCB123C166003023A80DC
:103BB300123BEB123F1A023B2D7CF17D02850E82F4
:103BC300850F83123BE112049DE96003023B2079D8
:103BD30000023B2DAC0CAD0D850A82850B83123B95
:103BE300E522E0FAA3E0FB22123BFBE0FAA3E0F9B3
:103BF300EA85148285158322850C82850D83E02E48
:103C0300F8A3E03FF988828983229002EF124D13D3
:103C1300E84922123C20F8A3E0F9E849229002F295
:103C2300EAF0A3EBF09002F2E02274E8122025748C
:103C3300FA121FB574041220011238238C168D1743
:103C43007404122001E02405F50EA3E03400F50FFF
:103C53007404122001E02402123EB8123BE1120563
:103C6300698A0A8B0B7F007E00A818A91988088926
:103C7300097808122238850E82850F83A3A3A3A394
:103C8300E0F5088E097808122238E50E2405F508B8
:103C9300E4350FF5097808122238850E82850F83E3
:103CA300A3A3123EE812074F7406121FCB8A0C8B94
:103CB3000D8029123ED9F00F123ED9F00F9002EE7B
:103CC300124224122238124B72EFF8123EAC121237
:103CD300657402121FCB9002EEE02FFFE50C450D39
:103CE3007003023D6885188285198312435AA3A382
:103CF300A3E0F9851482851583123BE112073DE9A0
:103D0300FEE50C2404F510E4350DF511EE70507446
:103D130004122001123EDFF508780812223CE4F574
:103D230008F50978081222387508EE750902780833
:103D33001222389002EF12224F740712200112222E
:103D43004FE50A24FAF9AC0CAD0D85148285158371
:103D5300123BE11208BD7409121FCBE9FE60391250
:103D63003EF5124238EF7003023E8F9002F2E0F507
:103D7300F0EF849002F1F07CF17D028514828515C9
:103D830083123BE11204A3E960099002F3123BE1C1
:103D93001212E97900023EA28F08EF703BE4F5129C
:103DA300F51378121222387CFF7DFF791185148276
:103DB300851583123BE11208277402121FCB123FB1
:103DC300057009123EF5123F19023EA29002EEE081
:103DD30024049002F2F080359002EEE0F89002F2B3
:103DE300E0FAE82404FCE43400FDEC6A4D600302CD
:103DF3003D6EE50A24FAFAE50B34FFFBE50828F8E3
:103E0300E43400F9EA98EB995003023D6E85108281
:103E1300851183E0C0E09002F3E02FF8A3E03400C3
:103E23008882F583D0E0F00F851082851183A3E0AB
:103E3300C0E0123EC6D0E0F00F740212200B8808D7
:103E430089097808122238740212200112224F8540
:103E53000E82850F8312381712075B7404121FCB6F
:103E63008A0C8B0DEA450D7003023CB674021220D6
:103E730001E0C0E0123EC6D0E0F00F740212200150
:103E8300A3E0C0E0123EC6D0E0023CBEEE70027E6C
:103E93000A850E82850F83123EFB124238EEF974B7
:103EA30006121FCB7F100220F79002F3E028FAA33B
:103EB300E03400FB22F514A3E03400F515851482E9
:103EC300F58322123ECA229002F3E02FFAA3E034D4
:103ED300008A82F58322123ECA74FF22124047A34E
:103EE300A3A3A3E022124E04850E82850F83123B07
:103EF300E522851082851183124D1385168285175D
:103F030083229002F3EAF0A3EBF09002F3124D1335
:103F1300E8492212423EE8F0A3E9F079112274EA5B
:103F230012202574FE121FB58A088B098C128D137B
:103F3300EA2405FEE43509FFAC18AD198E828F83A0
:103F4300123BE11207558A0C8B0DEE2406F50EE4A5
:103F53003FF50FEA450D7003024019E5082402F509
:103F63000AE43509F50B8A828B83A3A3A3E0A2E5B8
:103F73005028851882851983123BE11208B18A10F3
:103F83008B11EA451160207912123BD78510828587
:103F93001183122023E9F50C707F850E82850F8330
:103FA300E0600979528011750C0E806D8508828559
:103FB3000983A3A3A3A3E0F9E4F508F5097808129C
:103FC30022388E828F83A3A3E0F508780812223863
:103FD3008E828F83A3A3A312224F8E828F83124BD1
:103FE30075123BDB1208C37406121FCBE9F50C7084
:103FF30011850E82850F83E0702D123BDB1204A91D
:1040030080257416650C7011750C0074181220014C
:10401300124043E48010750C01124D0B851282850A
:104023001383E8F0A3E9F0850E82850F83E0600433
:1040330079008002A90C7402121FCB7F0E0220F7B5
:1040430012404722E0F8A3E0F58388822274EC1241
:10405300202574F7121FB58A0A8B0B8C108D11EA79
:104063002405FEE4350BFF750C00AC18AD198E82E8
:104073008F83123BE11207558A088B09EA450970C1
:104083000302420FE50A2402F50A5002050B8A8255
:104093008B83A3A3A3E0A2E5502F85188285198300
:1040A300123BE11208B18A0C8B0DEA450D604F7982
:1040B30012AC08AD09123BDB850C82850D831220FF
:1040C30023E9F50C6003024212850A82850B83E023
:1040D300F508A3E0F509AA08FB1208A5EA4B701935
:1040E3007AFF7BFF1208A5EA4B70030242058A821E
:1040F3008B83E508F0A3E509F07508008008750CCB
:104103000E02421205089002EBE0F8E508C398405E
:104113000302420585080E750F007403780E121F03
:10412300A28A828B83A3A3E0250EF8A3E0350F12A6
:1041330045D970D08E828F8312422D1238238E82FE
:104143008F83A3A312422D123821EE2404F508E431
:104153003FF509850882F583E088828983A3A3A3B9
:10416300A3F0A3E4F0EE2405F50EE43FF50F850E6E
:1041730082F58312422DA3A3A3A31238217512073C
:104183007513007812122238EEFCEFFD740412202E
:10419300131212657402121FCBE4F5127812122265
:1041A30038850882850983E0FC7D007917123BDBA3
:1041B3001208277402121FCB74071220011238232E
:1041C3007407122001E0FA4B603D8508828509835C
:1041D300124224122238850E82850F83124B7512E8
:1041E30012657402121FCB740212201B123BDB12E6
:1041F30004AFE960267407122001123BE11212E9B1
:104203008019750C098008750C118003750C011257
:104213004D0B851082851183124238A90C740980D5
:1042230028E0F508750900780822123BE5888289A1
:10423300832212423EE8F0A3E9F022E0F8A3E0F97A
:10424300850E82850F83227404121FCB7F0C0220FC
:10425300F774EC122025124348751000EE2402F582
:104263000CE43FF50D850C82F583123BE11208A5A2
:104273008A088B09EA4509700302432C850A828563
:104283000B83E064016003024321AC08AD09AA0A71
:10429300AB0B120899E9606E850882850983123594
:1042A300AEEE2406F50AE43FF50B8E828F83A3A3BB
:1042B30012224F8E828F83A3A3A3A312224F850AB8
:1042C30082850B8312224F79188E828F8312435A71
:1042D300123BE11208C37406121FCBE9F874166887
:1042E300700B850A82850B83E4F0A38014E86012C7
:1042F3008E828F83123BE1850E82850F83EAF0A3C2
:10430300EBF088108018780E122238AC08AD09EE55
:10431300FAEFFB12089F7402121FCBE9F510AA08EB
:10432300AB091208ABE510700E850C82850D831264
:104333003BE11204B5800974166510700375100013
:10434300A91002424FEAFEEBFF8C0E8D0FEE2405FF
:10435300F50AE43FF50B22124E04850C82850D838A
:104363002274EA1220257508007509007E007F007B
:10437300750A00EC2402F510E43DF5118035EC6577
:10438300087003ED6509600302441988828983A3D9
:10439300A3E06A7003A3E06B707C88828983A3A384
:1043A300A3A3124D0FEE28FEEF39FFEA28FAEB39EB
:1043B300FB050A1244E9503A850A0C750D00740393
:1043C300780C121FA28510828511831244DC1245DA
:1043D300D9601FE508450970A58C088D0988828975
:1043E300831235AC88828983A3A3E02EFAA3E03F2E
:1043F30080BEE50AC3940250030244D775080075D2
:104403000900EE4F6010EEFAEFFB1212E38A0E8BF7
:104413000FEA450F700579000244D9750B00024479
:10442300AC850B0C750D007403780C121FA285105C
:1044330082851183E0250CF50CA3E0350DF50DE520
:104443000C2406F514E4350DF515851482F5831255
:1044530045DE6042E50C2404F512E4350DF51385C1
:104463001282F58312224FE50E2508FAE50F35096E
:10447300FB1212657402121FCB851282851383E02F
:104483002508F508A3E03509F50985148285158308
:10449300123BE11212E9E50B600D7C087D00790007
:1044A300AA0CAB0D12127D050BE50BC3950A500345
:1044B300024424851082851183124D0F88828983DB
:1044C300A3A3A3A3A3A3E50EF0A3E50F12313FEE2D
:1044D300F0A3EFF0790102403E1244E022E0250C04
:1044E300F8A3E0350D229002EBE0F8E50AC3982229
:1044F30074F01220258A0E8B0F8C0A8D0B750D001C
:10450300750C0080507916EE2406F508E43FF50992
:104513008E828F83A3A312224F8E828F83A3A3A3A2
:10452300A312224F85088285098312224F850E82AA
:10453300850F83A3A3123BE11208C37406121FCB9A
:10454300E9F50D7416650D706C850882850983E4A1
:10455300F0A3F0050C9002EBE0F8E50CC39850666D
:10456300AA0C8A0875090074037808121FA2850A29
:1045730082850B83A3A3124628E8FEE9FF8E828F70
:10458300831245DE6040EA2401F508E43400F509AE
:104593009002EBE065087002E50960148882898364
:1045A300A3A3A3A3A3A3A3A3123C106003024508E0
:1045B300791802450AE9609B124D0B741012200111
:1045C3001245D0124238A90D7F080220F7E0FAA362
:1045D300E0F5838A8222F988828983124E04EC4DA6
:1045E3002274F61220257C0080010C900348E0F829
:1045F300ECC398501E8C0875090074027808121FCA
:10460300A212461DE06A7003A3E06B70DDE8FAE9CD
:10461300FB80047A007B000246C09002E912462820
:104623008882898322E02508F8A3E03509F92274FA
:10463300F21220258A088B09750A0080278E828F43
:1046430083A3A3A3A312313660031212E97C087D6E
:10465300007900EEFAEFFB12127D8E828F83E4F075
:10466300A3F0050A1244E95027850A0C750D00745E
:1046730003780C121FA2850882850983A3A3E02572
:104683000CFEA3E0350DFF8E828F83123C1070ADBC
:1046930085088285098374FFF0A3F0024DF874F650
:1046A3001220251208578A828B83E5824583700680
:1046B3007A007B008007A3A3A3A3123BE17F02023E
:1046C30020F774F412202589088C828D83E064021C
:1046D300703C124CAEFEA3E0F9EEF874026870036E
:1046E3007429697029750A02750B00780A12223839
:1046F300741012200112224F741012200112224F43
:10470300A9081211B17406121FCBE9F980027901CD
:1047130002317374E812202574FB121FB5E9851862
:1047230082851983F08A168B17ECFEEDFF75100056
:104733008E828F83A3A3A3E0A2E4502D741D1220C5
:1047430001123BE11208B18A828B83E582458370B3
:1047530003024B4D790AEEFCEFFDAA16AB171220AC
:1047630023E9F5106003024B50741F122001E0F59A
:1047730008A3E0F5097421122001E0F50AA3E0F58E
:104783000B7423122001E0F50EA3E0F50F8E828F48
:1047930083E064026003024AEEA3124D0F85088290
:1047A300850983A3858212858313EE2406F50CE421
:1047B3003FF50D88828983124B8DF514E439F51585
:1047C30078141222C2010000280128F047070002D2
:1047D30028B548032823480029E44901290F4A0240
:1047E30029B0490329E4490429884AEE4AE50E45DC
:1047F3000F6003024AE9850C82850D83124D0FE891
:10480300FAE9FB8A828B83E0850A82850B83124B4C
:10481300981222388A828B83A3E0FCA3E0024A72B7
:10482300E50E450F6003024AE9850A82850B83740E
:1048330001F0124B82850882850983F07C007D009C
:104843008E828F83A3A3A3A3E02401FAA3E0340001
:10485300FB120755EA4B60408A828B83E02402F8FF
:10486300850A82850B83E028F0EA2404F8E43BF907
:1048730088828983E0851282851383124BA6124BAB
:10488300981222388A828B83A3124B75E50824037E
:10489300FAE43509FB024A77850A82850B83E02413
:1048A30004F07C047D007900AA12AB1312127D027E
:1048B3004B50E50E450F6003024AE9124B82FEA3FB
:1048C300E0FF850A82850B837404F0EE85088285F8
:1048D3000983F0EF851282851383F0740312201B82
:1048E300EEFAEFFB1207558A0C8B0DEA450D7003A8
:1048F3000249938A828B83A3A31235AC74011220DD
:104903000B880E890F780E122238740512200112BB
:10491300224F7CFF7DFF12075B7404121FCB8B0FAA
:10492300EA450F7033850C82850D83124B79122271
:1049330038850C82850D83A312224F7C027D007A79
:104943006B7B821205577404121FCBE9700A740142
:1049530012200174FFF0A3F08E828F83E064027053
:1049630039750C02750D00780C1222388E828F83F4
:10497300A3124B75E5082404FAE43509FB1212650A
:104983007402121FCB850A82850B83E024028009FF
:104993007401122001EEF0A3EFF074011220011252
:1049A3004B677401122001124B5E024AE3E50E4588
:1049B3000F6003024AE9850C82850D83124DFDAA1F
:1049C30016AB171211B7850A82850B837402F08523
:1049D3000882850983EAF0851282851383EB024AF4
:1049E300E6E50E450F6003024AE9124B82F8A3E0A5
:1049F300F9850A82850B837402F0E88508828509AC
:104A030083F0E9851282851383024AE6850C828549
:104A13000D83123BE112125FEAFAF8C3950EE49597
:104A23000F405CE8650E450F70047A0080218518FD
:104A330082851983E0FCE50E2CFCE4350FFDC3EC05
:104A430098ED94005003E08005E50ECAC39AFAEA94
:104A5300850A82850B83F08A0A750B00780A122275
:104A630038850C82850D83E0250EFCA3E0350FFD10
:104A7300AA08AB091212657402121FCB024B5075C0
:104A83001007024B50E50E450F705B850C82850DB8
:104A930083124D0F850A82850B837407F088828900
:104AA30083124B5F124B57E0851282851383F0E824
:104AB3002402FAE439FB8A828B83124B678A828B46
:104AC30083124B5EA3A312313E124B6CF0E8240514
:104AD300F850010988828983124B6CA3124BA6A359
:104AE300A3A3A3F0806775100B8062741D122001CD
:104AF300123BE11208578A828B83E5824583604A21
:104B0300124D0F880C890DE8450D603E7425122067
:104B130001E0F510781012223C780E122238780A40
:104B230012223878081222387407122001E0F9EEB5
:104B3300FCEFFDAA16AB17850C82850D831220238B
:104B43007407121FCBE9F510800375100EA91074BA
:104B530005023EA4F088828983A322A3E08508820C
:104B630085098322124BADF022124BADA3A32290F1
:104B730002EF124E0422E0F50E750F00780E228527
:104B83000C82850D83124047E022E0FAA3E0F8E4AB
:104B9300C8F9EA2822F08A828B83E0F50A750B00B4
:104BA300780A22124B57124BAD22E0850882850901
:104BB30083A3A32274EE12202574FE121FB58A0864
:104BC3008B09ECFEEDFF890AAC18AD19EEFAEFFB89
:104BD3001207558A0C8B0DEA450D7003024C9F8515
:104BE3001882851983123BE11208578A828B83E569
:104BF3008245837003024C9AA3A3124D0F880E893A
:104C03000FE8450F7003024C9A7414122001E0F56B
:104C130010A3E0F511E50AF50B780B12223C741989
:104C230012200112224F7810122238741B12200115
:104C3300E0F9AC0CAD0DAA08AB09850E82850F8394
:104C43001220237405121FCBE9F50B705274FE6515
:104C53000A604C850C82850D83E064027041124C1E
:104C6300AEFAA3E0F9EAF874026870037429697074
:104C73002E851082851183124B8DF50CE439F50DC9
:104C8300780C122238EEFCEFFDAA08AB091208DB00
:104C93007402121FCB8008750B0E8003750B01A9DC
:104CA3000B7402121FCB7F0A0220F7A3124D138845
:104CB300828983E02274F612202574FE121FB574D4
:104CC3000C122001124D0FE8851882851983F074A8
:104CD30001122001E9F0E4F508F5097808122238F9
:104CE3007508027808122238740412200B88088988
:104CF30009780812223879FE1208C37406121FCBF2
:104D03007402121FCB0246C08E828F83124D132270
:104D1300E0F8A3E0F92274F7122025EAFEEBFF89FD
:104D230008900306124B751211B7EA5402600BA9DF
:104D330008EEFAEFFB120749800279017F01022096
:104D4300F774F212202574FE121FB5EAFEEBFF89F9
:104D53000A7401650A60147402650A6003024DF364
:104D63007901120AEBE96003024DF3EEFAEFFB124D
:104D730008A5EA4B60031208ABA818A9198808898B
:104D8300097808122238750802750900780812227A
:104D93003875087175098278081222387CFF7DFF07
:104DA3007A017B0012074F7406121FCB80388508E7
:104DB30082850983A3A3A3A3A3A3124DFDEEFAEF58
:104DC300FB12119FE4F50CF50D780C1222387402D6
:104DD30012200112224F7CFF7DFFAA08AB091207A4
:104DE3005B7404121FCB8A088B09E508450970BE62
:104DF3007402121FCB7F060220F7124047124E04A3
:104E030022E0FCA3E0FD2274F41220258A088B091A
:104E1300ECFEEDFF901624E0F4604B7A097B001260
:104E23001289EA4B60408A828B8374B1F0A3E41247
:104E33004E6CF08A828B83A3A3E508F0A3E50912E5
:104E43004E6CA3EEF0A3EFF0740C122001124D0F81
:104E53008A828B83A3A3A3A3A3A3A312423890168E
:104E630024E0F9121295023173F08A828B83A3A393
:104E7300A3A32274F012202574FA121FB58909EC3A
:104E8300FEEDFF7508008A0A8B0B780A12227C005C
:104E930004109C50B94ED74EF14E094F274F3F4F48
:104EA300624F7A4F8E4FB84F335044505B50765019
:104EB3009C509C50CE4F7401650960030250978E3D
:104EC300828F83E0F8C394034003025097E890175E
:104ED300D60250737402650960030250978E828F65
:104EE3008312580B9017D7E8F0A3E90250737401AB
:104EF300650960030250971250C44003025097E8BB
:104F030090075C0250737401650960030250978E29
:104F1300828F83E0F8C394054003025097E890071B
:104F23005D0250737401650960030250971250C407
:104F33004003025097E890075E02507374106509AE
:104F43006003025097750A10750B00780A12223815
:104F53007A5F7B071212657402121FCB0250BD7475
:104F630001650960030250971250C4400302509731
:104F7300E890076F0250737401650960030250974C
:104F83008E828F83E09017DA025073740465096090
:104F9300030250978E828F83780C121E799082348D
:104FA300780C1214CD5003025097900771780C12AD
:104FB3001E880250BDE960030250971206EFE970A4
:104FC30005121163805590080480617407650960B8
:104FD30003025097750A06750B00780A1222388E61
:104FE300828F83A3AC82AD83740212201312126BDF
:104FF3007402121FCB7C007D00AA18AB198E828F1E
:1050030083E0F912110FE9FEC3940A40030250BA78
:105013001206EFE9700CEEF912116979501213A31D
:10502300806D74052EF582E43408F58374018040A5
:1050330074016509705E1250C45059E8900770807E
:105043002F74016509704D8E828F83E0F8C3940A33
:105053005042E89017D980187401650970368E8222
:105063008F83E0F874F928C3940A5028E89017DB7B
:10507300F0804774016509701B900803E0F88E8285
:105083008F83E0900803F0E87030E06401702B1226
:10509300115780267508188021C3EA9427EB9400E2
:1050A300501574026509700F8E828F831262DA12B3
:1050B300056FE9F5088003750802A9087406025311
:1050C300EA8E828F83E0F8C3940222A908800574D4
:1050D3000E121FCB7F040220F774F012202574B147
:1050E300121FB58C0A8D0B9081DA742012201B7469
:1050F30006121EC8742012201B12110FE9FF745FE1
:10510300122001E0F509EFC3940A400302525E75D1
:10511300F006EFA4F508744112201B7A0E742025C3
:1051230008F912139DE97009744D122001E0FE8005
:10513300027E009017D6E064027005750E018003AD
:10514300750E0074086509700474228002742125A9
:1051530008F50D7C1B7D00790074261220131212B2
:105163007D742612201B7A1BA90D12139DE9702D45
:105173007440122001E024F9C3940A5020E50EF58F
:105183000D780D12223C742712201BEEA2E0E433AB
:10519300F9AA0AAB0B1206117401121FCB7C147D02
:1051A300007900740C12201312127D740C12201B50
:1051B3007A1074242508F912139DE970347C107950
:1051C300FF740C1220131212DDE97025741C1220D7
:1051D30001AC82AD837A0474252508F912139D74FA
:1051E3000C12201BEEA2E0E433F9AA0AAB0B120562
:1051F300F9AC18AD197A0C74702FF912139DE9707C
:1052030049AA18AB1912113F7F00EF75F003A4F8F8
:10521300A9F0851882851983E58228F8E583125958
:10522300AE125B90601D88828983A3A3E0F50E759F
:105233000F00780E122238AA0AAB0B1208C97402A7
:10524300121FCB0FEFC3940440C0EEA2E1500C90A9
:10525300075BE0F9AA0AAB0B1208CF740465097067
:10526300289017D6E0640270207A0090076FE06000
:10527300027A0190075CE06004780480027800E819
:105283004AF9AA0AAB0B1206C57900744F0253EA16
:1052930074F71220251206EFE9704F900804E064BA
:1052A300017015121163900804E4F07C0AFDF97A89
:1052B300057B0812127D802A750800A8087405284A
:1052C300FEE43408FF8E828F83E06401700BA9082B
:1052D3001211698E828F83E4F00508E508C3940AEE
:1052E30040D979501213A3121157025CCD74F012F6
:1052F300202574F0121FB5EAFEEBFF8C088D0975AB
:105303000A0AE9600C14600914603B14607D0253BF
:10531300E6121151E9F50AC3940A40030253E6E584
:1053230008450970030253E6750C06750D00780CE9
:10533300122238EEFCEFFDAA08AB091212657402C3
:10534300121FCB0253E6750C00750E06750F00781D
:105353000E122238EEFCEFFDE50C75F00EA4F8A951
:10536300F0747D28FA740739FB1212777402121F46
:10537300CBE9700B050CE50CC3940A506680CA8513
:105383000C0AE50AC3940A505A8049750C00AC18FC
:10539300AD197A1075F006E50CA42423F912139DB8
:1053A300E9701C7C1079FFAA18AB191212DDE970A1
:1053B3000EEEFCEFFDAA18AB191205D5E9600B053B
:1053C3000CE50CC3940A501B80C4850C0AE50AC380
:1053D300940A500FE50845096009AA08AB09A90A10
:1053E30012114BA90A7410121FCB7F080220F77405
:1053F300F4122025890975081574FF6A700374FF78
:105403006B70277E00AC097A027B00EEF912112D36
:10541300E960037508000EEEC3940A40E8E50960ED
:10542300537A7B7B11120B0F804A120ADF8A0A8B95
:105433000BAE0AAF0BEE4F60387C007D00EE240507
:10544300FAE43FFB8E828F83A3A3A3A3E0F9121197
:105453000FE9F9C3940A500CAC097A027B001211CC
:105463002D750800E509600CEEFAEFFB12117B8045
:10547300037508140250CE74F2122025ECFEEDFFE2
:10548300750815740E122001E0F50AA3E0F50B74FC
:10549300FF6A700374FF6B7021750900AC0AAD0BD2
:1054A300EEFAEFFBA909121133E960037508000551
:1054B30009E509C3940A503F80E2120ADF8A828B0E
:1054C30083E5824583602D7C007D00E5822405FA17
:1054D300E43583FBA3A3A3A3E0F912110FE9F9C3F6
:1054E300940A5013AC0AAD0BEEFAEFFB12113375AD
:1054F30008008003750814A9087F060220F7C082FC
:10550300C083900775EAF0A3EBF090075BE0FC7DA6
:10551300007A267B0012056F90075BE0F9120833CF
:10552300025FE774EE12202574EC121FB58A088B14
:1055330009EA240CF510E43509F5118A828B83A35B
:1055430085820C85830DEA2405F50EE43509F50FF4
:10555300EA2409F50AE43509F50BEA2403FEE435E8
:1055630009FF8A828B83A3A3E024FA70030257EA1C
:1055730024FD700302570A147003025604146010CA
:1055830024FD70030256ED1470030257420257F0D4
:105593001262E06044E0F583888212580B880C891C
:1055A3000DE8450D6033851082851183E0F50E7893
:1055B3000E12223CEA240BF582E43509F583E0F967
:1055C3001262D40A0A0AEFFB850C82850D8312202E
:1055D300237401121FCB0257F0850A82850B8312B5
:1055E300224F900771121E9712060B7402121FCBE3
:1055F300E970030257F07901850A82850B8302570C
:10560300BA750A00850C82850D83E060030256BAE1
:10561300850E82850F83E0A2E040030256BA90080C
:105623000F1262E360030256BA7C0E7D007900AA72
:1056330018AB1912127D851082851183125FB2EAAD
:105643004B6010750A06750B00780A122238EA249B
:1056530010801B125FAE120ADFEA4B70030257F091
:10566300750A06750B00780A122238EA2405FCE451
:105673003BFD74021220131212657402121FCB85B4
:105683000E82850F83E0A2E25004D2F08002C2F0C2
:10569300A2F0E433F8740C12200112616212114576
:1056A300E970117A027B0090075BE0F91212B97975
:1056B300000257F2750A151262E070030257F012E6
:1056C300581170030257F0850C82850D83E0FC7935
:1056D300011257FC122023E50A70030257F0FC79EC
:1056E30003125FAE125F690257E51262E0700302B4
:1056F30057F012581170030257F0850C82850D8301
:10570300E0FC79020257E27C007D00EA2404FAE41B
:105713003509FB8E828F83E0F912110FE9F8C394E8
:105723000A40030257F0E508240AFCE43509FD7A30
:105733000475F006E8A42425F91213970257F01212
:105743005FAE900770E060079017D9E0F9806B9027
:1057530017D6E0700479058061120ADF8A0C8B0D7D
:10576300A80CA90DE84970030257F0E82404F50CCE
:10577300E439F50D850882850983A3A3A3A3A3A315
:10578300A3E0A2E05039850C82850D83E0F5086023
:105793002E850A82850B83A3E054027022740E12B5
:1057A300201BE82405FAE439FBA90812110FE9705C
:1057B3000E79038E828F83125FB2120605802EACA0
:1057C3000EAD0F850C82850D83E0F9125FAE1211C9
:1057D300871262E0601712581160127C0079001280
:1057E30057FC1220238006125FAE1211097901744F
:1057F30014121FCB7F0A0220F78E828F83E0FAA355
:10580300E0FB888285098322E0F8A3E0F922125F96
:1058130077F98909E845092274F412202574F212F4
:105823001FB5EAFE8C0B75F006E9A42420F508AC3D
:1058330018AD197A0EF912139DE970487C0679FFA9
:10584300AA18AB191212DDE9703A740C1220011276
:10585300580BE8F509E50B6005EE42098004EEF408
:105863005209AA09E86A7001E96015740C12200153
:10587300EAF0A3E4F0AC18AD197A0EA90812139755
:105883007901800279000250D274F212202574E665
:10589300121FB5890A8A088B09ECFEEDFF740C12FE
:1058A300201B7A0E75F006E9A42420F912139DE952
:1058B30060030259717C0679FF740C1220131212D3
:1058C300DDE960030259717470250AF50BAC18AD5C
:1058D300197A0CF912139DE9600302596DAA18ABEA
:1058E3001912113FE5084509701D7C0C7900AA18AF
:1058F300AB191212DDE970727C0C7D007900AA18D5
:10590300AB1912127D8051AC18AD19AA08AB09125C
:1059130011398A0C8B0DA80CA90DE8497022EE4FA2
:10592300604CAC18AD197A007B00121139EAF8EB20
:10593300F9EA4B603988828983E508F0A3E509F029
:105943001259EAFAEE6A7001EF601FEEF04F700829
:1059530088828983E4F0A3F0AA18AB1912113FAC33
:1059630018AD197A0CA90B121397790180027900EB
:10597300741A121FCB0254FC74F71220257E00EE1A
:1059830075F003A4F8A9F0EC28F8ED1259AEE06A1B
:105993007003A3E06B7006E8FAE9FB800B0EEEC31D
:1059A300940440DB7A007B00025CCD39F98882895C
:1059B300832274F71220257C00EC75F003A4F8A968
:1059C300F0EA28F8EB1259AEE0F4FEA3E0F4FF8806
:1059D300828983EEF0A3EFF01259EAF4F00CECC3E2
:1059E300940440D5025CCDE82402F582E439F583C2
:1059F300E02274F412202574F4121FB5EAFEEBFFC3
:105A03008C088D0990080F1262E37050EE4F603FCF
:105A1300EC4509603A121151E99017DCF0C3940A7E
:105A2300403A750A007C0679FFE50A75F00EA4FA80
:105A3300ABF074772AFA74073BFB1212DDE9701698
:105A4300050AE50AC3940A40DC9017DC740AF0796E
:105A530001740C0250D4E50A9017DCF09017DCE0D7
:105A6300C3940A50EA75F006E0A4FB90080F126293
:105A7300E37063EEFCEFFD7A0E74202BF91213979B
:105A83007C0C7D0079FFAA18AB1912127DAC18ADFE
:105A9300197A0C9017DCE02470F9121397750A0E2B
:105AA300750B00780A122238EEFCEFFD9017DCE04C
:105AB30075F00EA4F8A9F0747728FA740739FB126D
:105AC30012657402121FCB90080FE508F0A3E509D5
:105AD300F07900025A54E0C82406125B8A60197AEE
:105AE3001B74212BF9121397125B762406F582E4BB
:105AF30038F583E4F0A380D8125B76240A125B8A1C
:105B030060107A1B74222BF9121397125B76240A06
:105B130080DB125B76240C125B8A60107A1074238C
:105B23002BF9121397125B76240C80C1125B7F1240
:105B33005B8A60307A1074242BF9121397125B7FFF
